:020000040800F2
:10000000002000205D570008995300089B5300080A
:100010009D5300089F530008A153000800000000F2
:10002000000000000000000000000000A3530008D2
:10003000A553000800000000A7530008A9530008BA
:10004000A5570008A5570008A5570008A5570008A0
:10005000A5570008A5570008A5570008A557000890
:10006000A5570008A5570008A5570008AD5300087C
:10007000A5570008A5570008A5570008A557000870
:10008000A5570008A5570008A55700080000000064
:10009000000000000000000000000000A55700085C
:1000A000A5570008A5570008A5570008A557000840
:1000B000A5570008A5570008A5570008A557000830
:1000C000A55700080000000000000000A557000828
:1000D000A5570008B1530008A5570008A557000808
:1000E000A5570008A5570008A55700080000000004
:1000F0000000000000000000000000000000000000
:1001000000000000000000000000000000000000EF
:100110000000000000000000A5570008A5570008D7
:1001200000000000000000000000000000000000CF
:1001300000000000000000000000000000000000BF
:1001400000000000000000000000000000000000AF
:10015000000000000000000000000000000000009F
:10016000000000000000000000000000000000008F
:10017000000000000000000000000000000000007F
:10018000000000000000000000000000000000006F
:10019000000000000000000000000000000000005F
:1001A000000000000000000000000000000000004F
:1001B000000000000000000000000000000000003F
:1001C0000000000000000000000000005FF808F1DF
:1001D00010B5054C237833B9044B13B10448AFF381
:1001E00000800123237010BD900200200000000059
:1001F0003C5B000808B5034B1BB103490348AFF350
:10020000008008BD00000000940200203C5B000854
:100210000E4A1346D168C907FCD4D168890644BF89
:100220002021D1601A6942F002021A6158611A69EC
:1002300042F040021A61054BDA689206FCD5202292
:10024000DA601A6922F002021A6170470020024047
:10025000034B044A5A6002F188325A60704700BF6B
:100260000020024023016745024A136943F08003DE
:100270001361704700200240114B10B51A46DC682C
:10028000E407FCD4DC68A40644BF2024DC601369C6
:1002900043F0010313610A4A8BB203801346D4680A
:1002A000A406FCD52024090CD4604180DA689206AB
:1002B000FCD52022DA601A6922F001021A6110BD11
:1002C0000020024038B572B6FFF7C2FF104805F0B3
:1002D00035F9104C00224FF4CE710F4805F06CF93F
:1002E0000B4805F02BF9002221680C4805F064F951
:1002F0000B48FFF78DFF0B4D094854F8041BFFF71F
:10030000BBFF0430A842F8D1FFF7AEFF62B638BD9C
:10031000545C0008540800205C5C0008635C000822
:1003200000E401089CE50108054A064B064953F81C
:10033000040B8B4242F8040BF9D10120704700BF37
:100340005408002000E401089CE50108F8B50468A1
:1003500007468C420D4601D394421BD900260E4B12
:100360000E481E7005F0EAF8324639460C4805F092
:1003700023F90A4805F0E2F821463246094805F01B
:100380001BF9064805F0DAF832460749074805F038
:1003900013F92C462046F8BD00000020545C0008EC
:1003A000695C0008805C000800EC0108925C0008B1
:1003B00010B5194C6068FFF72BFFD4E90010FFF768
:1003C0005BFFD4E90210FFF757FFD4E90410FFF7F1
:1003D00053FFD4E90610FFF74FFFD4E90810FFF7E9
:1003E0004BFFD4E90A10FFF747FFD4E90C10FFF7E1
:1003F00043FFD4E90E10FFF73FFFD4E91010FFF7D9
:100400003BFFD4E91210FFF737FF044805F096F8D8
:10041000034805F02DF810BD04000020545C0008CE
:10042000A95C000810B5194C6068FFF7F1FED4E92B
:100430000010FFF721FFD4E90210FFF71DFFD4E9F8
:100440000410FFF719FFD4E90610FFF715FFD4E9F0
:100450000810FFF711FFD4E90A10FFF70DFFD4E9E8
:100460000C10FFF709FFD4E90E10FFF705FFD4E9E0
:100470001010FFF701FFD4E91210FFF7FDFE04484A
:1004800005F05CF8034804F0F3FF10BD54000020B1
:10049000545C0008C25C000838B5244C4FF48072EC
:1004A00000216068FFF752FF4FF47A72206000214C
:1004B000E068FFF74BFF4FF47A72A060002160699B
:1004C000FFF744FF1A4D20612A460A21E069FFF731
:1004D0003DFF2A46A0610A21606AFFF737FF2A46DE
:1004E00020620A21E06AFFF731FF2A46A0620A2152
:1004F000606BFFF72BFF2A4620630A21E06BFFF7B2
:1005000025FFC822A0634621606CFFF71FFFC822A9
:100510000A212064E06CFFF719FFA064054805F08C
:100520000DF8054804F0A4FF38BD00BF040000200A
:10053000A0860100545C0008E25C000838B5244C39
:100540004FF4807200216068FFF700FF4FF47A7269
:1005500020600021E068FFF7F9FE4FF47A72A06096
:1005600000216069FFF7F2FE1A4D20612A460A2138
:10057000E069FFF7EBFE2A46A0610A21606AFFF7F7
:10058000E5FE2A4620620A21E06AFFF7DFFE2A46DE
:10059000A0620A21606BFFF7D9FE2A4620630A2178
:1005A000E06BFFF7D3FEC822A0634621606CFFF723
:1005B000CDFEC8220A212064E06CFFF7C7FEA064CC
:1005C000054804F0BBFF054804F052FF38BD00BFEA
:1005D000A4000020A0860100545C0008FC5C000818
:1005E00010B5174C6068FFF713FED4E90010FFF751
:1005F00043FED4E90210FFF73FFED4E90410FFF7F1
:100600003BFED4E90610FFF737FED4E90810FFF7E8
:1006100033FED4E90A10FFF72FFED4E90C10FFF7E0
:100620002BFED4E90E10FFF727FED4E91010FFF7D8
:1006300023FE044804F082FF034804F019FF10BDB4
:1006400054010020545C00081F5D000810B5174CD1
:100650006068FFF7DDFDD4E90010FFF70DFED4E977
:100660000210FFF709FED4E90410FFF705FED4E9F4
:100670000610FFF701FED4E90810FFF7FDFDD4E9ED
:100680000A10FFF7F9FDD4E90C10FFF7F5FDD4E9E6
:100690000E10FFF7F1FDD4E91010FFF7EDFD04484F
:1006A00004F04CFF034804F0E3FE10BD9C01002061
:1006B000545C0008355D000810B5224C4FF4807280
:1006C00000216068FFF742FE0A2220600121E068F5
:1006D000FFF73CFE4FF47A72A06001216069FFF7DA
:1006E00035FE4FF47A6220610121E069FFF72EFEAA
:1006F0004FF47A62A0610121606AFFF727FE42F29F
:10070000107220620021E06AFFF720FE42F21072B0
:10071000A0620021606BFFF719FE642220630021B4
:10072000E06BFFF713FE03220121A063606CFFF76B
:100730000DFE2064044804F001FF044804F098FE14
:1007400010BD00BF54010020545C0008525D000839
:1007500010B5224C4FF4807200216068FFF7F6FD5F
:100760000A2220600121E068FFF7F0FD4FF47A7261
:10077000A06001216069FFF7E9FD4FF47A62206112
:100780000121E069FFF7E2FD4FF47A62A0610121E7
:10079000606AFFF7DBFD42F2107220620021E06A1E
:1007A000FFF7D4FD42F21072A0620021606BFFF7E8
:1007B000CDFD642220630021E06BFFF7C7FD03221B
:1007C0000121A063606CFFF7C1FD2064044804F0C0
:1007D000B5FE044804F04CFE10BD00BFE40100204B
:1007E000545C0008695D000838B5124D124C28466B
:1007F00004F0A4FE0022A168104804F0DDFE606849
:10080000FFF706FDD4E90010FFF736FDD4E902102A
:10081000FFF732FDD4E90410FFF72EFDD4E90610EE
:10082000FFF72AFD284604F089FE054804F020FE63
:1008300038BD00BF545C0008F4000020895D00084A
:10084000985D000810B50D4C6068FFF7E1FCD4E935
:100850000010FFF711FDD4E90210FFF70DFDD4E9F8
:100860000410FFF709FDD4E90610FFF705FD044861
:1008700004F064FE034804F0FBFD10BD14010020E9
:10088000545C0008B65D000838B5114C4FF4807216
:1008900000216068FFF75AFD0E4D20602A460021B6
:1008A000E068FFF753FD2A46A06000216069FFF76A
:1008B0004DFD012200212061E069FFF747FDA061A5
:1008C000054804F03BFE054804F0D2FD38BD00BFEA
:1008D000F400002000286BEE545C0008DD5D000889
:1008E00038B5114C4FF4807200216068FFF72EFD7F
:1008F0000E4D20602A460021E068FFF727FD2A46BA
:10090000A06000216069FFF721FD01220021206124
:10091000E069FFF71BFDA061054804F00FFE0548E4
:1009200004F0A6FD38BD00BF3401002000286BEEA6
:10093000545C0008FC5D000870B501240E4D2C705D
:1009400072B6FFF7A1FFFFF7B7FEFFF7A5FD62B68E
:100950002E780A483EB904F0F1FD094804F088FDFC
:100960002C70304670BD04F0E9FD064804F080FDAF
:1009700026462C70F5E700BF00000020545C0008FC
:10098000245E00083D5E000870B51446C0B00646FF
:100990000D464FF480726846074905F0B9F82046C5
:1009A00016F8012B013D424015F0FF051DF802002D
:1009B000F6D140B070BD00BF545B000838B572B6C8
:1009C000144D00224C212846FFF7DEFF044645F86F
:1009D000040CFFF73DFCFFF7EBFCFFF7AFFD002237
:1009E0004C210D48FFF7D0FF84420C4809D104F098
:1009F000A5FD0B4804F03CFDFFF736FC62B6012074
:100A000038BD04F09BFD074804F032FDFFF7D0FC31
:100A1000F2E700BF08000020A8000020545C000896
:100A20007D5E0008A25E000838B572B6244D002233
:100A300044212846FFF7A8FF0446224804F07EFD23
:100A400000222146204804F0B7FD1E4804F076FD40
:100A5000002244211D4804F0AFFD45F8044CFFF787
:100A6000F7FBFFF7BDFDFFF773FE00224421184896
:100A7000FFF78AFF0546134804F060FD002229466F
:100A8000114804F099FD0F4804F058FD0F4800226A
:100A9000442104F091FDAC420A4809D104F04EFD16
:100AA0000C4804F0E5FCFFF7DFFB62B6012038BD1F
:100AB00004F044FD084804F0DBFCFFF791FDF2E789
:100AC00058010020545C0008D25E0008DD5E00087A
:100AD000E8010020E95E00080B5F000870B572B6FF
:100AE0001C4D00221C212846FFF74EFF044645F806
:100AF000040CFFF7ADFBFFF777FEFFF7F1FE16489A
:100B000004F01CFD696900221448154D04F054FDE1
:100B1000114804F013FD0022A969104804F04CFDAF
:100B200000221C21281DFFF72FFF84420A4809D10B
:100B300004F004FD0B4804F09BFCFFF795FB62B644
:100B4000012070BD04F0FAFC074804F091FCFFF7A7
:100B50004BFEF2E7F8000020545C0008585E0008E5
:100B600034010020385F0008625F000838B54A4849
:100B700004F0E4FC494804F07BFC72B6484DFFF7F2
:100B800067FB00224C212846FFF7FEFE044645F88D
:100B9000040CFFF747FCFFF7D1FC00224C21414831
:100BA000FFF7F2FE84423C485DD104F0C7FC3E48AA
:100BB00004F05EFC3D4D002244212846FFF7E4FE90
:100BC0000446354804F0BAFC00222146384804F0B7
:100BD000F3FC314804F0B2FC00224421354804F013
:100BE000EBFC45F8044CFFF731FDFFF7B1FD0022A7
:100BF00044213148FFF7C8FE0546274804F09EFC13
:100C0000002229462A4804F0D7FC234804F096FC29
:100C100028480022442104F0CFFCAC421E482AD1CF
:100C200004F08CFC254804F023FC254D00221C21F7
:100C30002846FFF7A9FE044645F8040CFFF702FE1C
:100C4000FFF74EFE00221C211E48FFF79DFE844246
:100C5000114818D104F072FC1B4804F009FCFFF79E
:100C600003FB62B638BD04F069FC184804F000FCD0
:100C7000FFF7D8FB9EE704F061FC154804F0F8FB91
:100C8000FFF7E4FCD1E704F059FC124804F0F0FB54
:100C9000FFF7D8FDE3E700BF545C0008645E00087E
:100CA00058000020A80000207C5E0008A001002061
:100CB000D15E0008DC5E0008E8010020E85E000864
:100CC0001801002038010020375F0008A15E0008ED
:100CD0000A5F0008615F0008174918482DE9F041D4
:100CE00042F2107C00240E460546154FB1F900E093
:100CF000B1F90420B1F90280A2EB0E020CFB02F262
:100D0000B1F906300134A3EB080392FBF3F343601F
:100D100003FB08F393FBF7F3072C7344C0F8008040
:100D2000836001F1040100F10C00DFD1B6F91E303F
:100D30006B65BDE8F08100BF2C020020D8070020C1
:100D4000F0D8FFFF2DE9F0415D4C0646206800F029
:100D5000DBFA0022276807EB07133901234410F858
:100D600002C015460132D2B2BCF1000F1BD1CB1923
:100D7000E01805443A200433287104EB030C701E7C
:100D800010F8016FD5B296B92A4620212B4423448E
:100D90000F2A75D9102DC5F1100188BF00210D440F
:100DA00005F0FF050EE01D4485F804C0D7E70F2DC0
:100DB00003D80CF802600132E2E7002339442144F1
:100DC0000A4413713F4804F0B9FB294600223E480B
:100DD00004F0F2FB236803EB0311214429440025AE
:100DE0000133172B0D7123603ED90A262F464FF091
:100DF0002008284600F088FA002305EB05112A0197
:100E0000214410F803E09C460133DBB2BEF1000F31
:100E10003BD13A20511921448C448CF8040006EB54
:100E20000610204401EB030C9CF804C0BCF1000F39
:100E30002FD1581EC0B284465119043101442144B7
:100E4000BCF10F0F34D91028C3F11103DBB288BFF6
:100E500000232A4422440244013513440E2D1F71FD
:100E600006F10106C5D12560FFF72CFA154804F0FC
:100E700065FB21680022BDE8F041144804F09CBBEA
:100E8000013203F8011BD2B282E78C448CF804E0F3
:100E9000B7E700EB030C092D8CBF9CF804C09CF84D
:100EA00005C001EB030E01338EF804C0DBB2B9E7D5
:100EB0000CF1010C01F8018B5FFA8CFCC0E700BF5C
:100EC00054080020545C0008965F00089B5F0008EF
:100ED0002DE9F8435E4C804620680E4600F014FA77
:100EE0000022276807EB07133901234410F802C0DA
:100EF00015460132D2B2BCF1000F1DD1CB19E0185A
:100F0000054404332E7108F1FF3004EB030E10F892
:100F100001CFD5B2BCF1000F12D12A4620212B44BB
:100F200023440F2A75D9102DC5F1100188BF002167
:100F30000D4405F0FF050EE01D4485F804C0D5E71B
:100F40000F2D03D80EF802C00132E0E70023394428
:100F500021440A4413713F4804F0F0FA2946002264
:100F60003D4804F029FB236803EB03112144294485
:100F700000250133172B0D7123603ED90A27A8469F
:100F80004FF02009284600F0BFF9002305EB0511BA
:100F90002A01214410F803E09C460133DBB2BEF184
:100FA000000F3BD1511921448C4407EB07108CF8FA
:100FB0000460204401EB030C9CF804C0BCF1000F5A
:100FC00030D1581EC0B28446511904310144214425
:100FD000BCF10F0F35D91028C3F11103DBB288BF64
:100FE00000232A4422440244013513440E2D83F881
:100FF000048007F10107C5D12560FFF763F91548A3
:1010000004F09CFA21680022BDE8F843134804F07C
:10101000D3BA013203F8011BD2B282E78C448CF8B8
:1010200004E0B7E700EB030C092D8CBF9CF804C06B
:101030009CF805C001EB030E01338EF804C0DBB24F
:10104000B8E70CF1010C01F8019B5FFA8CFCBFE7DB
:1010500054080020545C0008965F00089B5F00085D
:10106000002384B00128009301D1009004E00228FD
:10107000FBD003281AD01CD8124B9A680192019A0F
:1010800002929A6803920399029A914204D35A6891
:1010900001990A4401320192039A0292019A03983B
:1010A0000099121A8A42ECD304B0704712230093BD
:1010B000E2E7054B054A1B680338B3FBF2F35843DC
:1010C000D3E700BF10E000E08C02002040420F0098
:1010D00007B50190019B13B903B05DF804FB4FF411
:1010E0007A70FFF7BDFF019B013B0193F2E700001F
:1010F00038B5684C684D204604F020FA2968002273
:10110000664804F059FA204604F018FAA96800224B
:10111000634804F051FA204604F010FA29690022CD
:10112000604804F049FA204604F008FAA969002250
:101130005D4804F041FA204604F000FA296A0022D2
:101140005A4804F039FA204604F0F8F9A96A002256
:10115000574804F031FA204604F0F0F9296B0022D8
:10116000544804F029FA204604F0E8F9A96B00225B
:10117000514804F021FA204604F0E0F9296C0022DD
:101180004E4804F019FA204604F0D8F9A96C002260
:101190004B484C4D04F010FA3220FFF799FF2046DF
:1011A00004F0CCF929680022474804F005FA2046EB
:1011B00004F0C4F9A9680022444804F0FDF920466F
:1011C00004F0BCF929690022414804F0F5F92046F1
:1011D00004F0B4F9A96900223E4804F0EDF9204674
:1011E00004F0ACF9296A00223B4804F0E5F92046F6
:1011F00004F0A4F9A96B0022384804F0DDF9204678
:1012000004F09CF9A96A0022354804F0D5F920467B
:1012100004F094F9296B0022324804F0CDF92046FD
:1012200004F08CF9296C00222F4804F0C5F92F4DE9
:101230003220FFF74DFF204604F080F92968002294
:101240002B4804F0B9F9204604F078F9A968002287
:10125000284804F0B1F9204604F070F92969002209
:10126000254804F0A9F9204604F068F9A96900228C
:10127000224804F0A1F9204604F060F9204B2148EF
:101280001968002204F098F9BDE838403220FFF7D1
:101290001FBF00BF9F5F000804000020A65F00087A
:1012A000B95F0008D75F0008F65F00081360000808
:1012B000316000084E6000086C6000088A60000819
:1012C000A860000854010020C0600008D460000835
:1012D000ED600008FA60000807610008146100086A
:1012E000226100083461000847610008F400002012
:1012F0006461000880610008A8610008CA610008F4
:101300008C020020D6610008F0B500230A2780EA8D
:10131000E07185B0A1EBE0711C46B1FBF7F604ADBE
:101320002C4407FB1615303504F8105C0C46DAB275
:10133000531C092C31465BB2EEDC002806DA04A906
:101340000B442D21023203F8101C53B2002104AAD1
:101350001A4402F8101C1A46084CD0B2191A49B2A5
:101360001AB90648625405B0F0BD04AD2A4412F81B
:10137000112C6254421E52B2EFE700BF2C0700202E
:10138000F0B5044600234FF00A0C084684EAE471E5
:1013900085B0A1EBE4711D46B1FBFCF704AE35440A
:1013A0000CFB1716303605F8106C0D46DAB2531CDC
:1013B000092D39465BB2EEDC002C06DA04A90B4499
:1013C0002D21023203F8101C53B2002104AA1A4442
:1013D00002F8101C1A46D4B2191B49B2451812B9AA
:1013E0002A7005B0F0BD04AD2A4412F8112C425405
:1013F000621E52B2EFE7000000224FF00A0CF0B577
:1014000080EAE0748BB0A4EBE0741546B4FBFCF703
:101410000AAE35440CFB1746303605F8286C2546D5
:10142000D3B25A1C092D3C4652B2EEDC012A0AAC5A
:101430001444D7BF3022002304F8282C9A1CD4BFB0
:1014400052B204F8283C022A08DC012906D93024CB
:101450000AAB1344013203F8284C52B200242E2662
:10146000234665B2AA4212DC002806DA0AA95A1CF1
:101470000B442D2103F8141C53B21A46114CD0B260
:10148000191A49B2B2B90F4862540BB0F0BD8B4281
:101490001D4605D10AAF01333D445BB205F8146C1B
:1014A0001DF804700AAD1D44013305F8147C5BB2CD
:1014B0000134D6E70AAD2A4412F8152C6254421EB4
:1014C00052B2DCE73C070020F0B5054600244FF09F
:1014D0000A0E084685EAE5718BB0A1EBE571264658
:1014E000B1FBFEFC0AAF3E440EFB1C17303706F87A
:1014F000287C0E46E3B25C1C092E614664B2EEDC29
:10150000012C0AA92144D7BF3024002301F8284C1C
:101510009C1CD4BF64B201F8283C022C08DC012AD0
:1015200006D930210AAB2344013403F8281C64B2E5
:1015300000212E270B464EB2A64211DB002D06DA03
:101540000AA95A1C0B442D2103F8141C53B21A4645
:10155000D4B2191B49B24518B2B92A700BB0F0BD0C
:1015600093421E4606D10DF1280C013366445BB24E
:1015700006F8147C1DF801C00AAE1E44013306F8BB
:1015800014CC5BB20131D6E70AAD2A4412F8152C0F
:101590004254621E52B2DBE7002802D0DCBF404258
:1015A00000B2704702460023D8B2115C0133002913
:1015B000FAD1704770B505460024104662B2AB5CA4
:1015C000661C43B95AB28D5CE21852B286180133D8
:1015D00025B9357070BD34468354EFE78554F1E783
:1015E000F0B504460F461846002569B2635C6E1CD0
:1015F00083B9DEB2F95C74195FFA84FC64B261B934
:101600004BB2D45C0CEB01035BB2C518013144B999
:101610002C70F0BD35464354E7E7731C01555BB2AF
:10162000E7E7C454ECE72DE9F04107464FF4616069
:1016300086B00C46B7FBF0F001A9FFF7A1FE01A8A8
:10164000FFF7B0FF012896BF012200223023154684
:1016500098BF2370EEB2B31A06A95BB20B4413F81D
:10166000141C6319751C6DB2002949D13A221A70F5
:101670003C23B7FBF3F2B2FBF3F001A903FB10200C
:10168000FFF77EFE01A8FFF78DFF01289FBF3023E3
:101690006355B51C6DB22E465FFA86F8A8EB0503BC
:1016A00006AA5BB2134413F8142CA31908F101061F
:1016B00076B23ABB3A221A703C23B7FBF3F001A989
:1016C00003FB1070FFF75CFE01A8FFF76BFF01281A
:1016D0009CBF3023A3554FF000039CBF08F10206C6
:1016E00076B25AB206A90A4412F8141C9A1952B2D8
:1016F000A018013341B90170204606B0BDE8F08161
:101700001970A7E71A70C7E7A154EAE7F0B50646D3
:101710004FF4616087B00C46B6FBF0F001A9FFF70B
:101720002FFE01A8FFF73EFF012896BF01220022ED
:101730003023154698BF2370EFB2BB1A06A95BB2DF
:101740000B4413F8141C63197D1C6DB229BB3A229B
:101750001A703C23B6FBF3F6B6FBF3F001A903FBCA
:101760001060FFF70DFE01A8FFF71CFF01289CBFCA
:10177000302363554FF000039CBFBD1C6DB25AB2BD
:1017800006A90A4412F8141C5A1952B2A0180133BF
:1017900029B90170204607B0F0BD1970CCE7A154FB
:1017A000EDE770477047704770477047014B186806
:1017B000704700BF4C020020094B10B598420DD075
:1017C00060B1084A084C126820600AB1183090478E
:1017D00023681B6913B1BDE81040184710BD00BF56
:1017E000E8610008500700204C020020024B1860FE
:1017F000024B1868FFF7E0BF500700204C020020A2
:10180000044B054A1B68934203D013B15B6903B1D3
:10181000184770474C020020E86100084FF48043ED
:1018200010B5064C02202361FFF71AFC4FF08043ED
:1018300002202361BDE81040FFF712BC000C0140FC
:1018400070B54FF07C454FF480560D4C25612661F4
:10185000FFF7E4FF0120FFF73BFC25612661FFF75E
:10186000DDFF0120FFF734FC4FF480632561236125
:10187000FFF7D4FFBDE870400120FFF729BC00BF8F
:10188000000C01404FF07C42244B70B504460D46DD
:101890001A6111B14FF400421A61E20644BF4FF4DD
:1018A00000521A6114F0200F18BF4FF480521B4BE6
:1018B00018BF1A61660644BF4FF400621A6114F043
:1018C000800F18BF4FF48063144E18BF3361FFF7C9
:1018D000A5FF4FF07053E007336144BF4FF400534E
:1018E0003361A10742BF4FF480520C4B1A6162076B
:1018F00042BF4FF40062094B1A61230742BF4FF405
:101900008062064B1A61FFF789FF0220FFF7E0FBB8
:101910001DB14FF00042014B1A6170BD000C014037
:10192000C00040F0400038B500F0F8000C4600213F
:10193000FFF7A8FF651E073415F8010F0121FFF717
:10194000A1FFA542F8D1BDE8384000218020FFF773
:1019500099BF000073B51F4C1F4D69460020CDE9AB
:1019600000451E4EFFF7DCFF1D4B69460120CDE907
:101970000036FFF7D5FF1B4B6946CDE90035022045
:10198000194DFFF7CDFF69460320CDE90056FFF75B
:10199000C7FF69460420CDE90054FFF7C1FF134A91
:1019A000134B69460520CDE90023FFF7B9FF114B22
:1019B00011490620CDE900136946FFF7B1FF0F4B2F
:1019C0000F486946CDE900030720FFF7A9FF02B0E1
:1019D00070BD00BF04150E0400041F1F0000041F8B
:1019E000150E040000040E15040E15040207070A64
:1019F0000A1C1C08051509000F0505050101010059
:101A00001111111F064A1070064A117019B940F0E1
:101A10008000FFF737BF002140F0C000F9E700BFAA
:101A2000540700205507002070B505460E460446B1
:101A3000207800B970BD0121FFF724FF012E07D1E6
:101A4000631BDBB2072B03D131460020FFF7DAFF1F
:101A50000134EDE70121C0B2FFF714BF2DE9F843CF
:101A60000D46DFF878801B4E1B4F441E14F8010F03
:101A700008B9BDE8F883B22819D101214920FFF740
:101A800001FF337897F800900133DBB23370B9F17E
:101A9000000FEBD1082BE9D1022DE7D101214846F7
:101AA000FFF7B0FF012386F800903B70DEE7AF2818
:101AB00002D101210320E2E7AA2802D1012102205C
:101AC000DDE7BF2889BF40440121012110F8C00C87
:101AD000D5E700BF54070020550700205002002022
:101AE00000210120FFF7CEBE08B56420FFF7F0FA11
:101AF000FFF7A6FE00210E20FFF7C4FEBDE8084058
:101B0000FFF7EEBF0221FFF7A9BF10B50446084654
:101B10001146FFF777FF2046BDE810400221FFF78E
:101B20009DBF08B5FFF7E0FFFFF7DAFFBDE808400B
:101B300000210C20FFF7A6BE054B82B09A69024334
:101B40009A619B6918400190019B02B0704700BFE9
:101B5000001002400022014B1A807047C607002087
:101B600010B53B4C94F9001061B90846FFF74AFFE5
:101B70003848FFF7C7FF4FF48762374B9A6140F24E
:101B8000B4521A6294F90030012B0DD1002108469D
:101B9000FFF738FF3148FFF7B5FF4FF496722E4B31
:101BA0009A614FF4D2721A6294F90030022B0DD16F
:101BB00000210846FFF726FF2948FFF7A3FF4FF44F
:101BC0008C72254B9A614FF4B9721A6294F9003005
:101BD000032B0CD100210846FFF714FF2148FFF723
:101BE00091FFA0221C4B9A614FF48C721A6294F9F7
:101BF0000030042B0DD100210846FFF703FF1A48DF
:101C0000FFF780FF4FF44872134B9A614FF4AA62BA
:101C10001A6294F90030052B0CD100210846FFF719
:101C2000F1FE1248FFF76EFF64220B4B9A614FF4EE
:101C3000FA621A6294F90030062B04BF0023237065
:101C4000FEF7F2FEBDE810404FF41670FFF740BA01
:101C50006F07002000620008540100201162000894
:101C600022620008336200084462000855620008DE
:101C7000FEF7DABE08B501210720FFF7C3FE0121F8
:101C8000FF20FFF7FFFDFEF7CFFE044BC8209A6848
:101C9000034B1A60BDE80840FFF71ABA5401002050
:101CA000F809002008B501210720FFF7ABFE01214C
:101CB000FF20FFF7E7FDFEF7B7FE044BC8201A6CC4
:101CC000034B1A60BDE80840FFF702BA5401002038
:101CD000F009002008B5FEF771FEBDE80840014894
:101CE000FFF730B86662000818B100221146FFF70E
:101CF0000CBF704749F6AF2310B50E4C90B0226868
:101D00009A4215D90C4B0BA91868FFF7FFFC4FF44A
:101D10006163206801A9B0FBF3F0FFF731FB0749CD
:101D200006AB0BAAFFF75CFC022106A8FFF7D0F870
:101D300010B010BD5C070020780700207262000818
:101D400010B5164C164890B003F0F8FB002221683D
:101D5000144803F031FC49F6AF2322689A421BD99C
:101D6000114B0BA91868FFF7D1FC4FF46163206891
:101D700001A9B0FBF3F0FFF703FB06AB0BAA0B497D
:101D8000FFF72EFC012106A8FFF7A2F8044803F094
:101D9000D5FB06A803F06CFB10B010BD580700205F
:101DA000545C000876620008680700207262000830
:101DB00008B501210720FFF725FEBDE808400121F5
:101DC000FF20FFF75FBD00004FF0007170B591FA82
:101DD000A1F1B1FA81F3104C00F00071D9404FF03D
:101DE000F87254F8215000F0F87092FAA2F3B3FAA6
:101DF00083F392FAA2F20726B2FA82F220FA03F3F0
:101E000006FA03F3D04025EA030306FA00F018436C
:101E100044F8210070BD00BF0C2401404FF4407312
:101E200030B593FAA3F3B3FA83F31F24084D00F4FB
:101E30004072DA4055F8223000F01F00844001F073
:101E40001F0123EA04038140194345F8221030BDE5
:101E50002C24014000207047002310B596B00446A2
:101E6000084611A98DF804208DF80530FFF74EFCC7
:101E70004FF4616002A9B4FBF0F0FFF781FA07AB01
:101E800011AA0749FFF7ACFB0CAA07A901A8FFF7A5
:101E900091FB04210CA8FFF71BF816B010BD00BF82
:101EA00072620008022838B51E4C1F4D2AD12388C3
:101EB0002A6801331BB29342238001D3002323807D
:101EC00000210846FFF79EFD2868B4F9003001386C
:101ED000C01A00EB001004302844FFF713FE13482B
:101EE00003F02CFBB4F900100022114803F064FB4E
:101EF0000E4803F023FB29680022BDE838400D4856
:101F000003F05ABB0128DBD12388013B1BB2002B15
:101F10002380D5DA2B68013B1BB2002B2380CDDB5D
:101F2000CEE700BFC607002054080020545C00081C
:101F30007E6200088B620008002110B50446084646
:101F4000FFF760FD1F48FFF7DDFD022C30D1FEF7E3
:101F50000DFEFEF7F1FC002104460846FFF752FD96
:101F60001948FFF7CFFD4FF4FA60FFF7B1F80021F1
:101F70000846FFF747FD012C1BD11448FFF7C2FDAF
:101F80001348FEF7DFFE4FF4FA60FFF7A1F8114B9C
:101F90001A69114B1A604FF46162104B19694A4378
:101FA0000F490A6099680F4A11601A6C0E4B1A604B
:101FB00010BD0E48FFF7A6FDBDE810404FF47A6053
:101FC000FFF786B89E620008AF620008C062000892
:101FD000D1620008F40000206007002054010020B6
:101FE000F4090020F8090020F0090020E062000850
:101FF000022810B50E4C15D123690133236100214D
:102000000846FFF7FFFC2069FFF77EF9FFF77AFD2E
:102010000848FFF777FD4FF4616322695343064A8E
:10202000136010BD0128EAD12369013BE6E700BF38
:1020300054010020F1620008F409002010B5334C6F
:10204000022894F900300DD101335BB2072B0FD178
:102050000023237000210846FFF7D4FC2C48FFF72B
:1020600051FD0AE0012804D1013B5BB2002B10DBDB
:10207000237094F90030002BECD094F90030012B40
:1020800009D100210846FFF7BDFC2248FFF73AFDC1
:1020900001E00623237094F90030022B06D10021C1
:1020A0000846FFF7AFFC1C48FFF72CFD94F9003001
:1020B000032B06D100210846FFF7A4FC1748FFF7C1
:1020C00021FD94F90030042B06D100210846FFF7CA
:1020D00099FC1348FFF716FD94F90030052B06D143
:1020E00000210846FFF78EFC0E48FFF70BFD94F920
:1020F0000030062B08D100210846FFF783FCBDE81D
:1021000010400948FFF7FEBC10BD00BF6F0700205C
:10211000F662000807630008196300082A630008D4
:102120003A6300084B6300085B630008022810B59F
:102130000D4C14D1A3690A33A36100210846FFF7AF
:1021400061FC0A23A0690121B0FBF3F0FFF754F909
:10215000FFF7D8FCBDE810400448FFF7D3BC0128C6
:10216000EBD1A3690A3BE7E7540100201D62000898
:10217000022810B50D4C14D1236A0A3323620021C2
:102180000846FFF73FFC0A23206A0121B0FBF3F069
:10219000FFF732F9FFF7B6FCBDE810400448FFF73F
:1021A000B1BC0128EBD1236A0A3BE7E754010020C8
:1021B0001D620008022810B50B4C10D1A36A013330
:1021C000A36200210846FFF71DFCA06AFFF79CF8F8
:1021D000FFF798FCBDE810400448FFF793BC0128C6
:1021E000EFD1A36A013BEBE7540100206B630008C9
:1021F000022810B50B4C10D1236B0133236300214F
:102200000846FFF7FFFB206BFFF77EF8FFF77AFC2D
:10221000BDE810400448FFF775BC0128EFD1236BDF
:10222000013BEBE7540100206B630008022838B53E
:102230001A4C2DD1A36B0133A36300210A25084654
:10224000FFF7E0FBA06BFFF75FF8FFF75BFC1448BC
:10225000FFF758FC206A0121B0FBF5F0FFF7CCF83E
:10226000FFF750FC0F48FFF74DFC6422236AA06B78
:1022700001215843B0FBF2F0181AB0FBF5F0FFF75C
:10228000BBF8FFF73FFCBDE838400748FFF73ABC12
:102290000128D2D1A36B013BCEE700BF540100203F
:1022A00074630008776300081D620008044B9A6895
:1022B000044B1B689A4201D1FFF77ABD704700BFFB
:1022C00054010020F8090020044B1A6C044B1B68D1
:1022D0009A4201D1FFF76CBD704700BF5401002046
:1022E000F0090020002110B504460846FFF78AFBDC
:1022F000022C1F4B0DD19A68072A02F1010127D148
:1023000001229A601B48FFF7FDFBBDE81040FFF774
:10231000CDBF012C03D19A68013A15D09A609A6812
:10232000013A062A20D801A151F822F0052300081D
:1023300055230008592300085D2300086123000885
:10234000652300084D23000807229A600A48DAE74F
:102350009960E4E70948D6E70948D4E70948D2E795
:102360000948D0E70948CEE701229A6010BD00BFB6
:10237000540100207A630008E06300088B630008C2
:102380009C630008AD630008BE630008CF630008CB
:10239000002110B504460846FFF734FB022C144B0D
:1023A0000DD11A6C032A02F101011CD101221A6419
:1023B0001048FFF7A7FBBDE81040FFF785BF012CD1
:1023C00003D11A6C013A0AD01A641A6C022A0CD092
:1023D000032A06D0012AEBD001221A6410BD032281
:1023E0001A640548E5E71964EFE70448E1E700BF30
:1023F00054010020F163000813640008026400081F
:10240000154B16499A6812F0100F0CD09A68900676
:1024100016D59A68520615D59B68DB4313F08003E6
:1024200012D10B807047032240F2DC50B1F900302A
:1024300083420BDD40F2B4530B80094B1A700AE063
:102440000222F1E70122EFE70422EDE701331BB29C
:10245000142B0B80F1D07047000C0140C407002002
:10246000C8070020044B187810B10021034A1160FE
:1024700000221A70704700BFC807002084070020A0
:102480000022034B1A600122024B1A70704700BFF2
:10249000B80700208A07002038B504464FF4616071
:1024A000B4FBF0F0FEF730FF0546FFF77BF801289C
:1024B00003D801211148FFF7B7FA01212846FFF799
:1024C000B3FA01210E48FFF7AFFA3C23B4FBF3F453
:1024D000B4FBF3F003FB1040FEF716FF0446FFF7D2
:1024E00061F8012803D801210448FFF79DFA20462E
:1024F000BDE838400121FFF797BA00BF2464000807
:10250000656600084FF40032074B1A614FF0807285
:10251000A3F580631A610023044A1370044A137000
:10252000044A1370704700BF000C0140820700206E
:1025300089070020740700200222074B4FF48071A6
:102540001A610123054A1370054A1370054A116187
:10255000054A1370704700BF000C0140820700203D
:10256000890700200008014074070020084808B5CA
:102570000268022A04D1FFF7DFFF0123036008BDD0
:10258000032AFCD1034B9B69012BF8D1F3E700BF71
:1025900074020020F40000200122F8B5884B90421C
:1025A0000546884E1A7006D13378013B5BB2002B8A
:1025B000C0F29A80337096F90030002B63D1022D5F
:1025C000814F05D13B78002B40F0C280FFF7B4FF6C
:1025D00000210846FFF716FA7C4B022118887C4C34
:1025E00080B2FEF709FFFFF78DFA7A48FFF78AFA03
:1025F00000210720FFF706FA3B78012B40F0AB8063
:102600002368B3F57A7F07DA2068FEF77DFEFFF7CF
:1026100079FA7148FFF776FA2368B3F57A7F10DB11
:1026200042F20F7322689A420BDC64232068012176
:1026300090FBF3F0FEF7E0FEFFF764FA6748FFF760
:1026400061FA42F20F7322689A420BDD4FF47A73FB
:10265000206890FBF3F0FEF757FEFFF753FA5F4850
:10266000FFF750FA3B78012107205D4C002B79D110
:10267000FFF7C8F901210020FFF7ECF923780A2BB6
:1026800084BF0023237096F90030012B2ED1022D38
:102690004FF0000108BF0023524F534C084604BFBF
:1026A0003B602360FFF7AEF95048FFF72BFA3A681A
:1026B0004F4B38689A425DD24FF46163B0FBF3F040
:1026C000FEF722FEFFF71EFA4A48FFF71BFA2368BF
:1026D0002068B3F5E15F55D2FEF716FEFFF712FA58
:1026E0004548FFF70FFA01E00223337096F90030F6
:1026F000022B63D1022D4FF0000108BF00233F4D94
:10270000394C084604BF2B602360FFF77BF93C4837
:10271000FFF7F8F92A68364B28689A423CD24FF402
:102720006163B0FBF3F0FEF7EFFDFFF7EBF9314823
:10273000FFF7E8F923682068B3F5E15F34D2FEF7CC
:10274000E3FDFFF7DFF92C48BDE8F840FFF7DAB901
:10275000FFF7D8FE3CE72068FEF7D6FDFFF7D2F979
:1027600028487DE72378052B82D9FFF74BF9012113
:10277000084681E7B0FBF3F0FEF7C6FDFFF7C2F9AC
:102780002148A2E74FF46163B0FBF3F0FEF7BCFD14
:10279000FFF7B8F91D48A4E7B0FBF3F0FEF7B4FD6E
:1027A000FFF7B0F91848C3E74FF46163B0FBF3F0EB
:1027B000FEF7AAFDFFF7A6F91448C5E7F8BD00BF6C
:1027C000800700206D07002082070020CE02002035
:1027D000B4020020266400082A640008316400085E
:1027E00065070020B8020020780700204064000838
:1027F00080EE3600456400084F6400087007002032
:102800006B640008386400084A6400085D640008CE
:10281000012230B5854B87B01A70FFF78DFE022874
:10282000834C27D1237801335BB2082B29D10023B5
:10283000237000210846FFF7E5F87E48FFF762F9AC
:102840000A207D4B01211B889BB2B3FBF0F0FEF701
:10285000D3FDFFF757F97948FFF754F9784B022178
:10286000188880B2FEF7C8FDFFF74CF97548FFF7EE
:1028700049F90BE0012805D12378013B5BB2002B1D
:1028800023DB237094F90030002BD2D094F9003070
:10289000012B1CD100210846FFF7B4F86A48FFF766
:1028A00031F96A4B1868FEF72FFDFFF72BF96848DE
:1028B000FFF728F9674B188980B2FEF725FDFFF76F
:1028C00021F96548FFF71EF901E00723237094F909
:1028D0000050022D1AD100210846FFF793F85F48F7
:1028E000FFF710F95E4B29461868FEF785FDFFF7E4
:1028F00009F95748FFF706F9564BD88880B2FEF71A
:1029000003FDFFF7FFF85448FFF7FCF894F9003097
:10291000032B19D100210846FFF774F85148FFF73F
:10292000F1F8514B1868FEF7EFFCFFF7EBF84F4852
:10293000FFF7E8F8474B588880B2FEF7E5FCFFF751
:10294000E1F84548FFF7DEF894F90030042B19D17F
:1029500000210846FFF756F84548FFF7D3F8454BE6
:102960001868FEF7D1FCFFF7CDF84048FFF7CAF82A
:10297000384B188880B2FEF7C7FCFFF7C3F83E4813
:10298000FFF7C0F894F90030052B1AD10021084652
:10299000FFF738F83948FFF7B5F8364B02211868C9
:1029A000FEF72AFDFFF7AEF82948FFF7ABF8294BF1
:1029B000588980B2FEF7A8FCFFF7A4F82E48FFF76D
:1029C000A1F894F90030062B0DD100210846FFF73D
:1029D00019F82B4B01A91868FEF725FEFFF792F8AE
:1029E0002848FFF78FF894F90030072B1BD10021FE
:1029F0000846FFF707F82448FFF784F8234B022125
:102A0000188880B2FEF7F8FCFFF77CF82048FFF743
:102A100079F8104B988880B2FEF776FCFFF772F8D1
:102A20000D48FFF76FF807B030BD00BF80070020EA
:102A30006E0700206F6400083808002074640008E6
:102A40004A0800200E64000879640008C4020020CF
:102A50007E6400083A0800200C64000882640008C4
:102A6000C002002088640008BC0200208F640008B7
:102A700093640008C80200200B64000898640008F2
:102A8000CC0700200A6400089E640008CE020020E3
:102A9000776300080122154B10B51A70FFF74CFD43
:102AA0000228134C1DD1A3680133A36000210846FE
:102AB000FEF7A8FFA068FEF727FCFFF723F80D48F4
:102AC000FFF720F801210020FEF79CFF0A4B186851
:102AD000FEF71AFCFFF716F8BDE810400748FFF7AD
:102AE00011B80128E2D1A368013BDEE7800700208E
:102AF000040000200F640008C8020020A164000840
:102B00000122154B10B51A70FFF716FD0228134C61
:102B10001DD123690133236100210846FEF772FFAE
:102B20002069FEF7F1FBFEF7EDFF0D48FEF7EAFF27
:102B300001210020FEF766FF0A4B1868FEF7E4FB50
:102B4000FEF7E0FFBDE810400748FEF7DBBF0128B5
:102B5000E2D12369013BDEE780070020040000206A
:102B60000F640008BC020020A16400080122164B7B
:102B700010B51A70FFF7E0FC0228144C1ED1A369AF
:102B80000133A36100210846FEF73CFFA069FEF770
:102B9000BBFBFEF7B7FF0E48FEF7B4FF0121002094
:102BA000FEF730FF0B4B02211868FEF725FCFEF7FD
:102BB000A9FFBDE810400848FEF7A4BF0128E1D1F5
:102BC000A369013BDDE700BF80070020040000206F
:102BD0000F640008C0020020A66400080122154B03
:102BE00010B51A70FFF7A8FC0228134C1DD1236AF8
:102BF0000133236200210846FEF704FF206AFEF736
:102C000083FBFEF77FFF0D48FEF77CFF01210020CC
:102C1000FEF7F8FE0A4B1868FEF776FBFEF772FF28
:102C2000BDE810400748FEF76DBF0128E2D1236AD6
:102C3000013BDEE780070020040000200F6400084D
:102C4000C4020020A66400080122164B10B51A70B9
:102C5000FFF772FC0228144C1FD1A36A0133A36250
:102C600000210846FEF7CEFEA06AFEF74DFBFEF7F8
:102C700049FF0E48FEF746FF01210020FEF7C2FE85
:102C80000B4B0221188880B2FEF7B6FBFEF73AFF25
:102C9000BDE810400748FEF735BF0128E0D1A36A20
:102CA000013BDCE780070020040000200F640008DF
:102CB000CE020020266400080122164B10B51A70BF
:102CC000FFF73AFC0228144C1FD1236B0133236316
:102CD00000210846FEF796FE206BFEF715FBFEF777
:102CE00011FF0E48FEF70EFF01210020FEF78AFEBD
:102CF0000B4B0221188880B2FEF77EFBFEF702FF25
:102D0000BDE810400748FEF7FDBE0128E0D1236B67
:102D1000013BDCE780070020040000200F6400086E
:102D20004C080020266400080122164B10B51A70CA
:102D3000FFF702FC0228144C1FD1A36B0133A363DD
:102D400000210846FEF75EFEA06BFEF7DDFAFEF7F7
:102D5000D9FE0E48FEF7D6FE01210020FEF752FEF6
:102D60000B4B0221188880B2FEF746FBFEF7CAFE25
:102D7000BDE810400748FEF7C5BE0128E0D1A36BAF
:102D8000013BDCE780070020040000200F640008FE
:102D900038080020266400080122284B70B51A70FC
:102DA000FFF7CAFB0228264E40D133880133338017
:102DB00000210846FEF726FE02213088FEF71CFBA4
:102DC000204D214CFEF79EFE2048FEF79BFE2B88EF
:102DD00022689BB2002A2EDD42F2107032889B1AC4
:102DE0001BB223EAE3734343226893FBF2F0184ECD
:102DF0003064FEF789FAFEF785FE1648FEF782FE7C
:102E0000154B1B882A8821689BB2002992B2C1BF4A
:102E10009B1A42F210721BB223EAE373C5BF5343FD
:102E200021680A2393FBF1F3B36470BD0128BFD17D
:102E30003388013BBBE74620D9E700BF800700206D
:102E400078020020CC020020B40200207763000842
:102E500004000020AB640008CE0200200123044AD5
:102E60001370044A13704FF40062034B1A617047E9
:102E700082070020880700200008014008B5FFF7FE
:102E800041FBBDE80840FFF7E9BF000008B50A4B69
:102E900093F90020022A0DD002221A70FFF732FBAC
:102EA000FFF7DCFF0022054B05481A60BDE808402B
:102EB00002F034BC08BD00BF66070020B407002044
:102EC000B66400080023064A1370064A13704FF0D8
:102ED000006203F1804303F584331A61704700BF39
:102EE00082070020880700200122234B022810B50A
:102EF000224C1A7003D1237873BBFFF7AFFF002178
:102F00000846FEF77FFD1E4B0221188880B2FEF7AF
:102F100073FAFEF7F7FD1B48FEF7F4FD1A4B18682D
:102F2000FEF7F2F9FEF7EEFD1848FEF7EBFD237809
:102F300001210620164C93B9FEF764FD0121022001
:102F4000FEF788FD01210220FEF784FD23780A2B7D
:102F500084BF0023237010BDFFF7B4FFCFE72378B1
:102F6000052BE9D9FEF74EFD01210320FEF772FD86
:102F700001210320E8E700BF80070020820700202E
:102F80004C08002077630008B40200203164000878
:102F90006507002000212DE9F04101272C4B2D4D24
:102FA000064608461F70FEF72DFD2B782A4C03F0CD
:102FB000FF083BBB294B0221188880B2FEF71CFAA0
:102FC000FEF7A0FD2648FEF79DFD41460720FEF7CF
:102FD00019FD2068FEF798F9FEF794FD2148FEF7E9
:102FE00091FD05203946FEF70DFD1F48FEF78AFDCD
:102FF000022E2AD12B7813BBFFF79EFABDE8F041D1
:10300000FFF72CBF194B0221188880B2FEF7F4F9A4
:10301000FEF778FD1248FEF775FD00210720FEF748
:10302000F1FC2068FEF770F9FEF76CFD1048FEF722
:1030300069FD06203946FEF7E5FC0E48D6E7FFF7A6
:1030400061FABDE8F041FFF73DBFBDE8F08100BF88
:103050008007002082070020B4020020CE0200205A
:1030600026640008C06400081F6600084C080020A1
:1030700031640008C664000808B5FFF723FFBDE807
:103080000840FFF759BA000008B50A4B93F9002031
:10309000012A0DD001221A70FFF714FFFFF74CFA36
:1030A0000022054B05481A60BDE8084002F036BB17
:1030B00008BD00BF66070020B4070020B9640008FF
:1030C0002DE9F04F964A85B01378DFF8ACA2DFF80F
:1030D000ACB2DFF8AC92934FDFF8A882924D00902B
:1030E00003F0FF040192002B3ED1904B1A88904BC5
:1030F00092B21B6A05339A4215D221462046FEF74A
:1031000081FC8C48FEF7FEFC4FF4FA60FDF7E0FF0F
:1031100021462046FEF776FC8748FEF7F3FC40F692
:10312000B830FDF7D5FF01260024019B1E70834BAC
:103130008AF800408BF80040C9F800403C601C60F1
:10314000C8F800402C608AF80060FFF79DFF7C4BB8
:10315000214620461E70FEF755FC7A48FEF7D2FC49
:103160004FF47A70FDF7B4FF774C206800B2FEF799
:1031700013FA0528039440F3C681744A6C4E1388F1
:10318000B1699BB28B4202921FD26D4B1A78022A10
:103190001BD16F4B1B68B3F57A7F16D900238BF8D0
:1031A000003029686B4B994203D928683968FEF7CB
:1031B00053FE00230124C9F80030C8F800308AF813
:1031C0000040FFF761FF5E4B1C70029B326A1B8858
:1031D0009BB2934208D95A4B1B78012B04D15C4B0C
:1031E0001B68B3F57A7F09D85B4BD9F800201B68C0
:1031F0009A4223D9524B1B78012B1FD100238AF806
:103200000030D8F80020534B9A4206D9D8F8000075
:103210000122D9F80010FEF71FFE3A68474B1A60EA
:103220002A684E4B9A6000233B602B6001238BF889
:103230000030FFF72BFE0222414B1A70009A484CD7
:10324000022A94F9003033D101335BB2052B36D119
:103250000023237000210846FEF7D4FB029B0221C5
:10326000188880B2FEF7C8F8FEF74CFC3D48FEF720
:1032700049FC039B1868FEF747F8FEF743FC3A4801
:10328000FEF740FC01210620FEF7BCFB01210420D3
:10329000FEF7E0FB354B1978012940F02D8107201E
:1032A0000091FEF7AFFB00200099FEF7D3FB0BE087
:1032B000009A012A04D1013B5BB2002B64DB23702E
:1032C00094F90030002BC5D094F90030012B5DD16A
:1032D000002108460093FEF795FB3069FEF714F8CD
:1032E000FEF710FC2248FEF70DFC0A22009BB06995
:1032F0001946B0FBF2F0FEF77FF8FEF703FC194821
:10330000FEF700FC0A22009B306A1946B0FBF2F07F
:10331000FEF772F8FEF7F6FB1648FEF7F3FB35E012
:1033200080070020780700205C070020CE020020E4
:1033300054010020CA640008DB6400087C070020F8
:1033400070020020EC640008B40200204C08002049
:10335000B40700204F8C0500F4090020F400002081
:103360006D07002077630008FD64000889070020CE
:103370004C6400085F6200086707002074070020A3
:1033800068070020580700200423237094F9006088
:10339000022E21D100210846FEF734FB01213046E0
:1033A000FEF758FB00210120FEF72CFB5C48FEF7DE
:1033B000A9FB4FF461632868B0FBF3F0FDF7A4FFAD
:1033C000FEF7A0FB5748FEF79DFB03200121FEF707
:1033D00019FB3868FFF760F894F90060032E23D1D9
:1033E00000210846FEF70EFB01210020FEF732FB0C
:1033F00000210120FEF706FB4948FEF783FB4FF44E
:103400006163D8F80000B0FBF3F0FDF77DFFFEF735
:1034100079FB4448FEF776FB30460121FEF7F2FACD
:10342000D9F80000FFF738F894F90030042B23D1C5
:1034300000210846FEF7E6FA01210220FEF70AFB0A
:1034400000210120FEF7DEFA3748FEF75BFB374B21
:1034500098684FF46163B0FBF3F0FDF755FFFEF79A
:1034600051FB3348FEF74EFB03200121FEF7CAFA59
:10347000304B1868FFF710F82F4802F05FF8019BF7
:10348000002219782D4802F097F82B4802F056F8E0
:103490009AF8001000222A4802F08EF8264802F01E
:1034A0004DF8D9F800100022264802F085F822488D
:1034B00002F044F8D8F800100022234802F07CF80B
:1034C0001D4802F03BF89BF8001000221F4802F054
:1034D00073F8194802F032F8396800221C4802F0EB
:1034E0006BF8154802F02AF800222968194805B03F
:1034F000BDE8F04F02F060B801210720FEF782FA24
:1035000001210220D1E6144B1B68B3F57A7FB3D9B1
:1035100000210846FEF776FA1048FEF7F3FAABE70B
:1035200011640008056500080F650008F40000201C
:10353000126500087C070020545C00082C65000818
:103540004165000856650008666500087E6500084C
:1035500096650008A9650008B40700201B650008EF
:103560000021F8B506460846FEF74CFA0122694BE1
:103570001A70694B197811B91A70FEF781FF674DFF
:10358000674C2B68A26A9A4212D3FFF77DFD654B08
:10359000226A1B889BB293420AD9634B1B68B3F51E
:1035A000C87F05D9FEF76CFF2B68A26A13442B6015
:1035B0002B68A26A9A420ED2FFF768FC594BA269A7
:1035C0001B889BB2934206D2574B1B68B3F5C87F4A
:1035D00001D9FEF755FFA36A216B2A680B44934279
:1035E00001D2FEF74DFF514D022E95F9003032D138
:1035F00001335BB2032B34D100232B70002108462A
:10360000FEF700FA474B0221188880B2FDF7F4FE5E
:10361000FEF778FA4648FEF775FA464B1868FDF74C
:1036200073FEFEF76FFA4448FEF76CFA012106209C
:10363000FEF7E8F901210520FEF70CFA3F4B1E7852
:10364000012E5FD131460720FEF7DCF9314600201C
:10365000FEF700FA0AE0012E04D1013B5BB2002B19
:103660002CDB2B7095F90030002BC7D095F900604A
:10367000012E25D100210A270846FEF7C3F920694B
:10368000FDF742FEFEF73EFA2D48FEF73BFAA06931
:103690003146B0FBF7F0FDF7AFFEFEF733FA2448F2
:1036A000FEF730FA206A3146B0FBF7F0FDF7A4FED2
:1036B000FEF728FA2348FEF725FA01E002232B70D3
:1036C00095F90030022B24D100210846FEF79AF923
:1036D000A06AFDF719FEFEF715FA1B48FEF712FA6D
:1036E000206BFDF711FEFEF70DFA1848FEF70AFAF7
:1036F00003200121FEF786F9154B1868BDE8F84054
:10370000FEF7CABE01210720FEF77CF90121022045
:103710009EE7F8BD8007002081070020B807002041
:10372000540100204C080020B40700206D07002041
:1037300077630008B4020020FD64000889070020B8
:103740004C6400085F6200086C640008CB650008E8
:103750007807002008B5FFF7B5FBBDE80840FEF785
:10376000D1BE000001222DE9F84F984E984B3478D5
:1037700082469846974DDFF8CC92974F1A7034BB2B
:10378000964B1A88964B92B21B6A05339A4215D211
:1037900021462046FEF736F99248FEF7B3F94FF47A
:1037A000FA60FDF795FC21462046FEF72BF98E487E
:1037B000FEF7A8F940F6B830FDF78AFC00238B4AE3
:1037C0002B7089F80030136001223B603270884B07
:1037D0003A681B689A4206D8864B814A1B88126A4F
:1037E0009BB2934203D9FFF7B5FF00232B70FEF77E
:1037F000BDFEBAF1020F804C6BD1804B1B78002BC1
:1038000063D1FFF739FC01232B7094F900100029D4
:1038100036D10846FEF7F6F8784BDFF8D8A11A78CB
:103820009B46002A40F0B5806C4B0221188880B27C
:10383000FDF7E2FDFEF766F97148FEF763F9BAF8A5
:103840000000022180B2FDF7D7FDFEF75BF96D485D
:10385000FEF758F99BF8003001210720DFF8E8A1B6
:10386000002B40F0A980FEF7CDF801210020FEF7E3
:10387000F1F89AF800300A2B84BF00238AF8003050
:1038800094F900A0BAF1010F2FD10021DFF850B157
:103890000846FEF7B7F85C48FEF734F9DBF810008D
:1038A000FDF732FDFEF72EF95848FEF72BF90A23F3
:1038B000DBF820005146B0FBF3F0FDF79DFDFEF76D
:1038C00021F95348FEF71EF90FE0FFF743FF0023ED
:1038D0009AE7BAF1010F98D12378013B5BB2002B34
:1038E00001DB237091E70223237094F90030022B4F
:1038F0001AD100210846FEF785F84648FEF702F97E
:103900003A4B18684FF46163B0FBF3F0FDF7FCFC31
:10391000FEF7F8F84048FEF7F5F803200121FEF71E
:1039200071F83868FEF7B8FD3C4801F007FE3178C1
:1039300000223B4801F040FE384801F0FFFD98F8B6
:1039400000100022374801F037FE344801F0F6FD40
:1039500029780022344801F02FFE304801F0EEFDB6
:1039600039680022314801F027FE2C4801F0E6FDBD
:1039700099F8001000222E4801F01EFE274801F0A1
:10398000DDFD2C4B002219682B48BDE8F84F01F0F3
:1039900013BEBAF80000022180B2FDF72DFDFEF73C
:1039A000B1F81748FEF7AEF8244B1868FDF7ACFCE9
:1039B000FEF7A8F822484BE79AF80030052B7FF66F
:1039C00052AFFEF71FF80121084650E7810700209B
:1039D000800700206707002068070020CE02002033
:1039E00054010020CA640008DB6400085807002066
:1039F000F40900204C0800206D07002082070020F9
:103A0000776300085F620008D3650008D665000888
:103A10001D620008DE650008E1650008545C0008CE
:103A2000EA6500082C650008416500085665000835
:103A30007E6500087807002096650008B402002023
:103A4000FD640008740700206507002001222DE9AD
:103A5000F84FBC4EBC4B357882469846BB4CDFF8DD
:103A60005C93BB4F1A7035BBBA4B1A88BA4B92B2F3
:103A70001B6A05339A4215D229462846FDF7C2FF34
:103A8000B648FEF73FF84FF4FA60FDF721FB2946F0
:103A90002846FDF7B7FFB248FEF734F840F6B830D5
:103AA000FDF716FB0023AF4A237089F8003013603E
:103AB00001223B603270AC4B3A681B689A4272D963
:103AC000FFF748FE00232370FEF750FDBAF1020F06
:103AD000A64D40F08280A64B1B78002B79D1FFF7D2
:103AE000CBFA0123237095F90010002936D108463E
:103AF000FDF788FF9E4BDFF88CA21A789B46002AC0
:103B000040F00281934B0221188880B2FDF774FCCB
:103B1000FDF7F8FF9748FDF7F5FFBAF8000002211E
:103B200080B2FDF769FCFDF7EDFF9348FDF7EAFF72
:103B30009BF8003001210720DFF884A2002B40F021
:103B4000F680FDF75FFF01210020FDF783FF9AF863
:103B500000300A2B84BF00238AF8003095F900A0BA
:103B6000BAF1010F45D10021DFF8ECB10846FDF7AD
:103B700049FF8248FDF7C6FFDBF81000FDF7C4FBE4
:103B8000FDF7C0FF7E48FDF7BDFF0A23DBF82000EC
:103B90005146B0FBF3F0FDF72FFCFDF7B3FF76487D
:103BA000FDF7B0FF25E077496B480A88036A92B2B7
:103BB0009A4285D8826B64205A43B2FBF0F209889E
:103BC0009B1A89B29942BFF47FAFFFF755FA0123E0
:103BD00079E7FFF7BFFD002384E7BAF1010F82D137
:103BE0002B78013B5BB2002B01DB2B707BE70323BF
:103BF0002B7095F90030022B2FD100214FF00A0ACB
:103C0000DFF854B10846FDF7FDFEDBF83800FDF79C
:103C10007BFBFDF777FF5C48FDF774FFDBF82000C6
:103C20000121B0FBFAF0FDF7E7FBFDF76BFF514810
:103C3000FDF768FF6422DBF82030DBF83800012153
:103C40005843B0FBF2F0181AB0FBFAF0FDF7D4FBC2
:103C5000FDF758FF4848FDF755FF95F90050032D33
:103C60001AD100210846FDF7CDFE4848FDF74AFF6E
:103C70003C4B18684FF46163B0FBF3F0FDF744FB75
:103C8000FDF740FF4248FDF73DFF28460121FDF7C3
:103C9000B9FE3868FEF700FC6420FDF719FA3D48CC
:103CA00001F04CFC317800223B4801F085FC39489A
:103CB00001F044FC98F800100022384801F07CFC28
:103CC000344801F03BFC21780022354801F074FCB7
:103CD000304801F033FC39680022324801F06CFCB6
:103CE0002C4801F02BFC99F8001000222E4801F01E
:103CF00063FC284801F022FC2C4B002219682C4858
:103D0000BDE8F84F01F058BCBAF80000022180B2BB
:103D1000FDF772FBFDF7F6FE1648FDF7F3FE254BA7
:103D20001868FDF7F1FAFDF7EDFE2348FEE69AF874
:103D30000030052B7FF605AFFDF764FE0121084634
:103D400003E700BF810700208007002067070020ED
:103D500068070020CE02002054010020CA64000839
:103D6000DB64000858070020F40900206D070020DC
:103D700082070020776300081D620008D3650008F1
:103D8000D66500084C08002074630008DE65000852
:103D900012650008545C0008EA6500082C650008FC
:103DA00041650008566500087E6500087807002018
:103DB00096650008B4020020F8650008740700202A
:103DC0006507002001212DE9F843894D894E2B78A4
:103DD000894A31704BB92970884913700B70884932
:103DE0000B7088490B6088490B60884F88493B8875
:103DF0009BB20B8087498C698846A342C0F0F08053
:103E0000002385491370854B09681B68DFF8F09122
:103E10005B1A032B06D9137823B1FFF79BFC002311
:103E200089F8003002287E4C51D17E4B1B78002B44
:103E300049D1FFF723F8012389F8003094F90010E5
:103E400041BB0846FDF7DEFD3888022180B2FDF750
:103E5000D3FAFDF757FE7448FDF754FE734B744FC9
:103E60001868FDF751FAFDF74DFE7248FDF74AFE5E
:103E70006C4B01211B780720002B40F0A880FDF738
:103E8000C1FD01210220FDF7E5FD3B780A2B84BF2F
:103E900000233B7094F90070012F23D100210846C4
:103EA000FDF7B0FD6448FDF72DFE0A23D8F8180091
:103EB0003946B0FBF3F0FDF79FFAFDF723FE5F48AC
:103EC000FDF720FE0EE0FFF745FC0023B4E70128D4
:103ED000B4D12378013B5BB2002B01DB2370ADE74B
:103EE0000323237094F90030022B1BD100210846D4
:103EF000FDF788FD5248FDF705FE524B98684FF4D8
:103F00006163B0FBF3F0FDF7FFF9FDF7FBFD4E48F1
:103F1000FDF7F8FD03200121FDF774FD4B4B1868F8
:103F2000FEF7BAFA94F90070374C032F1AD100212A
:103F30000846FDF767FD4648FDF7E4FD314B18687C
:103F40004FF46163B0FBF3F0FDF7DEF9FDF7DAFD46
:103F50004048FDF7D7FD38460121FDF753FD2068A5
:103F6000FEF79AFA3C4801F0E9FA297800223B482A
:103F700001F022FB384801F0E1FA3178002238489C
:103F800001F01AFB344801F0D9FA1C4B00221978D1
:103F9000344801F011FB304801F0D0FA324B0022D6
:103FA0001968324801F008FB2B4801F0C7FA99F86C
:103FB000001000222E4801F0FFFA274801F0BEFA57
:103FC00021680022BDE8F8432A4801F0F5BA3B78A1
:103FD000052B7FF654AFFDF715FD0121032052E7B5
:103FE00013781BB90D4B19680B4B1960012308E7B7
:103FF0008107002080070020640700206707002059
:10400000740700205C070020780700204C0800207F
:10401000BC07002054010020C0070020CC0700206E
:104020006D0700208207002077630008B40200209B
:1040300065070020F8650008016600081D62000899
:104040000F650008F4000020E16500087C070020EF
:10405000C764000812650008545C0008EA6500089F
:104060002C650008416500086807002056650008B7
:104070007E650008966500082DE9F04FA04A85B0DE
:1040800013788346DFF8D4A29E4EDFF8D4929E4D7B
:104090009E4F9F4C03F0FF080192002B40F062817D
:1040A0009C4B1A889C4B92B21B6A05339A4215D2DC
:1040B00041464046FDF7A6FC9848FDF723FD4FF426
:1040C000FA60FDF705F841464046FDF79BFC944831
:1040D000FDF718FD40F6B830FCF7FAFF01234FF06A
:1040E0000008019A13708F4A8AF8008082F80080D5
:1040F0008D4AC6F80080C9F80080C2F80080C5F873
:104100000080C7F800808AF80030FEF7BDFF012369
:10411000864A414640461370FDF774FC8448FDF71B
:10412000F1FC4FF47A70FCF7D3FF01232370DFF822
:104130002882D8F8000000B2FDF72EFA0528CDF845
:10414000088040F394817B4B734A1B8891699BB232
:104150008B42904629D2754B1A78022A25D1764B8C
:104160001B68B3F57A7F20D900236E490B7039683C
:10417000724B994204D93868D9F80010FDF76CFEEB
:10418000D9F80020684B1A603A686D4B9A6000239A
:1041900001228AF800202B603360FEF775FF0122B0
:1041A000237801332370614B1A70624AD8F82010CB
:1041B000138803929BB28B4208D95C4B1B78012B6E
:1041C00004D15D4B1B68B3F57A7F08D85D4B32682C
:1041D0001B689A4222D9554B1B78012B1ED194F9AA
:1041E0000030022B1ADC00238AF800302A68534B77
:1041F0009A4204D9286801223168FDF72DFE012377
:10420000484A137000233B60C9F80030FEF73EFEB9
:104210000222237801332370444B1A70454BD8F89F
:1042200020201B889BB2934208D9404B1B78012B5E
:1042300004D1414B1B68B3F57A7F08D8414B3268F3
:104240001B689A421DD9394B1B78012B19D194F95F
:104250000030022B15DDFFF77DFA0023314A8AF882
:10426000003013702A68354B9A4204D9286801221D
:104270003168FDF7F1FD0222237801332370324BC0
:104280001A70314CBBF1020F94F9003040F0AC8051
:1042900001335BB2042B40F0AF8000232370002178
:1042A0000846FDF7AFFB039B0221188880B2FDF79B
:1042B000A3F8FDF727FC2548FDF724FC029B1868AE
:1042C000FDF722F8FDF71EFC2148FDF71BFC01213C
:1042D0000620FDF797FB01210420FDF7BBFB1D4BDA
:1042E00093F800B0BBF1010F40F0BA8059460720A7
:1042F000FDF788FB59460020FDF7ACFB82E000BFCC
:104300008007002068070020580700205C07002075
:104310006C070020CE02002054010020CA6400086F
:10432000DB640008740700207C0700207002002076
:10433000EC6400084C080020B40700204F8C0500F6
:10434000F4000020F40900206D07002077630008C6
:10435000FD64000889070020B402002067070020E0
:104360007807002094F90030032B7FF7E0AEAA4CC9
:10437000022894F9003040F0C58001335BB2042B71
:1043800040F0C6800023237000210846FDF73AFB69
:10439000A24B0221188880B2FDF72EF8FDF7B2FB80
:1043A0009F48FDF7AFFB9F4B1868FCF7ADFFFDF78B
:1043B000A9FB9D48FDF7A6FB01210620FDF722FB86
:1043C00001210420FDF746FB984B93F80080B8F1DB
:1043D000010F40F01A8141460720FDF713FB4146CB
:1043E0000020FDF737FB99E0BBF1010F05D1013B40
:1043F0005BB2002BC0F2B780237094F90030002B21
:104400003FF44DAF94F900B0BBF1010F40F0AD8027
:1044100000210846FDF7F6FAD8F81000FCF774FF03
:10442000FDF770FB8248FDF76DFB0A23D8F81800F2
:104430005946B0FBF3F0FCF7DFFFFDF763FB78486C
:10444000FDF760FB5946D8F820000A23B0FBF3F0D3
:10445000FCF7D2FFFDF756FB7648FDF753FB84E0EF
:1044600001210720FDF7CEFA0121022044E7724B1B
:104470001B68B3F57A7F06D900210846FDF7C2FA1A
:104480006E48FDF73FFB6E4801F058F8019B002293
:1044900019786C4801F090F8694801F04FF89AF8E3
:1044A00000100022684801F087F8654801F046F8DE
:1044B00031680022654801F07FF8614801F03EF85C
:1044C00029680022624801F077F85D4801F036F86B
:1044D000604B00221978604801F06EF8584801F0EE
:1044E0002DF8D9F8001000225C4801F065F8544816
:1044F00001F024F800223968594805B0BDE8F04FB2
:1045000001F05AB8012804D1013B5BB2002B2ADB31
:10451000237094F90030002B3FF436AF94F90080FB
:10452000B8F1010F21D10021DFF840B10846FDF7B5
:1045300069FADBF81000FCF7E7FEFDF7E3FA3C4808
:10454000FDF7E0FA0A23DBF818004146B0FBF3F070
:10455000FCF752FFFDF7D6FA3148FDF7D3FA414692
:10456000DBF8200071E70323237094F90080B8F191
:10457000020F22D100210846FDF744FA01214046EE
:10458000FDF768FA00210120FDF73CFA3548FDF7F8
:10459000B9FA4FF461633868B0FBF3F0FCF7B4FE8E
:1045A000FDF7B0FA3048FDF7ADFA03200121FDF721
:1045B00029FAD9F80000FDF76FFF94F90040032CA9
:1045C0007FF461AF00210846FDF71CFA01210020AD
:1045D000FDF740FA00210120FDF714FA2148FDF70C
:1045E00091FA4FF461632868B0FBF3F0FCF78CFE9E
:1045F000FDF788FA1C48FDF785FA20460121FDF7F2
:1046000001FA3068FDF748FF3DE701210720FDF77B
:10461000F9F901210220E4E66D0700204C08002092
:1046200077630008B4020020FD64000889070020B9
:104630004C6400085F620008B40700201B65000896
:10464000545C00082C6500084165000856650008A8
:1046500066650008740700207E65000896650008FE
:10466000A9650008116400080565000854010020D0
:10467000384B70B59B683849DB4313F0400390B06A
:1046800065D0FFF767F80B78002B5ED10123334C20
:10469000334D0B7023682B61324B1B68AB60FCF70A
:1046A0001DFA2368B3F5E15F15D32F4B0BA91868EA
:1046B000FDF72CF84FF46163286901A9B0FBF3F012
:1046C000FCF75EFE294906AB0BAAFCF789FF022125
:1046D00006A8FCF7FDFB2368B3F5E15F15D3224B79
:1046E0000BA91868FDF712F84FF46163A86801A9D7
:1046F000B0FBF3F0FCF744FE1D4906AB0BAAFCF738
:104700006FFF022106A8FCF7E3FB0A20194D0122E6
:104710002B8801A99BB2B3FBF0F0FCF7D5FE06AAEB
:1047200001461548FCF746FFFCF70CFB3224134EFC
:1047300028880222314680B200F0F8FF013C322086
:10474000FCF7C6FC14F0FF04F2D110B070BD0B7082
:10475000FBE700BF00080140710200207007002045
:10476000F4000020B8020020780700200D66000841
:1047700013660008380800201A660008246600083E
:104780007FB50023754C0093019302930393E38953
:10479000734D9AB24FF4F023B3FBF2F3714A9BB21C
:1047A0001380A388E28999B2AB6A92B24B43B3FB00
:1047B000F2F30093009B02930298FCF7F4FF6A4B1C
:1047C0001A681044694A18601188013109B21180D1
:1047D000118809B21F290FDD196865480029B8BF83
:1047E0001F31C1F34F11018000211180196003882E
:1047F0009BB2022B98BF01802388E28999B2AB68F3
:1048000092B24B43B3FBF2F30193019B594E0393D6
:104810000398FCF7C6FF584B1A681044574A1860B3
:104820001188013109B21180118809B21F2908DDF0
:1048300019680029B8BF1F3149113160002111806A
:1048400019606388E28999B22B6992B24B43B3FB3A
:10485000F2F30193019B03930398FCF7A3FF484BEA
:104860001A681044474A18601188013109B2118052
:10487000118809B21F2909DD196843480029B8BF0A
:104880001F3149110160002111801960E388E2891C
:1048900099B2AB6992B24B43B3FBF2F30193019B24
:1048A00003930398FCF780FF384B1A681044384A8A
:1048B00018601188013109B21180118809B21F29CD
:1048C00009DD196833480029B8BF1F31491101605B
:1048D0000021118019602389E28999B22B6A92B272
:1048E0004B43B3FBF2F30193019B03930398FCF753
:1048F0005CFF294B1A681044284A1860118801315E
:1049000009B21180118809B21F2909DD19682448EC
:104910000029B8BF1F3149110160002111801960C1
:104920003368632B1F4B03DC32681A6004B070BD20
:10493000154A1168B1F57A7F01DA1268F5E7154A70
:104940001168B1F57A7FABBF154A116811680A2268
:10495000A8BF4FF47A724A43E7E700BF3A08002045
:10496000040000204A080020AC070020B007002007
:10497000CE020020C8020020A4070020A8070020C3
:104980008C07002090070020BC0200209407002024
:1049900098070020C00200209C070020A0070020EC
:1049A000C4020020B402002038B5FDF729FD344AC6
:1049B000344C13680133136023889BB2042B05D950
:1049C00000232380FFF7DCFEFFF752FE2E4A1388F8
:1049D0009BB2632B13D9002313802C4B198889B207
:1049E000B1F5AF7F82BF0120294908611B889BB2C6
:1049F000B3F5AA7F3EBF4FF48031254B1961254B9B
:104A0000198889B2B1F57A7F2DD300212248198007
:104A1000224905680968294401602149097801296A
:104A200001BF20480168013101601F49097801294F
:104A300001BF1E480168013101601D490978012943
:104A400001BF1C480168013101601B490868013041
:104A50000860096811F0010F0CBF4FF400404FF0DF
:104A60000040164908612188013189B221801188EE
:104A7000013189B211801A88013292B21A8038BD90
:104A8000B4070020B0020020AE020020CE020020B9
:104A9000000C0140AC02002070070020B40200208E
:104AA00067070020680700207407002078070020AF
:104AB0008A070020B8070020CC070020000801402A
:104AC00010B51D4C236843F48033236023689A0398
:104AD000FCD5636823F47C1343F4A0236360E36A8A
:104AE00023F00F03E362236843F08073236023689D
:104AF0009B01FCD5636823F0F0036360636823F4D3
:104B0000E0636360636823F460536360636823F069
:104B1000030343F002036360636803F00C03082B94
:104B2000FAD1064800F0BCFF044800F0C7FF6368F4
:104B300023F44043636010BD0010024000366E0154
:104B40002DE9F04FCA4D91B00120FCF7F5FFEB695C
:104B5000DFF8709343F08053EB61EB69DFF868A3F3
:104B600003F080530093009BD9F80C20C14B22F432
:104B7000E0621204120C1343C9F80C30BE4BBF4E56
:104B80005A68002422F0E0625A605A684FF0010B24
:104B900042F000725A60FFF793FF1422002109A827
:104BA00000F0C4FF2020FCF7C7FF0420FCF7C4FF7F
:104BB0000820FCF7C1FF4FF60343CAF814304FF446
:104BC000094344F240027361082309A93046CDE944
:104BD000092302270D9400F01DFE40F203324FF02E
:104BE000040809A95046CDE9092BCDE90B7400F062
:104BF00011FEA34A09A95046CDE9092BCDF8308012
:104C00000B9700F007FE9F4A09A93046CDE9092B12
:104C1000CDE90B7400F0FEFD4FF2F002082309A964
:104C20005046CDE90923CDF834B000F0F3FD6B69AF
:104C300043EA0B036B616B69934D03EA0B0301932A
:104C4000019BD9F80C00C0F30220FDF703F94FF4E3
:104C5000006300FA08F0C0B285F80B031C222B6039
:104C6000214609A800F062FF1422214604A800F0A2
:104C70005DFF4FF48040FCF75FFF4046FCF75CFFB0
:104C8000092382493046CDE90413032304A9CDE961
:104C9000063400F0BFFD7E4B04A93046CDE9043850
:104CA00000F0B8FDD9F80C00C0F30220FDF7D2F8EF
:104CB000202300FA08F0C0B285F825036B60754D1B
:104CC00009A9EB68284643F08003EB604FF41643D4
:104CD000CDE909340C23CDE90B44CDE90D340F9413
:104CE00000F072FE2B69142223F490432B616B6950
:104CF000214623F02A036B61EB6804A843F40053B8
:104D0000EB60CDE9024400F011FF1422214609A80E
:104D100000F00CFF4FF40070FCF70EFF4046FCF76C
:104D20000BFF4BF6BE6309A93046CDE9093400F00C
:104D300071FD594B4FF480781A68A5F5A05522F4FF
:104D4000804222F010021A601A6802A922F440522E
:104D500042F400521A601A68284642F020021A6093
:104D60001A6822F040021A601A6842F080021A6043
:104D70001A6822F4407242F480721A601A6822F4AF
:104D8000406242F480621A60444A9A60444ADA609F
:104D90005A68120C120442F008025A601A6842EA79
:104DA0000B021A600294CDF80C8000F0FCFC4FF46A
:104DB000E0034FF4602004A9CDE904032846CDE9BF
:104DC0000647CDF8208000F003FD36494FF400700F
:104DD000FDF724F83348FCF7F7FF334940F205208C
:104DE000FDF71CF83048FCF7EFFF304940F20A208D
:104DF000FDF714F82D48FCF7E7FF2D4940F20F208E
:104E0000FDF70CF82A48FCF7DFFF2A494FF405703C
:104E1000FDF704F82748FCF7D7FF274940F219208F
:104E2000FCF7FCFF2448FCF7CFFF24494046FCF781
:104E3000F5FF2248FCF7C8FFAB68214943F40003A3
:104E4000AB6040F20510FCF7E9FF1D48FCF7BCFF22
:104E5000AB68642043F40003AB60AB6843EA0B0328
:104E6000AB60FCF735F9AB6843F004032EE000BFFC
:104E7000001002400003FA05000001400008014054
:104E8000FC00FC048900890400E100E00200020447
:104E90000400040400380140080002404C24014092
:104EA0003A08002001003002020060020300900274
:104EB0000400C0020500F00207005003100020812A
:104EC0001100508100ED00E0000C0140AB60AC68C7
:104ED00014F00404FBD1AB6843F4A003AB60FCF70F
:104EE00020FE00F095FA4FF47A72B24B1B68B3FBC8
:104EF000F2F3013BB3F1807F08D2F021AE4A536058
:104F0000AE4B83F823100723946013604FF40043E3
:104F100000243361AA4DFEF71DFCAA482C60FCF763
:104F2000F1FDFCF7E5F8A84800F008FBA54800F003
:104F30009FFAFCF70FFD21462046FCF763FD4FF476
:104F40007A70FCF7C5F8FBF7EFF92B68172B88BFD1
:104F50002C60FBF7F1FC044668B94FF47A70FCF75B
:104F6000B7F8FBF7E9FC0446974800F0E7FA9748E2
:104F700000F07EFA34B1012C14D1934800F0DEFA2F
:104F800093480DE09348FCF7BDFD4FF47A60FCF7C1
:104F90009FF89148FBF7D6FE8B4800F0CFFA8B487C
:104FA00000F066FA8D4B8E4C1A698E4B1A604FF4E6
:104FB0006163226953438C4A1360A2688B4B1A6069
:104FC000236C8B4A13608B4A1360FBF785FE4FF40A
:104FD0007A70FCF77DF8FCF783FD8748FCF706FC48
:104FE000A368012B1DD18548FCF7E6FB844FDFF851
:104FF0006482844D384600F0A1FAB1680022404630
:10500000C1F3801100F0D8FA2B7801332B70FDF733
:1050100029FA431E0446032B20D8DFE803F01A3E8A
:105020004249022B01D17848DEE7032B01D17748B2
:10503000DAE7042B01D17648D6E7052B01D1754874
:10504000D2E7062B01D17448CEE7072BCBD17348AA
:10505000CAE7FCF7ABFB4068FCF7AEFBFCF7A6FB2E
:10506000664BDFF8F491834226D12046FDF794FA8F
:1050700099F8003003F0FF015BB9FEF76BFB684B5A
:105080001970684B1970684B1960684B1960684B50
:1050900019606420FCF71CF8ACE7FCF787FB00689C
:1050A000DAE70220FCF7ACFBFCF780FBC068D3E733
:1050B000FCF77CFB8068CFE7FCF778FB524B834220
:1050C00003D12046FDF710FFD2E7FCF76FFB4F4BF3
:1050D000834203D12046FEF745FBC9E7FCF766FB98
:1050E0004B4B834203D12046FEF7B0FCC0E7FCF7F0
:1050F0005DFB484B834203D12046FEF763FEB7E7D2
:10510000FCF754FB4B4B834203D12046FEF7B4FF20
:10511000AEE7FCF74BFB404B834203D12046FDF743
:10512000CFFFA5E7FCF742FB3C4B834203D120466F
:10513000FEF716FA9CE7FCF739FB3F4B834203D19D
:105140002046FDF727FF93E7FCF730FB3B4B8342FC
:1051500003D12046FDF75CFB8AE7FCF727FB384BC1
:10516000834203D12046FCF79DFE81E7FCF71EFB3E
:10517000344B834203D12046FDF7C2FC78E7FCF7AD
:1051800015FB314B834203D12046FDF783FC6FE7CB
:10519000FCF70CFB2D4B834203D12046FDF71EFD8F
:1051A00066E7FCF703FB2A4B834257D12046FDF705
:1051B000DDFC5DE78C02002010E000E000ED00E087
:1051C000540800207A0200209F5F00082C66000827
:1051D0003D5E00084466000855660008F4000020A3
:1051E0005401002060070020F4090020F809002085
:1051F000F009002074020020E91C00089C6D0008E2
:10520000545C000865070020F46D00084C6E00082F
:10521000A46E0008FC6E0008AC6F00080470000863
:10522000810700206D07002070070020B8020020D1
:1052300078070020286F00085C700008B470000830
:10524000006A0008706700081867000820680008F6
:10525000C86700086366000880070020FCF7A6FA0C
:105260003F4B834203D12046FDF75EFD00E7FCF78C
:105270009DFA3C4B834203D12046FDF71DFDF7E626
:10528000FCF794FA384B834203D12046FDF7DCFC4F
:10529000EEE6FCF78BFA354B834203D12046FDF74F
:1052A0007BFDE5E6FCF782FA314B834203D12046D1
:1052B000FCF742FEDCE6FCF779FA2E4B834203D181
:1052C0002046FCF795FED3E6FCF770FA2A4B8342A2
:1052D00003D12046FCF7B2FECAE6FCF767FA274B7B
:1052E000834203D12046FCF721FFC1E6FCF75EFABA
:1052F000234B834203D12046FCF73AFFB8E6FCF784
:1053000055FA204B834203D12046FCF753FFAFE60A
:10531000FCF74CFA1C4B834203D12046FCF768FF94
:10532000A6E6FCF743FA194B834203D12046FCF76B
:105330007DFF9DE6FCF73AFA154B834203D12046E8
:10534000FCF7D0FF94E6FCF731FA124B834203D10D
:105350002046FDF71DF88BE6002389F8003087E62C
:1053600028690008D068000878680008706900089B
:10537000B8690008586A0008846A0008086B0008C9
:10538000606B0008B86B0008106C0008686C0008BF
:10539000446D0008186D00087047FEE7FEE7FEE761
:1053A000FEE7704770477047FFF7FEBA704700008E
:1053B00014490B681B0624D5134BB3F8582492B23A
:1053C000DAB1B3F85824013A92B2A3F85824B3F8EA
:1053D000562492B2501C80B2A3F856041A4492F894
:1053E0006C20D2B24A60B3F8562492B2B2F57A7FFA
:1053F00007D10022A3F856247047CB6823F080031E
:10540000CB60704700380140D00200207047000098
:10541000124A10B55368124903F00C03082B0AD046
:10542000104B0B605368104AC3F30313D25C0B6834
:10543000D3400B6010BD53685068C3F38343C0036F
:1054400041BFD06A074C00F00F0001304CBFB4FBE5
:10545000F0F0064802334343E3E700BF0010024088
:105460008C02002000127A00DD70000800093D0067
:105470000021304A10B5D36823F08003D3602E4B4F
:10548000027802F0FF045ABBB3F8542492B2511CC4
:1054900089B2A3F854140A211A4482F86C10B3F8A4
:1054A000542492B2B2F57A7F08BFA3F85444B3F8FB
:1054B0005824013292B2A3F85824B3F85A14B3F81E
:1054C000582489B292B291423EBFB3F8582492B2A6
:1054D000A3F85A24174AD36843F08003D36010BD61
:1054E000B3F8542492B2541CA4B2A3F8544410F854
:1054F000014B1A44E4B282F86C40B3F8542492B2DF
:10550000B2F57A7F08BFA3F85414B3F858240132D7
:1055100092B2A3F85824B3F85A44B3F85824A4B26A
:1055200092B294423EBFB3F8582492B2A3F85A24E0
:10553000A6E700BF00380140D002002000211C4A2D
:1055400010B5D36823F08003D3601A4B02782AB9D0
:10555000174AD36843F08003D36010BDB3F85424D6
:1055600092B2541CA4B2A3F8544410F8014B1A444C
:10557000E4B282F86C40B3F8542492B2B2F57A7F68
:1055800008BFA3F85414B3F85824013292B2A3F818
:105590005824B3F85A44B3F85824A4B292B29442AF
:1055A0003EBFB3F8582492B2A3F85A24CEE700BF06
:1055B00000380140D002002037B501918DF803205A
:1055C0009DF8033004460198002B3FD1FBF79CFE69
:1055D0000025474AD36823F08003D360454B2278E7
:1055E00002F0FF01002A36D10138B3F8542410F834
:1055F000014F92B2002C57D1511C89B2A3F8541418
:105600000A211A4482F86C10B3F8542492B2B2F50D
:105610007A7F08BFA3F85444B3F85824013292B2F9
:10562000A3F85824B3F85A14B3F8582489B292B2A4
:1056300091423EBFB3F8582492B2A3F85A242C4AA0
:10564000D36843F08003D36003B030BD9DF80310EE
:10565000FBF7D2FEBCE7B3F8542492B2511C89B2D6
:10566000A3F8541414F8011B1A44C9B282F86C1040
:10567000B3F8542492B2B2F57A7F08BFA3F8545419
:10568000B3F85824013292B2A3F85824B3F85A144C
:10569000B3F8582489B292B291423EBFB3F858246D
:1056A00092B2A3F85A249AE7541CA4B2A3F8544423
:1056B00004781A4482F86C40B3F8542492B2B2F5DC
:1056C0007A7F08BFA3F85414B3F85824013292B279
:1056D000A3F85824B3F85A44B3F85824A4B292B2A9
:1056E00094423EBFB3F8582492B2A3F85A247CE700
:1056F00000380140D0020020024B1A681206FCD587
:105700005860704700380140014608B50B7803B96E
:1057100008BD11F8010BFFF7EFFFF7E708B5FFF73A
:10572000F3FFBDE808400A20FFF7E6BF37B5019058
:105730000D460198114672B9FBF7E6FD044628466E
:10574000FFF7E2FF2046FFF7DFFF0A2003B0BDE8C6
:105750003040FFF7D1BFFBF74FFEEFE7002103E03A
:105760000B4B5B58435004310A480B4B42189A428A
:10577000F6D30A4A02E0002342F8043B084B9A425F
:10578000F9D3FFF743FE00F09FF9FFF7D9F970470F
:10579000007100080000002090020020900200200C
:1057A000FC090020FEE70246806810B510F00100F9
:1057B0000CD153684C6823F480732343536093687F
:1057C000096823F400630B43936010BD0120FCE7DC
:1057D000836810B5DB071BD443684A6823F4684329
:1057E00012B18C6813432343436083680C6823F42D
:1057F000602323F481732343CC68096923430B435B
:105800008360C36A23F470031343C362002010BD96
:105810000120FCE72DE9F04F0D680446C5F30F2584
:1058200095FAA5F24FF00F0AB2FA82F24FF003098F
:1058300004274FF0011C40F2011E35FA02F001D19D
:10584000BDE8F08F012393402B425ED0072A85BF2D
:10585000A2F108030CFA03F30EFA02F343F080639B
:10586000E0681E0A96FAA6F8B8FA88F820EA060652
:10587000086900FA08F03043E0604FEA136893FAD1
:10588000A3F6B6FA86F693FAA3FBBBFA8BFBB60037
:105890000AFA06F054F808604FEA8B0B26EA000675
:1058A000486800FA0BFB46EA0B0644F808604868B3
:1058B00020F00800012828D193FAA3F0B0FA80F074
:1058C00093FAA3FBBBFA8BFB800009FA00F026EAEF
:1058D000000688684FEA8B0B00FA0BFB46EA0B06C2
:1058E00044F8086093FAA3F0B0FA80F093FAA3F3B7
:1058F000B3FA83F3800007FA00F026EA0000CE68CE
:105900009B009E40064344F80860013295E7000082
:10591000034B044A5B68C3F30313D35CD84070475E
:1059200000100240DD700008034B044A5B68C3F3BB
:105930000223D35CD840704700100240ED7000088D
:10594000034B044A5B68C3F3C223D35CD84070475F
:1059500000100240ED700008094B5A68D20341BFA5
:10596000D86A084A00F00F00013048BFB2FBF0F0DF
:105970005B6858BF0448C3F38343023358437047FE
:105980000010024000127A0000093D00044B5B68E1
:1059900003F00C03082B01D1FFF7DEBF014870476D
:1059A0000010024000127A0008B50146FFF7EEFF32
:1059B0000860FFF7ADFF4860FFF7B6FF88604868F2
:1059C000FFF7BEFFC86008BD30B5C36804469B043E
:1059D0000D4685B002D5012005B030BD4B68C968C1
:1059E000C2680B43296922F416420B43A96922F0CD
:1059F0000C020B431343C3600369AA6823F44053AA
:105A00001343036143696A6923F440731343436199
:105A10006846FFF7C9FF1F4B9C4224D10399002918
:105A2000D9D02A68002AD6D019234B43A969B1F5E9
:105A3000004F4FF064011FD15200B3FBF2F3B3FBF0
:105A4000F1F001FB1033DB003233B3FBF1F303F071
:105A500007025B0002EB001203F4F87313449BB2DD
:105A60000020A360B8E70C4B9C4201D10299D6E715
:105A70000A4B9C42AFD1F9E79200B3FBF2F3B3FBC0
:105A8000F1F201FB12331B013233B3FBF1F303EBF1
:105A90000213E4E7003801400044004000480040A1
:105AA0004FF47A73B0FBF3F00022034B01385860D7
:105AB0009A6005221A60704710E000E0014B186000
:105AC000704700BF8C02002070B500260C4D0D4CB5
:105AD000641BA410A64209D100F030F800260A4D3C
