:020000040800F2
:1000000000200020F15400085D5100085F510008F5
:1000100061510008635100086551000800000000AC
:100020000000000000000000000000006751000810
:1000300069510008000000006B5100086D51000874
:100040003955000839550008395500083955000858
:100050003955000839550008395500083955000848
:100060003955000839550008395500087151000804
:100070003955000839550008395500083955000828
:1000800039550008395500083955000800000000AE
:1000900000000000000000000000000039550008CA
:1000A00039550008395500083955000839550008F8
:1000B00039550008395500083955000839550008E8
:1000C0003955000800000000000000003955000804
:1000D0003955000875510008395500083955000890
:1000E000395500083955000839550008000000004E
:1000F0000000000000000000000000000000000000
:1001000000000000000000000000000000000000EF
:1001100000000000000000003955000839550008B3
:1001200000000000000000000000000000000000CF
:1001300000000000000000000000000000000000BF
:1001400000000000000000000000000000000000AF
:10015000000000000000000000000000000000009F
:10016000000000000000000000000000000000008F
:10017000000000000000000000000000000000007F
:10018000000000000000000000000000000000006F
:10019000000000000000000000000000000000005F
:1001A000000000000000000000000000000000004F
:1001B000000000000000000000000000000000003F
:1001C0000000000000000000000000005FF808F1DF
:1001D00010B5054C237833B9044B13B10448AFF381
:1001E00000800123237010BD900200200000000059
:1001F000D058000808B5034B1BB103490348AFF3BF
:10020000008008BD0000000094020020D0580008C3
:100210000E4A1346D168C907FCD4D168890644BF89
:100220002021D1601A6942F002021A6158611A69EC
:1002300042F040021A61054BDA689206FCD5202292
:10024000DA601A6922F002021A6170470020024047
:10025000034B044A5A6002F188325A60704700BF6B
:100260000020024023016745024A136943F08003DE
:100270001361704700200240114B10B51A46DC682C
:10028000E407FCD4DC68A40644BF2024DC601369C6
:1002900043F0010313610A4A8BB203801346D4680A
:1002A000A406FCD52024090CD4604180DA689206AB
:1002B000FCD52022DA601A6922F001021A6110BD11
:1002C0000020024038B572B6FFF7C2FF104805F0B3
:1002D00017F8104C00224FF4CE710F4805F04EF87D
:1002E0000B4805F00DF8002221680C4805F046F88F
:1002F0000B48FFF78DFF0B4D094854F8041BFFF71F
:10030000BBFF0430A842F8D1FFF7AEFF62B638BD9C
:10031000E859000888080020F0590008F75900083B
:1003200000E401089CE50108054A064B064953F81C
:10033000040B8B4242F8040BF9D10120704700BF37
:100340008808002000E401089CE50108F8B504686D
:1003500007468C420D4601D394421BD900260E4B12
:100360000E481E7004F0CCFF324639460C4805F0AA
:1003700005F80A4804F0C4FF21463246094804F053
:10038000FDFF064804F0BCFF32460749074804F069
:10039000F5FF2C462046F8BD00000020E859000873
:1003A000FD590008145A000800EC0108265A0008FC
:1003B00010B5194C6068FFF72BFFD4E90010FFF768
:1003C0005BFFD4E90210FFF757FFD4E90410FFF7F1
:1003D00053FFD4E90610FFF74FFFD4E90810FFF7E9
:1003E0004BFFD4E90A10FFF747FFD4E90C10FFF7E1
:1003F00043FFD4E90E10FFF73FFFD4E91010FFF7D9
:100400003BFFD4E91210FFF737FF044804F078FFF0
:10041000034804F00FFF10BD04000020E859000855
:100420003D5A000810B5194C6068FFF7F1FED4E999
:100430000010FFF721FFD4E90210FFF71DFFD4E9F8
:100440000410FFF719FFD4E90610FFF715FFD4E9F0
:100450000810FFF711FFD4E90A10FFF70DFFD4E9E8
:100460000C10FFF709FFD4E90E10FFF705FFD4E9E0
:100470001010FFF701FFD4E91210FFF7FDFE04484A
:1004800004F03EFF034804F0D5FE10BD54000020E8
:10049000E8590008565A000838B5244C4FF48072C9
:1004A00000216068FFF752FF4FF47A72206000214C
:1004B000E068FFF74BFF4FF47A72A060002160699B
:1004C000FFF744FF1A4D20612A460A21E069FFF731
:1004D0003DFF2A46A0610A21606AFFF737FF2A46DE
:1004E00020620A21E06AFFF731FF2A46A0620A2152
:1004F000606BFFF72BFF2A4620630A21E06BFFF7B2
:1005000025FFC822A0634621606CFFF71FFFC822A9
:100510000A212064E06CFFF719FFA064054804F08D
:10052000EFFE054804F086FE38BD00BF0400002041
:10053000A0860100E8590008765A000838B5244C16
:100540004FF4807200216068FFF700FF4FF47A7269
:1005500020600021E068FFF7F9FE4FF47A72A06096
:1005600000216069FFF7F2FE1A4D20612A460A2138
:10057000E069FFF7EBFE2A46A0610A21606AFFF7F7
:10058000E5FE2A4620620A21E06AFFF7DFFE2A46DE
:10059000A0620A21606BFFF7D9FE2A4620630A2178
:1005A000E06BFFF7D3FEC822A0634621606CFFF723
:1005B000CDFEC8220A212064E06CFFF7C7FEA064CC
:1005C000054804F09DFE054804F034FE38BD00BF28
:1005D000A4000020A0860100E8590008905A0008F5
:1005E00010B5174C6068FFF713FED4E90010FFF751
:1005F00043FED4E90210FFF73FFED4E90410FFF7F1
:100600003BFED4E90610FFF737FED4E90810FFF7E8
:1006100033FED4E90A10FFF72FFED4E90C10FFF7E0
:100620002BFED4E90E10FFF727FED4E91010FFF7D8
:1006300023FE044804F064FE034804F0FBFD10BDF3
:1006400054010020E8590008B35A000810B5174CAF
:100650006068FFF7DDFDD4E90010FFF70DFED4E977
:100660000210FFF709FED4E90410FFF705FED4E9F4
:100670000610FFF701FED4E90810FFF7FDFDD4E9ED
:100680000A10FFF7F9FDD4E90C10FFF7F5FDD4E9E6
:100690000E10FFF7F1FDD4E91010FFF7EDFD04484F
:1006A00004F02EFE034804F0C5FD10BD9C0100209F
:1006B000E8590008C95A000810B5224C4FF480725E
:1006C00000216068FFF742FE0A2220600121E068F5
:1006D000FFF73CFE4FF47A72A06001216069FFF7DA
:1006E00035FE4FF47A6220610121E069FFF72EFEAA
:1006F0004FF47A62A0610121606AFFF727FE42F29F
:10070000107220620021E06AFFF720FE42F21072B0
:10071000A0620021606BFFF719FE642220630021B4
:10072000E06BFFF713FE03220121A063606CFFF76B
:100730000DFE2064044804F0E3FD044804F07AFD53
:1007400010BD00BF54010020E8590008E65A000817
:1007500010B5224C4FF4807200216068FFF7F6FD5F
:100760000A2220600121E068FFF7F0FD4FF47A7261
:10077000A06001216069FFF7E9FD4FF47A62206112
:100780000121E069FFF7E2FD4FF47A62A0610121E7
:10079000606AFFF7DBFD42F2107220620021E06A1E
:1007A000FFF7D4FD42F21072A0620021606BFFF7E8
:1007B000CDFD642220630021E06BFFF7C7FD03221B
:1007C0000121A063606CFFF7C1FD2064044804F0C0
:1007D00097FD044804F02EFD10BD00BFE401002089
:1007E000E8590008FD5A000810B50D4C6068FFF785
:1007F0000FFDD4E90010FFF73FFDD4E90210FFF729
:100800003BFDD4E90410FFF737FDD4E90610FFF7EC
:1008100033FD044804F074FD034804F00BFD10BDE3
:1008200014010020E85900081D5B000838B5114C80
:100830004FF4807200216068FFF788FD0E4D206044
:100840002A460021E068FFF781FD2A46A0600021CA
:100850006069FFF77BFD012200212061E069FFF75D
:1008600075FDA061054804F04BFD054804F0E2FC6D
:1008700038BD00BFF400002000286BEEE8590008E6
:10088000445B000838B5114C4FF480720021606859
:10089000FFF75CFD0E4D20602A460021E068FFF75F
:1008A00055FD2A46A06000216069FFF74FFD012237
:1008B00000212061E069FFF749FDA061054804F0CF
:1008C0001FFD054804F0B6FC38BD00BF3401002010
:1008D00000286BEEE8590008635B000870B501243E
:1008E0000E4D2C7072B6FFF7A1FFFFF7E5FEFFF784
:1008F000D3FD62B62E780A483EB904F001FD0948DE
:1009000004F098FC2C70304670BD04F0F9FC0648E9
:1009100004F090FC26462C70F5E700BF0000002094
:10092000E85900088B5B0008A45B000870B514460A
:10093000C0B006460D464FF480726846074904F081
:10094000B1FF204616F8012B013D424015F0FF058E
:100950001DF80200F6D140B070BD00BFE858000895
:1009600038B572B6144D00224C212846FFF7DEFF41
:10097000044645F8040CFFF76BFCFFF719FDFFF781
:10098000DDFD00224C210D48FFF7D0FF84420C48CA
:1009900009D104F0B5FC0B4804F04CFCFFF764FCF3
:1009A00062B6012038BD04F0ABFC074804F042FCFD
:1009B000FFF7FEFCF2E700BF08000020A8000020BF
:1009C000E8590008D85B0008FD5B000838B572B62E
:1009D000244D002244212846FFF7A8FF0446224860
:1009E00004F08EFC00222146204804F0C7FC1E487B
:1009F00004F086FC002244211D4804F0BFFC45F8A9
:100A0000044CFFF725FCFFF7EBFDFFF7A1FE0022EA
:100A100044211848FFF78AFF0546134804F070FC8C
:100A200000222946114804F0A9FC0F4804F068FC94
:100A30000F480022442104F0A1FCAC420A4809D12D
:100A400004F05EFC0C4804F0F5FBFFF70DFC62B609
:100A5000012038BD04F054FC084804F0EBFBFFF71C
:100A6000BFFDF2E758010020E85900082D5C00089E
:100A7000385C0008E8010020445C0008665C00085F
:100A800038B54A4804F03CFC494804F0D3FB72B640
:100A9000484DFFF7DDFB00224C212846FFF746FFBB
:100AA000044645F8040CFFF7BDFCFFF747FD0022A4
:100AB0004C214148FFF73AFF84423C485DD104F0A5
:100AC0001FFC3E4804F0B6FB3D4D00224421284661
:100AD000FFF72CFF0446354804F012FC00222146A3
:100AE000384804F04BFC314804F00AFC0022442151
:100AF000354804F043FC45F8044CFFF7A7FDFFF729
:100B000027FE002244213148FFF710FF0546274801
:100B100004F0F6FB002229462A4804F02FFC234863
:100B200004F0EEFB28480022442104F027FCAC42EC
:100B30001E482AD104F0E4FB254804F07BFB254D38
:100B400000221C212846FFF7F1FE044645F8040C5C
:100B5000FFF74AFEFFF796FE00221C211E48FFF712
:100B6000E5FE8442114818D104F0CAFB1B4804F08A
:100B700061FBFFF779FB62B638BD04F0C1FB184892
:100B800004F058FBFFF74EFC9EE704F0B9FB154854
:100B900004F050FBFFF75AFDD1E704F0B1FB124817
:100BA00004F048FBFFF720FEE3E700BFE859000828
:100BB000BF5B000858000020A8000020D75B000899
:100BC000A00100202C5C0008375C0008E801002030
:100BD000435C00081801002038010020925C0008E6
:100BE000FC5B0008655C0008BC5C000817491848FD
:100BF0002DE9F04142F2107C00240E460546154FC7
:100C0000B1F900E0B1F90420B1F90280A2EB0E02C3
:100C10000CFB02F2B1F906300134A3EB080392FB9E
:100C2000F3F3436003FB08F393FBF7F3072C7344E0
:100C3000C0F80080836001F1040100F10C00DFD1F5
:100C4000B6F91E306B65BDE8F08100BF2C020020B4
:100C500008080020F0D8FFFF2DE9F0415D4C064662
:100C6000206800F0DBFA0022276807EB0713390140
:100C7000234410F802C015460132D2B2BCF1000F75
:100C80001BD1CB19E01805443A200433287104EB3A
:100C9000030C701E10F8016FD5B296B92A462021B8
:100CA0002B4423440F2A75D9102DC5F1100188BF9C
:100CB00000210D4405F0FF050EE01D4485F804C039
:100CC000D7E70F2D03D80CF802600132E2E70023CA
:100CD000394421440A4413713F4804F011FB29466A
:100CE00000223E4804F04AFB236803EB0311214431
:100CF000294400250133172B0D7123603ED90A26A4
:100D00002F464FF02008284600F088FA002305EB14
:100D100005112A01214410F803E09C460133DBB29F
:100D2000BEF1000F3BD13A20511921448C448CF87C
:100D3000040006EB0610204401EB030C9CF804C0F1
:100D4000BCF1000F2FD1581EC0B284465119043196
:100D500001442144BCF10F0F34D91028C3F1110311
:100D6000DBB288BF00232A442244024401351344E5
:100D70000E2D1F7106F10106C5D12560FFF7A2FAFD
:100D8000154804F0BDFA21680022BDE8F04114487E
:100D900004F0F4BA013203F8011BD2B282E78C44AA
:100DA0008CF804E0B7E700EB030C092D8CBF9CF82E
:100DB00004C09CF805C001EB030E01338EF804C09B
:100DC000DBB2B9E70CF1010C01F8018B5FFA8CFC86
:100DD000C0E700BF88080020E8590008F15C00085F
:100DE000F65C00082DE9F8435E4C804620680E460C
:100DF00000F014FA0022276807EB07133901234497
:100E000010F802C015460132D2B2BCF1000F1DD15C
:100E1000CB19E018054404332E7108F1FF3004EBC0
:100E2000030E10F801CFD5B2BCF1000F12D12A4643
:100E300020212B4423440F2A75D9102DC5F1100110
:100E400088BF00210D4405F0FF050EE01D4485F824
:100E500004C0D5E70F2D03D80EF802C00132E0E739
:100E60000023394421440A4413713F4804F048FAEE
:100E7000294600223D4804F081FA236803EB031160
:100E80002144294400250133172B0D7123603ED9DD
:100E90000A27A8464FF02009284600F0BFF9002392
:100EA00005EB05112A01214410F803E09C460133AB
:100EB000DBB2BEF1000F3BD1511921448C4407EB4A
:100EC00007108CF80460204401EB030C9CF804C06C
:100ED000BCF1000F30D1581EC0B284465119043104
:100EE00001442144BCF10F0F35D91028C3F111037F
:100EF000DBB288BF00232A44224402440135134454
:100F00000E2D83F8048007F10107C5D12560FFF796
:100F1000D9F9154804F0F4F921680022BDE8F84336
:100F2000134804F02BBA013203F8011BD2B282E756
:100F30008C448CF804E0B7E700EB030C092D8CBF60
:100F40009CF804C09CF805C001EB030E01338EF839
:100F500004C0DBB2B8E70CF1010C01F8019B5FFAA9
:100F60008CFCBFE788080020E8590008F15C000805
:100F7000F65C0008002384B00128009301D10090A2
:100F800004E00228FBD003281AD01CD8124B9A6820
:100F90000192019A02929A6803920399029A9142ED
:100FA00004D35A6801990A4401320192039A0292C9
:100FB000019A03980099121A8A42ECD304B0704740
:100FC00012230093E2E7054B054A1B680338B3FB85
:100FD000F2F35843D3E700BF10E000E08C0200209A
:100FE00040420F0007B50190019B13B903B05DF8B3
:100FF00004FB4FF47A70FFF7BDFF019B013B0193A7
:10100000F2E7000038B5684C684D204604F078F9E6
:1010100029680022664804F0B1F9204604F070F90E
:10102000A9680022634804F0A9F9204604F068F991
:1010300029690022604804F0A1F9204604F060F913
:10104000A96900225D4804F099F9204604F058F996
:10105000296A00225A4804F091F9204604F050F918
:10106000A96A0022574804F089F9204604F048F99B
:10107000296B0022544804F081F9204604F040F91D
:10108000A96B0022514804F079F9204604F038F9A0
:10109000296C00224E4804F071F9204604F030F922
:1010A000A96C00224B484C4D04F068F93220FFF740
:1010B00099FF204604F024F929680022474804F0EB
:1010C0005DF9204604F01CF9A9680022444804F0A8
:1010D00055F9204604F014F929690022414804F02A
:1010E0004DF9204604F00CF9A96900223E4804F0AD
:1010F00045F9204604F004F9296A00223B4804F02F
:101100003DF9204604F0FCF8A96B0022384804F0B1
:1011100035F9204604F0F4F8A96A0022354804F0B5
:101120002DF9204604F0ECF8296B0022324804F037
:1011300025F9204604F0E4F8296C00222F4804F039
:101140001DF92F4D3220FFF74DFF204604F0D8F84F
:10115000296800222B4804F011F9204604F0D0F849
:10116000A9680022284804F009F9204604F0C8F8CC
:1011700029690022254804F001F9204604F0C0F84E
:10118000A9690022224804F0F9F8204604F0B8F8D2
:10119000204B21481968002204F0F0F8BDE83840DF
:1011A0003220FFF71FBF00BFFA5C000804000020D8
:1011B000015D0008145D0008325D0008515D000803
:1011C0006E5D00088C5D0008A95D0008C75D000821
:1011D000E55D0008035E0008540100201B5E000866
:1011E0002F5E0008485E0008555E0008625E000839
:1011F0006F5E00087D5E00088F5E0008A25E00083A
:10120000F4000020BF5E0008DB5E0008035F0008FA
:10121000255F00088C020020315F0008F0B5002334
:101220000A2780EAE07185B0A1EBE0711C46B1FBB2
:10123000F7F604AD2C4407FB1615303504F8105CA6
:101240000C46DAB2531C092C31465BB2EEDC0028A6
:1012500006DA04A90B442D21023203F8101C53B204
:10126000002104AA1A4402F8101C1A46084CD0B2F5
:10127000191A49B21AB90648625405B0F0BD04AD56
:101280002A4412F8112C6254421E52B2EFE700BFFA
:101290005C070020F0B5044600234FF00A0C084616
:1012A00084EAE47185B0A1EBE4711D46B1FBFCF763
:1012B00004AE35440CFB1716303605F8106C0D469D
:1012C000DAB2531C092D39465BB2EEDC002C06DA8B
:1012D00004A90B442D21023203F8101C53B2002143
:1012E00004AA1A4402F8101C1A46D4B2191B49B2B7
:1012F000451812B92A7005B0F0BD04AD2A4412F8A1
:10130000112C4254621E52B2EFE7000000224FF04F
:101310000A0CF0B580EAE0748BB0A4EBE0741546DB
:10132000B4FBFCF70AAE35440CFB1746303605F823
:10133000286C2546D3B25A1C092D3C4652B2EEDC2D
:10134000012A0AAC1444D7BF3022002304F8282C09
:101350009A1CD4BF52B204F8283C022A08DC0129A6
:1013600006D930240AAB1344013203F8284C52B298
:1013700000242E26234665B2AA4212DC002806DA93
:101380000AA95A1C0B442D2103F8141C53B21A4607
:10139000114CD0B2191A49B2B2B90F4862540BB00D
:1013A000F0BD8B421D4605D10AAF01333D445BB20F
:1013B00005F8146C1DF804700AAD1D44013305F8DE
:1013C000147C5BB20134D6E70AAD2A4412F8152C1E
:1013D0006254421E52B2DCE76C070020002802D0A3
:1013E000DCBF404200B2704702460023D8B2115C15
:1013F00001330029FAD1704770B505460024104624
:1014000062B2AB5C661C43B95AB28D5CE21852B250
:101410008618013325B9357070BD34468354EFE723
:101420008554F1E7F0B504460F461846002569B229
:10143000635C6E1C83B9DEB2F95C74195FFA84FCDC
:1014400064B261B94BB2D45C0CEB01035BB2C5185A
:10145000013144B92C70F0BD35464354E7E7731CA5
:1014600001555BB2E7E7C454ECE72DE9F0410746CC
:101470004FF4616086B00C46B7FBF0F001A9FFF7AE
:1014800009FF01A8FFF7B0FF012896BF0122002243
:101490003023154698BF2370EEB2B31A06A95BB28B
:1014A0000B4413F8141C6319751C6DB2002949D143
:1014B0003A221A703C23B7FBF3F2B2FBF3F001A916
:1014C00003FB1020FFF7E6FE01A8FFF78DFF0128C0
:1014D0009FBF30236355B51C6DB22E465FFA86F868
:1014E000A8EB050306AA5BB2134413F8142CA31946
:1014F00008F1010676B23ABB3A221A703C23B7FBD8
:10150000F3F001A903FB1070FFF7C4FE01A8FFF779
:101510006BFF01289CBF3023A3554FF000039CBFF5
:1015200008F1020676B25AB206A90A4412F8141C4F
:101530009A1952B2A018013341B90170204606B081
:10154000BDE8F0811970A7E71A70C7E7A154EAE770
:10155000F0B506464FF4616087B00C46B6FBF0F07C
:1015600001A9FFF797FE01A8FFF73EFF012896BFEC
:10157000012200223023154698BF2370EFB2BB1A18
:1015800006A95BB20B4413F8141C63197D1C6DB2E1
:1015900029BB3A221A703C23B6FBF3F6B6FBF3F0F4
:1015A00001A903FB1060FFF775FE01A8FFF71CFF00
:1015B00001289CBF302363554FF000039CBFBD1C26
:1015C0006DB25AB206A90A4412F8141C5A1952B242
:1015D000A018013329B90170204607B0F0BD197079
:1015E000CCE7A154EDE700000C494B680A688B601A
:1015F0009342C1E9000205DC834209DC9042A8BFA6
:1016000010467047824203DC9842A8BF18467047D4
:101610009342A8BF13461846704700BF200700201A
:101620000C494B680A688B609342C1E9000205DCF3
:10163000834209DC9042A8BF10467047824203DC17
:101640009842A8BF184670479342A8BF1346184651
:10165000704700BF2C0700200C494B680A688B605C
:101660009342C1E9000205DC834209DC9042A8BF35
:1016700010467047824203DC9842A8BF1846704764
:101680009342A8BF13461846704700BF3807002092
:101690000C494B680A688B609342C1E9000205DC83
:1016A000834209DC9042A8BF10467047824203DCA7
:1016B0009842A8BF184670479342A8BF13461846E1
:1016C000704700BF440700200C494B680A688B60D4
:1016D0009342C1E9000205DC834209DC9042A8BFC5
:1016E00010467047824203DC9842A8BF18467047F4
:1016F0009342A8BF13461846704700BF500700200A
:101700007047704770477047014B1868704700BFBB
:101710004C020020094B10B598420DD060B1084A28
:10172000084C126820600AB11830904723681B6982
:1017300013B1BDE81040184710BD00BF445F00085A
:10174000800700204C020020024B1860024B1868F2
:10175000FFF7E0BF800700204C020020044B054A41
:101760001B68934203D013B15B6903B118477047FC
:101770004C020020445F00084FF4804310B5064C33
:1017800002202361FFF7F6FB4FF080430220236124
:10179000BDE81040FFF7EEBB000C014070B54FF004
:1017A0007C454FF480560D4C25612661FFF7E4FF20
:1017B0000120FFF717FC25612661FFF7DDFF0120FF
:1017C000FFF710FC4FF4806325612361FFF7D4FF1E
:1017D000BDE870400120FFF705BC00BF000C0140D0
:1017E0004FF07C42244B70B504460D461A6111B18E
:1017F0004FF400421A61E20644BF4FF400521A61EE
:1018000014F0200F18BF4FF480521B4B18BF1A6101
:10181000660644BF4FF400621A6114F0800F18BFCF
:101820004FF48063144E18BF3361FFF7A5FF4FF0EC
:101830007053E007336144BF4FF400533361A10795
:1018400042BF4FF480520C4B1A61620742BF4FF403
:101850000062094B1A61230742BF4FF48062064BB6
:101860001A61FFF789FF0220FFF7BCFB1DB14FF0A3
:101870000042014B1A6170BD000C0140C00040F0F5
:10188000400038B500F0F8000C460021FFF7A8FF33
:10189000651E073415F8010F0121FFF7A1FFA542CE
:1018A000F8D1BDE8384000218020FFF799BF000043
:1018B00073B51F4C1F4D69460020CDE900451E4EF3
:1018C000FFF7DCFF1D4B69460120CDE90036FFF72D
:1018D000D5FF1B4B6946CDE900350220194DFFF7B6
:1018E000CDFF69460320CDE90056FFF7C7FF6946E3
:1018F0000420CDE90054FFF7C1FF134A134B69469A
:101900000520CDE90023FFF7B9FF114B114906204F
:10191000CDE900136946FFF7B1FF0F4B0F48694649
:10192000CDE900030720FFF7A9FF02B070BD00BF9B
:1019300004150E0400041F1F0000041F150E0400F0
:1019400000040E15040E15040207070A0A1C1C08E1
:10195000051509000F050505010101001111111FF1
:10196000064A1070064A117019B940F08000FFF75E
:1019700037BF002140F0C000F9E700BF8407002016
:101980008507002070B505460E460446207800B94C
:1019900070BD0121FFF724FF012E07D1631BDBB2CD
:1019A000072B03D131460020FFF7DAFF0134EDE7C2
:1019B0000121C0B2FFF714BF2DE9F8430D46DFF84F
:1019C00078801B4E1B4F441E14F8010F08B9BDE868
:1019D000F883B22819D101214920FFF701FF33789C
:1019E00097F800900133DBB23370B9F1000FEBD1FF
:1019F000082BE9D1022DE7D101214846FFF7B0FFBE
:101A0000012386F800903B70DEE7AF2802D1012168
:101A10000320E2E7AA2802D101210220DDE7BF2846
:101A200089BF40440121012110F8C00CD5E700BF57
:101A3000840700208507002050020020002101209B
:101A4000FFF7CEBE08B56420FFF7CCFAFFF7A6FE7D
:101A500000210E20FFF7C4FEBDE80840FFF7EEBFEF
:101A60000221FFF7A9BF10B5044608461146FFF74B
:101A700077FF2046BDE810400221FFF79DBF08B563
:101A8000FFF7E0FFFFF7DAFFBDE8084000210C2078
:101A9000FFF7A6BE054B82B09A6902439A619B6923
:101AA00018400190019B02B0704700BF0010024037
:101AB0000022014B1A807047F207002008B5FEF79C
:101AC0004FFFBDE808400148FFF7C6B85C5F00085B
:101AD00010B53B4C94F9001061B90846FFF740FF80
:101AE0003848FFF7BDFF4FF48762374B9A6140F2E9
:101AF000B4521A6294F90030012B0DD1002108462E
:101B0000FFF72EFF3148FFF7ABFF4FF496722E4BD5
:101B10009A614FF4D2721A6294F90030022B0DD1FF
:101B200000210846FFF71CFF2948FFF799FF4FF4F3
:101B30008C72254B9A614FF4B9721A6294F9003095
:101B4000032B0CD100210846FFF70AFF2148FFF7BD
:101B500087FFA0221C4B9A614FF48C721A6294F991
:101B60000030042B0DD100210846FFF7F9FE1A487A
:101B7000FFF776FF4FF44872134B9A614FF4AA6255
:101B80001A6294F90030052B0CD100210846FFF7AA
:101B9000E7FE1248FFF764FF64220B4B9A614FF493
:101BA000FA621A6294F90030062B04BF00232370F6
:101BB000FEF70CFFBDE810404FF41670FFF712BAA5
:101BC0009F070020685F000854010020795F00082B
:101BD0008A5F00089B5F0008AC5F0008BD5F0008DB
:101BE000FEF7F4BE08B501210720FFF7B9FE012179
:101BF000FF20FFF7F5FDFEF7E9FE044BC8209A68C9
:101C0000034B1A60BDE80840FFF7ECB9540100200F
:101C10002C0A002008B501210720FFF7A1FE0121B1
:101C2000FF20FFF7DDFDFEF7D1FE044BC8201A6C44
:101C3000034B1A60BDE80840FFF7D4B954010020F7
:101C4000240A002018B100221146FFF70CBF70478C
:101C500049F6AF2310B50E4C90B022689A4215D9C0
:101C60000C4B0BA91868FFF773FC4FF461632068F5
:101C700001A9B0FBF3F0FFF70DFB074906AB0BAA78
:101C8000FFF7D0FB022106A8FFF7ACF810B010BD9B
:101C90008C070020A8070020CE5F000810B5164C66
:101CA000164890B003F02CFB00222168144803F082
:101CB00065FB49F6AF2322689A421BD9114B0BA949
:101CC0001868FFF745FC4FF46163206801A9B0FB79
:101CD000F3F0FFF7DFFA06AB0BAA0B49FFF7A2FB05
:101CE000012106A8FFF77EF8044803F009FB06A8C7
:101CF00003F0A0FA10B010BD88070020E8590008D2
:101D0000D25F000898070020CE5F000808B50121C7
:101D10000720FFF725FEBDE808400121FF20FFF75F
:101D20005FBD00004FF0007170B591FAA1F1B1FAFA
:101D300081F3104C00F00071D9404FF0F87254F864
:101D4000215000F0F87092FAA2F3B3FA83F392FAFA
:101D5000A2F20726B2FA82F220FA03F306FA03F39C
:101D6000D04025EA030306FA00F0184344F82100A6
:101D700070BD00BF0C2401404FF4407330B593FA9E
:101D8000A3F3B3FA83F31F24084D00F44072DA4042
:101D900055F8223000F01F00844001F01F0123EAB3
:101DA00004038140194345F8221030BD2C24014022
:101DB00000207047002310B596B00446084611A9CC
:101DC0008DF804208DF80530FFF7C2FB4FF46160F9
:101DD00002A9B4FBF0F0FFF75DFA07AB11AA0749BF
:101DE000FFF720FB0CAA07A901A8FFF705FB0421B8
:101DF0000CA8FEF7F7FF16B010BD00BFCE5F0008BD
:101E0000022838B51E4C1F4D2AD123882A68013379
:101E10001BB29342238001D3002323800021084674
:101E2000FFF79EFD2868B4F900300138C01A00EBB6
:101E3000001004302844FFF713FE134803F060FA43
:101E4000B4F900100022114803F098FA0E4803F08C
:101E500057FA29680022BDE838400D4803F08EBAD1
:101E60000128DBD12388013B1BB2002B2380D5DA6C
:101E70002B68013B1BB2002B2380CDDBCEE700BFDC
:101E8000F207002088080020E8590008DA5F0008FF
:101E9000E75F0008002110B504460846FFF760FD23
:101EA0000A4B1868FFF7BAF9FFF7DAFD0848FFF7A1
:101EB000D7FD022C08D1BDE81040064B064A1B880E
:101EC0001BB29360FEF74CBD10BD00BFB4020020F2
:101ED000FA5F0008BC02002004000020002110B5B9
:101EE00004460846FFF73CFD0A4B1868FFF796F9D1
:101EF000FFF7B6FD0848FFF7B3FD022C08D1BDE897
:101F00001040064B064A1B881BB21361FEF728BD22
:101F100010BD00BFB4020020FA5F0008BE0200201E
:101F200004000020002110B504460846FFF718FD04
:101F30001F48FFF795FD022C30D1FEF7A1FDFEF7FB
:101F4000CDFC002104460846FFF70AFD1948FFF7BB
:101F500087FD4FF4FA60FFF745F800210846FFF7C8
:101F6000FFFC012C1BD11448FFF77AFD1348FEF744
:101F700073FE4FF4FA60FFF735F8114B1A69114BF5
:101F80001A604FF46162104B19694A430F490A60A5
:101F900099680F4A11601A6C0E4B1A6010BD0E48FA
:101FA000FFF75EFDBDE810404FF47A60FFF71AB806
:101FB000096000081A6000082B6000083C600008F7
:101FC000F40000209007002054010020280A00207F
:101FD0002C0A0020240A00204B600008022810B5BB
:101FE0000E4C15D123690133236100210846FFF708
:101FF000B7FC2069FFF712F9FFF732FD0848FFF739
:102000002FFD4FF4616322695343064A136010BDEC
:102010000128EAD12369013BE6E700BF5401002013
:102020005C600008280A002010B5334C022894F99F
:1020300000300DD101335BB2072B0FD10023237089
:1020400000210846FFF78CFC2C48FFF709FD0AE049
:10205000012804D1013B5BB2002B10DB237094F903
:102060000030002BECD094F90030012B09D1002175
:102070000846FFF775FC2248FFF7F2FC01E0062353
:10208000237094F90030022B06D100210846FFF797
:1020900067FC1C48FFF7E4FC94F90030032B06D1E1
:1020A00000210846FFF75CFC1748FFF7D9FC94F9BC
:1020B0000030042B06D100210846FFF751FC1348DD
:1020C000FFF7CEFC94F90030052B06D1002108461D
:1020D000FFF746FC0E48FFF7C3FC94F90030062BCF
:1020E00008D100210846FFF73BFCBDE81040094835
:1020F000FFF7B6BC10BD00BF9F070020616000085D
:10210000726000088460000895600008A5600008FF
:10211000B6600008C6600008022810B50D4C14D146
:10212000A3690A33A36100210846FFF719FC0A23BB
:10213000A0690121B0FBF3F0FFF7E8F8FFF790FC8E
:10214000BDE810400448FFF78BBC0128EBD1A36920
:102150000A3BE7E754010020855F0008022810B51C
:102160000D4C14D1236A0A33236200210846FFF77D
:10217000F7FB0A23206A0121B0FBF3F0FFF7C6F852
:10218000FFF76EFCBDE810400448FFF769BC01286A
:10219000EBD1236A0A3BE7E754010020855F000882
:1021A000022810B50B4C10D1A36A0133A3620021A1
:1021B0000846FFF7D5FBA06AFFF730F8FFF750FCA1
:1021C000BDE810400448FFF74BBC0128EFD1A36ADB
:1021D000013BEBE754010020D6600008022810B54F
:1021E0000B4C10D1236B0133236300210846FFF70A
:1021F000B7FB206BFFF712F8FFF732FCBDE8104089
:102200000448FFF72DBC0128EFD1236B013BEBE71E
:1022100054010020D6600008022838B51A4C2DD190
:10222000A36B0133A36300210A250846FFF798FB3F
:10223000A06BFEF7F3FFFFF713FC1448FFF710FC49
:10224000206A0121B0FBF5F0FFF760F8FFF708FC0A
:102250000F48FFF705FC6422236AA06B0121584355
:10226000B0FBF2F0181AB0FBF5F0FFF74FF8FFF7EC
:10227000F7FBBDE838400748FFF7F2BB0128D2D191
:10228000A36B013BCEE700BF54010020DF600008D4
:10229000E2600008855F0008044B9A68044B1B68E5
:1022A0009A4201D1FFF732BD704700BF54010020B0
:1022B0002C0A0020044B1A6C044B1B689A4201D173
:1022C000FFF724BD704700BF54010020240A0020FE
:1022D000002110B504460846FFF742FB022C1F4BB5
:1022E0000DD19A68072A02F1010127D101229A60D3
:1022F0001B48FFF7B5FBBDE81040FFF7CDBF012C31
:1023000003D19A68013A15D09A609A68013A062A70
:1023100020D801A151F822F0F12200084123000841
:1023200045230008492300084D23000851230008D5
:102330003923000807229A600A48DAE79960E4E73F
:102340000948D6E70948D4E70948D2E70948D0E761
:102350000948CEE701229A6010BD00BF5401002059
:10236000E56000084B610008F6600008076100089E
:1023700018610008296100083A610008002110B5C1
:1023800004460846FFF7ECFA022C144B0DD11A6CE8
:10239000032A02F101011CD101221A641048FFF73F
:1023A0005FFBBDE81040FFF785BF012C03D11A6C1D
:1023B000013A0AD01A641A6C022A0CD0032A06D0F9
:1023C000012AEBD001221A6410BD03221A640548C9
:1023D000E5E71964EFE70448E1E700BF5401002096
:1023E0005C6100087E6100086D610008154B1649AC
:1023F0009A6812F0100F0CD09A68900616D59A6859
:10240000520615D59B68DB4313F0800312D10B8075
:102410007047032240F2DC50B1F9003083420BDDFB
:1024200040F2B4530B80094B1A700AE00222F1E724
:102430000122EFE70422EDE701331BB2142B0B80DE
:10244000F1D07047000C0140F0070020F407002095
:10245000044B187810B10021034A116000221A7051
:10246000704700BFF4070020B40700200022034B90
:102470001A600122024B1A70704700BFE00700206B
:10248000BA07002038B504464FF46160B4FBF0F0A1
:10249000FEF7C4FE0546FEF7A7FF012803D8012179
:1024A0001148FFF76FFA01212846FFF76BFA012167
:1024B0000E48FFF767FA3C23B4FBF3F4B4FBF3F0E8
:1024C00003FB1040FEF7AAFE0446FEF78DFF01282D
:1024D00003D801210448FFF755FA2046BDE83840EB
:1024E0000121FFF74FBA00BF8F6100080D6300089C
:1024F0004FF40032074B1A614FF08072A3F58063EE
:102500001A610023044A1370044A1370044A1370BA
:10251000704700BF000C0140B2070020B90700203F
:10252000A40700200222074B4FF480711A61012397
:10253000054A1370054A1370054A1161054A137064
:10254000704700BF000C0140B2070020B90700200F
:1025500000080140A4070020084808B50268022AC4
:1025600004D1FFF7DFFF0123036008BD032AFCD17C
:10257000034B9B69012BF8D1F3E700BF74020020E5
:10258000F40000200122F8B5884B90420546884EA1
:102590001A7006D13378013B5BB2002BC0F29A80EF
:1025A000337096F90030002B63D1022D814F05D195
:1025B0003B78002B40F0C280FFF7B4FF00210846B3
:1025C000FFF7CEF97C4B022118887C4C80B2FEF7D5
:1025D0009DFEFFF745FA7A48FFF742FA00210720EF
:1025E000FFF7BEF93B78012B40F0AB802368B3F5D1
:1025F0007A7F07DA2068FEF711FEFFF731FA71489B
:10260000FFF72EFA2368B3F57A7F10DB42F20F73DF
:1026100022689A420BDC64232068012190FBF3F0CE
:10262000FEF774FEFFF71CFA6748FFF719FA42F24B
:102630000F7322689A420BDD4FF47A73206890FB87
:10264000F3F0FEF7EBFDFFF70BFA5F48FFF708FA30
:102650003B78012107205D4C002B79D1FFF780F9F1
:1026600001210020FFF7A4F923780A2B84BF00235F
:10267000237096F90030012B2ED1022D4FF000016E
:1026800008BF0023524F534C084604BF3B602360F1
:10269000FFF766F95048FFF7E3F93A684F4B38689F
:1026A0009A425DD24FF46163B0FBF3F0FEF7B6FDE2
:1026B000FFF7D6F94A48FFF7D3F923682068B3F546
:1026C000E15F55D2FEF7AAFDFFF7CAF94548FFF7CB
:1026D000C7F901E00223337096F90030022B63D171
:1026E000022D4FF0000108BF00233F4D394C084632
:1026F00004BF2B602360FFF733F93C48FFF7B0F9C4
:102700002A68364B28689A423CD24FF46163B0FB8A
:10271000F3F0FEF783FDFFF7A3F93148FFF7A0F9C7
:1027200023682068B3F5E15F34D2FEF777FDFFF749
:1027300097F92C48BDE8F840FFF792B9FFF7D8FEAB
:102740003CE72068FEF76AFDFFF78AF928487DE735
:102750002378052B82D9FFF703F90121084681E789
:10276000B0FBF3F0FEF75AFDFFF77AF92148A2E734
:102770004FF46163B0FBF3F0FEF750FDFFF770F923
:102780001D48A4E7B0FBF3F0FEF748FDFFF768F93A
:102790001848C3E74FF46163B0FBF3F0FEF73EFD6A
:1027A000FFF75EF91448C5E7F8BD00BFB007002089
:1027B0009D070020B207002084080020B4020020FA
:1027C00091610008956100089C6100089507002050
:1027D000B8020020A8070020AB61000880EE360098
:1027E000B0610008BA610008A0070020D6610008A7
:1027F000A3610008B5610008C86100080122154BFB
:1028000010B51A70FFF78EFE0228134C1DD1A36974
:102810000133A36100210846FFF7A2F8A069FEF783
:10282000FDFCFFF71DF90D48FFF71AF90121002003
:10283000FFF796F80A4B1868FEF7F0FCFFF710F95F
:10284000BDE810400748FFF70BB90128E2D1A369A2
:10285000013BDEE7B0070020040000207A61000899
:10286000B4020020DA6100080122164B10B51A707C
:10287000FFF758FE0228144C1FD1A36A0133A3624C
:1028800000210846FFF76CF8A06AFEF7C7FCFFF7C7
:10289000E7F80E48FFF7E4F801210020FFF760F8A1
:1028A0000B4B0221188880B2FEF730FDFFF7D8F8F5
:1028B000BDE810400748FFF7D3B80128E0D1A36A6C
:1028C000013BDCE7B0070020040000207A6100082B
:1028D00084080020916100080122164B10B51A707F
:1028E000FFF720FE0228144C1FD1236B0133236312
:1028F00000210846FFF734F8206BFEF78FFCFFF746
:10290000AFF80E48FFF7ACF801210020FFF728F8D8
:102910000B4B0221188880B2FEF7F8FCFFF7A0F8F5
:10292000BDE810400748FFF79BB80128E0D1236BB2
:10293000013BDCE7B0070020040000207A610008BA
:102940007C080020916100080122164B10B51A7016
:10295000FFF7E8FD0228144C1FD1A36B0133A363DA
:1029600000210846FEF7FCFFA06BFEF757FCFFF7BF
:1029700077F80E48FFF774F801210020FEF7F0FF0A
:102980000B4B0221188880B2FEF7C0FCFFF768F8F5
:10299000BDE810400748FFF763B80128E0D1A36BFA
:1029A000013BDCE7B0070020040000207A6100084A
:1029B00068080020916100080122284B70B51A7048
:1029C000FFF7B0FD0228264E40D133880133338013
:1029D00000210846FEF7C4FF02213088FEF796FC6E
:1029E000204D214CFFF73CF82048FFF739F82B88A1
:1029F00022689BB2002A2EDD42F2107032889B1AA8
:102A00001BB223EAE3734343226893FBF2F0184EB0
:102A10003064FEF703FCFFF723F81648FFF720F8B1
:102A2000154B1B882A8821689BB2002992B2C1BF2E
:102A30009B1A42F210721BB223EAE373C5BF5343E1
:102A400021680A2393FBF1F3B36470BD0128BFD161
:102A50003388013BBBE74620D9E700BFB007002021
:102A600078020020C0020020B4020020E2600008CA
:102A700004000020DF610008840800200123044ACC
:102A80001370044A13704FF40062034B1A617047CD
:102A9000B2070020B80700200008014008B5FFF782
:102AA00027FDBDE80840FFF7E9BF00000122154BF4
:102AB00010B51A70FFF7F2FF0228134C1DD1236ADC
:102AC0000133236200210846FEF74AFF206AFEF721
:102AD000A5FBFEF7C5FF0D48FEF7C2FF0121002050
:102AE000FEF73EFF0A4B1868FEF798FBFEF7B8FFAB
:102AF000BDE810400748FEF7B3BF0128E2D1236AC2
:102B0000013BDEE7B0070020040000207A610008E6
:102B1000B4020020DA61000808B50A4B93F90020DE
:102B2000022A0DD002221A70FFF7E2FCFFF7A6FF7F
:102B30000022054B05481A60BDE8084002F0D0BCF1
:102B400008BD00BF96070020DC070020EA610008EE
:102B50000023064A1370064A13704FF0006203F117
:102B6000804303F584331A61704700BFB207002029
:102B7000B80700200122234B022810B5224C1A70FE
:102B800003D1237873BBFFF779FF00210846FEF7D6
:102B9000E7FE1E4B0221188880B2FEF7B7FBFEF756
:102BA0005FFF1B48FEF75CFF1A4B1868FEF736FB09
:102BB000FEF756FF1848FEF753FF23780121062041
:102BC000164C93B9FEF7CCFE01210220FEF7F0FE71
:102BD00001210220FEF7ECFE23780A2B84BF00239C
:102BE000237010BDFFF7B4FFCFE72378052BE9D999
:102BF000FEF7B6FE01210320FEF7DAFE01210320D5
:102C0000E8E700BFB0070020B20700207C080020E2
:102C1000E2600008B40200209C61000895070020D3
:102C200000212DE9F04101272C4B2D4D0646084689
:102C30001F70FEF795FE2B782A4C03F0FF083BBB74
:102C4000294B0221188880B2FEF760FBFEF708FFCF
:102C50002648FEF705FF41460720FEF781FE206863
:102C6000FEF7DCFAFEF7FCFE2148FEF7F9FE052030
:102C70003946FEF775FE1F48FEF7F2FE022E2AD1F6
:102C80002B7813BBFFF74EFCBDE8F041FFF7F6BE13
:102C9000194B0221188880B2FEF738FBFEF7E0FEE0
:102CA0001248FEF7DDFE00210720FEF759FE2068DE
:102CB000FEF7B4FAFEF7D4FE1048FEF7D1FE062068
:102CC0003946FEF74DFE0E48D6E7FFF711FCBDE88A
:102CD000F041FFF73DBFBDE8F08100BFB007002025
:102CE000B2070020B402002084080020916100088F
:102CF000F4610008FA6100087C0800209C6100086B
:102D0000FF61000808B5FFF723FFBDE80840FFF7A3
:102D100009BC000008B50A4B93F90020012A0DD028
:102D200001221A70FFF714FFFFF7FCFB0022054B8E
:102D300005481A60BDE8084002F0D2BB08BD00BFDC
:102D400096070020DC070020ED6100082DE9F04F18
:102D5000964A85B01378DFF8ACA2DFF8ACB2DFF8A2
:102D6000AC92934FDFF8A882924D009003F0FF04DD
:102D70000192002B3ED1904B1A88904B92B21B6A65
:102D800005339A4215D221462046FEF7E9FD8C48CC
:102D9000FEF766FE4FF4FA60FEF724F9214620465E
:102DA000FEF7DEFD8748FEF75BFE40F6B830FEF723
:102DB00019F901260024019B1E70834B8AF80040FC
:102DC0008BF80040C9F800403C601C60C8F8004027
:102DD0002C608AF80060FFF79DFF7C4B214620465F
:102DE0001E70FEF7BDFD7A48FEF73AFE4FF47A708A
:102DF000FEF7F8F8774C206800B2FEF7EFFA0528E6
:102E0000039440F3C681744A6C4E1388B1699BB237
:102E10008B4202921FD26D4B1A78022A1BD16F4B44
:102E20001B68B3F57A7F16D900238BF80030296828
:102E30006B4B994203D928683968FEF7BBFF002322
:102E40000124C9F80030C8F800308AF80040FFF7C4
:102E500061FF5E4B1C70029B326A1B889BB29342DF
:102E600008D95A4B1B78012B04D15C4B1B68B3F576
:102E70007A7F09D85B4BD9F800201B689A4223D986
:102E8000524B1B78012B1FD100238AF80030D8F851
:102E90000020534B9A4206D9D8F800000122D9F8F5
:102EA0000010FEF787FF3A68474B1A602A684E4BBE
:102EB0009A6000233B602B6001238BF80030FFF702
:102EC0002BFE0222414B1A70009A484C022A94F9B8
:102ED000003033D101335BB2052B36D10023237090
:102EE00000210846FEF73CFD029B0221188880B2B3
:102EF000FEF70CFAFEF7B4FD3D48FEF7B1FD039B6B
:102F00001868FEF78BF9FEF7ABFD3A48FEF7A8FD0F
:102F100001210620FEF724FD01210420FEF748FDD3
:102F2000354B1978012940F02D8107200091FEF7DB
:102F300017FD00200099FEF73BFD0BE0009A012AE7
:102F400004D1013B5BB2002B64DB237094F90030A9
:102F5000002BC5D094F90030012B5DD1002108462B
:102F60000093FEF7FDFC3069FEF758F9FEF778FD97
:102F70002248FEF775FD0A22009BB0691946B0FB96
:102F8000F2F0FEF7C3F9FEF76BFD1948FEF768FD96
:102F90000A22009B306A1946B0FBF2F0FEF7B6F940
:102FA000FEF75EFD1648FEF75BFD35E0B00700203A
:102FB000A80700208C07002084080020540100206E
:102FC0000362000814620008AC07002070020020B1
:102FD00025620008B40200207C080020DC070020E5
:102FE0004F8C0500280A0020F40000209D070020D7
:102FF000E260000836620008B9070020B7610008E7
:10300000C75F000897070020A4070020980700204A
:10301000880700200423237094F90060022E21D138
:1030200000210846FEF79CFC01213046FEF7C0FC5B
:1030300000210120FEF794FC5C48FEF711FD4FF4DF
:1030400061632868B0FBF3F0FEF7E8F8FEF708FDCF
:103050005748FEF705FD03200121FEF781FC386883
:10306000FFF710FA94F90060032E23D100210846DF
:10307000FEF776FC01210020FEF79AFC00210120DA
:10308000FEF76EFC4948FEF7EBFC4FF46163D8F89D
:103090000000B0FBF3F0FEF7C1F8FEF7E1FC444896
:1030A000FEF7DEFC30460121FEF75AFCD9F800009D
:1030B000FFF7E8F994F90030042B23D100210846EA
:1030C000FEF74EFC01210220FEF772FC00210120D8
:1030D000FEF746FC3748FEF7C3FC374B98684FF4C1
:1030E0006163B0FBF3F0FEF799F8FEF7B9FC3348E3
:1030F000FEF7B6FC03200121FEF732FC304B1868C6
:10310000FFF7C0F92F4802F0FBF8019B0022197865
:103110002D4802F033F92B4802F0F2F89AF800102B
:1031200000222A4802F02AF9264802F0E9F8D9F8E4
:1031300000100022264802F021F9224802F0E0F8AF
:10314000D8F800100022234802F018F91D4802F0B8
:10315000D7F89BF8001000221F4802F00FF9194819
:1031600002F0CEF8396800221C4802F007F9154831
:1031700002F0C6F800222968194805B0BDE8F04FF2
:1031800002F0FCB801210720FEF7EAFB0121022032
:10319000D1E6144B1B68B3F57A7FB3D900210846FA
:1031A000FEF7DEFB1048FEF75BFCABE77C61000836
:1031B0003E62000848620008F40000204B620008EC
:1031C000AC070020E8590008656200087A62000830
:1031D0008F6200089F620008B7620008CF62000893
:1031E000E2620008DC070020546200080021F8B504
:1031F00006460846FEF7B4FB0122694B1A70694B7C
:10320000197811B91A70FFF731F9674D674C2B68BF
:10321000A26A9A4212D3FFF77DFD654B226A1B8892
:103220009BB293420AD9634B1B68B3F5C87F05D99B
:10323000FFF71CF92B68A26A13442B602B68A26A63
:103240009A420ED2FFF768FC594BA2691B889BB2C9
:10325000934206D2574B1B68B3F5C87F01D9FFF7DD
:1032600005F9A36A216B2A680B44934201D2FFF748
:10327000FDF8514D022E95F9003032D101335BB289
:10328000032B34D100232B7000210846FEF768FB86
:10329000474B0221188880B2FEF738F8FEF7E0FBB2
:1032A0004648FEF7DDFB464B1868FDF7B7FFFEF713
:1032B000D7FB4448FEF7D4FB01210620FEF750FB64
:1032C00001210520FEF774FB3F4B1E78012E5FD1D4
:1032D00031460720FEF744FB31460020FEF768FB2D
:1032E0000AE0012E04D1013B5BB2002B2CDB2B70DA
:1032F00095F90030002BC7D095F90060012E25D13B
:1033000000210A270846FEF72BFB2069FDF786FF00
:10331000FEF7A6FB2D48FEF7A3FBA0693146B0FBE4
:10332000F7F0FDF7F3FFFEF79BFB2448FEF798FB51
:10333000206A3146B0FBF7F0FDF7E8FFFEF790FB9F
:103340002348FEF78DFB01E002232B7095F9003036
:10335000022B24D100210846FEF702FBA06AFDF7EC
:103360005DFFFEF77DFB1B48FEF77AFB206BFDF748
:1033700055FFFEF775FB1848FEF772FB032001218D
:10338000FEF7EEFA154B1868BDE8F840FFF77AB87B
:1033900001210720FEF7E4FA012102209EE7F8BD93
:1033A000B0070020B1070020E007002054010020F2
:1033B0007C080020DC0700209D070020E260000858
:1033C000B402002036620008B9070020B761000887
:1033D000C75F0008D761000804630008A807002041
:1033E00008B5FFF7B5FBBDE80840FFF781B800005E
:1033F00001222DE9F84F984E984B34788246984632
:10340000974DDFF8CC92974F1A7034BB964B1A88C1
:10341000964B92B21B6A05339A4215D2214620463A
:10342000FEF79EFA9248FEF71BFB4FF4FA60FDF799
:10343000D9FD21462046FEF793FA8E48FEF710FB91
:1034400040F6B830FDF7CEFD00238B4A2B7089F88B
:103450000030136001223B603270884B3A681B6871
:103460009A4206D8864B814A1B88126A9BB29342C5
:1034700003D9FFF7B5FF00232B70FFF76DF8BAF102
:10348000020F804C6BD1804B1B78002B63D1FFF770
:1034900039FC01232B7094F90010002936D108461D
:1034A000FEF75EFA784BDFF8D8A11A789B46002A1F
:1034B00040F0B5806C4B0221188880B2FDF726FFE2
:1034C000FEF7CEFA7148FEF7CBFABAF800000221F7
:1034D00080B2FDF71BFFFEF7C3FA6D48FEF7C0FA96
:1034E0009BF8003001210720DFF8E8A1002B40F015
:1034F000A980FEF735FA01210020FEF759FA9AF863
:1035000000300A2B84BF00238AF8003094F900A011
:10351000BAF1010F2FD10021DFF850B10846FEF7B4
:103520001FFA5C48FEF79CFADBF81000FDF776FE08
:10353000FEF796FA5848FEF793FA0A23DBF82000C4
:103540005146B0FBF3F0FDF7E1FEFEF789FA534870
:10355000FEF786FA0FE0FFF743FF00239AE7BAF180
:10356000010F98D12378013B5BB2002B01DB237064
:1035700091E70223237094F90030022B1AD1002125
:103580000846FEF7EDF94648FEF76AFA3A4B186826
:103590004FF46163B0FBF3F0FDF740FEFEF760FA15
:1035A0004048FEF75DFA03200121FEF7D9F938689B
:1035B000FEF768FF3C4801F0A3FE317800223B484B
:1035C00001F0DCFE384801F09BFE98F80010002264
:1035D000374801F0D3FE344801F092FE29780022EA
:1035E000344801F0CBFE304801F08AFE39680022F1
:1035F000314801F0C3FE2C4801F082FE99F800101A
:1036000000222E4801F0BAFE274801F079FE2C4B2B
:10361000002219682B48BDE8F84F01F0AFBEBAF898
:103620000000022180B2FDF771FEFEF719FA17487B
:10363000FEF716FA244B1868FDF7F0FDFEF710FAB6
:1036400022484BE79AF80030052B7FF652AFFEF781
:1036500087F90121084650E7B1070020B007002094
:1036600097070020980700208408002054010020BC
:10367000036200081462000888070020280A00205E
:103680007C0800209D070020B2070020E2600008AF
:10369000C75F00080C6300080F630008855F00081F
:1036A000176300081A630008E8590008236300083C
:1036B000656200087A6200088F620008B76200083D
:1036C000A8070020CF620008B4020020366200087C
:1036D000A40700209507002001222DE9F84FBC4ED9
:1036E000BC4B357882469846BB4CDFF85C93BB4FA9
:1036F0001A7035BBBA4B1A88BA4B92B21B6A0533A3
:103700009A4215D229462846FEF72AF9B648FEF70E
:10371000A7F94FF4FA60FDF765FC29462846FEF745
:103720001FF9B248FEF79CF940F6B830FDF75AFC95
:103730000023AF4A237089F80030136001223B60F8
:103740003270AC4B3A681B689A4272D9FFF748FE58
:1037500000232370FEF700FFBAF1020FA64D40F0E0
:103760008280A64B1B78002B79D1FFF7CBFA01237F
:10377000237095F90010002936D10846FEF7F0F8BD
:103780009E4BDFF88CA21A789B46002A40F00281FB
:10379000934B0221188880B2FDF7B8FDFEF760F95F
:1037A0009748FEF75DF9BAF80000022180B2FDF7F4
:1037B000ADFDFEF755F99348FEF752F99BF800303E
:1037C00001210720DFF884A2002B40F0F680FEF7ED
:1037D000C7F801210020FEF7EBF89AF800300A2B19
:1037E00084BF00238AF8003095F900A0BAF1010FD8
:1037F00045D10021DFF8ECB10846FEF7B1F8824868
:10380000FEF72EF9DBF81000FDF708FDFEF728F9AA
:103810007E48FEF725F90A23DBF820005146B0FB6D
:10382000F3F0FDF773FDFEF71BF97648FEF718F984
:1038300025E077496B480A88036A92B29A4285D894
:10384000826B64205A43B2FBF0F209889B1A89B25A
:103850009942BFF47FAFFFF755FA012379E7FFF7ED
:10386000BFFD002384E7BAF1010F82D12B78013B21
:103870005BB2002B01DB2B707BE703232B7095F9E8
:103880000030022B2FD100214FF00A0ADFF854B18B
:103890000846FEF765F8DBF83800FDF7BFFCFEF7D9
:1038A000DFF85C48FEF7DCF8DBF820000121B0FB14
:1038B000FAF0FDF72BFDFEF7D3F85148FEF7D0F8EC
:1038C0006422DBF82030DBF8380001215843B0FBDC
:1038D000F2F0181AB0FBFAF0FDF718FDFEF7C0F889
:1038E0004848FEF7BDF895F90050032D1AD1002184
:1038F0000846FEF735F84848FEF7B2F83C4B186822
:103900004FF46163B0FBF3F0FDF788FCFEF7A8F815
:103910004248FEF7A5F828460121FEF721F838684D
:10392000FEF7B0FD6420FDF75DFB3D4801F0E8FCCB
:10393000317800223B4801F021FD394801F0E0FCDC
:1039400098F800100022384801F018FD344801F0C2
:10395000D7FC21780022354801F010FD304801F0F5
:10396000CFFC39680022324801F008FD2C4801F0F4
:10397000C7FC99F8001000222E4801F0FFFC2848EF
:1039800001F0BEFC2C4B002219682C48BDE8F84F12
:1039900001F0F4BCBAF80000022180B2FDF7B6FCD9
:1039A000FEF75EF81648FEF75BF8254B1868FDF742
:1039B00035FCFEF755F82348FEE69AF80030052B53
:1039C0007FF605AFFDF7CCFF0121084603E700BFF6
:1039D000B1070020B00700209707002098070020BB
:1039E00084080020540100200362000814620008CB
:1039F00088070020280A00209D070020B207002029
:103A0000E2600008855F00080C6300080F6300088F
:103A10007C080020DF600008176300084B62000884
:103A2000E859000823630008656200087A6200080C
:103A30008F620008B7620008A8070020CF62000864
:103A4000B402002031630008A4070020950700207D
:103A500001212DE9F843894D894E2B78894A31702F
:103A60004BB92970884913700B7088490B708849CD
:103A70000B6088490B60884F88493B889BB20B805C
:103A800087498C698846A342C0F0F08000238549AD
:103A90001370854B09681B68DFF8F0915B1A032BE4
:103AA00006D9137823B1FFF79BFC002389F8003077
:103AB00002287E4C51D17E4B1B78002B49D1FEF75A
:103AC000EDFF012389F8003094F9001041BB08464E
:103AD000FDF746FF3888022180B2FDF717FCFDF79D
:103AE000BFFF7448FDF7BCFF734B744F1868FDF7B8
:103AF00095FBFDF7B5FF7248FDF7B2FF6C4B012156
:103B00001B780720002B40F0A880FDF729FF01213A
:103B10000220FDF74DFF3B780A2B84BF00233B704A
:103B200094F90070012F23D100210846FDF718FFFA
:103B30006448FDF795FF0A23D8F818003946B0FB12
:103B4000F3F0FDF7E3FBFDF78BFF5F48FDF788FF20
:103B50000EE0FFF745FC0023B4E70128B4D1237839
:103B6000013B5BB2002B01DB2370ADE70323237025
:103B700094F90030022B1BD100210846FDF7F0FE1E
:103B80005248FDF76DFF524B98684FF46163B0FBEC
:103B9000F3F0FDF743FBFDF763FF4E48FDF760FFD1
:103BA00003200121FDF7DCFE4B4B1868FEF76AFC91
:103BB00094F90070374C032F1AD100210846FDF705
:103BC000CFFE4648FDF74CFF314B18684FF4616358
:103BD000B0FBF3F0FDF722FBFDF742FF4048FDF795
:103BE0003FFF38460121FDF7BBFE2068FEF74AFC87
:103BF0003C4801F085FB297800223B4801F0BEFBE0
:103C0000384801F07DFB31780022384801F0B6FBDE
:103C1000344801F075FB1C4B00221978344801F040
:103C2000ADFB304801F06CFB324B00221968324882
:103C300001F0A4FB2B4801F063FB99F8001000226F
:103C40002E4801F09BFB274801F05AFB2168002217
:103C5000BDE8F8432A4801F091BB3B78052B7FF67D
:103C600054AFFDF77DFE0121032052E713781BB905
:103C70000D4B19680B4B1960012308E7B1070020B1
:103C8000B00700209407002097070020A407002019
:103C90008C070020A80700207C080020E4070020F3
:103CA00054010020E8070020F80700209D070020AD
:103CB000B2070020E2600008B4020020950700204F
:103CC000316300083A630008855F00084862000815
:103CD000F40000201A630008AC070020006200080E
:103CE0004B620008E8590008236300086562000879
:103CF0007A620008980700208F620008B762000807
:103D0000CF6200082DE9F04FA04A85B013788346B2
:103D1000DFF8D4A29E4EDFF8D4929E4D9E4F9F4C6A
:103D200003F0FF080192002B40F062819C4B1A883F
:103D30009C4B92B21B6A05339A4215D241464046CB
:103D4000FDF70EFE9848FDF78BFE4FF4FA60FDF785
:103D500049F941464046FDF703FE9448FDF780FED1
:103D600040F6B830FDF73EF901234FF00008019A04
:103D700013708F4A8AF8008082F800808D4AC6F856
:103D80000080C9F80080C2F80080C5F80080C7F83C
:103D900000808AF80030FEF7BDFF0123864A4146C5
:103DA00040461370FDF7DCFD8448FDF759FE4FF4E3
:103DB0007A70FDF717F901232370DFF82882D8F80D
:103DC000000000B2FDF70AFB0528CDF8088040F39B
:103DD00094817B4B734A1B8891699BB28B429046BE
:103DE00029D2754B1A78022A25D1764B1B68B3F578
:103DF0007A7F20D900236E490B703968724B994243
:103E000004D93868D9F80010FDF7D4FFD9F800209C
:103E1000684B1A603A686D4B9A60002301228AF859
:103E200000202B603360FEF775FF012223780133F9
:103E30002370614B1A70624AD8F8201013880392DD
:103E40009BB28B4208D95C4B1B78012B04D15D4B94
:103E50001B68B3F57A7F08D85D4B32681B689A42BD
:103E600022D9554B1B78012B1ED194F90030022B1F
:103E70001ADC00238AF800302A68534B9A4204D98E
:103E8000286801223168FDF795FF0123484A137025
:103E900000233B60C9F80030FEF73EFE0222237883
:103EA00001332370444B1A70454BD8F820201B88EF
:103EB0009BB2934208D9404B1B78012B04D1414B54
:103EC0001B68B3F57A7F08D8414B32681B689A4269
:103ED0001DD9394B1B78012B19D194F90030022BD5
:103EE00015DDFFF77DFA0023314A8AF800301370A0
:103EF0002A68354B9A4204D9286801223168FDF7B7
:103F000059FF0222237801332370324B1A70314C4F
:103F1000BBF1020F94F9003040F0AC8001335BB28A
:103F2000042B40F0AF800023237000210846FDF7EA
:103F300017FD039B0221188880B2FDF7E7F9FDF712
:103F40008FFD2548FDF78CFD029B1868FDF766F98B
:103F5000FDF786FD2148FDF783FD01210620FDF7D1
:103F6000FFFC01210420FDF723FD1D4B93F800B059
:103F7000BBF1010F40F0BA8059460720FDF7F0FC75
:103F800059460020FDF714FD82E000BFB007002075
:103F900098070020880700208C0700209C0700203D
:103FA0008408002054010020036200081462000805
:103FB000A4070020AC070020700200202562000842
:103FC0007C080020DC0700204F8C0500F400002056
:103FD000280A00209D070020E260000836620008E1
:103FE000B9070020B402002097070020A80700208E
:103FF00094F90030032B7FF7E0AEAA4C022894F925
:10400000003040F0C58001335BB2042B40F0C68025
:104010000023237000210846FDF7A2FCA24B0221D9
:10402000188880B2FDF772F9FDF71AFD9F48FDF779
:1040300017FD9F4B1868FDF7F1F8FDF711FD9D483E
:10404000FDF70EFD01210620FDF78AFC0121042069
:10405000FDF7AEFC984B93F80080B8F1010F40F0EB
:104060001A8141460720FDF77BFC41460020FDF701
:104070009FFC99E0BBF1010F05D1013B5BB2002B26
:10408000C0F2B780237094F90030002B3FF44DAF9D
:1040900094F900B0BBF1010F40F0AD80002108465B
:1040A000FDF75EFCD8F81000FDF7B8F8FDF7D8FC76
:1040B0008248FDF7D5FC0A23D8F818005946B0FB12
:1040C000F3F0FDF723F9FDF7CBFC7848FDF7C8FCCA
:1040D0005946D8F820000A23B0FBF3F0FDF716F993
:1040E000FDF7BEFC7648FDF7BBFC84E0012107200C
:1040F000FDF736FC0121022044E7724B1B68B3F543
:104100007A7F06D900210846FDF72AFC6E48FDF7A4
:10411000A7FC6E4801F0F4F8019B002219786C4866
:1041200001F02CF9694801F0EBF89AF80010002230
:10413000684801F023F9654801F0E2F8316800228F
:10414000654801F01BF9614801F0DAF8296800229E
:10415000624801F013F95D4801F0D2F8604B00228B
:104160001978604801F00AF9584801F0C9F8D9F8FF
:10417000001000225C4801F001F9544801F0C0F839
:1041800000223968594805B0BDE8F04F01F0F6B893
:10419000012804D1013B5BB2002B2ADB237094F988
:1041A0000030002B3FF436AF94F90080B8F1010FD6
:1041B00021D10021DFF840B10846FDF7D1FBDBF843
:1041C0001000FDF72BF8FDF74BFC3C48FDF748FCD1
:1041D0000A23DBF818004146B0FBF3F0FDF796F830
:1041E000FDF73EFC3148FDF73BFC4146DBF8200083
:1041F00071E70323237094F90080B8F1020F22D1F4
:1042000000210846FDF7ACFB01214046FDF7D0FB3D
:1042100000210120FDF7A4FB3548FDF721FC4FF4F8
:1042200061633868B0FBF3F0FCF7F8FFFDF718FCAA
:104230003048FDF715FC03200121FDF791FBD9F86B
:104240000000FEF71FF994F90040032C7FF461AFE2
:1042500000210846FDF784FB01210020FDF7A8FBA3
:1042600000210120FDF77CFB2148FDF7F9FB4FF40D
:1042700061632868B0FBF3F0FCF7D0FFFDF7F0FBBB
:104280001C48FDF7EDFB20460121FDF769FB306876
:10429000FEF7F8F83DE701210720FDF761FB01215A
:1042A0000220E4E69D0700207C080020E260000870
:1042B000B402002036620008B9070020B761000888
:1042C000C75F0008DC07002054620008E8590008B6
:1042D000656200087A6200088F6200089F62000829
:1042E000A4070020B7620008CF620008E26200085D
:1042F0007C6100083E62000854010020012230B5B4
:10430000874B884C02281A7087B094F9003026D168
:1043100013445BB2082B28D10023237000210846E8
:10432000FDF71EFB8048FDF79BFB0A207F4B012118
:104330001B889BB2B3FBF0F0FCF7E8FFFDF790FBA6
:104340007B48FDF78DFB7B4B0221188880B2FCF780
:10435000DDFFFDF785FB7848FDF782FB0AE00128C9
:1043600004D1013B5BB2002B25DB237094F90030B4
:10437000002BD3D094F90030012B1ED10021084628
:10438000FDF7EEFA6D48FDF76BFB6D4B02211888C7
:1043900080B2FCF7BBFFFDF763FB6A48FDF760FBEB
:1043A000694B188980B2FCF739FFFDF759FB674864
:1043B000FDF756FB01E00723237094F90050022D0E
:1043C0001BD100210846FDF7CBFA6148FDF748FBF9
:1043D000604B2946188880B2FCF798FFFDF740FB38
:1043E0005848FDF73DFB584BD88880B2FCF716FFC4
:1043F000FDF736FB5548FDF733FB94F90030032BEE
:1044000019D100210846FDF7ABFA5348FDF728FB08
:10441000524B1868FCF702FFFDF722FB4948FDF7F5
:104420001FFB494B588880B2FCF7F8FEFDF718FBDC
:104430004648FDF715FB94F90030042B1AD10021F2
:104440000846FDF78DFA4648FDF70AFB454B1888EC
:1044500000B2FCF7E3FEFDF703FB3A48FDF700FB73
:10446000394B188880B2FCF7D9FEFDF7F9FA3E48BF
:10447000FDF7F6FA94F90030052B1AD10021084611
:10448000FDF76EFA3948FDF7EBFA364B188800B2A3
:10449000FCF7C4FEFDF7E4FA2A48FDF7E1FA2A4BDF
:1044A000588980B2FCF7BAFEFDF7DAFA2E48FDF71C
:1044B000D7FA94F90030062B0FD1FEF791FF0021B7
:1044C0000846FDF74DFA2A4B01A91868FCF7CDFF05
:1044D000FDF7C6FA2748FDF7C3FA94F90030072B19
:1044E0001BD100210846FDF73BFA2348FDF7B8FA37
:1044F000134B0221188880B2FCF708FFFDF7B0FAD1
:104500001E48FDF7ADFA104B988880B2FCF786FE86
:10451000FDF7A6FA0D48FDF7A3FA07B030BD00BFBE
:10452000B00700209E0700204663000868080020AE
:104530004B6300087A080020796100085063000886
:1045400084080020556300086A080020776100088D
:10455000596300087C0800205F630008B402002053
:1045600066630008BE020020766100086B630008E5
:10457000F80700207561000871630008E260000818
:104580000023F0B57A4C85B0009301930293039316
:10459000E389784D9AB24FF4F023B3FBF2F3764AF5
:1045A0009BB21380E388E28999B2AB6A92B24B4323
:1045B000B3FBF2F300930098FDF74EF802900298D7
:1045C000FDF7A0F86D4B1A6810446D4A1860118809
:1045D000013109B21180118809B21F290FDD196854
:1045E00068480029B8BF1F31C1F34F110180002175
:1045F0001180196003889BB2022B98BF0180A388A9
:10460000E28999B22B6B92B24B43B3FBF2F3009366
:104610000098FDF73DF802900298FDF774F85A4FA4
:104620005A4E3B6818443860338801331BB23380DC
:104630002389E28999B2AB6B92B24B43B3FBF2F39D
:1046400000930098FDF740F8514B80B218806188C4
:10465000E38989B29AB2AB6959430A234B43B3FB4E
:10466000F2F301930198FCF7BFFF03900398FDF765
:1046700047F8484B1A681044474A186011880131BE
:1046800009B21180118809B21F290ADD196843484F
:104690000029B8BF1F3141F34F1101800021118063
:1046A00019602188E38989B29AB22B6A59430A2397
:1046B0004B43B3FBF2F301930198FCF7B1FF039076
:1046C0000398FDF71EF8364B1A681044354A1860F7
:1046D0001188013109B21180118809B21F290ADD40
:1046E000196831480029B8BF1F3141F34F110180CB
:1046F0000021118019602D4B2D499B6813F0020F8A
:1047000015BF294B254B1B881B8815BF1AB2AA68F9
:104710002B691BB29B1A0B6033881BB21F2B24DD45
:104720003B68244A002BB8BF1F335B111360002382
:104730003B6033801068204C80B2208010680228D3
:10474000D8BF136008682B6C0C681C48634393FB4C
:10475000F0F311680B4413601368022BDCBF0023D5
:1047600013601368164A9BB2138005B0F0BD00BFFA
:104770006A080020040000207A080020CC070020EE
:10478000D007002084080020D4070020D80700208C
:1047900068080020BC070020C0070020BC020020E1
:1047A000C4070020C8070020BE020020000C014002
:1047B000B4020020EC070020C0020020F0D8FFFF68
:1047C0007C08002038B5FDF711FE2A4A2A4C1368F0
:1047D0000133136023889BB2042B03D90023238069
:1047E000FFF7CEFE254A13889BB2632B84BF0023BC
:1047F0001380234B198889B2B1F57A7F2DD300211C
:1048000020481980204905680968294401601F492A
:104810000978012901BF1E480168013101601D4965
:104820000978012901BF1C480168013101601B4959
:104830000978012901BF1A4801680131016019494D
:10484000086801300860096811F0010F0CBF4FF4CF
:1048500000404FF00040144908612188013189B2BD
:1048600021801188013189B211801A88013292B2F7
:104870001A8038BDDC070020B0020020AE02002004
:10488000AC020020A0070020B402002097070020FF
:1048900098070020A4070020A8070020BA070020DE
:1048A000E0070020F80700200008014010B51D4C6B
:1048B000236843F48033236023689A03FCD563683C
:1048C00023F47C1343F4A0236360E36A23F00F0313
:1048D000E362236843F08073236023689B01FCD567
:1048E000636823F0F0036360636823F4E06363604C
:1048F000636823F460536360636823F0030343F049
:1049000002036360636803F00C03082BFAD10648C6
:1049100000F090FF044800F09BFF636823F44043DD
:10492000636010BD0010024000366E012DE9F04FAB
:10493000CA4D91B00120FDF7ADF8EB69DFF870A327
:1049400043F08053EB61EB69C54A03F08053009359
:10495000009BDAF80C10DFF85C8321F4E0610904B5
:10496000090C0A43CAF80C20BE4ABF4E5168002405
:1049700021F0E061516051684FF0010B41F000718E
:104980005160FFF793FF1422002109A800F098FF5F
:104990002020FDF77FF80420FDF77CF80820FDF7C4
:1049A00079F84FF60242C8F814204FF40942022762
:1049B000726140F202224FF00409404609A9CDE994
:1049C000092BCDE90B7400F0EFFDA84A404609A978
:1049D000CDE9092B0B97CDF8309000F0E5FDA44A06
:1049E00009A93046CDE9092BCDE90B7400F0DCFDB7
:1049F00008234FF2F00209A94046CDE90923CDF87A
:104A000034B000F0D1FD6A6942EA0B026A616A695A
:104A1000984D02EA0B020192019ADAF80C00C0F3F9
:104A20000220FDF7C5F94FF4006200FA09F0C0B2A8
:104A300085F80B0321462A6009A81C2200F040FFDC
:104A40001422214604A800F03BFF4FF48040FDF7FC
:104A500021F84846FDF71EF80922874B04A9CDE945
:104A6000043203223046CDE9062400F09DFD834A3E
:104A700004A93046CDE9042900F096FDDAF80C00CF
:104A8000C0F30220FDF794F9202300FA09F0C0B228
:104A900085F825036B607A4D09A9EB68284643F039
:104AA0008003EB604FF41643CDE909340C23CDE9C4
:104AB0000B44CDE90D340F9400F050FE2B69142205
:104AC00023F490432B616B69214623F02A036B6129
:104AD000EB6804A843F40053EB60CDE9024400F016
:104AE000EFFE1422214609A800F0EAFE4FF4007000
:104AF000FCF7D0FF4846FCF7CDFF0820FCF7CAFFC3
:104B000043F63E6309A93046CDE9093400F04CFD77
:104B100040F20113404609A9CDE9093400F044FDF3
:104B2000584B4FF480781A68A5F5A05522F48042BE
:104B300022F010021A601A6802A922F4405242F4CC
:104B400000521A601A68284642F020021A601A6859
:104B500022F040021A601A6842F080021A601A6855
:104B600022F4407242F480721A601A6822F44062A1
:104B700042F480621A60444A9A60444ADA605A6891
:104B8000120C120442F008025A601A6842EA0B0240
:104B90001A600294CDF80C8000F0CFFC4FF4602234
:104BA0004FF4E00304A92846CDE90423CDE90647E4
:104BB000CDF8208000F0D6FC35494FF40070FDF7A9
:104BC000DBF83348FDF7AEF8324940F20520FDF737
:104BD000D3F83048FDF7A6F82F4940F20A20FDF738
:104BE000CBF82D48FDF79EF82C4940F20F20FDF739
:104BF000C3F82A48FDF796F829494FF40570FDF7E8
:104C0000BBF82748FDF78EF8264940F21920FDF73A
:104C1000B3F82448FDF786F823494046FDF7ACF881
:104C20002148FDF77FF8AB68204943F40003AB60EF
:104C300040F20510FDF7A0F81C48FDF773F8AB68CB
:104C4000642043F40003AB60AB6843EA0B03AB6042
:104C5000FCF7C8F9AB6843EA09032DE000100240F5
:104C60000003FA050000014000080140FC00FC04BC
:104C70008900890400E100E0020002040400040449
:104C800000380140080002404C2401406A0800201E
:104C90000100300202006002030090020400C00222
:104CA0000500F002080080031000208111005081EF
:104CB00000ED00E0000C0140AB60AC6814F00404AF
:104CC000FBD1AB6843F4A003AB60FCF7D8FE00F067
:104CD00081FA4FF47A72AF4B1B68B3FBF2F3013BDE
:104CE000B3F1807F08D2F021AB4A5360AB4B83F81D
:104CF00023100723946013604FF4004300243361B2
:104D0000A74DFEF76DFBA7482C60FCF7A9FEFCF74A
:104D100079F9A54800F0F4FAA24800F08BFAFCF704
:104D2000C7FD21462046FCF71BFE4FF47A70FCF7C6
:104D300059F9FBF7F9FA2B68172B88BF2C60FBF7A2
:104D4000CDFD044668B94FF47A70FCF74BF9FBF7D8
:104D5000C5FD0446944800F0D3FA944800F06AFA7E
:104D600034B1012C14D1904800F0CAFA90480DE0FB
:104D70009048FCF775FE4FF47A60FCF733F98E48E3
:104D8000FBF76AFF884800F0BBFA884800F052FA47
:104D90008A4B8B4C1A698B4B1A604FF46163226902
:104DA0005343894A1360A268884B1A60236C884A6F
:104DB0001360884A1360FBF719FF4FF47A70FCF711
:104DC00011F9FCF73BFE8448FCF7BEFCA368012BFD
:104DD00012D18248FCF79EFC814D804F814E2B788A
:104DE00001332B70FDF734FB431E0446032B20D800
:104DF000DFE803F01A3A3E45022B01D17A48E9E791
:104E0000032B01D17948E5E7042B01D17848E1E78C
:104E1000052B01D17748DDE7062B01D17648D9E78C
:104E2000072BD6D17548D5E7FCF76EFC4068FCF738
:104E300071FCFCF769FC874225D12046FDF7A2FBF7
:104E4000337803F0FF015BB9FEF7CAFA6C4B1970B7
:104E50006C4B19706C4B19606C4B19606C4B196082
:104E60006420FCF7BFF8BAE7FCF74EFC0068DEE709
:104E70000220FCF773FCFCF747FCC068D7E7FCF79F
:104E800043FC8068D3E7FCF73FFC574B834203D1D8
:104E90002046FDF76FFED3E7FCF736FC534B834209
:104EA00003D12046FEF7A4FACAE7FCF72DFC504BCD
:104EB000834203D12046FEF70FFCC1E7FCF724FC38
:104EC0004C4B834203D12046FEF7C2FDB8E7FCF706
:104ED0001BFC504B834203D12046FEF713FFAFE784
:104EE000FCF712FC444B834203D12046FDF72EFF12
:104EF000A6E7FCF709FC414B834203D12046FEF7AD
:104F000075F99DE7FCF700FC434B834203D1204633
:104F1000FDF786FE94E7FCF7F7FB404B834203D195
:104F20002046FFF7EBF98BE7FCF7EEFB3C4B8342A7
:104F300003D12046FCF764FF82E7FCF7E5FB394B21
:104F4000834203D12046FCF7C9FF79E7FCF7DCFB7D
:104F5000354B834203D12046FCF79CFF70E7FCF7FA
:104F6000D3FB324B834203D12046FDF79FFD67E719
:104F7000FCF7CAFB2E4B834203D12046FDF73EFCD3
:104F80005EE7FCF7C1FB2B4B834255D12046FDF772
:104F9000DBFC55E78C02002010E000E000ED00E0B3
:104FA000880800207A020020FA5C00087463000878
:104FB000A45B00088C6300089D630008F4000020D7
:104FC0005401002090070020280A00202C0A00200D
:104FD000240A002074020020451C0008E06A000832
:104FE00095070020B0070020386B0008906B000880
:104FF000E86B0008406C0008F06C0008486D000881
:10500000B10700209D070020A0070020B802002063
:10501000A80700206C6C0008A06D0008F86D00085F
:1050200044670008B46400085C6400086465000814
:105030000C6500086C660008FCF766FB3A4B83427F
:1050400003D12046FDF748FCFAE6FCF75DFB374B41
:10505000834203D12046FDF707FCF1E6FCF754FB41
:10506000334B834203D12046FDF7A6FCE8E6FCF76C
:105070004BFB304B834203D12046FCF753FFDFE666
:10508000FCF742FB2C4B834203D12046FCF7A6FFE2
:10509000D6E6FCF739FB294B834203D12046FCF7C7
:1050A000C3FFCDE6FCF730FB254B834203D12046FE
:1050B000FDF732F8C4E6FCF727FB224B834203D10D
:1050C0002046FDF74BF8BBE6FCF71EFB1E4B834268
:1050D00003D12046FDF764F8B2E6FCF715FB1B4B45
:1050E000834203D12046FDF779F8A9E6FCF70CFBD3
:1050F000174B834203D12046FDF78EF8A0E6FCF75C
:1051000003FB144B834203D12046FDF7E1F897E6F9
:10511000FCF7FAFA104B834203D12046FDF72EF933
:105120008EE6002333708BE614660008BC65000829
:10513000B4660008FC6600089C670008C8670008A1
:105140004C680008A4680008FC680008546900085E
:10515000AC690008886A00085C6A00087047FEE7CE
:10516000FEE7FEE7FEE7704770477047FFF72ABB90
:105170007047000014490B681B0624D5134BB3F885
:10518000582492B2DAB1B3F85824013A92B2A3F893
:105190005824B3F8562492B2501C80B2A3F8560497
:1051A0001A4492F86C20D2B24A60B3F8562492B2F4
:1051B000B2F57A7F07D10022A3F856247047CB6856
:1051C00023F08003CB60704700380140C20200200A
:1051D00070470000124A10B55368124903F00C03DF
:1051E000082B0AD0104B0B605368104AC3F303130B
:1051F000D25C0B68D3400B6010BD53685068C3F39A
:105200008343C00341BFD06A074C00F00F00013058
:105210004CBFB4FBF0F0064802334343E3E700BF62
:10522000001002408C02002000127A00216E00085B
:1052300000093D000021304A10B5D36823F08003F7
:10524000D3602E4B027802F0FF045ABBB3F854240B
:1052500092B2511C89B2A3F854140A211A4482F85C
:105260006C10B3F8542492B2B2F57A7F08BFA3F859
:105270005444B3F85824013292B2A3F85824B3F836
:105280005A14B3F8582489B292B291423EBFB3F88F
:10529000582492B2A3F85A24174AD36843F08003E3
:1052A000D36010BDB3F8542492B2541CA4B2A3F836
:1052B000544410F8014B1A44E4B282F86C40B3F83D
:1052C000542492B2B2F57A7F08BFA3F85414B3F80D
:1052D0005824013292B2A3F85824B3F85A44B3F8D0
:1052E0005824A4B292B294423EBFB3F8582492B26A
:1052F000A3F85A24A6E700BF00380140C2020020EC
:1053000000211C4A10B5D36823F08003D3601A4BE8
:1053100002782AB9174AD36843F08003D36010BDDE
:10532000B3F8542492B2541CA4B2A3F8544410F815
:10533000014B1A44E4B282F86C40B3F8542492B2A0
:10534000B2F57A7F08BFA3F85414B3F85824013299
:1053500092B2A3F85824B3F85A44B3F85824A4B22C
:1053600092B294423EBFB3F8582492B2A3F85A24A2
:10537000CEE700BF00380140C202002037B50191DE
:105380008DF803209DF8033004460198002B3FD18F
:10539000FBF744FF0025474AD36823F08003D3601E
:1053A000454B227802F0FF01002A36D10138B3F8CC
:1053B000542410F8014F92B2002C57D1511C89B2DD
:1053C000A3F854140A211A4482F86C10B3F8542438
:1053D00092B2B2F57A7F08BFA3F85444B3F85824C8
:1053E000013292B2A3F85824B3F85A14B3F85824EF
:1053F00089B292B291423EBFB3F8582492B2A3F858
:105400005A242C4AD36843F08003D36003B030BDE4
:105410009DF80310FBF77AFFBCE7B3F8542492B26F
:10542000511C89B2A3F8541414F8011B1A44C9B2D0
:1054300082F86C10B3F8542492B2B2F57A7F08BFA8
:10544000A3F85454B3F85824013292B2A3F8582464
:10545000B3F85A14B3F8582489B292B291423EBFBD
:10546000B3F8582492B2A3F85A249AE7541CA4B271
:10547000A3F8544404781A4482F86C40B3F85424D6
:1054800092B2B2F57A7F08BFA3F85414B3F8582447
:10549000013292B2A3F85824B3F85A44B3F858240E
:1054A000A4B292B294423EBFB3F8582492B2A3F889
:1054B0005A247CE700380140C2020020024B1A68DF
:1054C0001206FCD55860704700380140014608B507
:1054D0000B7803B908BD11F8010BFFF7EFFFF7E7F1
:1054E00008B5FFF7F3FFBDE808400A20FFF7E6BF65
:1054F000002103E00B4B5B58435004310A480B4B2F
:1055000042189A42F6D30A4A02E0002342F8043BCA
:10551000084B9A42F9D3FFF75BFE00F09FF9FFF7C3
:1055200005FA7047446E0008000000209002002039
:1055300090020020300A0020FEE70246806810B585
:1055400010F001000CD153684C6823F4807323439E
:1055500053609368096823F400630B43936010BDA4
:105560000120FCE7836810B5DB071BD443684A6859
:1055700023F4684312B18C68134323434360836868
:105580000C6823F4602323F481732343CC680969F6
:1055900023430B438360C36A23F470031343C36242
:1055A000002010BD0120FCE72DE9F04F0D680446F6
:1055B000C5F30F2595FAA5F24FF00F0AB2FA82F261
:1055C0004FF0030904274FF0011C40F2011E35FA89
:1055D00002F001D1BDE8F08F012393402B425ED051
:1055E000072A85BFA2F108030CFA03F30EFA02F3AF
:1055F00043F08063E0681E0A96FAA6F8B8FA88F8C5
:1056000020EA0606086900FA08F03043E0604FEA35
:10561000136893FAA3F6B6FA86F693FAA3FBBBFADD
:105620008BFBB6000AFA06F054F808604FEA8B0BC1
:1056300026EA0006486800FA0BFB46EA0B0644F827
:105640000860486820F00800012828D193FAA3F0E8
:10565000B0FA80F093FAA3FBBBFA8BFB800009FA47
:1056600000F026EA000688684FEA8B0B00FA0BFB75
:1056700046EA0B0644F8086093FAA3F0B0FA80F00B
:1056800093FAA3F3B3FA83F3800007FA00F026EA53
:105690000000CE689B009E40064344F8086001323B
:1056A00095E70000034B044A5B68C3F30313D35C24
:1056B000D840704700100240216E0008034B044A96
:1056C0005B68C3F30223D35CD840704700100240EC
:1056D000316E0008034B044A5B68C3F3C223D35CFA
:1056E000D840704700100240316E0008094B5A68DC
:1056F000D20341BFD86A084A00F00F00013048BF0A
:10570000B2FBF0F05B6858BF0448C3F38343023335
:10571000584370470010024000127A0000093D0013
:10572000044B5B6803F00C03082B01D1FFF7DEBFCD
:10573000014870470010024000127A0008B5014687
:10574000FFF7EEFF0860FFF7ADFF4860FFF7B6FF19
:1057500088604868FFF7BEFFC86008BD30B5C36801
:1057600004469B040D4685B002D5012005B030BD2E
:105770004B68C968C2680B43296922F416420B437F
:10578000A96922F00C020B431343C3600369AA68A2
:1057900023F440531343036143696A6923F440735C
:1057A000134343616846FFF7C9FF1F4B9C4224D156
:1057B00003990029D9D02A68002AD6D019234B434F
:1057C000A969B1F5004F4FF064011FD15200B3FB3E
:1057D000F2F3B3FBF1F001FB1033DB003233B3FB28
:1057E000F1F303F007025B0002EB001203F4F8731D
:1057F00013449BB20020A360B8E70C4B9C4201D13C
:105800000299D6E70A4B9C42AFD1F9E79200B3FB6D
:10581000F2F3B3FBF1F201FB12331B013233B3FBA2
:10582000F1F303EB0213E4E70038014000440040C9
:10583000004800404FF47A73B0FBF3F00022034BB2
:10584000013858609A6005221A60704710E000E045
:10585000014B1860704700BF8C02002070B5002615
:105860000C4D0D4C641BA410A64209D100F030F879
:1058700000260A4D0A4C641BA410A64205D170BD37
:1058800055F8043B98470136EEE755F8043B984736
:105890000136F2E73C6E00083C6E00083C6E0008E2
:1058A000406E00080A44914200F1FF3300D1704776
:1058B00010B511F8014B914203F8014FF9D110BD19
:1058C00003460244934200D1704703F8011BF9E7F5
:1058D000F8B500BFF8BC08BC9E467047F8B500BFDD
:0858E000F8BC08BC9E467047AD
:1058E80000070E091C1B1215383F363124232A2DB8
:1058F80070777E796C6B6265484F464154535A5DA8
:10590800E0E7EEE9FCFBF2F5D8DFD6D1C4C3CACD97
:1059180090979E998C8B8285A8AFA6A1B4B3BABD87
:10592800C7C0C9CEDBDCD5D2FFF8F1F6E3E4EDEA77
:10593800B7B0B9BEABACA5A28F88818693949D9A67
:105948002720292E3B3C35321F18111603040D0A57
:105958005750595E4B4C45426F68616673747D7A47
:10596800898E878095929B9CB1B6BFB8ADAAA3A437
:10597800F9FEF7F0E5E2EBECC1C6CFC8DDDAD3D427
:10598800696E676075727B7C51565F584D4A434417
:10599800191E171005020B0C21262F283D3A333407
:1059A8004E49404752555C5B7671787F6A6D6463F7
:1059B8003E39303722252C2B0601080F1A1D1413E7
:1059C800AEA9A0A7B2B5BCBB9691989F8A8D8483D7
:1059D800DED9D0D7C2C5CCCBE6E1E8EFFAFDF4F3C7
:1059E80044454255473A200073697A653A20007663
:1059F800616C3A20004661696C20746F20726561A1
:105A08006420616464726573733A2000454570725E
:105A18006F6D56616C7565206973203A2000464C9D
:105A28004153485F424153452B313032342A313299
:105A380033203A200043616C6962726174696F6E49
:105A48005772697465546F466C61736820004361CE
:105A58006C6962726174696F6E466163746F7279A2
:105A68005772697465546F466C61736820004361AE
:105A78006C6962726174696F6E5265616446726FB7
:105A88006D466C617368200043616C696272617471
:105A9800696F6E5265616446726F6D466C617368BA
:105AA800466F725665726966792000536574746929
:105AB8006E67735772697465546F466C61736820BA
:105AC8000053657474696E6773466163746F7279A5
