:020000040800F2
:100000000020002061570008015400080354000834
:1000100005540008075400080954000800000000B7
:100020000000000000000000000000000B54000869
:100030000D540008000000000F540008115400087F
:10004000A9570008A9570008A9570008A957000890
:10005000A9570008A9570008A9570008A957000880
:10006000A9570008A9570008A95700081554000807
:10007000A9570008A9570008A9570008A957000860
:10008000A9570008A9570008A95700080000000058
:10009000000000000000000000000000A957000858
:1000A000A9570008A9570008A9570008A957000830
:1000B000A9570008A9570008A9570008A957000820
:1000C000A95700080000000000000000A957000820
:1000D000A957000819540008A9570008A957000893
:1000E000A9570008A9570008A957000800000000F8
:1000F0000000000000000000000000000000000000
:1001000000000000000000000000000000000000EF
:100110000000000000000000A9570008A9570008CF
:1001200000000000000000000000000000000000CF
:1001300000000000000000000000000000000000BF
:1001400000000000000000000000000000000000AF
:10015000000000000000000000000000000000009F
:10016000000000000000000000000000000000008F
:10017000000000000000000000000000000000007F
:10018000000000000000000000000000000000006F
:10019000000000000000000000000000000000005F
:1001A000000000000000000000000000000000004F
:1001B000000000000000000000000000000000003F
:1001C0000000000000000000000000005FF808F1DF
:1001D00010B5054C237833B9044B13B10448AFF381
:1001E00000800123237010BD900200200000000059
:1001F000405B000808B5034B1BB103490348AFF34C
:10020000008008BD0000000094020020405B000850
:100210000E4A1346D168C907FCD4D168890644BF89
:100220002021D1601A6942F002021A6158611A69EC
:1002300042F040021A61054BDA689206FCD5202292
:10024000DA601A6922F002021A6170470020024047
:10025000034B044A5A6002F188325A60704700BF6B
:100260000020024023016745024A136943F08003DE
:100270001361704700200240114B10B51A46DC682C
:10028000E407FCD4DC68A40644BF2024DC601369C6
:1002900043F0010313610A4A8BB203801346D4680A
:1002A000A406FCD52024090CD4604180DA689206AB
:1002B000FCD52022DA601A6922F001021A6110BD11
:1002C0000020024038B572B6FFF7C2FF104805F0B3
:1002D00069F9104C00224FF4CE710F4805F0A0F9D7
:1002E0000B4805F05FF9002221680C4805F098F9E9
:1002F0000B48FFF78DFF0B4D094854F8041BFFF71F
:10030000BBFF0430A842F8D1FFF7AEFF62B638BD9C
:10031000585C000878080020605C0008675C0008F2
:1003200000E401089CE50108054A064B064953F81C
:10033000040B8B4242F8040BF9D10120704700BF37
:100340007808002000E401089CE50108F8B504687D
:1003500007468C420D4601D394421BD900260E4B12
:100360000E481E7005F01EF9324639460C4805F05D
:1003700057F90A4805F016F921463246094805F0B2
:100380004FF9064805F00EF932460749074805F0CF
:1003900047F92C462046F8BD00000020585C0008B4
:1003A0006D5C0008845C000800EC0108965C0008A5
:1003B00010B5194C6068FFF72BFFD4E90010FFF768
:1003C0005BFFD4E90210FFF757FFD4E90410FFF7F1
:1003D00053FFD4E90610FFF74FFFD4E90810FFF7E9
:1003E0004BFFD4E90A10FFF747FFD4E90C10FFF7E1
:1003F00043FFD4E90E10FFF73FFFD4E91010FFF7D9
:100400003BFFD4E91210FFF737FF044805F0CAF8A4
:10041000034805F061F810BD04000020585C000896
:10042000AD5C000810B5194C6068FFF7F1FED4E927
:100430000010FFF721FFD4E90210FFF71DFFD4E9F8
:100440000410FFF719FFD4E90610FFF715FFD4E9F0
:100450000810FFF711FFD4E90A10FFF70DFFD4E9E8
:100460000C10FFF709FFD4E90E10FFF705FFD4E9E0
:100470001010FFF701FFD4E91210FFF7FDFE04484A
:1004800005F090F8034805F027F810BD540000204F
:10049000585C0008C65C000838B5244C4FF48072E4
:1004A00000216068FFF752FF4FF47A72206000214C
:1004B000E068FFF74BFF4FF47A72A060002160699B
:1004C000FFF744FF1A4D20612A460A21E069FFF731
:1004D0003DFF2A46A0610A21606AFFF737FF2A46DE
:1004E00020620A21E06AFFF731FF2A46A0620A2152
:1004F000606BFFF72BFF2A4620630A21E06BFFF7B2
:1005000025FFC822A0634621606CFFF71FFFC822A9
:100510000A212064E06CFFF719FFA064054805F08C
:1005200041F8054804F0D8FF38BD00BF04000020A2
:10053000A0860100585C0008E65C000838B5244C31
:100540004FF4807200216068FFF700FF4FF47A7269
:1005500020600021E068FFF7F9FE4FF47A72A06096
:1005600000216069FFF7F2FE1A4D20612A460A2138
:10057000E069FFF7EBFE2A46A0610A21606AFFF7F7
:10058000E5FE2A4620620A21E06AFFF7DFFE2A46DE
:10059000A0620A21606BFFF7D9FE2A4620630A2178
:1005A000E06BFFF7D3FEC822A0634621606CFFF723
:1005B000CDFEC8220A212064E06CFFF7C7FEA064CC
:1005C000054804F0EFFF054804F086FF38BD00BF82
:1005D000A4000020A0860100585C0008005D00080F
:1005E00010B5174C6068FFF713FED4E90010FFF751
:1005F00043FED4E90210FFF73FFED4E90410FFF7F1
:100600003BFED4E90610FFF737FED4E90810FFF7E8
:1006100033FED4E90A10FFF72FFED4E90C10FFF7E0
:100620002BFED4E90E10FFF727FED4E91010FFF7D8
:1006300023FE044804F0B6FF034804F04DFF10BD4C
:1006400054010020585C0008235D000810B5174CC9
:100650006068FFF7DDFDD4E90010FFF70DFED4E977
:100660000210FFF709FED4E90410FFF705FED4E9F4
:100670000610FFF701FED4E90810FFF7FDFDD4E9ED
:100680000A10FFF7F9FDD4E90C10FFF7F5FDD4E9E6
:100690000E10FFF7F1FDD4E91010FFF7EDFD04484F
:1006A00004F080FF034804F017FF10BD9C010020F8
:1006B000585C0008395D000810B5224C4FF4807278
:1006C00000216068FFF742FE0A2220600121E068F5
:1006D000FFF73CFE4FF47A72A06001216069FFF7DA
:1006E00035FE4FF47A6220610121E069FFF72EFEAA
:1006F0004FF47A62A0610121606AFFF727FE42F29F
:10070000107220620021E06AFFF720FE42F21072B0
:10071000A0620021606BFFF719FE642220630021B4
:10072000E06BFFF713FE03220121A063606CFFF76B
:100730000DFE2064044804F035FF044804F0CCFEAC
:1007400010BD00BF54010020585C0008565D000831
:1007500010B5224C4FF4807200216068FFF7F6FD5F
:100760000A2220600121E068FFF7F0FD4FF47A7261
:10077000A06001216069FFF7E9FD4FF47A62206112
:100780000121E069FFF7E2FD4FF47A62A0610121E7
:10079000606AFFF7DBFD42F2107220620021E06A1E
:1007A000FFF7D4FD42F21072A0620021606BFFF7E8
:1007B000CDFD642220630021E06BFFF7C7FD03221B
:1007C0000121A063606CFFF7C1FD2064044804F0C0
:1007D000E9FE044804F080FE10BD00BFE4010020E3
:1007E000585C00086D5D000838B5124D124C284663
:1007F00004F0D8FE0022A168104804F011FF6068E0
:10080000FFF706FDD4E90010FFF736FDD4E902102A
:10081000FFF732FDD4E90410FFF72EFDD4E90610EE
:10082000FFF72AFD284604F0BDFE054804F054FEFB
:1008300038BD00BF585C0008F40000208D5D000842
:100840009C5D000810B50D4C6068FFF7E1FCD4E931
:100850000010FFF711FDD4E90210FFF70DFDD4E9F8
:100860000410FFF709FDD4E90610FFF705FD044861
:1008700004F098FE034804F02FFE10BD1401002080
:10088000585C0008BA5D000838B5114C4FF480720E
:1008900000216068FFF75AFD0E4D20602A460021B6
:1008A000E068FFF753FD2A46A06000216069FFF76A
:1008B0004DFD012200212061E069FFF747FDA061A5
:1008C000054804F06FFE054804F006FE38BD00BF81
:1008D000F400002000286BEE585C0008E15D000881
:1008E00038B5114C4FF4807200216068FFF72EFD7F
:1008F0000E4D20602A460021E068FFF727FD2A46BA
:10090000A06000216069FFF721FD01220021206124
:10091000E069FFF71BFDA061054804F043FE0548B0
:1009200004F0DAFD38BD00BF3401002000286BEE72
:10093000585C0008005E000870B501240E4D2C7054
:1009400072B6FFF7A1FFFFF7B7FEFFF7A5FD62B68E
:100950002E780A483EB904F025FE094804F0BCFD93
:100960002C70304670BD04F01DFE064804F0B4FD46
:1009700026462C70F5E700BF00000020585C0008F8
:10098000285E0008415E000870B51446C0B00646F7
:100990000D464FF480726846074905F0BBF82046C3
:1009A00016F8012B013D424015F0FF051DF802002D
:1009B000F6D140B070BD00BF585B000838B572B6C4
:1009C000144D00224C212846FFF7DEFF044645F86F
:1009D000040CFFF73DFCFFF7EBFCFFF7AFFD002237
:1009E0004C210D48FFF7D0FF84420C4809D104F098
:1009F000D9FD0B4804F070FDFFF736FC62B601200C
:100A000038BD04F0CFFD074804F066FDFFF7D0FCC9
:100A1000F2E700BF08000020A8000020585C000892
:100A2000815E0008A65E000838B572B6244D00222B
:100A300044212846FFF7A8FF0446224804F0B2FDEF
:100A400000222146204804F0EBFD1E4804F0AAFDD8
:100A5000002244211D4804F0E3FD45F8044CFFF753
:100A6000F7FBFFF7BDFDFFF773FE00224421184896
:100A7000FFF78AFF0546134804F094FD002229463B
:100A8000114804F0CDFD0F4804F08CFD0F48002202
:100A9000442104F0C5FDAC420A4809D104F082FDAE
:100AA0000C4804F019FDFFF7DFFB62B6012038BDEA
:100AB00004F078FD084804F00FFDFFF791FDF2E720
:100AC00058010020585C0008D65E0008E15E00086E
:100AD000E8010020ED5E00080F5F000870B572B6F7
:100AE0001C4D00221C212846FFF74EFF044645F806
:100AF000040CFFF7ADFBFFF777FEFFF7F1FE16489A
:100B000004F050FD696900221448154D04F088FD79
:100B1000114804F047FD0022A969104804F080FD47
:100B200000221C21281DFFF72FFF84420A4809D10B
:100B300004F038FD0B4804F0CFFCFFF795FB62B6DC
:100B4000012070BD04F02EFD074804F0C5FCFFF73E
:100B50004BFEF2E7F8000020585C00085C5E0008DD
:100B6000340100203C5F0008665F000838B54A4841
:100B700004F018FD494804F0AFFC72B6484DFFF789
:100B800067FB00224C212846FFF7FEFE044645F88D
:100B9000040CFFF747FCFFF7D1FC00224C21414831
:100BA000FFF7F2FE84423C485DD104F0FBFC3E4876
:100BB00004F092FC3D4D002244212846FFF7E4FE5C
:100BC0000446354804F0EEFC00222146384804F083
:100BD00027FD314804F0E6FC00224421354804F0AA
:100BE0001FFD45F8044CFFF731FDFFF7B1FD002272
:100BF00044213148FFF7C8FE0546274804F0D2FCDF
:100C0000002229462A4804F00BFD234804F0CAFCC0
:100C100028480022442104F003FDAC421E482AD19A
:100C200004F0C0FC254804F057FC254D00221C218F
:100C30002846FFF7A9FE044645F8040CFFF702FE1C
:100C4000FFF74EFE00221C211E48FFF79DFE844246
:100C5000114818D104F0A6FC1B4804F03DFCFFF736
:100C600003FB62B638BD04F09DFC184804F034FC68
:100C7000FFF7D8FB9EE704F095FC154804F02CFC28
:100C8000FFF7E4FCD1E704F08DFC124804F024FCEB
:100C9000FFF7D8FDE3E700BF585C0008685E000876
:100CA00058000020A8000020805E0008A00100205D
:100CB000D55E0008E05E0008E8010020EC5E000858
:100CC00018010020380100203B5F0008A55E0008E5
:100CD0000E5F0008655F0008174918482DE9F041CC
:100CE00042F2107C00240E460546154FB1F900E093
:100CF000B1F90420B1F90280A2EB0E020CFB02F262
:100D0000B1F906300134A3EB080392FBF3F343601F
:100D100003FB08F393FBF7F3072C7344C0F8008040
:100D2000836001F1040100F10C00DFD1B6F91E303F
:100D30006B65BDE8F08100BF2C020020F8070020A1
:100D4000F0D8FFFF114B10B51A6882421ADB194622
:100D500000220C6884420EDBCC6884420BDA0C2142
:100D600001FB02325368584342F2107390FBF3F0D8
:100D70009368184410BD0132072A01F10C01E8D133
:100D8000C820F7E76FF00900F4E700BFF80700207C
:100D90002DE9F0415D4C0646206800F0DBFA0022A8
:100DA000276807EB07133901234410F802C01546E2
:100DB0000132D2B2BCF1000F1BD1CB19E0180544AF
:100DC0003A200433287104EB030C701E10F8016FF5
:100DD000D5B296B92A4620212B4423440F2A75D92F
:100DE000102DC5F1100188BF00210D4405F0FF054D
:100DF0000EE01D4485F804C0D7E70F2D03D80CF88A
:100E000002600132E2E70023394421440A441371AD
:100E10003F4804F0C7FB294600223E4804F000FC8E
:100E2000236803EB03112144294400250133172BC8
:100E30000D7123603ED90A262F464FF02008284620
:100E400000F088FA002305EB05112A01214410F86F
:100E500003E09C460133DBB2BEF1000F3BD13A20E8
:100E6000511921448C448CF8040006EB06102044F0
:100E700001EB030C9CF804C0BCF1000F2FD1581EED
:100E8000C0B284465119043101442144BCF10F0F12
:100E900034D91028C3F11103DBB288BF00232A44E0
:100EA00022440244013513440E2D1F7106F1010640
:100EB000C5D12560FFF706FA154804F073FB2168D9
:100EC0000022BDE8F041144804F0AABB013203F847
:100ED000011BD2B282E78C448CF804E0B7E700EB48
:100EE000030C092D8CBF9CF804C09CF805C001EBD5
:100EF000030E01338EF804C0DBB2B9E70CF1010C2C
:100F000001F8018B5FFA8CFCC0E700BF7808002075
:100F1000585C00089A5F00089F5F00082DE9F843BD
:100F20005E4C804620680E4600F014FA00222768C6
:100F300007EB07133901234410F802C015460132AC
:100F4000D2B2BCF1000F1DD1CB19E0180544043317
:100F50002E7108F1FF3004EB030E10F801CFD5B26B
:100F6000BCF1000F12D12A4620212B4423440F2A22
:100F700075D9102DC5F1100188BF00210D4405F071
:100F8000FF050EE01D4485F804C0D5E70F2D03D8FA
:100F90000EF802C00132E0E70023394421440A443C
:100FA00013713F4804F0FEFA294600223D4804F040
:100FB00037FB236803EB0311214429440025013347
:100FC000172B0D7123603ED90A27A8464FF0200940
:100FD000284600F0BFF9002305EB05112A01214442
:100FE00010F803E09C460133DBB2BEF1000F3BD1A9
:100FF000511921448C4407EB07108CF804602044FD
:1010000001EB030C9CF804C0BCF1000F30D1581E5A
:10101000C0B284465119043101442144BCF10F0F80
:1010200035D91028C3F11103DBB288BF00232A444D
:1010300022440244013513440E2D83F8048007F145
:101040000107C5D12560FFF73DF9154804F0AAFA5C
:1010500021680022BDE8F843134804F0E1BA0132E8
:1010600003F8011BD2B282E78C448CF804E0B7E7A6
:1010700000EB030C092D8CBF9CF804C09CF805C044
:1010800001EB030E01338EF804C0DBB2B8E70CF1BC
:10109000010C01F8019B5FFA8CFCBFE77808002087
:1010A000585C00089A5F00089F5F0008002384B026
:1010B0000128009301D1009004E00228FBD003280E
:1010C0001AD01CD8124B9A680192019A02929A681F
:1010D00003920399029A914204D35A6801990A44EF
:1010E00001320192039A0292019A03980099121A0E
:1010F0008A42ECD304B0704712230093E2E7054B19
:10110000054A1B680338B3FBF2F35843D3E700BF2B
:1011100010E000E08C02002040420F0007B5019073
:10112000019B13B903B05DF804FB4FF47A70FFF72D
:10113000BDFF019B013B0193F2E7000038B5684C0D
:10114000684D204604F02EFA29680022664804F013
:1011500067FA204604F026FAA9680022634804F0E2
:101160005FFA204604F01EFA29690022604804F064
:1011700057FA204604F016FAA96900225D4804F0E7
:101180004FFA204604F00EFA296A00225A4804F069
:1011900047FA204604F006FAA96A0022574804F0EC
:1011A0003FFA204604F0FEF9296B0022544804F06F
:1011B00037FA204604F0F6F9A96B0022514804F0F2
:1011C0002FFA204604F0EEF9296C00224E4804F074
:1011D00027FA204604F0E6F9A96C00224B484C4D52
:1011E00004F01EFA3220FFF799FF204604F0DAF9E6
:1011F00029680022474804F013FA204604F0D2F987
:10120000A9680022444804F00BFA204604F0CAF909
:1012100029690022414804F003FA204604F0C2F98B
:10122000A96900223E4804F0FBF9204604F0BAF90F
:10123000296A00223B4804F0F3F9204604F0B2F991
:10124000A96B0022384804F0EBF9204604F0AAF913
:10125000A96A0022354804F0E3F9204604F0A2F917
:10126000296B0022324804F0DBF9204604F09AF999
:10127000296C00222F4804F0D3F92F4D3220FFF7BC
:101280004DFF204604F08EF9296800222B4804F017
:10129000C7F9204604F086F9A9680022284804F01E
:1012A000BFF9204604F07EF929690022254804F0A0
:1012B000B7F9204604F076F9A9690022224804F023
:1012C000AFF9204604F06EF9204B2148196800223E
:1012D00004F0A6F9BDE838403220FFF71FBF00BF79
:1012E000A35F000804000020AA5F0008BD5F00089B
:1012F000DB5F0008FA5F000817600008356000082F
:1013000052600008706000088E600008AC60000841
:1013100054010020C4600008D8600008F160000893
:10132000FE6000080B6100081861000826610008D3
:10133000386100084B610008F40000206861000873
:1013400084610008AC610008CE6100088C020020B6
:10135000DA610008F0B500230A2780EAE07185B061
:10136000A1EBE0711C46B1FBF7F604AD2C4407FB82
:101370001615303504F8105C0C46DAB2531C092CF3
:1013800031465BB2EEDC002806DA04A90B442D21BD
:10139000023203F8101C53B2002104AA1A4402F8C6
:1013A000101C1A46084CD0B2191A49B21AB906488C
:1013B000625405B0F0BD04AD2A4412F8112C6254F9
:1013C000421E52B2EFE700BF50070020F0B50446BE
:1013D00000234FF00A0C084684EAE47185B0A1EBC3
:1013E000E4711D46B1FBFCF704AE35440CFB171647
:1013F000303605F8106C0D46DAB2531C092D39460B
:101400005BB2EEDC002C06DA04A90B442D2102327B
:1014100003F8101C53B2002104AA1A4402F8101C4D
:101420001A46D4B2191B49B2451812B92A7005B030
:10143000F0BD04AD2A4412F8112C4254621E52B27F
:10144000EFE7000000224FF00A0CF0B580EAE074EC
:101450008BB0A4EBE0741546B4FBFCF70AAE354440
:101460000CFB1746303605F8286C2546D3B25A1CBB
:10147000092D3C4652B2EEDC012A0AAC1444D7BF17
:101480003022002304F8282C9A1CD4BF52B204F84E
:10149000283C022A08DC012906D930240AAB13446F
:1014A000013203F8284C52B200242E26234665B29E
:1014B000AA4212DC002806DA0AA95A1C0B442D2184
:1014C00003F8141C53B21A46114CD0B2191A49B27F
:1014D000B2B90F4862540BB0F0BD8B421D4605D126
:1014E0000AAF01333D445BB205F8146C1DF804707B
:1014F0000AAD1D44013305F8147C5BB20134D6E714
:101500000AAD2A4412F8152C6254421E52B2DCE78E
:1015100060070020F0B5054600244FF00A0E08468B
:1015200085EAE5718BB0A1EBE5712646B1FBFEFCC7
:101530000AAF3E440EFB1C17303706F8287C0E46D7
:10154000E3B25C1C092E614664B2EEDC012C0AA9F0
:101550002144D7BF3024002301F8284C9C1CD4BF61
:1015600064B201F8283C022C08DC012A06D930219B
:101570000AAB2344013403F8281C64B200212E274F
:101580000B464EB2A64211DB002D06DA0AA95A1C00
:101590000B442D2103F8141C53B21A46D4B2191B64
:1015A00049B24518B2B92A700BB0F0BD93421E463D
:1015B00006D10DF1280C013366445BB206F8147CA9
:1015C0001DF801C00AAE1E44013306F814CC5BB20C
:1015D0000131D6E70AAD2A4412F8152C4254621E96
:1015E00052B2DBE7002802D0DCBF404200B27047B5
:1015F00002460023D8B2115C01330029FAD17047AA
:1016000070B505460024104662B2AB5C661C43B957
:101610005AB28D5CE21852B28618013325B9357082
:1016200070BD34468354EFE78554F1E7F0B50446C6
:101630000F461846002569B2635C6E1C83B9DEB2A2
:10164000F95C74195FFA84FC64B261B94BB2D45C82
:101650000CEB01035BB2C518013144B92C70F0BD2D
:1016600035464354E7E7731C01555BB2E7E7C454C2
:10167000ECE72DE9F04107464FF4616086B00C4677
:10168000B7FBF0F001A9FFF7A1FE01A8FFF7B0FF3B
:10169000012896BF012200223023154698BF2370EF
:1016A000EEB2B31A06A95BB20B4413F8141C63190B
:1016B000751C6DB2002949D13A221A703C23B7FB40
:1016C000F3F2B2FBF3F001A903FB1020FFF77EFE5B
:1016D00001A8FFF78DFF01289FBF30236355B51C7C
:1016E0006DB22E465FFA86F8A8EB050306AA5BB238
:1016F000134413F8142CA31908F1010676B23ABB6F
:101700003A221A703C23B7FBF3F001A903FB1070D7
:10171000FFF75CFE01A8FFF76BFF01289CBF302399
:10172000A3554FF000039CBF08F1020676B25AB2EF
:1017300006A90A4412F8141C9A1952B2A0180133CF
:1017400041B90170204606B0BDE8F0811970A7E7E5
:101750001A70C7E7A154EAE7F0B506464FF4616096
:1017600087B00C46B6FBF0F001A9FFF72FFE01A8E9
:10177000FFF73EFF012896BF0122002230231546C5
:1017800098BF2370EFB2BB1A06A95BB20B4413F8E3
:10179000141C63197D1C6DB229BB3A221A703C23BC
:1017A000B6FBF3F6B6FBF3F001A903FB1060FFF7FD
:1017B0000DFE01A8FFF71CFF01289CBF30236355D5
:1017C0004FF000039CBFBD1C6DB25AB206A90A447B
:1017D00012F8141C5A1952B2A018013329B9017019
:1017E000204607B0F0BD1970CCE7A154EDE700002A
:1017F0000C494B680A688B609342C1E9000205DC22
:10180000834209DC9042A8BF10467047824203DC45
:101810009842A8BF184670479342A8BF134618467F
:10182000704700BF140700200C494B680A688B60A2
:101830009342C1E9000205DC834209DC9042A8BF63
:1018400010467047824203DC9842A8BF1846704792
:101850009342A8BF13461846704700BF20070020D8
:101860000C494B680A688B609342C1E9000205DCB1
:10187000834209DC9042A8BF10467047824203DCD5
:101880009842A8BF184670479342A8BF134618460F
:10189000704700BF2C0700200C494B680A688B601A
:1018A0009342C1E9000205DC834209DC9042A8BFF3
:1018B00010467047824203DC9842A8BF1846704722
:1018C0009342A8BF13461846704700BF3807002050
:1018D0000C494B680A688B609342C1E9000205DC41
:1018E000834209DC9042A8BF10467047824203DC65
:1018F0009842A8BF184670479342A8BF134618469F
:10190000704700BF4407002070477047704770471A
:10191000014B1868704700BF4C020020094B10B5FE
:1019200098420DD060B1084A084C126820600AB194
:101930001830904723681B6913B1BDE81040184761
:1019400010BD00BFEC610008740700204C020020AD
:10195000024B1860024B1868FFF7E0BF74070020C5
:101960004C020020044B054A1B68934203D013B17C
:101970005B6903B1184770474C020020EC61000816
:101980004FF4804310B5064C02202361FFF78EFB15
:101990004FF0804302202361BDE81040FFF786BB73
:1019A000000C014070B54FF07C454FF480560D4C53
:1019B00025612661FFF7E4FF0120FFF7AFFB2561FA
:1019C0002661FFF7DDFF0120FFF7A8FB4FF48063DE
:1019D00025612361FFF7D4FFBDE870400120FFF7C8
:1019E0009DBB00BF000C01404FF07C42244B70B502
:1019F00004460D461A6111B14FF400421A61E20625
:101A000044BF4FF400521A6114F0200F18BF4FF476
:101A100080521B4B18BF1A61660644BF4FF4006228
:101A20001A6114F0800F18BF4FF48063144E18BF72
:101A30003361FFF7A5FF4FF07053E007336144BFF8
:101A40004FF400533361A10742BF4FF480520C4B57
:101A50001A61620742BF4FF40062094B1A61230703
:101A600042BF4FF48062064B1A61FFF789FF0220E4
:101A7000FFF754FB1DB14FF00042014B1A6170BDDE
:101A8000000C0140C00040F0400038B500F0F80004
:101A90000C460021FFF7A8FF651E073415F8010F5B
:101AA0000121FFF7A1FFA542F8D1BDE83840002190
:101AB0008020FFF799BF000073B51F4C1F4D69468A
:101AC0000020CDE900451E4EFFF7DCFF1D4B6946A7
:101AD0000120CDE90036FFF7D5FF1B4B6946CDE964
:101AE00000350220194DFFF7CDFF69460320CDE9EF
:101AF0000056FFF7C7FF69460420CDE90054FFF701
:101B0000C1FF134A134B69460520CDE90023FFF7B7
:101B1000B9FF114B11490620CDE900136946FFF7C3
:101B2000B1FF0F4B0F486946CDE900030720FFF7CF
:101B3000A9FF02B070BD00BF04150E0400041F1FF2
:101B40000000041F150E040000040E15040E1504F9
:101B50000207070A0A1C1C08051509000F050505E0
:101B6000010101001111111F064A1070064A11707F
:101B700019B940F08000FFF737BF002140F0C000E6
:101B8000F9E700BF780700207907002070B5054607
:101B90000E460446207800B970BD0121FFF724FFEE
:101BA000012E07D1631BDBB2072B03D13146002086
:101BB000FFF7DAFF0134EDE70121C0B2FFF714BFF0
:101BC0002DE9F8430D46DFF878801B4E1B4F441E6D
:101BD00014F8010F08B9BDE8F883B22819D1012122
:101BE0004920FFF701FF337897F800900133DBB20B
:101BF0003370B9F1000FEBD1082BE9D1022DE7D1F9
:101C000001214846FFF7B0FF012386F800903B70A2
:101C1000DEE7AF2802D101210320E2E7AA2802D1A2
:101C200001210220DDE7BF2889BF404401210121B5
:101C300010F8C00CD5E700BF780700207907002016
:101C40005002002000210120FFF7CEBE08B564201D
:101C5000FFF764FAFFF7A6FE00210E20FFF7C4FE8F
:101C6000BDE80840FFF7EEBF0221FFF7A9BF10B59E
:101C7000044608461146FFF777FF2046BDE81040AE
:101C80000221FFF79DBF08B5FFF7E0FFFFF7DAFF7E
:101C9000BDE8084000210C20FFF7A6BE054B82B02E
:101CA0009A6902439A619B6918400190019B02B0B6
:101CB000704700BF001002400022014B1A8070479D
:101CC000E207002008B5FEF779FEBDE808400148AC
:101CD000FFF75EB80462000810B53B4C94F90010A1
:101CE00061B90846FFF740FF3848FFF7BDFF4FF4E2
:101CF0008762374B9A6140F2B4521A6294F900300D
:101D0000012B0DD100210846FFF72EFF3148FFF7C8
:101D1000ABFF4FF496722E4B9A614FF4D2721A6257
:101D200094F90030022B0DD100210846FFF71CFF6B
:101D30002948FFF799FF4FF48C72254B9A614FF4B5
:101D4000B9721A6294F90030032B0CD100210846B5
:101D5000FFF70AFF2148FFF787FFA0221C4B9A617B
:101D60004FF48C721A6294F90030042B0DD10021CB
:101D70000846FFF7F9FE1A48FFF776FF4FF448725E
:101D8000134B9A614FF4AA621A6294F90030052B42
:101D90000CD100210846FFF7E7FE1248FFF764FF69
:101DA00064220B4B9A614FF4FA621A6294F9003084
:101DB000062B04BF00232370FEF736FEBDE810405B
:101DC0004FF41670FFF7AAB99307002010620008BD
:101DD00054010020216200083262000843620008BA
:101DE0005462000865620008FEF71EBE08B50121B6
:101DF0000720FFF7B9FE0121FF20FFF7F5FDFEF7F1
:101E000013FE044BC8209A68034B1A60BDE80840D3
:101E1000FFF784B9540100201C0A002008B50121F5
:101E20000720FFF7A1FE0121FF20FFF7DDFDFEF7F0
:101E3000FBFD044BC8201A6C034B1A60BDE8084038
:101E4000FFF76CB954010020140A002018B10022D9
:101E50001146FFF70CBF704749F6AF2310B50E4C83
:101E600090B022689A4215D90C4B0BA91868FFF75D
:101E700073FC4FF46163206801A9B0FBF3F0FFF736
:101E8000A5FA074906AB0BAAFFF7D0FB022106A86B
:101E9000FFF744F810B010BD80070020980700201D
:101EA0007662000810B5164C164890B003F07AFB25
:101EB00000222168144803F0B3FB49F6AF232268DF
:101EC0009A421BD9114B0BA91868FFF745FC4FF438
:101ED0006163206801A9B0FBF3F0FFF777FA06AB66
:101EE0000BAA0B49FFF7A2FB012106A8FFF716F882
:101EF000044803F057FB06A803F0EEFA10B010BD3B
:101F00007C070020585C00087A6200088C070020DB
:101F10007662000808B501210720FFF725FEBDE81D
:101F200008400121FF20FFF75FBD00004FF0007166
:101F300070B591FAA1F1B1FA81F3104C00F0007183
:101F4000D9404FF0F87254F8215000F0F87092FA2E
:101F5000A2F3B3FA83F392FAA2F20726B2FA82F25C
:101F600020FA03F306FA03F3D04025EA030306FA46
:101F700000F0184344F8210070BD00BF0C2401405C
:101F80004FF4407330B593FAA3F3B3FA83F31F24ED
:101F9000084D00F44072DA4055F8223000F01F007E
:101FA000844001F01F0123EA04038140194345F8EE
:101FB000221030BD2C24014000207047002310B5B2
:101FC00096B00446084611A98DF804208DF8053016
:101FD000FFF7C2FB4FF4616002A9B4FBF0F0FFF71A
:101FE000F5F907AB11AA0749FFF720FB0CAA07A9CF
:101FF00001A8FFF705FB04210CA8FEF78FFF16B020
:1020000010BD00BF76620008022838B51E4C1F4D77
:102010002AD123882A6801331BB29342238001D33B
:102020000023238000210846FFF79EFD2868B4F9AD
:1020300000300138C01A00EB001004302844FFF7CC
:1020400013FE134803F0AEFAB4F900100022114851
:1020500003F0E6FA0E4803F0A5FA29680022BDE86D
:1020600038400D4803F0DCBA0128DBD12388013B5E
:102070001BB2002B2380D5DA2B68013B1BB2002B4F
:102080002380CDDBCEE700BFE207002078080020E8
:10209000585C0008826200088F620008002110B5B9
:1020A00004460846FFF760FD0A4B188800B2FFF7A8
:1020B00051F9FFF7D9FD0848FFF7D6FD022C08D1EA
:1020C000BDE81040054B064A1B881BB29360FEF723
:1020D00075BC10BD5A080020A2620008B2020020A0
:1020E00004000020002110B504460846FFF73CFD1F
:1020F0000A4B188800B2FFF72DF9FFF7B5FD084825
:10210000FFF7B2FD022C08D1BDE81040054B064A8E
:102110001B881BB21361FEF751BC10BD5A0800208A
:10212000A2620008B402002004000020002110B5C3
:1021300004460846FFF718FD1F48FFF795FD022CDF
:1021400030D1FEF713FDFEF7F7FB002104460846E9
:10215000FFF70AFD1948FFF787FD4FF4FA60FEF715
:10216000DDFF00210846FFF7FFFC012C1BD11448BE
:10217000FFF77AFD1348FEF70BFE4FF4FA60FEF707
:10218000CDFF114B1A69114B1A604FF46162104B6D
:1021900019694A430F490A6099680F4A11601A6C1D
:1021A0000E4B1A6010BD0E48FFF75EFDBDE81040F3
:1021B0004FF47A60FEF7B2BFB1620008C262000855
:1021C000D3620008E4620008F400002084070020C5
:1021D00054010020180A00201C0A0020140A0020C4
:1021E000F3620008022810B50E4C15D123690133A3
:1021F000236100210846FFF7B7FC2069FFF7AAF822
:10220000FFF732FD0848FFF72FFD4FF461632269A5
:102210005343064A136010BD0128EAD12369013BEC
:10222000E6E700BF5401002004630008180A0020FC
:1022300010B5334C022894F900300DD101335BB254
:10224000072B0FD10023237000210846FFF78CFCD9
:102250002C48FFF709FD0AE0012804D1013B5BB2DD
:10226000002B10DB237094F90030002BECD094F994
:102270000030012B09D100210846FFF775FC2248E8
:10228000FFF7F2FC01E00623237094F90030022BE3
:1022900006D100210846FFF767FC1C48FFF7E4FC65
:1022A00094F90030032B06D100210846FFF75CFCAF
:1022B0001748FFF7D9FC94F90030042B06D1002110
:1022C0000846FFF751FC1348FFF7CEFC94F90030A5
:1022D000052B06D100210846FFF746FC0E48FFF704
:1022E000C3FC94F90030062B08D100210846FFF703
:1022F0003BFCBDE810400948FFF7B6BC10BD00BF6D
:1023000093070020096300081A6300082C63000883
:102310003D6300084D6300085E6300086E630008BB
:10232000022810B50D4C14D1A3690A33A361002112
:102330000846FFF719FC0A23A0690121B0FBF3F05E
:10234000FFF780F8FFF790FCBDE810400448FFF766
:102350008BBC0128EBD1A3690A3BE7E754010020BD
:102360002D620008022810B50D4C14D1236A0A33DF
:10237000236200210846FFF7F7FB0A23206A0121A8
:10238000B0FBF3F0FFF75EF8FFF76EFCBDE810401E
:102390000448FFF769BC0128EBD1236A0A3BE7E751
:1023A000540100202D620008022810B50B4C10D1FA
:1023B000A36A0133A36200210846FFF7D5FBA06A98
:1023C000FEF7C8FFFFF750FCBDE810400448FFF7D8
:1023D0004BBC0128EFD1A36A013BEBE7540100207D
:1023E0007E630008022810B50B4C10D1236B01331B
:1023F000236300210846FFF7B7FB206BFEF7AAFF17
:10240000FFF732FCBDE810400448FFF72DBC01285F
:10241000EFD1236B013BEBE7540100207E63000802
:10242000022838B51A4C2DD1A36B0133A3630021C8
:102430000A250846FFF798FBA06BFEF78BFFFFF716
:1024400013FC1448FFF710FC206A0121B0FBF5F0E3
:10245000FEF7F8FFFFF708FC0F48FFF705FC6422C2
:10246000236AA06B01215843B0FBF2F0181AB0FBAD
:10247000F5F0FEF7E7FFFFF7F7FBBDE83840074848
:10248000FFF7F2BB0128D2D1A36B013BCEE700BF1F
:1024900054010020876300088A6300082D62000849
:1024A000044B9A68044B1B689A4201D1FFF732BD76
:1024B000704700BF540100201C0A0020044B1A6C16
:1024C000044B1B689A4201D1FFF724BD704700BF3F
:1024D00054010020140A0020002110B504460846CB
:1024E000FFF742FB022C1F4B0DD19A68072A02F11D
:1024F000010127D101229A601B48FFF7B5FBBDE817
:102500001040FFF7CDBF012C03D19A68013A15D0D6
:102510009A609A68013A062A20D801A151F822F05F
:10252000F9240008492500084D2500085125000818
:1025300055250008592500084125000807229A6002
:102540000A48DAE79960E4E70948D6E70948D4E79A
:102550000948D2E70948D0E70948CEE701229A6046
:1025600010BD00BF540100208D630008F363000814
:102570009E630008AF630008C0630008D1630008D1
:10258000E2630008002110B504460846FFF7ECFAA4
:10259000022C144B0DD11A6C032A02F101011CD13B
:1025A00001221A641048FFF75FFBBDE81040FFF7F7
:1025B00085BF012C03D11A6C013A0AD01A641A6C37
:1025C000022A0CD0032A06D0012AEBD001221A6479
:1025D00010BD03221A640548E5E71964EFE70448D3
:1025E000E1E700BF540100200464000826640008ED
:1025F00015640008154B16499A6812F0100F0CD09C
:102600009A68900616D59A68520615D59B68DB43E2
:1026100013F0800312D10B807047032240F2DC508C
:10262000B1F9003083420BDD40F2B4530B80094B0B
:102630001A700AE00222F1E70122EFE70422EDE737
:1026400001331BB2142B0B80F1D07047000C0140FA
:10265000E0070020E4070020044B187810B10021A7
:10266000034A116000221A70704700BFE40700207F
:10267000A40700200022034B1A600122024B1A70AB
:10268000704700BFD0070020AA07002038B50446D5
:102690004FF46160B4FBF0F0FEF75CFE0546FEF718
:1026A000A7FF012803D801211148FFF76FFA012184
:1026B0002846FFF76BFA01210E48FFF767FA3C2323
:1026C000B4FBF3F4B4FBF3F003FB1040FEF742FE5F
:1026D0000446FEF78DFF012803D801210448FFF7C7
:1026E00055FA2046BDE838400121FFF74FBA00BF38
:1026F00037640008726500084FF48032064B1A6197
:102700004FF08072A3F580631A610023034A1370AF
:10271000034A1370704700BF000C0140A20700205D
:10272000A90700200123054A1361054A1370054AD1
:1027300013704FF48072044B1A617047000C014013
:10274000A2070020A907002000080140084908B599
:102750000A68022A04D1FFF7E5FF01230B6008BDD8
:10276000032AFCD1034B9B69012BF8D1F3E700BF8F
:1027700074020020F400002000212DE9F04101271F
:102780002A4B2B4D064608461F70FFF7EDF92B78B4
:10279000284C03F0FF0843BB274B0221188880B266
:1027A000FEF750FEFFF760FA2448FFF75DFA414656
:1027B0000720FFF7D9F9208800B2FEF7CBFDFFF71D
:1027C00053FA1F48FFF750FA05203946FFF7CCF9B6
:1027D0001C48FFF749FA022E03D12B781BBBFFF7E9
:1027E000A1FFBDE8F041FFF7B1BF174B02211888E8
:1027F00080B2FEF727FEFFF737FA1048FFF734FAEA
:1028000000210720FFF7B0F9208800B2FEF7A2FDF3
:10281000FFF72AFA0D48FFF727FA06203946FFF797
:10282000A3F90B48D5E7FFF767FFDAE7A007002019
:10283000A20700205A08002074080020396400080C
:102840003D640008B56500086E0800204364000878
:102850004A6400080122164B10B51A70FFF762FF98
:102860000228144C1ED1A3690133A361002108463C
:10287000FFF77AF9A069FEF76DFDFFF7F5F90E484D
:10288000FFF7F2F901210020FFF76EF90B4B1888D2
:1028900000B2FEF75FFDFFF7E7F9BDE8104008481A
:1028A000FFF7E2B90128E1D1A369013BDDE700BFF1
:1028B000A007002004000020226400085A0800201D
:1028C0004E6400080122164B10B51A70FFF72AFF5C
:1028D0000228144C1FD1A36A0133A36200210846C9
:1028E000FFF742F9A06AFEF735FDFFF7BDF90E4884
:1028F000FFF7BAF901210020FFF736F90B4B02214F
:10290000188880B2FEF79EFDFFF7AEF9BDE81040D3
:102910000748FFF7A9B90128E0D1A36A013BDCE72A
:10292000A007002004000020226400087408002092
:10293000396400080122164B10B51A70FFF7F2FE39
:102940000228144C1FD1236B013323630021084656
:10295000FFF70AF9206BFEF7FDFCFFF785F90E483B
:10296000FFF782F901210020FFF7FEF80B4B02214F
:10297000188880B2FEF766FDFFF776F9BDE81040D3
:102980000748FFF771B90128E0D1236B013BDCE771
:10299000A007002004000020226400086E08002028
:1029A000396400080122164B10B51A70FFF7BAFE01
:1029B0000228144C1FD1A36B0133A36300210846E6
:1029C000FFF7D2F8A06BFEF7C5FCFFF74DF90E48F4
:1029D000FFF74AF901210020FFF7C6F80B4B02214F
:1029E000188880B2FEF72EFDFFF73EF9BDE81040D3
:1029F0000748FFF739B90128E0D1A36B013BDCE7B9
:102A0000A0070020040000202264000858080020CD
:102A10003964000801222A4B70B51A70FFF782FE54
:102A20000228284E42D133880133338000210846E2
:102A3000FFF79AF802213088FEF704FD224D234C5F
:102A4000FFF712F92248FFF70FF92B8822889BB273
:102A500012B2002A2FDD328820889B1A02B242F27D
:102A600010701BB223EAE373434393FBF2F0194E59
:102A70003064FEF76FFCFFF7F7F81748FFF7F4F83C
:102A8000164B1B882A8821889BB209B2002992B272
:102A900013DD9B1A42F210721BB223EAE373534315
:102AA000218809B293FBF1F3B36470BD0128BDD155
:102AB0003388013BB9E74620D9E70A23F4E700BF92
:102AC000A007002078020020B60200205A0800204B
:102AD0008A63000804000020536400087408002082
:102AE0000222064B1A610123054A1370054A13702E
:102AF0004FF40062044B1A61704700BF000C0140A4
:102B0000A2070020A80700200008014008B5FFF731
:102B1000F3FDFFF7E5FFBDE808403220FEF7FEBAFF
:102B200038B501220546154B154C1A70FFF7EEFF1C
:102B3000022D1ED1236A0133236200210846FFF7CC
:102B400013F8206AFEF706FCFFF78EF80D48FFF732
:102B50008BF801210020FFF707F80B4B188800B213
:102B6000FEF7F8FBFFF780F8BDE838400748FFF7AD
:102B70007BB8012DE1D1236A013BDDE7A0070020EE
:102B800004000020226400085A0800204E64000857
:102B900008B50D4B93F90020022A13D002221A70B7
:102BA000FFF7AAFDFFF79CFF0022084B32201A60B6
:102BB000FEF7B4FA064802F0F5FCBDE80840054807
:102BC00002F08ABC08BD00BF8A070020CC070020A5
:102BD000585C00085E6400084FF40032074B1A612D
:102BE0000023074A1370074A13704FF0006203F185
:102BF000804303F584331A61704700BF000C014025
:102C0000A2070020A80700200122234B022810B5AC
:102C1000224C1A7003D123787BBBFFF761FF0021A0
:102C20000846FEF7A1FF1E4B0221188880B2FEF76E
:102C300009FCFFF719F81B48FFF716F81A4B18881C
:102C400000B2FEF787FBFFF70FF81848FFF70CF804
:102C5000237801210620164C93B9FEF785FF012148
:102C60000220FEF7A9FF01210220FEF7A5FF23782D
:102C70000A2B84BF0023237010BDFFF7ADFFCEE702
:102C80002378052BE9D9FEF76FFF01210320FEF71A
:102C900093FF01210320E8E7A0070020A2070020FE
:102CA0006E0800208A6300085A0800204364000868
:102CB0008907002000212DE9F04101272D4B2E4DE1
:102CC000064608461F70FEF74FFF2B782B4C03F08B
:102CD000FF0843BB2A4B0221188880B2FEF7B2FBE3
:102CE000FEF7C2FF2748FEF7BFFF41460720FEF769
:102CF0003BFF208800B2FEF72DFBFEF7B5FF224810
:102D0000FEF7B2FF05203946FEF72EFF1F48FEF7FB
:102D1000ABFF022E2BD12B781BBBFFF703FDBDE8C9
:102D2000F041FFF7DDBE1A4B0221188880B2FEF792
:102D300089FBFEF799FF1348FEF796FF0021072055
:102D4000FEF712FF208800B2FEF704FBFEF78CFFAF
:102D50001048FEF789FF06203946FEF705FF0E48AA
:102D6000D5E7FFF7C9FCBDE8F041FFF735BFBDE887
:102D7000F08100BFA0070020A20700205A08002011
:102D800074080020396400083D640008B565000837
:102D90006E080020436400084A64000808B5FFF785
:102DA0001BFFFFF7BFFCBDE808403220FEF7B6B9B5
:102DB00008B50D4B93F90020012A13D001221A7097
:102DC000FFF70AFFFFF7AEFC0022084B32201A6023
:102DD000FEF7A4F9064802F0E5FBBDE80840054807
:102DE00002F07ABB08BD00BF8A070020CC07002094
:102DF000585C0008616400082DE9F04F974A85B0DF
:102E00001378DFF8B0A2DFF8B0B2DFF8B092944FD9
:102E1000DFF8AC82934D009003F0FF040192002B89
:102E20003ED1914B1A88914B92B21B6A05339A425C
:102E300015D221462046FEF797FE8D48FEF714FF77
:102E40004FF4FA60FEF76AF921462046FEF78CFE41
:102E50008848FEF709FF40F6B830FEF75FF9012613
:102E60000024019B1E70844B8AF800408BF80040C0
:102E7000C9F800403C601C60C8F800402C608AF82B
:102E80000060FFF795FF7D4B214620461E70FEF740
:102E90006BFE7B48FEF7E8FE4FF47A70FEF73EF9D2
:102EA000784C208800B2FEF79DFB0528039440F380
:102EB000C881754A6D4E1388B1699BB28B420292EC
:102EC0001FD26E4B1A78022A1BD1704B1B68B3F5C8
:102ED0007A7F16D900238BF8003029686C4B994211
:102EE00003D928683968FFF769F800230124C9F875
:102EF0000030C8F800308AF80040FFF759FF5F4BF8
:102F00001C70029B326A1B889BB2934208D95B4BB0
:102F10001B78012B04D15D4B1B68B3F57A7F09D870
:102F20005C4BD9F800201B689A4223D9534B1B787D
:102F3000012B1FD100238AF80030D8F80020544B11
:102F40009A4206D9D8F800000122D9F80010FFF7FC
:102F500035F83A68484B1A602A684F4B9A6000234C
:102F60003B602B6001238BF80030FFF711FE02223B
:102F7000424B1A70009A494C022A94F9003034D11D
:102F800001335BB2052B37D10023237000210846A3
:102F9000FEF7EAFD029B0221188880B2FEF752FA82
:102FA000FEF762FE3E48FEF75FFE039B188800B204
:102FB000FEF7D0F9FEF758FE3A48FEF755FE01211C
:102FC0000620FEF7D1FD01210420FEF7F5FD364B6A
:102FD0001978012940F02E8107200091FEF7C4FDE9
:102FE00000200099FEF7E8FD0BE0009A012A04D1C9
:102FF000013B5BB2002B65DB237094F90030002BA2
:10300000C4D094F90030012B5ED100210846009312
:10301000FEF7AAFD3069FEF79DF9FEF725FE23486D
:10302000FEF722FE0A22009BB0691946B0FBF2F0BF
:10303000FEF708FAFEF718FE1948FEF715FE0A22F9
:10304000009B306A1946B0FBF2F0FEF7FBF9FEF781
:103050000BFE1748FEF708FE36E000BFA007002071
:1030600098070020800700207408002054010020E9
:1030700068640008796400089C0700207002002042
:103080008A6400085A0800206E080020CC0700203F
:103090004F8C0500180A0020F40000209107002042
:1030A0008A6300089B640008A9070020FD5D0008F2
:1030B0006F6200088B070020940700208C07002017
:1030C0007C0700200423237094F90060022E21D194
:1030D00000210846FEF748FD01213046FEF76CFD51
:1030E00000210120FEF740FD5C48FEF7BDFD4FF4D6
:1030F00061632868B0FBF3F0FEF72CF9FEF7B4FD2E
:103100005748FEF7B1FD03200121FEF72DFD386879
:10311000FFF7BCFA94F90060032E23D10021084682
:10312000FEF722FD01210020FEF746FD00210120CF
:10313000FEF71AFD4948FEF797FD4FF46163D8F892
:103140000000B0FBF3F0FEF705F9FEF78DFD4448F3
:10315000FEF78AFD30460121FEF706FDD9F8000092
:10316000FFF794FA94F90030042B23D1002108468C
:10317000FEF7FAFC01210220FEF71EFD00210120CE
:10318000FEF7F2FC3748FEF76FFD374B98684FF4B7
:103190006163B0FBF3F0FEF7DDF8FEF765FD334841
:1031A000FEF762FD03200121FEF7DEFC304B1868BC
:1031B000FFF76CFA2F4802F0F5F9019B002219780D
:1031C0002D4802F02DFA2B4802F0ECF99AF8001085
:1031D00000222A4802F024FA264802F0E3F9D9F83E
:1031E00000100022264802F01BFA224802F0DAF909
:1031F000D8F800100022234802F012FA1D4802F00D
:10320000D1F99BF8001000221F4802F009FA194872
:1032100002F0C8F9396800221C4802F001FA15488A
:1032200002F0C0F900222968194805B0BDE8F04F46
:1032300002F0F6B901210720FEF796FC01210220D9
:10324000D0E6144B1B68B3F57A7FB3D9002108464A
:10325000FEF78AFC1048FEF707FDABE72464000880
:10326000A3640008AD640008F4000020B064000806
:103270009C070020585C0008CA640008DF6400084E
:10328000F4640008046500081C6500083465000843
:1032900047650008CC070020B96400080021F8B594
:1032A00006460846FEF760FC01226A4B1A706A4B1C
:1032B000197811B91A70FFF7DDF9684D684C2B6861
:1032C000A26A9A4212D3FFF773FD664B226A1B88EB
:1032D0009BB293420AD9644B1B68B3F5C87F05D9EA
:1032E000FFF7C8F92B68A26A13442B602B68A26A07
:1032F0009A420ED2FFF74CFC5A4BA2691B889BB234
:10330000934206D2584B1B68B3F5C87F01D9FFF72B
:10331000B1F9A36A216B2A680B44934201D2FFF7EB
:10332000A9F9524D022E95F9003033D101335BB229
:10333000032B35D100232B7000210846FEF714FC27
:10334000484B0221188880B2FEF77CF8FEF78CFC0F
:103350004748FEF789FC474B188800B2FDF7FAFF93
:10336000FEF782FC4448FEF77FFC01210620FEF7B1
:10337000FBFB01210520FEF71FFC404B1E78012EB0
:103380005FD131460720FEF7EFFB31460020FEF704
:1033900013FC0AE0012E04D1013B5BB2002B2CDBB5
:1033A0002B7095F90030002BC6D095F90060012EE6
:1033B00025D100210A270846FEF7D6FB2069FDF734
:1033C000C9FFFEF751FC2E48FEF74EFCA0693146BE
:1033D000B0FBF7F0FEF736F8FEF746FC2448FEF7A0
:1033E00043FC206A3146B0FBF7F0FEF72BF8FEF7FE
:1033F0003BFC2448FEF738FC01E002232B7095F9D2
:103400000030022B24D100210846FEF7ADFBA06A54
:10341000FDF7A0FFFEF728FC1B48FEF725FC206BFC
:10342000FDF798FFFEF720FC1848FEF71DFC03206F
:103430000121FEF799FB164B1868BDE8F840FFF72D
:1034400025B901210720FEF78FFB012102209EE70D
:10345000F8BD00BFA0070020A1070020D007002072
:10346000540100206E080020CC07002091070020A6
:103470008A6300085A0800209B640008A9070020FE
:10348000FD5D00086F620008D665000869650008E8
:103490009807002008B5FFF79FFBBDE80840FFF73D
:1034A0002BB9000001222DE9F84F994E994B347841
:1034B00082469846984DDFF8D092984F1A7034BBE8
:1034C000974B1A88974B92B21B6A05339A4215D2D2
:1034D00021462046FEF748FB9348FEF7C5FB4FF414
:1034E000FA60FDF71BFE21462046FEF73DFB8F48A4
:1034F000FEF7BAFB40F6B830FDF710FE00238C4A09
:103500002B7089F80030136001223B603270894BC8
:103510003A681B689A4206D8874B824A1B88126A0F
:103520009BB2934203D9FFF7B5FF00232B70FFF73F
:103530000DF9BAF1020F814C6BD1814B1B78002B36
:1035400063D1FFF72BFC01232B7094F900100029A5
:1035500036D10846FEF708FB794BDFF8DCA11A7874
:103560009B46002A40F0B5806D4B0221188880B23E
:10357000FDF768FFFEF778FB7248FEF775FBBAF8B7
:103580000000022180B2FDF75DFFFEF76DFB6E4883
:10359000FEF76AFB9BF8003001210720DFF8ECA161
:1035A000002B40F0AA80FEF7DFFA01210020FEF791
:1035B00003FB9AF800300A2B84BF00238AF80030FE
:1035C00094F900A0BAF1010F2FD10021DFF854B116
:1035D0000846FEF7C9FA5D48FEF746FBDBF8100027
:1035E000FDF7B8FEFEF740FB5948FEF73DFB0A2306
:1035F000DBF820005146B0FBF3F0FDF723FFFEF7A8
:1036000033FB5448FEF730FB0FE0FFF743FF002386
:103610009AE7BAF1010F98D12378013B5BB2002BF6
:1036200001DB237091E70223237094F90030022B11
:103630001AD100210846FEF797FA4748FEF714FB17
:103640003B4B18684FF46163B0FBF3F0FDF782FE6B
:10365000FEF70AFB4148FEF707FB03200121FEF7B6
:1036600083FA3868FFF712F83D4801F09BFF317884
:1036700000223C4801F0D4FF394801F093FF98F84C
:1036800000100022384801F0CBFF354801F08AFFD6
:1036900029780022354801F0C3FF314801F082FF4C
:1036A00039680022324801F0BBFF2D4801F07AFF53
:1036B00099F8001000222F4801F0B2FF284801F0CD
:1036C00071FF2D4B002219682C48BDE8F84F01F01E
:1036D000A7BFBAF80000022180B2FDF7B3FEFEF7E3
:1036E000C3FA1848FEF7C0FA254B188800B2FDF758
:1036F00031FEFEF7B9FA23484AE79AF80030052B65
:103700007FF651AFFEF730FA012108464FE700BFC0
:10371000A1070020A00700208B0700208C070020B5
:1037200074080020540100206864000879640008CF
:103730007C070020180A00206E0800209107002056
:10374000A20700208A6300086F6200087165000804
:10375000746500082D6200087C6500087F6500081C
:10376000585C000888650008CA640008DF64000827
:10377000F46400081C650008980700203465000800
:103780005A0800209B640008940700208907002045
:1037900001222DE9F84FBC4EBC4B35788246984645
:1037A000BB4CDFF85C93BB4F1A7035BBBA4B1A8821
:1037B000BA4B92B21B6A05339A4215D22946284663
:1037C000FEF7D2F9B648FEF74FFA4FF4FA60FDF76C
:1037D000A5FC29462846FEF7C7F9B248FEF744FA89
:1037E00040F6B830FDF79AFC0023AF4A237089F801
:1037F0000030136001223B603270AC4B3A681B68AA
:103800009A4272D9FFF746FE00232370FEF79EFF0F
:10381000BAF1020FA64D40F08280A64B1B78002B18
:1038200079D1FFF7BBFA0123237095F90010002925
:1038300036D10846FEF798F99E4BDFF88CA21A782D
:103840009B46002A40F00281934B0221188880B2E7
:10385000FDF7F8FDFEF708FA9748FEF705FABAF803
:103860000000022180B2FDF7EDFDFEF7FDF993485F
:10387000FEF7FAF99BF8003001210720DFF884A257
:10388000002B40F0F780FEF76FF901210020FEF7D2
:1038900093F99AF800300A2B84BF00238AF800308D
:1038A00095F900A0BAF1010F45D10021DFF8ECB184
:1038B0000846FEF759F98248FEF7D6F9DBF8100002
:1038C000FDF748FDFEF7D0F97E48FEF7CDF90A2353
:1038D000DBF820005146B0FBF3F0FDF7B3FDFEF737
:1038E000C3F97648FEF7C0F925E077496B480A88A6
:1038F000036A92B29A4285D8826B64205A43B2FB23
:10390000F0F209889B1A89B29942BFF47FAFFFF7A2
:1039100045FA012379E7FFF7BDFD002384E7BAF1FB
:10392000010F82D12B78013B5BB2002B01DB2B70A6
:103930007BE703232B7095F90030022B2FD1002158
:103940004FF00A0ADFF854B10846FEF70DF9DBF82C
:103950003800FDF7FFFCFEF787F95C48FEF784F9B5
:10396000DBF820000121B0FBFAF0FDF76BFDFEF75C
:103970007BF95148FEF778F96422DBF82030DBF858
:10398000380001215843B0FBF2F0181AB0FBFAF0EE
:10399000FDF758FDFEF768F94848FEF765F995F917
:1039A0000050032D1AD100210846FEF7DDF84848E3
:1039B000FEF75AF93C4B18684FF46163B0FBF3F023
:1039C000FDF7C8FCFEF750F94248FEF74DF92846CE
:1039D0000121FEF7C9F83868FEF758FE6420FDF7AC
:1039E0009DFB3D4801F0DEFD317800223B4801F0AF
:1039F00017FE394801F0D6FD98F80010002238482B
:103A000001F00EFE344801F0CDFD2178002235484A
:103A100001F006FE304801F0C5FD39680022324849
:103A200001F0FEFD2C4801F0BDFD99F800100022C8
:103A30002E4801F0F5FD284801F0B4FD2C4B002282
:103A400019682C48BDE8F84F01F0EABDBAF800004B
:103A5000022180B2FDF7F6FCFEF706F91648FEF7E4
:103A600003F9254B188800B2FDF774FCFEF7FCF84B
:103A70002248FDE69AF80030052B7FF604AFFEF7EA
:103A800073F80121084602E7A1070020A0070020E3
:103A90008B0700208C0700207408002054010020B0
:103AA00068640008796400087C070020180A002078
:103AB00091070020A20700208A6300082D620008F9
:103AC00071650008746500086E08002087630008AF
:103AD0007C650008B0640008585C00088865000830
:103AE000CA640008DF640008F46400081C6500086C
:103AF00098070020346500085A08002096650008E1
:103B0000940700208907002001212DE9F8438A4D00
:103B10008A4E2B788A4A31704BB9297089491370C3
:103B20000B7089490B7089490B6089490B60894F7B
:103B300089493B889BB20B8088498C698846A3429F
:103B4000C0F0F180002386491370864B09681B681A
:103B5000DFF8F4915B1A032B06D9137823B1FFF732
:103B600099FC002389F8003002287F4C52D17F4B0A
:103B70001B78002B4AD1FEF7C9FF012389F80030DA
:103B800094F9001049BB0846FDF7EEFF3888022182
:103B900080B2FDF757FCFEF767F87548FEF764F84A
:103BA000744B754F188800B2FDF7D4FBFEF75CF834
:103BB0007248FEF759F86D4B01211B780720002B46
:103BC00040F0A880FDF7D0FF01210220FDF7F4FFAF
:103BD0003B780A2B84BF00233B7094F90070012FBF
:103BE00023D100210846FDF7BFFF6548FEF73CF8EA
:103BF0000A23D8F818003946B0FBF3F0FDF722FC91
:103C0000FEF732F85F48FEF72FF80EE0FFF742FCB0
:103C10000023B3E70128B3D12378013B5BB2002B2B
:103C200001DB2370ACE70323237094F90030022BEF
:103C30001BD100210846FDF797FF5348FEF714F803
:103C4000524B98684FF46163B0FBF3F0FDF782FBD1
:103C5000FEF70AF84E48FEF707F803200121FDF7AA
:103C600083FF4C4B1868FEF711FD94F90070384C37
:103C7000032F1AD100210846FDF776FF4648FDF7CD
:103C8000F3FF324B18684FF46163B0FBF3F0FDF7BC
:103C900061FBFDF7E9FF4148FDF7E6FF38460121EA
:103CA000FDF762FF2068FEF7F1FC3D4801F07AFC69
:103CB000297800223B4801F0B3FC394801F072FC3E
:103CC00031780022384801F0ABFC354801F06AFC3D
:103CD0001C4B00221978354801F0A2FC304801F055
:103CE00061FC334B00221968324801F099FC2C48E2
:103CF00001F058FC99F8001000222F4801F090FCC8
:103D0000274801F04FFC21680022BDE8F8432B480A
:103D100001F086BC3B78052B7FF654AFFDF724FFFE
:103D20000121032052E713781BB90E4B19680C4B85
:103D30001960012307E700BFA1070020A0070020AA
:103D4000880700208B0700209407002080070020B0
:103D5000980700206E080020D4070020540100209E
:103D6000D8070020E807002091070020A2070020C4
:103D70008A6300085A080020890700209665000819
:103D80009F6500082D620008AD640008F400002063
:103D90007F6500089C0700204B640008B0640008A1
:103DA000585C000888650008CA640008DF640008E1
:103DB0008C070020F46400081C65000834650008C6
:103DC0002DE9F04FA04A85B013788346DFF8D4A2DE
:103DD0009E4EDFF8D4929E4D9E4F9F4C03F0FF08FD
:103DE0000192002B40F062819C4B1A889C4B92B24E
:103DF0001B6A05339A4215D241464046FDF7B4FE90
:103E00009848FDF731FF4FF4FA60FDF787F9414616
:103E10004046FDF7A9FE9448FDF726FF40F6B8306E
:103E2000FDF77CF901234FF00008019A13708F4AC7
:103E30008AF8008082F800808D4AC6F80080C9F8B0
:103E40000080C2F80080C5F80080C7F800808AF8BA
:103E50000030FEF7ADFF0123864A4146404613700D
:103E6000FDF782FE8448FDF7FFFE4FF47A70FDF700
:103E700055F901232370DFF82882B8F8000000B25A
:103E8000FDF7B0FB0528CDF8088040F395817B4B0A
:103E9000734A1B8891699BB28B42904629D2754B1D
:103EA0001A78022A25D1764B1B68B3F57A7F20D980
:103EB00000236E490B703968724B994204D93868F7
:103EC000D9F80010FEF77AF8D9F80020684B1A608C
:103ED0003A686D4B9A60002301228AF800202B601B
:103EE0003360FEF765FF0122237801332370614BB5
:103EF0001A70624AD8F82010138803929BB28B4242
:103F000008D95C4B1B78012B04D15D4B1B68B3F5C2
:103F10007A7F08D85D4B32681B689A4222D9554B8C
:103F20001B78012B1ED194F90030022B1ADC0023E0
:103F30008AF800302A68534B9A4204D92868012233
:103F40003168FEF73BF80123484A137000233B60B9
:103F5000C9F80030FEF71CFE0222237801332370DB
:103F6000444B1A70454BD8F820201B889BB29342D3
:103F700008D9404B1B78012B04D1414B1B68B3F58A
:103F80007A7F08D8414B32681B689A421DD9394B59
:103F90001B78012B19D194F90030022B15DDFFF7A6
:103FA00079FA0023314A8AF8003013702A68354BB9
:103FB0009A4204D9286801223168FDF7FFFF0222E6
:103FC000237801332370324B1A70314CBBF1020F4E
:103FD00094F9003040F0AD8001335BB2042B40F027
:103FE000B0800023237000210846FDF7BDFD039B30
:103FF0000221188880B2FDF725FAFDF735FE254825
:10400000FDF732FE029B188800B2FDF7A3F9FDF719
:104010002BFE2148FDF728FE01210620FDF7A4FD17
:1040200001210420FDF7C8FD1C4B93F800B0BBF143
:10403000010F40F0BA8059460720FDF795FD59461B
:104040000020FDF7B9FD82E0A00700208C070020CA
:104050007C070020800700209007002074080020C3
:104060005401002068640008796400089407002067
:104070009C070020700200208A6400086E0800205F
:10408000CC0700204F8C0500F4000020180A002007
:10409000910700208A6300089B640008A90700209C
:1040A0005A0800208B0700209807002094F9003060
:1040B000032B7FF7E0AEAB4C022894F9003040F0C0
:1040C000C68001335BB2042B40F0C780002323700D
:1040D00000210846FDF748FDA34B0221188880B255
:1040E000FDF7B0F9FDF7C0FDA048FDF7BDFDA04B01
:1040F000188800B2FDF72EF9FDF7B6FD9D48FDF7D3
:10410000B3FD01210620FDF72FFD01210420FDF75D
:1041100053FD994B93F80080B8F1010F40F01A81DC
:1041200041460720FDF720FD41460020FDF744FDF4
:1041300099E0BBF1010F05D1013B5BB2002BC0F24E
:10414000B780237094F90030002B3FF44CAF94F902
:1041500000B0BBF1010F40F0AD8000210846FDF733
:1041600003FDD8F81000FDF7F5F8FDF77DFD834855
:10417000FDF77AFD0A23D8F818005946B0FBF3F092
:10418000FDF760F9FDF770FD7848FDF76DFD5946C4
:10419000D8F820000A23B0FBF3F0FDF753F9FDF740
:1041A00063FD7748FDF760FD84E001210720FDF7FE
:1041B000DBFC0121022044E7724B1B68B3F57A7FD8
:1041C00006D900210846FDF7CFFC6F48FDF74CFDEE
:1041D0006E4801F0E7F9019B002219786C4801F064
:1041E0001FFA6A4801F0DEF99AF8001000226948C7
:1041F00001F016FA654801F0D5F9316800226648E9
:1042000001F00EFA614801F0CDF9296800226348F7
:1042100001F006FA5D4801F0C5F9614B00221978FA
:10422000604801F0FDF9594801F0BCF9D9F80010D7
:1042300000225D4801F0F4F9544801F0B3F900227E
:1042400039685A4805B0BDE8F04F01F0E9B90128D6
:1042500004D1013B5BB2002B2ADB237094F90030C0
:10426000002B3FF435AF94F90080B8F1010F21D154
:104270000021DFF844B10846FDF776FCDBF81000BA
:10428000FDF768F8FDF7F0FC3C48FDF7EDFC0A236C
:10429000DBF818004146B0FBF3F0FDF7D3F8FDF76B
:1042A000E3FC3248FDF7E0FC4146DBF8200071E713
:1042B0000323237094F90080B8F1020F22D100216A
:1042C0000846FDF751FC01214046FDF775FC002131
:1042D0000120FDF749FC3648FDF7C6FC4FF4616349
:1042E0003868B0FBF3F0FDF735F8FDF7BDFC314859
:1042F000FDF7BAFC03200121FDF736FCD9F80000D8
:10430000FEF7C4F994F90040032C7FF461AF00215B
:104310000846FDF729FC01210020FDF74DFC002196
:104320000120FDF721FC2248FDF79EFC4FF461635C
:104330002868B0FBF3F0FDF70DF8FDF795FC1D487C
:10434000FDF792FC20460121FDF70EFC3068FEF7D8
:104350009DF93DE701210720FDF706FC0121022020
:10436000E4E600BF910700206E0800208A63000881
:104370005A0800209B640008A9070020FD5D000882
:104380006F620008CC070020B9640008585C000880
:10439000CA640008DF640008F464000804650008CB
:1043A000940700201C650008346500084765000874
:1043B00024640008A364000854010020F0B5344DC3
:1043C00034492B8891B09BB2B3F5E16F5DD2324B8B
:1043D0001B68062B59D9314B314C9B6803F0010304
:1043E000A361FFF757F80B78002B4CD101232D4E1A
:1043F0000B7033682361FCF771FB2B4801F0D2F896
:1044000002222169294801F00BF949F6AF233268ED
:104410009A4215D9264B0BA91868FDF79DF94FF460
:104420006163206901A9B0FBF3F0FCF7CFFF2149DC
:1044300006AB0BAAFDF7FAF8022106A8FCF76EFD01
:104440000A202B8801229BB2B3FBF0F001A9FDF7F3
:1044500061F806AA01461848FDF7D2F8FCF798FC67
:104460000524114F154E384601F09CF82988022288
:10447000304689B201F0D4F8013C0A20FCF74EFE28
:1044800014F0FF04EFD111B0F0BD00230B70FAE778
:104490005808002071020020E8070020000C0140AD
:1044A000F400002080070020585C0008AB6500087D
:1044B0009807002076620008B0650008BA65000819
:1044C00001222DE9F041A94BA94C02281A7086B0AF
:1044D00094F9003028D113445BB2082B2AD1002371
:1044E0002370FEF7D7FF00210846FDF73DFBA148EA
:1044F000FDF7BAFB0A20A04B01211B889BB2B3FB3E
:10450000F0F0FCF79FFFFDF7AFFB9C48FDF7ACFB1D
:104510009B4B0221188880B2FCF794FFFDF7A4FBA7
:104520009848FDF7A1FB0AE0012804D1013B5BB2EA
:10453000002B27DB237094F90030002BD1D094F9A5
:104540000030012B20D1FEF7A5FF00210846FDF722
:104550000BFB8D48FDF788FB8C4B0221188880B23D
:10456000FCF770FFFDF780FB8948FDF77DFB894B69
:10457000D88880B2FCF7EEFEFDF776FB8648FDF7A3
:1045800073FB01E00723237094F90050022D1DD125
:10459000FEF7C8F800210846FDF7E6FA7F48FDF768
:1045A00063FB7F4B2946188880B2FCF74BFFFDF771
:1045B0005BFB7748FDF758FB764B988880B2FCF799
:1045C000C9FEFDF751FB7448FDF74EFB94F900302E
:1045D000032B1ED1FEF700FBFEF7A4F800210846CE
:1045E000FDF7C2FA6F48FDF73FFB6F4B188800B22A
:1045F000FCF7B0FEFDF738FB6C48FDF735FB654B6B
:10460000588880B2FCF7A6FEFDF72EFB6248FDF746
:104610002BFB94F90030042B1ED1FEF76DF8FEF74A
:104620005FFA00210846FDF79FFA6148FDF71CFB81
:10463000604B188800B2FCF78DFEFDF715FB5B4858
:10464000FDF712FB534B188880B2FCF783FEFDF791
:104650000BFB5948FDF708FB94F90030052B49D1B5
:104660004A4E564FFEF7B8FAFEF75CF832883B88A0
:1046700092B29BB2D21A42F21073DFF82C815343EC
:10468000B8F800104E4D09B293FBF1F30021084633
:10469000AB64FDF769FA4B48FDF7E6FA286CFCF7C6
:1046A00059FEFDF7E1FA4848FDF7DEFAA86CFCF781
:1046B00051FEFDF7D9FA4548FDF7D6FA444800F017
:1046C00071FFB8F80010002209B2424800F0A8FFBC
:1046D0003F4800F067FF3188022289B23E4800F06F
:1046E0009FFF3B4800F05EFF398802223B4889B2B9
:1046F00000F096FF94F90030062B0FD1FEF7CAFEAA
:1047000000210846FDF730FA354B01A91868FCF77F
:10471000B0FFFDF7A9FA3348FDF7A6FA94F9003087
:10472000072B1FD1FEF758FAFDF7FCFF00210846C2
:10473000FDF71AFA2C48FDF797FA2C4B1868FCF78E
:1047400001FBFCF707FEFDF78FFA2948FDF78CFA0D
:10475000104B588980B2FCF7FDFDFDF785FA09483A
:10476000FDF782FA06B0BDE8F08100BFA007002087
:1047700092070020CA65000858080020CF6500088D
:104780006C08002021640008D4650008740800202B
:104790008A6300085C0800201F640008D9650008CF
:1047A0006E080020DF6500085A080020E565000853
:1047B000E9650008B40200201E640008B60200206B
:1047C00004000020EF650008F2650008F7650008A6
:1047D000585C0008FF650008036600080A660008C8
:1047E000E80700201D640008126600087008002019
:1047F000156600080023F0B57A4C85B0009301934C
:1048000002930393E389784D9AB24FF4F023B3FBFC
:10481000F2F3764A9BB21380E388E28999B2AB6ADD
:1048200092B24B43B3FBF2F300930098FDF718F8F4
:1048300002900298FDF76AF86D4B1A6810446D4AB1
:1048400018601188013109B21180118809B21F293D
:104850000FDD196868480029B8BF1F31C1F34F1137
:10486000018000211180196003889BB2022B98BF40
:104870000180A388E28999B22B6B92B24B43B3FBC0
:10488000F2F300930098FDF707F802900298FDF705
:104890003EF85A4F5A4E3B6818443860338801330B
:1048A0001BB233802389E28999B2AB6B92B24B433E
:1048B000B3FBF2F300930098FDF70AF8514B80B276
:1048C00018806188E38989B29AB2AB6959430A2397
:1048D0004B43B3FBF2F301930198FCF789FF03907C
:1048E0000398FDF711F8484B1A681044474A1860BE
:1048F0001188013109B21180118809B21F290ADD1E
:10490000196843480029B8BF1F3141F34F11018096
:104910000021118019602188E38989B29AB22B6A3B
:1049200059430A234B43B3FBF2F301930198FCF77D
:104930007BFF03900398FCF7E8FF364B1A6810449E
:10494000354A18601188013109B21180118809B205
:104950001F290ADD196831480029B8BF1F3141F30A
:104960004F1101800021118019602D4B2D499B684A
:1049700013F0020F15BF294B254B1A881B8814BF53
:104980002B69AA689B1A1BB20B8033881BB21F2BA2
:1049900025DD3B68244A002BB8BF1F335B11136031
:1049A00000233B6033801068204C80B22080106868
:1049B0000228D8BF1360088809882B6C09B24B43C2
:1049C0001B48146893FBF0F3234413601368022B15
:1049D000DCBF002313601368164A9BB2138005B036
:1049E000F0BD00BF5C080020040000206C0800201F
:1049F000BC070020C007002074080020C407002066
:104A0000C807002058080020AC070020B00700208D
:104A1000B2020020B4070020B8070020B402002032
:104A2000000C01405A080020DC070020B6020020DC
:104A3000F0D8FFFF6E080020F8B5FDF7DBFD354A22
:104A4000354E13680133136033889BB2042B05D9AC
:104A500000233380FFF7CEFEFFF7B0FC2F4D304C24
:104A60002B889BB2632B84BF00232B8023889BB2AF
:104A7000B3F57A7F40D300232A4F23803B881BB2B3
:104A8000012B07DC388800B2FCF7ACFD264B1A6816
:104A9000104418603B881BB2022B07DD388800B237
:104AA000FCF7A0FD214B1A6810441860204B1B78BE
:104AB000012B01BF1F4A1368013313601E4B1B7883
:104AC000012B01BF1D4A1368013313601C4B1B7877
:104AD000012B01BF1B4A1368013313601A4B1A687C
:104AE00001321A601B6813F0010F0CBF4FF4004233
:104AF0004FF00042154B1A61338801339BB233806B
:104B00002B8801339BB22B80238801339BB22380F7
:104B1000F8BD00BFCC070020B0020020AE0200208C
:104B2000AC0200205A080020800700207C070020EB
:104B30008B0700208C070020940700209807002096
:104B4000AA070020D0070020E80700200008014045
:104B500010B51D4C236843F48033236023689A0307
:104B6000FCD5636823F47C1343F4A0236360E36AF9
:104B700023F00F03E362236843F08073236023680C
:104B80009B01FCD5636823F0F0036360636823F442
:104B9000E0636360636823F460536360636823F0D9
:104BA000030343F002036360636803F00C03082B04
:104BB000FAD1064800F076FF044800F081FF6368F0
:104BC00023F44043636010BD0010024000366E01C4
:104BD0002DE9F04FC54D91B00120FDF75FF8EB696D
:104BE000DFF85C9343F08053EB61EB69DFF854A38B
:104BF00003F080530093009BD9F80C20BC4B22F4A7
:104C0000E0621204120C1343C9F80C30B94BBA4ECF
:104C10005A68002422F0E0625A605A684FF0010B93
:104C200042F000725A60FFF793FF1422002109A896
:104C300000F07EFF2020FDF731F80420FDF72EF86C
:104C40000820FDF72BF84FF60343CAF814304FF451
:104C500009430227736140F203334FF0040809A9A6
:104C60005046CDE9093BCDE90B7400F0D5FDA34BCF
:104C700009A95046CDE9093BCDF830800B9700F0EB
:104C8000CBFD9F4B09A93046CDE9093BCDE90B741B
:104C900000F0C2FD4FF2F002082309A95046CDE909
:104CA0000923CDF834B000F0B7FD6B6943EA0B037C
:104CB0006B616B69934D03EA0B030193019BD9F878
:104CC0000C00C0F30220FDF777F94FF4006300FAFF
:104CD00008F0C0B285F80B031C222B60214609A8FE
:104CE00000F026FF1422214604A800F021FF4FF413
:104CF0008040FCF7D3FF4046FCF7D0FF09238249F0
:104D00003046CDE90413032304A9CDE9063400F0AD
:104D100083FD7E4B04A93046CDE9043800F07CFDCC
:104D2000D9F80C00C0F30220FDF746F9202300FA61
:104D300008F0C0B285F825036B60754D09A9EB68D2
:104D4000284643F08003EB604FF41643CDE9093465
:104D50000C23CDE90B44CDE90D340F9400F036FE61
:104D60002B69142223F490432B616B69214623F0B5
:104D70002A036B61EB6804A843F40053EB60CDE9B0
:104D8000024400F0D5FE1422214609A800F0D0FE0E
:104D90004FF40070FCF782FF4046FCF77FFF47F6B8
:104DA0007E6309A93046CDE9093400F035FD594B41
:104DB0004FF480781A68A5F5A05522F4804222F0BD
:104DC00010021A601A6802A922F4405242F40052FA
:104DD0001A601A68284642F020021A601A6822F007
:104DE00040021A601A6842F080021A601A6822F4BF
:104DF000407242F480721A601A6822F4406242F4EF
:104E000080621A60444A9A60444ADA605A68120C16
:104E1000120442F008025A601A6842EA0B021A6051
:104E20000294CDF80C8000F0C0FC4FF4E0034FF486
:104E3000602004A9CDE904032846CDE90647CDF852
:104E4000208000F0C7FC36494FF40070FDF798F859
:104E50003348FDF76BF8334940F20520FDF790F831
:104E60003048FDF763F8304940F20A20FDF788F832
:104E70002D48FDF75BF82D4940F20F20FDF780F833
:104E80002A48FDF753F82A494FF40570FDF778F8E2
:104E90002748FDF74BF8274940F21920FDF770F835
:104EA0002448FDF743F824494046FDF769F82248B5
:104EB000FDF73CF8AB68214943F40003AB6040F2D6
:104EC0000510FDF75DF81D48FDF730F8AB6864206C
:104ED00043F40003AB60AB6843EA0B03AB60FCF741
:104EE0001DF9AB6843F00403AB602DE000100240F5
:104EF0000003FA050000014000080140FC00FC042A
:104F00008900890400E100E00200020404000404B6
:104F100000380140080002404C2401405C08002099
:104F20000100300202006002030090020400C0028F
:104F30000500F002060020031000208111005081BE
:104F400000ED00E0000C0140AC6814F00404FBD15B
:104F5000AB6843F4A003AB60FCF795FE00F08CFA5D
:104F60004FF47A72AE4B1B68B3FBF2F3013BB3F123
:104F7000807F08D2F021AB4A5360AB4B83F82310FB
:104F80000723946013604FF4004300243361A74D5E
:104F9000FEF780FAA6482C60FCF766FEFCF7CEF818
:104FA000A44800F0FFFAA24800F096FAFCF784FD4E
:104FB00021462046FCF7D8FD4FF47A70FCF7AEF896
:104FC000FBF7B2F92B68172B88BF2C60FBF7B4FCFA
:104FD000044668B94FF47A70FCF7A0F8FBF7ACFC14
:104FE0000446944800F0DEFA934800F075FA34B1B4
:104FF000012C14D18F4800F0D5FA90480DE090486C
:10500000FCF732FE4FF47A60FCF788F88D48FBF726
:10501000BFFE884800F0C6FA874800F05DFA8A4D66
:105020008A4B2A698A4C1A604FF461632269894E5F
:105030005343894A1360A268884B1A60236C884ADC
:1050400033601360FBF748FE4FF47A70FCF766F8A4
:10505000FCF7F8FD8348FCF77BFCA368012B14D117
:105060008148FCF75BFC814FDFF8FC91DFF8508250
:105070003B7801333B70FDF7EFFA431E0446032BE8
:1050800020D8DFE803F01A40444B022B01D17848C6
:10509000E7E7032B01D17748E3E7042B01D17648FA
:1050A000DFE7052B01D17548DBE7062B01D17448FA
:1050B000D7E7072BD4D17348D3E7FCF729FC406826
:1050C000FCF72CFCFCF724FC81452BD12046FDF796
:1050D00053FB98F8003003F0FF0183B9FEF7DAF9CB
:1050E000694B1970694B1970694B1B68AB60694B50
:1050F0001A68694B1A60694B197001233360642088
:10510000FCF70CF8B4E7FCF703FC0068D8E70220D2
:10511000FCF728FCFCF7FCFBC068D1E7FCF7F8FBC8
:105120008068CDE7FCF7F4FB514B834203D1204666
:10513000FDF76AFDCDE7FCF7EBFB4E4B834203D155
:105140002046FEF7AFF9C4E7FCF7E2FB4A4B834287
:1051500003D12046FEF71CFBBBE7FCF7D9FB474B0E
:10516000834203D12046FEF7CFFCB2E7FCF7D0FB29
:105170004B4B834203D12046FEF722FEA9E7FCF702
:10518000C7FB3F4B834203D12046FDF735FEA0E726
:10519000FCF7BEFB3B4B834203D12046FEF77EF873
:1051A00097E7FCF7B5FB3F4B834203D12046FDF761
:1051B00081FD8EE7FCF7ACFB3B4B834203D12046DD
:1051C000FFF77EF985E7FCF7A3FB384B834203D159
:1051D0002046FCF719FF7CE7FCF79AFB344B83422F
:1051E00003D12046FCF77EFF73E7FCF791FB314BC0
:1051F000834203D12046FCF751FF6AE7FCF788FBA6
:105200002D4B834203D12046FDF78AFC61E7FCF772
:105210007FFB2A4B834255D12046FDF71BFB58E705
:105220008C02002010E000E000ED00E07808002093
:105230007A020020A35F00081A660008415E000899
:105240003266000843660008F4000020840700204E
:105250005401002074020020180A00201C0A0020BB
:10526000140A00204D1E0008886D000889070020E0
:10527000E06D0008386E0008906E0008E86E0008C7
:10528000986F0008F06F0008A10700209107002028
:1052900080070020980700209C0700208A07002034
:1052A000146F000848700008A0700008EC6900083E
:1052B0005C670008046700080C680008B467000811
:1052C000A0070020FCF724FB3F4B834203D120467C
:1052D000FDF768FBFDE6FCF71BFB3C4B834203D16B
:1052E0002046FDF727FBF4E6FCF712FB384B834220
:1052F00003D12046FDF7E6FAEBE6FCF709FB354B58
:10530000834203D12046FDF785FBE2E6FCF700FB74
:10531000314B834203D12046FCF708FFD9E6FCF766
:10532000F7FA2E4B834203D12046FCF75BFFD0E611
:10533000FCF7EEFA2A4B834203D12046FCF778FFB4
:10534000C7E6FCF7E5FA274B834203D12046FCF77A
:10535000E7FFBEE6FCF7DCFA234B834203D120468D
:10536000FDF700F8B5E6FCF7D3FA204B834203D1F2
:105370002046FDF719F8ACE6FCF7CAFA1C4B83424D
:1053800003D12046FDF72EF8A3E6FCF7C1FA194B2E
:10539000834203D12046FDF743F89AE6FCF7B8FABA
:1053A000154B834203D12046FDF796F891E6FCF7B2
:1053B000AFFA124B834203D12046FDF7E3F888E6AB
:1053C000002388F8003084E614690008BC680008EF
:1053D000646800085C690008A4690008446A000861
:1053E000706A0008F46A00084C6B0008A46B00089F
:1053F000FC6B0008546C0008306D0008046D000858
:105400007047FEE7FEE7FEE7FEE77047704770472C
:10541000FFF712BB7047000014490B681B0624D528
:10542000134BB3F8582492B2DAB1B3F85824013AC6
:1054300092B2A3F85824B3F8562492B2501C80B20A
:10544000A3F856041A4492F86C20D2B24A60B3F81A
:10545000562492B2B2F57A7F07D10022A3F85624DF
:105460007047CB6823F08003CB6070470038014061
:10547000B802002070470000124A10B55368124964
:1054800003F00C03082B0AD0104B0B605368104A32
:10549000C3F30313D25C0B68D3400B6010BD536899
:1054A0005068C3F38343C00341BFD06A074C00F088
:1054B0000F0001304CBFB4FBF0F006480233434309
:1054C000E3E700BF001002408C02002000127A00C7
:1054D000C970000800093D000021304A10B5D368AA
:1054E00023F08003D3602E4B027802F0FF045ABBF6
:1054F000B3F8542492B2511C89B2A3F854140A216F
:105500001A4482F86C10B3F8542492B2B2F57A7F40
:1055100008BFA3F85444B3F85824013292B2A3F858
:105520005824B3F85A14B3F8582489B292B291426D
:105530003EBFB3F8582492B2A3F85A24174AD3684E
:1055400043F08003D36010BDB3F8542492B2541CCE
:10555000A4B2A3F8544410F8014B1A44E4B282F800
:105560006C40B3F8542492B2B2F57A7F08BFA3F826
:105570005414B3F85824013292B2A3F85824B3F863
:105580005A44B3F85824A4B292B294423EBFB3F83E
:10559000582492B2A3F85A24A6E700BF003801406D
:1055A000B802002000211C4A10B5D36823F0800304
:1055B000D3601A4B02782AB9174AD36843F08003A4
:1055C000D36010BDB3F8542492B2541CA4B2A3F813
:1055D000544410F8014B1A44E4B282F86C40B3F81A
:1055E000542492B2B2F57A7F08BFA3F85414B3F8EA
:1055F0005824013292B2A3F85824B3F85A44B3F8AD
:105600005824A4B292B294423EBFB3F8582492B246
:10561000A3F85A24CEE700BF00380140B8020020AA
:1056200037B501918DF803209DF8033004460198A9
:10563000002B3FD1FBF78EFE0025474AD36823F0AD
:105640008003D360454B227802F0FF01002A36D157
:105650000138B3F8542410F8014F92B2002C57D1FE
:10566000511C89B2A3F854140A211A4482F86C1010
:10567000B3F8542492B2B2F57A7F08BFA3F8544429
:10568000B3F85824013292B2A3F85824B3F85A144C
:10569000B3F8582489B292B291423EBFB3F858246D
:1056A00092B2A3F85A242C4AD36843F08003D36003
:1056B00003B030BD9DF80310FBF7C4FEBCE7B3F8A0
:1056C000542492B2511C89B2A3F8541414F8011B4B
:1056D0001A44C9B282F86C10B3F8542492B2B2F5ED
:1056E0007A7F08BFA3F85454B3F85824013292B219
:1056F000A3F85824B3F85A14B3F8582489B292B2D4
:1057000091423EBFB3F8582492B2A3F85A249AE7C4
:10571000541CA4B2A3F8544404781A4482F86C4090
:10572000B3F8542492B2B2F57A7F08BFA3F85414A8
:10573000B3F85824013292B2A3F85824B3F85A446B
:10574000B3F85824A4B292B294423EBFB3F858249E
:1057500092B2A3F85A247CE700380140B802002036
:10576000002103E00B4B5B58435004310A480B4BBC
:1057700042189A42F6D30A4A02E0002342F8043B58
:10578000084B9A42F9D3FFF775FE00F09FF9FFF737
:105790001FFA7047EC700008000000209002002003
:1057A00090020020200A0020FEE70246806810B523
:1057B00010F001000CD153684C6823F4807323432C
:1057C00053609368096823F400630B43936010BD32
:1057D0000120FCE7836810B5DB071BD443684A68E7
:1057E00023F4684312B18C681343234343608368F6
:1057F0000C6823F4602323F481732343CC68096984
:1058000023430B438360C36A23F470031343C362CF
:10581000002010BD0120FCE72DE9F04F0D68044683
:10582000C5F30F2595FAA5F24FF00F0AB2FA82F2EE
:105830004FF0030904274FF0011C40F2011E35FA16
:1058400002F001D1BDE8F08F012393402B425ED0DE
:10585000072A85BFA2F108030CFA03F30EFA02F33C
:1058600043F08063E0681E0A96FAA6F8B8FA88F852
:1058700020EA0606086900FA08F03043E0604FEAC3
:10588000136893FAA3F6B6FA86F693FAA3FBBBFA6B
:105890008BFBB6000AFA06F054F808604FEA8B0B4F
:1058A00026EA0006486800FA0BFB46EA0B0644F8B5
:1058B0000860486820F00800012828D193FAA3F076
:1058C000B0FA80F093FAA3FBBBFA8BFB800009FAD5
:1058D00000F026EA000688684FEA8B0B00FA0BFB03
:1058E00046EA0B0644F8086093FAA3F0B0FA80F099
:1058F00093FAA3F3B3FA83F3800007FA00F026EAE1
:105900000000CE689B009E40064344F808600132C8
:1059100095E70000034B044A5B68C3F30313D35CB1
:10592000D840704700100240C9700008034B044A79
:105930005B68C3F30223D35CD84070470010024079
:10594000D9700008034B044A5B68C3F3C223D35CDD
:10595000D840704700100240D9700008094B5A68BF
:10596000D20341BFD86A084A00F00F00013048BF97
:10597000B2FBF0F05B6858BF0448C3F383430233C3
:10598000584370470010024000127A0000093D00A1
:10599000044B5B6803F00C03082B01D1FFF7DEBF5B
:1059A000014870470010024000127A0008B5014615
:1059B000FFF7EEFF0860FFF7ADFF4860FFF7B6FFA7
:1059C00088604868FFF7BEFFC86008BD30B5C3688F
:1059D00004469B040D4685B002D5012005B030BDBC
:1059E0004B68C968C2680B43296922F416420B430D
:1059F000A96922F00C020B431343C3600369AA6830
:105A000023F440531343036143696A6923F44073E9
:105A1000134343616846FFF7C9FF1F4B9C4224D1E3
:105A200003990029D9D02A68002AD6D019234B43DC
:105A3000A969B1F5004F4FF064011FD15200B3FBCB
:105A4000F2F3B3FBF1F001FB1033DB003233B3FBB5
:105A5000F1F303F007025B0002EB001203F4F873AA
:105A600013449BB20020A360B8E70C4B9C4201D1C9
:105A70000299D6E70A4B9C42AFD1F9E79200B3FBFB
:105A8000F2F3B3FBF1F201FB12331B013233B3FB30
:105A9000F1F303EB0213E4E7003801400044004057
:105AA000004800404FF47A73B0FBF3F00022034B40
:105AB000013858609A6005221A60704710E000E0D3
:105AC000014B1860704700BF8C02002070B50026A3
:105AD0000C4D0D4C641BA410A64209D100F030F807
