:020000040800F2
:1000000000200020095400087550000877500008AF
:10001000795000087B5000087D5000080000000067
:100020000000000000000000000000007F500008F9
:10003000815000080000000083500008855000082F
:1000400051540008515400085154000851540008FC
:1000500051540008515400085154000851540008EC
:1000600051540008515400085154000889500008A8
:1000700051540008515400085154000851540008CC
:100080005154000851540008515400080000000069
:1000900000000000000000000000000051540008B3
:1000A000515400085154000851540008515400089C
:1000B000515400085154000851540008515400088C
:1000C00051540008000000000000000051540008D6
:1000D000515400088D500008515400085154000834
:1000E0005154000851540008515400080000000009
:1000F0000000000000000000000000000000000000
:1001000000000000000000000000000000000000EF
:100110000000000000000000515400085154000885
:1001200000000000000000000000000000000000CF
:1001300000000000000000000000000000000000BF
:1001400000000000000000000000000000000000AF
:10015000000000000000000000000000000000009F
:10016000000000000000000000000000000000008F
:10017000000000000000000000000000000000007F
:10018000000000000000000000000000000000006F
:10019000000000000000000000000000000000005F
:1001A000000000000000000000000000000000004F
:1001B000000000000000000000000000000000003F
:1001C0000000000000000000000000005FF808F1DF
:1001D00010B5054C237833B9044B13B10448AFF381
:1001E00000800123237010BD900200200000000059
:1001F000E857000808B5034B1BB103490348AFF3A8
:10020000008008BD0000000094020020E8570008AC
:100210000E4A1346D168C907FCD4D168890644BF89
:100220002021D1601A6942F002021A6158611A69EC
:1002300042F040021A61054BDA689206FCD5202292
:10024000DA601A6922F002021A6170470020024047
:10025000034B044A5A6002F188325A60704700BF6B
:100260000020024023016745024A136943F08003DE
:100270001361704700200240114B10B51A46DC682C
:10028000E407FCD4DC68A40644BF2024DC601369C6
:1002900043F0010313610A4A8BB203801346D4680A
:1002A000A406FCD52024090CD4604180DA689206AB
:1002B000FCD52022DA601A6922F001021A6110BD11
:1002C0000020024038B572B6FFF7C2FF104804F0B4
:1002D000A3FF104C00224FF4CE710F4804F0DAFF58
:1002E0000B4804F099FF002221680C4804F0D2FF6B
:1002F0000B48FFF78DFF0B4D094854F8041BFFF71F
:10030000BBFF0430A842F8D1FFF7AEFF62B638BD9C
:100310000059000854080020085900080F59000827
:1003200000E401089CE50108054A064B064953F81C
:10033000040B8B4242F8040BF9D10120704700BF37
:100340005408002000E401089CE50108F8B50468A1
:1003500007468C420D4601D394421BD900260E4B12
:100360000E481E7004F058FF324639460C4804F01F
:1003700091FF0A4804F050FF21463246094804F034
:1003800089FF064804F048FF32460749074804F051
:1003900081FF2C462046F8BD0000002000590008CF
:1003A000155900082C59000800EC01083E590008B6
:1003B00010B5194C6068FFF72BFFD4E90010FFF768
:1003C0005BFFD4E90210FFF757FFD4E90410FFF7F1
:1003D00053FFD4E90610FFF74FFFD4E90810FFF7E9
:1003E0004BFFD4E90A10FFF747FFD4E90C10FFF7E1
:1003F00043FFD4E90E10FFF73FFFD4E91010FFF7D9
:100400003BFFD4E91210FFF737FF044804F004FF64
:10041000034804F09BFE10BD0400002000590008B2
:100420005559000810B5194C6068FFF7F1FED4E982
:100430000010FFF721FFD4E90210FFF71DFFD4E9F8
:100440000410FFF719FFD4E90610FFF715FFD4E9F0
:100450000810FFF711FFD4E90A10FFF70DFFD4E9E8
:100460000C10FFF709FFD4E90E10FFF705FFD4E9E0
:100470001010FFF701FFD4E91210FFF7FDFE04484A
:1004800004F0CAFE034804F061FE10BD54000020D1
:10049000005900086E59000838B5244C4FF480729A
:1004A00000216068FFF752FF4FF47A72206000214C
:1004B000E068FFF74BFF4FF47A72A060002160699B
:1004C000FFF744FF1A4D20612A460A21E069FFF731
:1004D0003DFF2A46A0610A21606AFFF737FF2A46DE
:1004E00020620A21E06AFFF731FF2A46A0620A2152
:1004F000606BFFF72BFF2A4620630A21E06BFFF7B2
:1005000025FFC822A0634621606CFFF71FFFC822A9
:100510000A212064E06CFFF719FFA064054804F08D
:100520007BFE054804F012FE38BD00BF0400002029
:10053000A0860100005900088E59000838B5244CE7
:100540004FF4807200216068FFF700FF4FF47A7269
:1005500020600021E068FFF7F9FE4FF47A72A06096
:1005600000216069FFF7F2FE1A4D20612A460A2138
:10057000E069FFF7EBFE2A46A0610A21606AFFF7F7
:10058000E5FE2A4620620A21E06AFFF7DFFE2A46DE
:10059000A0620A21606BFFF7D9FE2A4620630A2178
:1005A000E06BFFF7D3FEC822A0634621606CFFF723
:1005B000CDFEC8220A212064E06CFFF7C7FEA064CC
:1005C000054804F029FE054804F0C0FD38BD00BF11
:1005D000A4000020A086010000590008A8590008C6
:1005E00010B5174C6068FFF713FED4E90010FFF751
:1005F00043FED4E90210FFF73FFED4E90410FFF7F1
:100600003BFED4E90610FFF737FED4E90810FFF7E8
:1006100033FED4E90A10FFF72FFED4E90C10FFF7E0
:100620002BFED4E90E10FFF727FED4E91010FFF7D8
:1006300023FE044804F0F0FD034804F087FD10BDDC
:100640005401002000590008CB59000810B5174C80
:100650006068FFF7DDFDD4E90010FFF70DFED4E977
:100660000210FFF709FED4E90410FFF705FED4E9F4
:100670000610FFF701FED4E90810FFF7FDFDD4E9ED
:100680000A10FFF7F9FDD4E90C10FFF7F5FDD4E9E6
:100690000E10FFF7F1FDD4E91010FFF7EDFD04484F
:1006A00004F0BAFD034804F051FD10BD9C01002088
:1006B00000590008E159000810B5224C4FF480722F
:1006C00000216068FFF742FE0A2220600121E068F5
:1006D000FFF73CFE4FF47A72A06001216069FFF7DA
:1006E00035FE4FF47A6220610121E069FFF72EFEAA
:1006F0004FF47A62A0610121606AFFF727FE42F29F
:10070000107220620021E06AFFF720FE42F21072B0
:10071000A0620021606BFFF719FE642220630021B4
:10072000E06BFFF713FE03220121A063606CFFF76B
:100730000DFE2064044804F06FFD044804F006FD3B
:1007400010BD00BF5401002000590008FE590008E8
:1007500010B5224C4FF4807200216068FFF7F6FD5F
:100760000A2220600121E068FFF7F0FD4FF47A7261
:10077000A06001216069FFF7E9FD4FF47A62206112
:100780000121E069FFF7E2FD4FF47A62A0610121E7
:10079000606AFFF7DBFD42F2107220620021E06A1E
:1007A000FFF7D4FD42F21072A0620021606BFFF7E8
:1007B000CDFD642220630021E06BFFF7C7FD03221B
:1007C0000121A063606CFFF7C1FD2064044804F0C0
:1007D00023FD044804F0BAFC10BD00BFE401002072
:1007E00000590008155A000810B50D4C6068FFF755
:1007F0000FFDD4E90010FFF73FFDD4E90210FFF729
:100800003BFDD4E90410FFF737FDD4E90610FFF7EC
:1008100033FD044804F000FD034804F097FC10BDCC
:100820001401002000590008355A000838B5114C51
:100830004FF4807200216068FFF788FD0E4D206044
:100840002A460021E068FFF781FD2A46A0600021CA
:100850006069FFF77BFD012200212061E069FFF75D
:1008600075FDA061054804F0D7FC054804F06EFC56
:1008700038BD00BFF400002000286BEE00590008CE
:100880005C5A000838B5114C4FF480720021606842
:10089000FFF75CFD0E4D20602A460021E068FFF75F
:1008A00055FD2A46A06000216069FFF74FFD012237
:1008B00000212061E069FFF749FDA061054804F0CF
:1008C000ABFC054804F042FC38BD00BF34010020F9
:1008D00000286BEE005900087B5A000870B501240F
:1008E0000E4D2C7072B6FFF7A1FFFFF7E5FEFFF784
:1008F000D3FD62B62E780A483EB904F08DFC094853
:1009000004F024FC2C70304670BD04F085FC0648D1
:1009100004F01CFC26462C70F5E700BF0000002008
:1009200000590008A35A0008BC5A000870B51446C4
:10093000C0B006460D464FF480726846074904F081
:100940003DFF204616F8012B013D424015F0FF0502
:100950001DF80200F6D140B070BD00BF005800087D
:1009600038B572B6144D00224C212846FFF7DEFF41
:10097000044645F8040CFFF76BFCFFF719FDFFF781
:10098000DDFD00224C210D48FFF7D0FF84420C48CA
:1009900009D104F041FC0B4804F0D8FBFFF764FCDC
:1009A00062B6012038BD04F037FC074804F0CEFBE6
:1009B000FFF7FEFCF2E700BF08000020A8000020BF
:1009C00000590008F05A0008155B000838B572B6E7
:1009D000244D002244212846FFF7A8FF0446224860
:1009E00004F01AFC00222146204804F053FC1E4863
:1009F00004F012FC002244211D4804F04BFC45F891
:100A0000044CFFF725FCFFF7EBFDFFF7A1FE0022EA
:100A100044211848FFF78AFF0546134804F0FCFB01
:100A200000222946114804F035FC0F4804F0F4FB7D
:100A30000F480022442104F02DFCAC420A4809D1A1
:100A400004F0EAFB0C4804F081FBFFF70DFC62B6F2
:100A5000012038BD04F0E0FB084804F077FBFFF705
:100A6000BFFDF2E75801002000590008455B00086F
:100A7000505B0008E80100205C5B00087E5B00081A
:100A800038B54A4804F0C8FB494804F05FFB72B629
:100A9000484DFFF7DDFB00224C212846FFF746FFBB
:100AA000044645F8040CFFF7BDFCFFF747FD0022A4
:100AB0004C214148FFF73AFF84423C485DD104F0A5
:100AC000ABFB3E4804F042FB3D4D0022442128464A
:100AD000FFF72CFF0446354804F09EFB0022214618
:100AE000384804F0D7FB314804F096FB002244213B
:100AF000354804F0CFFB45F8044CFFF7A7FDFFF79E
:100B000027FE002244213148FFF710FF0546274801
:100B100004F082FB002229462A4804F0BBFB23484C
:100B200004F07AFB28480022442104F0B3FBAC42D5
:100B30001E482AD104F070FB254804F007FB254D20
:100B400000221C212846FFF7F1FE044645F8040C5C
:100B5000FFF74AFEFFF796FE00221C211E48FFF712
:100B6000E5FE8442114818D104F056FB1B4804F0FE
:100B7000EDFAFFF779FB62B638BD04F04DFB18487B
:100B800004F0E4FAFFF74EFC9EE704F045FB15483D
:100B900004F0DCFAFFF75AFDD1E704F03DFB124800
:100BA00004F0D4FAFFF720FEE3E700BF0059000885
:100BB000D75A000858000020A8000020EF5A00086B
:100BC000A0010020445B00084F5B0008E801002002
:100BD0005B5B00081801002038010020AA5B0008B8
:100BE000145B00087D5B0008D45B000817491848B7
:100BF0002DE9F04142F2107C00240E460546154FC7
:100C0000B1F900E0B1F90420B1F90280A2EB0E02C3
:100C10000CFB02F2B1F906300134A3EB080392FB9E
:100C2000F3F3436003FB08F393FBF7F3072C7344E0
:100C3000C0F80080836001F1040100F10C00DFD1F5
:100C4000B6F91E306B65BDE8F08100BF2C020020B4
:100C5000D8070020F0D8FFFF2DE9F0415D4C064693
:100C6000206800F0DBFA0022276807EB0713390140
:100C7000234410F802C015460132D2B2BCF1000F75
:100C80001BD1CB19E01805443A200433287104EB3A
:100C9000030C701E10F8016FD5B296B92A462021B8
:100CA0002B4423440F2A75D9102DC5F1100188BF9C
:100CB00000210D4405F0FF050EE01D4485F804C039
:100CC000D7E70F2D03D80CF802600132E2E70023CA
:100CD000394421440A4413713F4804F09DFA2946DF
:100CE00000223E4804F0D6FA236803EB03112144A6
:100CF000294400250133172B0D7123603ED90A26A4
:100D00002F464FF02008284600F088FA002305EB14
:100D100005112A01214410F803E09C460133DBB29F
:100D2000BEF1000F3BD13A20511921448C448CF87C
:100D3000040006EB0610204401EB030C9CF804C0F1
:100D4000BCF1000F2FD1581EC0B284465119043196
:100D500001442144BCF10F0F34D91028C3F1110311
:100D6000DBB288BF00232A442244024401351344E5
:100D70000E2D1F7106F10106C5D12560FFF7A2FAFD
:100D8000154804F049FA21680022BDE8F0411448F2
:100D900004F080BA013203F8011BD2B282E78C441E
:100DA0008CF804E0B7E700EB030C092D8CBF9CF82E
:100DB00004C09CF805C001EB030E01338EF804C09B
:100DC000DBB2B9E70CF1010C01F8018B5FFA8CFC86
:100DD000C0E700BF5408002000590008095C000863
:100DE0000E5C00082DE9F8435E4C804620680E46F4
:100DF00000F014FA0022276807EB07133901234497
:100E000010F802C015460132D2B2BCF1000F1DD15C
:100E1000CB19E018054404332E7108F1FF3004EBC0
:100E2000030E10F801CFD5B2BCF1000F12D12A4643
:100E300020212B4423440F2A75D9102DC5F1100110
:100E400088BF00210D4405F0FF050EE01D4485F824
:100E500004C0D5E70F2D03D80EF802C00132E0E739
:100E60000023394421440A4413713F4804F0D4F963
:100E7000294600223D4804F00DFA236803EB0311D4
:100E80002144294400250133172B0D7123603ED9DD
:100E90000A27A8464FF02009284600F0BFF9002392
:100EA00005EB05112A01214410F803E09C460133AB
:100EB000DBB2BEF1000F3BD1511921448C4407EB4A
:100EC00007108CF80460204401EB030C9CF804C06C
:100ED000BCF1000F30D1581EC0B284465119043104
:100EE00001442144BCF10F0F35D91028C3F111037F
:100EF000DBB288BF00232A44224402440135134454
:100F00000E2D83F8048007F10107C5D12560FFF796
:100F1000D9F9154804F080F921680022BDE8F843AA
:100F2000134804F0B7B9013203F8011BD2B282E7CB
:100F30008C448CF804E0B7E700EB030C092D8CBF60
:100F40009CF804C09CF805C001EB030E01338EF839
:100F500004C0DBB2B8E70CF1010C01F8019B5FFAA9
:100F60008CFCBFE75408002000590008095C000809
:100F70000E5C0008002384B00128009301D100908A
:100F800004E00228FBD003281AD01CD8124B9A6820
:100F90000192019A02929A6803920399029A9142ED
:100FA00004D35A6801990A4401320192039A0292C9
:100FB000019A03980099121A8A42ECD304B0704740
:100FC00012230093E2E7054B054A1B680338B3FB85
:100FD000F2F35843D3E700BF10E000E08C0200209A
:100FE00040420F0007B50190019B13B903B05DF8B3
:100FF00004FB4FF47A70FFF7BDFF019B013B0193A7
:10100000F2E7000038B5684C684D204604F004F95A
:1010100029680022664804F03DF9204604F0FCF8F7
:10102000A9680022634804F035F9204604F0F4F87A
:1010300029690022604804F02DF9204604F0ECF8FC
:10104000A96900225D4804F025F9204604F0E4F87F
:10105000296A00225A4804F01DF9204604F0DCF801
:10106000A96A0022574804F015F9204604F0D4F884
:10107000296B0022544804F00DF9204604F0CCF806
:10108000A96B0022514804F005F9204604F0C4F889
:10109000296C00224E4804F0FDF8204604F0BCF80C
:1010A000A96C00224B484C4D04F0F4F83220FFF7B5
:1010B00099FF204604F0B0F829680022474804F060
:1010C000E9F8204604F0A8F8A9680022444804F092
:1010D000E1F8204604F0A0F829690022414804F014
:1010E000D9F8204604F098F8A96900223E4804F097
:1010F000D1F8204604F090F8296A00223B4804F019
:10110000C9F8204604F088F8A96B0022384804F09A
:10111000C1F8204604F080F8A96A0022354804F09E
:10112000B9F8204604F078F8296B0022324804F020
:10113000B1F8204604F070F8296C00222F4804F022
:10114000A9F82F4D3220FFF74DFF204604F064F838
:10115000296800222B4804F09DF8204604F05CF832
:10116000A9680022284804F095F8204604F054F8B5
:1011700029690022254804F08DF8204604F04CF837
:10118000A9690022224804F085F8204604F044F8BA
:10119000204B21481968002204F07CF8BDE8384053
:1011A0003220FFF71FBF00BF125C000804000020C0
:1011B000195C00082C5C00084A5C0008695C0008A7
:1011C000865C0008A45C0008C15C0008DF5C0008C5
:1011D000FD5C00081B5D000854010020335D000821
:1011E000475D0008605D00086D5D00087A5D0008DD
:1011F000875D0008955D0008A75D0008BA5D0008DE
:10120000F4000020D75D0008F35D00081B5E0008B5
:101210003D5E00088C020020495E0008F0B5002306
:101220000A2780EAE07185B0A1EBE0711C46B1FBB2
:10123000F7F604AD2C4407FB1615303504F8105CA6
:101240000C46DAB2531C092C31465BB2EEDC0028A6
:1012500006DA04A90B442D21023203F8101C53B204
:10126000002104AA1A4402F8101C1A46084CD0B2F5
:10127000191A49B21AB90648625405B0F0BD04AD56
:101280002A4412F8112C6254421E52B2EFE700BFFA
:101290002C070020F0B5044600234FF00A0C084646
:1012A00084EAE47185B0A1EBE4711D46B1FBFCF763
:1012B00004AE35440CFB1716303605F8106C0D469D
:1012C000DAB2531C092D39465BB2EEDC002C06DA8B
:1012D00004A90B442D21023203F8101C53B2002143
:1012E00004AA1A4402F8101C1A46D4B2191B49B2B7
:1012F000451812B92A7005B0F0BD04AD2A4412F8A1
:10130000112C4254621E52B2EFE7000000224FF04F
:101310000A0CF0B580EAE0748BB0A4EBE0741546DB
:10132000B4FBFCF70AAE35440CFB1746303605F823
:10133000286C2546D3B25A1C092D3C4652B2EEDC2D
:10134000012A0AAC1444D7BF3022002304F8282C09
:101350009A1CD4BF52B204F8283C022A08DC0129A6
:1013600006D930240AAB1344013203F8284C52B298
:1013700000242E26234665B2AA4212DC002806DA93
:101380000AA95A1C0B442D2103F8141C53B21A4607
:10139000114CD0B2191A49B2B2B90F4862540BB00D
:1013A000F0BD8B421D4605D10AAF01333D445BB20F
:1013B00005F8146C1DF804700AAD1D44013305F8DE
:1013C000147C5BB20134D6E70AAD2A4412F8152C1E
:1013D0006254421E52B2DCE73C070020002802D0D3
:1013E000DCBF404200B2704702460023D8B2115C15
:1013F00001330029FAD1704770B505460024104624
:1014000062B2AB5C661C43B95AB28D5CE21852B250
:101410008618013325B9357070BD34468354EFE723
:101420008554F1E7F0B504460F461846002569B229
:10143000635C6E1C83B9DEB2F95C74195FFA84FCDC
:1014400064B261B94BB2D45C0CEB01035BB2C5185A
:10145000013144B92C70F0BD35464354E7E7731CA5
:1014600001555BB2E7E7C454ECE72DE9F0410746CC
:101470004FF4616086B00C46B7FBF0F001A9FFF7AE
:1014800009FF01A8FFF7B0FF012896BF0122002243
:101490003023154698BF2370EEB2B31A06A95BB28B
:1014A0000B4413F8141C6319751C6DB2002949D143
:1014B0003A221A703C23B7FBF3F2B2FBF3F001A916
:1014C00003FB1020FFF7E6FE01A8FFF78DFF0128C0
:1014D0009FBF30236355B51C6DB22E465FFA86F868
:1014E000A8EB050306AA5BB2134413F8142CA31946
:1014F00008F1010676B23ABB3A221A703C23B7FBD8
:10150000F3F001A903FB1070FFF7C4FE01A8FFF779
:101510006BFF01289CBF3023A3554FF000039CBFF5
:1015200008F1020676B25AB206A90A4412F8141C4F
:101530009A1952B2A018013341B90170204606B081
:10154000BDE8F0811970A7E71A70C7E7A154EAE770
:10155000F0B506464FF4616087B00C46B6FBF0F07C
:1015600001A9FFF797FE01A8FFF73EFF012896BFEC
:10157000012200223023154698BF2370EFB2BB1A18
:1015800006A95BB20B4413F8141C63197D1C6DB2E1
:1015900029BB3A221A703C23B6FBF3F6B6FBF3F0F4
:1015A00001A903FB1060FFF775FE01A8FFF71CFF00
:1015B00001289CBF302363554FF000039CBFBD1C26
:1015C0006DB25AB206A90A4412F8141C5A1952B242
:1015D000A018013329B90170204607B0F0BD197079
:1015E000CCE7A154EDE770477047704770477047EC
:1015F000014B1868704700BF4C020020094B10B522
:1016000098420DD060B1084A084C126820600AB1B7
:101610001830904723681B6913B1BDE81040184784
:1016200010BD00BF5C5E0008500700204C02002087
:10163000024B1860024B1868FFF7E0BF500700200C
:101640004C020020044B054A1B68934203D013B19F
:101650005B6903B1184770474C0200205C5E0008CC
:101660004FF4804310B5064C02202361FFF782FC43
:101670004FF0804302202361BDE81040FFF77ABCA1
:10168000000C014070B54FF07C454FF480560D4C76
:1016900025612661FFF7E4FF0120FFF7A3FC256128
:1016A0002661FFF7DDFF0120FFF79CFC4FF480630C
:1016B00025612361FFF7D4FFBDE870400120FFF7EB
:1016C00091BC00BF000C01404FF07C42244B70B530
:1016D00004460D461A6111B14FF400421A61E20648
:1016E00044BF4FF400521A6114F0200F18BF4FF49A
:1016F00080521B4B18BF1A61660644BF4FF400624C
:101700001A6114F0800F18BF4FF48063144E18BF95
:101710003361FFF7A5FF4FF07053E007336144BF1B
:101720004FF400533361A10742BF4FF480520C4B7A
:101730001A61620742BF4FF40062094B1A61230726
:1017400042BF4FF48062064B1A61FFF789FF022007
:10175000FFF748FC1DB14FF00042014B1A6170BD0C
:10176000000C0140C00040F0400038B500F0F80027
:101770000C460021FFF7A8FF651E073415F8010F7E
:101780000121FFF7A1FFA542F8D1BDE838400021B3
:101790008020FFF799BF000073B51F4C1F4D6946AD
:1017A0000020CDE900451E4EFFF7DCFF1D4B6946CA
:1017B0000120CDE90036FFF7D5FF1B4B6946CDE987
:1017C00000350220194DFFF7CDFF69460320CDE912
:1017D0000056FFF7C7FF69460420CDE90054FFF724
:1017E000C1FF134A134B69460520CDE90023FFF7DB
:1017F000B9FF114B11490620CDE900136946FFF7E7
:10180000B1FF0F4B0F486946CDE900030720FFF7F2
:10181000A9FF02B070BD00BF04150E0400041F1F15
:101820000000041F150E040000040E15040E15041C
:101830000207070A0A1C1C08051509000F05050503
:10184000010101001111111F064A1070064A1170A2
:1018500019B940F08000FFF737BF002140F0C00009
:10186000F9E700BF540700205507002070B5054672
:101870000E460446207800B970BD0121FFF724FF11
:10188000012E07D1631BDBB2072B03D131460020A9
:10189000FFF7DAFF0134EDE70121C0B2FFF714BF13
:1018A0002DE9F8430D46DFF878801B4E1B4F441E90
:1018B00014F8010F08B9BDE8F883B22819D1012145
:1018C0004920FFF701FF337897F800900133DBB22E
:1018D0003370B9F1000FEBD1082BE9D1022DE7D11C
:1018E00001214846FFF7B0FF012386F800903B70C6
:1018F000DEE7AF2802D101210320E2E7AA2802D1C6
:1019000001210220DDE7BF2889BF404401210121D8
:1019100010F8C00CD5E700BF540700205507002081
:101920005002002000210120FFF7CEBE08B5642040
:10193000FFF758FBFFF7A6FE00210E20FFF7C4FEBD
:10194000BDE80840FFF7EEBF0221FFF7A9BF10B5C1
:10195000044608461146FFF777FF2046BDE81040D1
:101960000221FFF79DBF08B5FFF7E0FFFFF7DAFFA1
:10197000BDE8084000210C20FFF7A6BE054B82B051
:101980009A6902439A619B6918400190019B02B0D9
:10199000704700BF001002400022014B1A807047C0
:1019A000C607002010B53B4C94F9001061B90846F9
:1019B000FFF74AFF3848FFF7C7FF4FF48762374BFE
:1019C0009A6140F2B4521A6294F90030012B0DD1A1
:1019D00000210846FFF738FF3148FFF7B5FF4FF405
:1019E00096722E4B9A614FF4D2721A6294F90030BB
:1019F000022B0DD100210846FFF726FF2948FFF7EB
:101A0000A3FF4FF48C72254B9A614FF4B9721A629E
:101A100094F90030032B0CD100210846FFF714FF86
:101A20002148FFF791FFA0221C4B9A614FF48C7262
:101A30001A6294F90030042B0DD100210846FFF7FB
:101A400003FF1A48FFF780FF4FF44872134B9A6167
:101A50004FF4AA621A6294F90030052B0CD10021D0
:101A60000846FFF7F1FE1248FFF76EFF64220B4BAA
:101A70009A614FF4FA621A6294F90030062B04BF9F
:101A800000232370FEF7A2FFBDE810404FF416704C
:101A9000FFF7A8BA6F070020745E00085401002009
:101AA000855E0008965E0008A75E0008B85E000824
:101AB000C95E0008FEF78ABF08B501210720FFF7BD
:101AC000C3FE0121FF20FFF7FFFDFEF77FFF044B60
:101AD000C8209A68034B1A60BDE80840FFF782BA35
:101AE00054010020F809002008B501210720FFF764
:101AF000ABFE0121FF20FFF7E7FDFEF767FF044B78
:101B0000C8201A6C034B1A60BDE80840FFF76ABA98
:101B100054010020F009002008B5FEF721FFBDE8C0
:101B200008400148FFF798B8DA5E000818B10022B3
:101B30001146FFF70CBF704749F6AF2310B50E4CA6
:101B400090B022689A4215D90C4B0BA91868FFF780
:101B5000FFFC4FF46163206801A9B0FBF3F0FFF7CD
:101B600099FB074906AB0BAAFFF75CFC022106A80C
:101B7000FFF738F910B010BD5C070020780700208F
:101B8000E65E000810B5164C164890B003F044FB12
:101B900000222168144803F07DFB49F6AF23226838
:101BA0009A421BD9114B0BA91868FFF7D1FC4FF4CF
:101BB0006163206801A9B0FBF3F0FFF76BFB06AB94
:101BC0000BAA0B49FFF72EFC012106A8FFF70AF923
:101BD000044803F021FB06A803F0B8FA10B010BDCA
:101BE0005807002000590008EA5E00086807002036
:101BF000E65E000808B501210720FFF725FEBDE8D5
:101C000008400121FF20FFF75FBD00004FF0007189
:101C100070B591FAA1F1B1FA81F3104C00F00071A6
:101C2000D9404FF0F87254F8215000F0F87092FA51
:101C3000A2F3B3FA83F392FAA2F20726B2FA82F27F
:101C400020FA03F306FA03F3D04025EA030306FA69
:101C500000F0184344F8210070BD00BF0C2401407F
:101C60004FF4407330B593FAA3F3B3FA83F31F2410
:101C7000084D00F44072DA4055F8223000F01F00A1
:101C8000844001F01F0123EA04038140194345F811
:101C9000221030BD2C24014000207047002310B5D5
:101CA00096B00446084611A98DF804208DF8053039
:101CB000FFF74EFC4FF4616002A9B4FBF0F0FFF7B0
:101CC000E9FA07AB11AA0749FFF7ACFB0CAA07A971
:101CD00001A8FFF791FB04210CA8FFF783F816B0C9
:101CE00010BD00BFE65E0008022838B51E4C1F4D2F
:101CF0002AD123882A6801331BB29342238001D35F
:101D00000023238000210846FFF79EFD2868B4F9D0
:101D100000300138C01A00EB001004302844FFF7EF
:101D200013FE134803F078FAB4F9001000221148AA
:101D300003F0B0FA0E4803F06FFA29680022BDE8FC
:101D400038400D4803F0A6BA0128DBD12388013BB7
:101D50001BB2002B2380D5DA2B68013B1BB2002B72
:101D60002380CDDBCEE700BFC6070020540800204B
:101D700000590008F25E0008FF5E0008002110B55F
:101D800004460846FFF760FD1F48FFF7DDFD022C03
:101D900030D1FEF775FEFEF7A1FD0021044608468E
:101DA000FFF752FD1948FFF7CFFD4FF4FA60FFF738
:101DB00019F900210846FFF747FD012C1BD11448F3
:101DC000FFF7C2FD1348FEF747FF4FF4FA60FFF735
:101DD00009F9114B1A69114B1A604FF46162104BEB
:101DE00019694A430F490A6099680F4A11601A6CD1
:101DF0000E4B1A6010BD0E48FFF7A6FDBDE810405F
:101E00004FF47A60FFF7EEB8125F0008235F000816
:101E1000345F0008455F0008F400002060070020E0
:101E200054010020F4090020F8090020F0090020E6
:101E3000545F0008022810B50E4C15D123690133F8
:101E4000236100210846FFF7FFFC2069FFF7E6F950
:101E5000FFF77AFD0848FFF777FD4FF461632269C9
:101E60005343064A136010BD0128EAD12369013BA0
:101E7000E6E700BF54010020655F0008F409002078
:101E800010B5334C022894F900300DD101335BB208
:101E9000072B0FD10023237000210846FFF7D4FC45
:101EA0002C48FFF751FD0AE0012804D1013B5BB249
:101EB000002B10DB237094F90030002BECD094F948
:101EC0000030012B09D100210846FFF7BDFC224854
:101ED000FFF73AFD01E00623237094F90030022B4E
:101EE00006D100210846FFF7AFFC1C48FFF72CFD88
:101EF00094F90030032B06D100210846FFF7A4FC1B
:101F00001748FFF721FD94F90030042B06D100217A
:101F10000846FFF799FC1348FFF716FD94F90030C7
:101F2000052B06D100210846FFF78EFC0E48FFF76F
:101F30000BFD94F90030062B08D100210846FFF76D
:101F400083FCBDE810400948FFF7FEBC10BD00BF90
:101F50006F0700206A5F00087B5F00088D5F000844
:101F60009E5F0008AE5F0008BF5F0008CF5F0008FB
:101F7000022810B50D4C14D1A3690A33A3610021C6
:101F80000846FFF761FC0A23A0690121B0FBF3F0CA
:101F9000FFF7BCF9FFF7D8FCBDE810400448FFF795
:101FA000D3BC0128EBD1A3690A3BE7E75401002029
:101FB000915E0008022810B50D4C14D1236A0A3333
:101FC000236200210846FFF73FFC0A23206A012113
:101FD000B0FBF3F0FFF79AF9FFF7B6FCBDE810404D
:101FE0000448FFF7B1BC0128EBD1236A0A3BE7E7BD
:101FF00054010020915E0008022810B50B4C10D14E
:10200000A36A0133A36200210846FFF71DFCA06A02
:10201000FFF704F9FFF798FCBDE810400448FFF70C
:1020200093BC0128EFD1A36A013BEBE754010020E8
:10203000DF5F0008022810B50B4C10D1236B013371
:10204000236300210846FFF7FFFB206BFFF7E6F84C
:10205000FFF77AFCBDE810400448FFF775BC012883
:10206000EFD1236B013BEBE754010020DF5F000859
:10207000022838B51A4C2DD1A36B0133A36300217C
:102080000A250846FFF7E0FBA06BFFF7C7F8FFF74C
:102090005BFC1448FFF758FC206A0121B0FBF5F007
:1020A000FFF734F9FFF750FC0F48FFF74DFC6422AF
:1020B000236AA06B01215843B0FBF2F0181AB0FB61
:1020C000F5F0FFF723F9FFF73FFCBDE8384007487C
:1020D000FFF73ABC0128D2D1A36B013BCEE700BF8A
:1020E00054010020E85F0008EB5F0008915E0008E3
:1020F000044B9A68044B1B689A4201D1FFF77ABDE2
:10210000704700BF54010020F8090020044B1A6CEE
:10211000044B1B689A4201D1FFF76CBD704700BFAA
:1021200054010020F0090020002110B504460846A3
:10213000FFF78AFB022C1F4B0DD19A68072A02F188
:10214000010127D101229A601B48FFF7FDFBBDE882
:102150001040FFF7CDBF012C03D19A68013A15D08A
:102160009A609A68013A062A20D801A151F822F013
:1021700049210008992100089D210008A12100089B
:10218000A5210008A92100089121000807229A60D2
:102190000A48DAE79960E4E70948D6E70948D4E74E
:1021A0000948D2E70948D0E70948CEE701229A60FA
:1021B00010BD00BF54010020EE5F0008546000080D
:1021C000FF5F00081060000821600008326000080E
:1021D00043600008002110B504460846FFF734FBB1
:1021E000022C144B0DD11A6C032A02F101011CD1EF
:1021F00001221A641048FFF7A7FBBDE81040FFF763
:1022000085BF012C03D11A6C013A0AD01A641A6CEA
:10221000022A0CD0032A06D0012AEBD001221A642C
:1022200010BD03221A640548E5E71964EFE7044886
:10223000E1E700BF540100206560000887600008E6
:1022400076600008154B16499A6812F0100F0CD0F2
:102250009A68900616D59A68520615D59B68DB4396
:1022600013F0800312D10B807047032240F2DC5040
:10227000B1F9003083420BDD40F2B4530B80094BBF
:102280001A700AE00222F1E70122EFE70422EDE7EB
:1022900001331BB2142B0B80F1D07047000C0140AE
:1022A000C4070020C8070020044B187810B1002193
:1022B000034A116000221A70704700BFC80700204F
:1022C000840700200022034B1A600122024B1A707F
:1022D000704700BFB80700208A07002038B50446C1
:1022E0004FF46160B4FBF0F0FEF798FF0546FFF78E
:1022F0007BF8012803D801211148FFF7B7FA012123
:102300002846FFF7B3FA01210E48FFF7AFFA3C2346
:10231000B4FBF3F4B4FBF3F003FB1040FEF77EFFD5
:102320000446FFF761F8012803D801210448FFF7AC
:102330009DFA2046BDE838400121FFF797BA00BF5B
:10234000986000084D6200084FF40032074B1A6194
:102350004FF08072A3F580631A610023044A137062
:10236000044A1370044A1370704700BF000C014008
:102370008207002089070020740700200222074BF3
:102380004FF480711A610123054A1370054A1370D6
:10239000054A1161054A1370704700BF000C0140E7
:1023A00082070020890700200008014074070020F0
:1023B000084808B50268022A04D1FFF7DFFF0123AD
:1023C000036008BD032AFCD1034B9B69012BF8D1A4
:1023D000F3E700BF74020020F40000200122F8B5EA
:1023E000884B90420546884E1A7006D13378013BDF
:1023F0005BB2002BC0F29A80337096F90030002B4C
:1024000063D1022D814F05D13B78002B40F0C28073
:10241000FFF7B4FF00210846FFF716FA7C4B0221B4
:1024200018887C4C80B2FEF771FFFFF78DFA7A486E
:10243000FFF78AFA00210720FFF706FA3B78012B05
:1024400040F0AB802368B3F57A7F07DA2068FEF7A7
:10245000E5FEFFF779FA7148FFF776FA2368B3F5DE
:102460007A7F10DB42F20F7322689A420BDC6423FE
:102470002068012190FBF3F0FEF748FFFFF764FAB4
:102480006748FFF761FA42F20F7322689A420BDD48
:102490004FF47A73206890FBF3F0FEF7BFFEFFF76E
:1024A00053FA5F48FFF750FA3B78012107205D4C53
:1024B000002B79D1FFF7C8F901210020FFF7ECF9D3
:1024C00023780A2B84BF0023237096F90030012B58
:1024D0002ED1022D4FF0000108BF0023524F534C64
:1024E000084604BF3B602360FFF7AEF95048FFF792
:1024F0002BFA3A684F4B38689A425DD24FF46163C9
:10250000B0FBF3F0FEF78AFEFFF71EFA4A48FFF72A
:102510001BFA23682068B3F5E15F55D2FEF77EFE13
:10252000FFF712FA4548FFF70FFA01E00223337074
:1025300096F90030022B63D1022D4FF0000108BF45
:1025400000233F4D394C084604BF2B602360FFF742
:102550007BF93C48FFF7F8F92A68364B28689A421D
:102560003CD24FF46163B0FBF3F0FEF757FEFFF788
:10257000EBF93148FFF7E8F923682068B3F5E15F2C
:1025800034D2FEF74BFEFFF7DFF92C48BDE8F840E8
:10259000FFF7DAB9FFF7D8FE3CE72068FEF73EFE0A
:1025A000FFF7D2F928487DE72378052B82D9FFF77A
:1025B0004BF90121084681E7B0FBF3F0FEF72EFE50
:1025C000FFF7C2F92148A2E74FF46163B0FBF3F0D3
:1025D000FEF724FEFFF7B8F91D48A4E7B0FBF3F0BF
:1025E000FEF71CFEFFF7B0F91848C3E74FF461632C
:1025F000B0FBF3F0FEF712FEFFF7A6F91448C5E7AB
:10260000F8BD00BF800700206D0700208207002072
:10261000CE020020B40200209A6000089E600008EC
:10262000A560000865070020B80200207807002098
:10263000B460000880EE3600B9600008C36000088E
:1026400070070020DF600008AC600008BE60000872
:10265000D1600008012230B5854B87B01A70FFF7B2
:102660008DFE0228834C27D1237801335BB2082BDF
:1026700029D10023237000210846FFF7E5F87E48A2
:10268000FFF762F90A207D4B01211B889BB2B3FB47
:10269000F0F0FEF73BFEFFF757F97948FFF754F9E2
:1026A000784B0221188880B2FEF730FEFFF74CF914
:1026B0007548FFF749F90BE0012805D12378013B64
:1026C0005BB2002B23DB237094F90030002BD2D0B7
:1026D00094F90030012B1CD100210846FFF7B4F813
:1026E0006A48FFF731F96A4B1868FEF797FDFFF764
:1026F0002BF96848FFF728F9674B188980B2FEF775
:102700008DFDFFF721F96548FFF71EF901E007236A
:10271000237094F90050022D1AD100210846FFF7CA
:1027200093F85F48FFF710F95E4B29461868FEF7EB
:10273000EDFDFFF709F95748FFF706F9564BD88822
:1027400080B2FEF76BFDFFF7FFF85448FFF7FCF887
:1027500094F90030032B19D100210846FFF774F8D3
:102760005148FFF7F1F8514B1868FEF757FDFFF796
:10277000EBF84F48FFF7E8F8474B588880B2FEF770
:102780004DFDFFF7E1F84548FFF7DEF894F900301A
:10279000042B19D100210846FFF756F84548FFF7EA
:1027A000D3F8454B1868FEF739FDFFF7CDF84048E0
:1027B000FFF7CAF8384B188880B2FEF72FFDFFF7F5
:1027C000C3F83E48FFF7C0F894F90030052B1AD142
:1027D00000210846FFF738F83948FFF7B5F8364BBF
:1027E00002211868FEF792FDFFF7AEF82948FFF7BF
:1027F000ABF8294B588980B2FEF710FDFFF7A4F81B
:102800002E48FFF7A1F894F90030062B0DD10021D6
:102810000846FFF719F82B4B01A91868FEF725FEAB
:10282000FFF792F82848FFF78FF894F90030072B4C
:102830001BD100210846FFF707F82448FFF784F86A
:10284000234B0221188880B2FEF760FDFFF77CF869
:102850002048FFF779F8104B988880B2FEF7DEFC2D
:10286000FFF772F80D48FFF76FF807B030BD00BFF3
:10287000800700206E070020E36000083808002071
:10288000E86000084A08002082600008ED60000847
:10289000C4020020F26000083A08002080600008AE
:1028A000F6600008C0020020FC600008BC020020A6
:1028B0000361000807610008C80200207F6000086B
:1028C0000C610008CC0700207E600008126100083F
:1028D000CE020020EB5F00080122154B10B51A70E4
:1028E000FFF74CFD0228134C1DD1A3680133A360F0
:1028F00000210846FEF7A8FFA068FEF78FFCFFF74F
:1029000023F80D48FFF720F801210020FEF79CFF77
:102910000A4B1868FEF782FCFFF716F8BDE8104076
:102920000748FFF711B80128E2D1A368013BDEE7B1
:10293000800700200400002083600008C8020020F7
:10294000156100080122154B10B51A70FFF716FD2E
:102950000228134C1DD1236901332361002108464D
:10296000FEF772FF2069FEF759FCFEF7EDFF0D48F8
:10297000FEF7EAFF01210020FEF766FF0A4B186808
:10298000FEF74CFCFEF7E0FFBDE810400748FEF7FD
:10299000DBBF0128E2D12369013BDEE7800700208D
:1029A0000400002083600008BC02002015610008BC
:1029B0000122164B10B51A70FFF7E0FC0228144CE8
:1029C0001ED1A3690133A36100210846FEF73CFF35
:1029D000A069FEF723FCFEF7B7FF0E48FEF7B4FF31
:1029E00001210020FEF730FF0B4B02211868FEF793
:1029F0008DFCFEF7A9FFBDE810400848FEF7A4BF14
:102A00000128E1D1A369013BDDE700BF8007002079
:102A10000400002083600008C00200201A61000842
:102A20000122154B10B51A70FFF7A8FC0228134CB1
:102A30001DD1236A0133236200210846FEF704FFFB
:102A4000206AFEF7EBFBFEF77FFF0D48FEF77CFFE9
:102A500001210020FEF7F8FE0A4B1868FEF7DEFBA6
:102A6000FEF772FFBDE810400748FEF76DBF012872
:102A7000E2D1236A013BDEE780070020040000204A
:102A800083600008C40200201A6100080122164B6E
:102A900010B51A70FFF772FC0228144C1FD1A36AFC
:102AA0000133A36200210846FEF7CEFEA06AFEF7BE
:102AB000B5FBFEF749FF0E48FEF746FF0121002057
:102AC000FEF7C2FE0B4B0221188880B2FEF71EFCF7
:102AD000FEF73AFFBDE810400748FEF735BF012872
:102AE000E0D1A36A013BDCE780070020040000205E
:102AF00083600008CE0200209A6000080122164B75
:102B000010B51A70FFF73AFC0228144C1FD1236B42
:102B10000133236300210846FEF796FE206BFEF783
:102B20007DFBFEF711FF0E48FEF70EFF012100208E
:102B3000FEF78AFE0B4B0221188880B2FEF7E6FBF7
:102B4000FEF702FFBDE810400748FEF7FDBE012872
:102B5000E0D1236B013BDCE780070020040000206C
:102B6000836000084C0800209A6000080122164B80
:102B700010B51A70FFF702FC0228144C1FD1A36B8A
:102B80000133A36300210846FEF75EFEA06BFEF74B
:102B900045FBFEF7D9FE0E48FEF7D6FE01210020C8
:102BA000FEF752FE0B4B0221188880B2FEF7AEFBF7
:102BB000FEF7CAFEBDE810400748FEF7C5BE012873
:102BC000E0D1A36B013BDCE780070020040000207C
:102BD00083600008380800209A6000080122284B12
:102BE00070B51A70FFF7CAFB0228264E40D1338811
:102BF0000133338000210846FEF726FE022130888B
:102C0000FEF784FB204D214CFEF79EFE2048FEF788
:102C10009BFE2B8822689BB2002A2EDD42F21070A8
:102C200032889B1A1BB223EAE3734343226893FB67
:102C3000F2F0184E3064FEF7F1FAFEF785FE164802
:102C4000FEF782FE154B1B882A8821689BB200295B
:102C500092B2C1BF9B1A42F210721BB223EAE37315
:102C6000C5BF534321680A2393FBF1F3B36470BDDE
:102C70000128BFD13388013BBBE74620D9E700BF1D
:102C80008007002078020020CC020020B40200203F
:102C9000EB5F0008040000201F610008CE02002046
:102CA0000123044A1370044A13704FF40062034B6B
:102CB0001A61704782070020880700200008014041
:102CC00008B5FFF741FBBDE80840FFF7E9BF00008A
:102CD00008B50A4B93F90020022A0DD002221A707F
:102CE000FFF732FBFFF7DCFF0022054B05481A60B7
:102CF000BDE8084002F080BB08BD00BF66070020A9
:102D0000B40700202A6100080023064A1370064A0F
:102D100013704FF0006203F1804303F584331A61AE
:102D2000704700BF82070020880700200122234B44
:102D3000022810B5224C1A7003D1237873BBFFF719
:102D4000AFFF00210846FEF77FFD1E4B02211888C9
:102D500080B2FEF7DBFAFEF7F7FD1B48FEF7F4FD45
:102D60001A4B1868FEF75AFAFEF7EEFD1848FEF700
:102D7000EBFD237801210620164C93B9FEF764FD84
:102D800001210220FEF788FD01210220FEF784FDCB
:102D900023780A2B84BF0023237010BDFFF7B4FFF4
:102DA000CFE72378052BE9D9FEF74EFD012103205B
:102DB000FEF772FD01210320E8E700BF8007002035
:102DC000820700204C080020EB5F0008B4020020BE
:102DD000A56000086507002000212DE9F0410127CA
:102DE0002C4B2D4D064608461F70FEF72DFD2B7807
:102DF0002A4C03F0FF083BBB294B0221188880B204
:102E0000FEF784FAFEF7A0FD2648FEF79DFD414639
:102E10000720FEF719FD2068FEF700FAFEF794FD83
:102E20002148FEF791FD05203946FEF70DFD1F48AC
:102E3000FEF78AFD022E2AD12B7813BBFFF79EFAEC
:102E4000BDE8F041FFF72CBF194B0221188880B272
:102E5000FEF75CFAFEF778FD1248FEF775FD0021DB
:102E60000720FEF7F1FC2068FEF7D8F9FEF76CFDAD
:102E70001048FEF769FD06203946FEF7E5FC0E48CE
:102E8000D6E7FFF761FABDE8F041FFF73DBFBDE8C7
:102E9000F08100BF8007002082070020B4020020DC
:102EA000CE0200209A600008346100083A610008F0
:102EB0004C080020A56000083F61000808B5FFF736
:102EC00023FFBDE80840FFF759BA000008B50A4BD8
:102ED00093F90020012A0DD001221A70FFF714FF88
:102EE000FFF74CFA0022054B05481A60BDE8084080
:102EF00002F082BA08BD00BF66070020B4070020B8
:102F00002D6100082DE9F04F964A85B01378DFF85F
:102F1000ACA2DFF8ACB2DFF8AC92934FDFF8A88236
:102F2000924D009003F0FF040192002B3ED1904B94
:102F30001A88904B92B21B6A05339A4215D22146E9
:102F40002046FEF781FC8C48FEF7FEFC4FF4FA6049
:102F5000FEF748F821462046FEF776FC8748FEF744
:102F6000F3FC40F6B830FEF73DF801260024019B43
:102F70001E70834B8AF800408BF80040C9F800406F
:102F80003C601C60C8F800402C608AF80060FFF7C5
:102F90009DFF7C4B214620461E70FEF755FC7A486B
:102FA000FEF7D2FC4FF47A70FEF71CF8774C2068DD
:102FB00000B2FEF713FA0528039440F3C681744A61
:102FC0006C4E1388B1699BB28B4202921FD26D4B3B
:102FD0001A78022A1BD16F4B1B68B3F57A7F16D97A
:102FE00000238BF8003029686B4B994203D928687D
:102FF0003968FEF753FE00230124C9F80030C8F8F1
:1030000000308AF80040FFF761FF5E4B1C70029BA6
:10301000326A1B889BB2934208D95A4B1B78012B0A
:1030200004D15C4B1B68B3F57A7F09D85B4BD9F8A8
:1030300000201B689A4223D9524B1B78012B1FD1C9
:1030400000238AF80030D8F80020534B9A4206D962
:10305000D8F800000122D9F80010FEF71FFE3A68E8
:10306000474B1A602A684E4B9A6000233B602B60E6
:1030700001238BF80030FFF72BFE0222414B1A7020
:10308000009A484C022A94F9003033D101335BB2E4
:10309000052B36D10023237000210846FEF7D4FB10
:1030A000029B0221188880B2FEF730F9FEF74CFC33
:1030B0003D48FEF749FC039B1868FEF7AFF8FEF7A2
:1030C00043FC3A48FEF740FC01210620FEF7BCFB1A
:1030D00001210420FEF7E0FB354B1978012940F06F
:1030E0002D8107200091FEF7AFFB00200099FEF72D
:1030F000D3FB0BE0009A012A04D1013B5BB2002B09
:1031000064DB237094F90030002BC5D094F90030B3
:10311000012B5DD1002108460093FEF795FB306935
:10312000FEF77CF8FEF710FC2248FEF70DFC0A22A1
:10313000009BB0691946B0FBF2F0FEF7E7F8FEF726
:1031400003FC1948FEF700FC0A22009B306A19466E
:10315000B0FBF2F0FEF7DAF8FEF7F6FB1648FEF7E2
:10316000F3FB35E080070020780700205C07002093
:10317000CE02002054010020436100085461000881
:103180007C0700207002002065610008B402002066
:103190004C080020B40700204F8C0500F4090020E3
:1031A000F40000206D070020EB5F00087661000846
:1031B00089070020C0600008D35E00086707002070
:1031C000740700206807002058070020042323709C
:1031D00094F90060022E21D100210846FEF734FB4D
:1031E00001213046FEF758FB00210120FEF72CFBA1
:1031F0005C48FEF7A9FB4FF461632868B0FBF3F06D
:10320000FEF70CF8FEF7A0FB5748FEF79DFB0320E6
:103210000121FEF719FB3868FFF760F894F90060A8
:10322000032E23D100210846FEF70EFB01210020CA
:10323000FEF732FB00210120FEF706FB4948FEF7AE
:1032400083FB4FF46163D8F80000B0FBF3F0FDF7A7
:10325000E5FFFEF779FB4448FEF776FB3046012197
:10326000FEF7F2FAD9F80000FFF738F894F90030C9
:10327000042B23D100210846FEF7E6FA01210220A3
:10328000FEF70AFB00210120FEF7DEFA3748FEF7C1
:103290005BFB374B98684FF46163B0FBF3F0FDF7CD
:1032A000BDFFFEF751FB3348FEF74EFB0320012123
:1032B000FEF7CAFA304B1868FFF710F82F4801F0F4
:1032C000ABFF019B002219782D4801F0E3FF2B484A
:1032D00001F0A2FF9AF8001000222A4801F0DAFF5C
:1032E000264801F099FFD9F800100022264801F085
:1032F000D1FF224801F090FFD8F8001000222348A7
:1033000001F0C8FF1D4801F087FF9BF80010002264
:103310001F4801F0BFFF194801F07EFF3968002205
:103320001C4801F0B7FF154801F076FF002229681C
:10333000194805B0BDE8F04F01F0ACBF01210720EE
:10334000FEF782FA01210220D1E6144B1B68B3F587
:103350007A7FB3D900210846FEF776FA1048FEF7C7
:10336000F3FAABE7856000087E6100088861000819
:10337000F40000208B6100087C0700200059000841
:10338000A5610008BA610008CF610008DF6100088C
:10339000F76100080F62000822620008B4070020ED
:1033A000946100080021F8B506460846FEF74CFA7D
:1033B0000122694B1A70694B197811B91A70FEF71E
:1033C00081FF674D674C2B68A26A9A4212D3FFF7C0
:1033D0007DFD654B226A1B889BB293420AD9634BE1
:1033E0001B68B3F5C87F05D9FEF76CFF2B68A26A8E
:1033F00013442B602B68A26A9A420ED2FFF768FC36
:10340000594BA2691B889BB2934206D2574B1B684B
:10341000B3F5C87F01D9FEF755FFA36A216B2A686F
:103420000B44934201D2FEF74DFF514D022E95F908
:10343000003032D101335BB2032B34D100232B7027
:1034400000210846FEF700FA474B0221188880B297
:10345000FDF75CFFFEF778FA4648FEF775FA464B33
:103460001868FDF7DBFEFEF76FFA4448FEF76CFACA
:1034700001210620FEF7E8F901210520FEF70CFAEC
:103480003F4B1E78012E5FD131460720FEF7DCF955
:1034900031460020FEF700FA0AE0012E04D1013B7C
:1034A0005BB2002B2CDB2B7095F90030002BC7D0C2
:1034B00095F90060012E25D100210A270846FEF764
:1034C000C3F92069FDF7AAFEFEF73EFA2D48FEF784
:1034D0003BFAA0693146B0FBF7F0FDF717FFFEF7A6
:1034E00033FA2448FEF730FA206A3146B0FBF7F091
:1034F000FDF70CFFFEF728FA2348FEF725FA01E056
:1035000002232B7095F90030022B24D100210846AC
:10351000FEF79AF9A06AFDF781FEFEF715FA1B483F
:10352000FEF712FA206BFDF779FEFEF70DFA184848
:10353000FEF70AFA03200121FEF786F9154B1868F9
:10354000BDE8F840FEF7CABE01210720FEF77CF96E
:10355000012102209EE7F8BD80070020810700209E
:10356000B8070020540100204C080020B4070020B8
:103570006D070020EB5F0008B402002076610008B0
:1035800089070020C0600008D35E0008E0600008E2
:10359000446200087807002008B5FFF7B5FBBDE8D6
:1035A0000840FEF7D1BE000001222DE9F84F984EE9
:1035B000984B347882469846974DDFF8CC92974FD7
:1035C0001A7034BB964B1A88964B92B21B6A05331D
:1035D0009A4215D221462046FEF736F99248FEF768
:1035E000B3F94FF4FA60FDF7FDFC21462046FEF7E3
:1035F0002BF98E48FEF7A8F940F6B830FDF7F2FC3B
:1036000000238B4A2B7089F80030136001223B6045
:103610003270884B3A681B689A4206D8864B814ABA
:103620001B88126A9BB2934203D9FFF7B5FF0023B0
:103630002B70FEF7BDFEBAF1020F804C6BD1804BB0
:103640001B78002B63D1FFF739FC01232B7094F911
:103650000010002936D10846FEF7F6F8784BDFF85F
:10366000D8A11A789B46002A40F0B5806C4B022105
:10367000188880B2FDF74AFEFEF766F97148FEF73A
:1036800063F9BAF80000022180B2FDF73FFEFEF7B1
:103690005BF96D48FEF758F99BF8003001210720CF
:1036A000DFF8E8A1002B40F0A980FEF7CDF801215A
:1036B0000020FEF7F1F89AF800300A2B84BF0023AF
:1036C0008AF8003094F900A0BAF1010F2FD100213F
:1036D000DFF850B10846FEF7B7F85C48FEF734F95A
:1036E000DBF81000FDF79AFDFEF72EF95848FEF7BB
:1036F0002BF90A23DBF820005146B0FBF3F0FDF76D
:1037000005FEFEF721F95348FEF71EF90FE0FFF71B
:1037100043FF00239AE7BAF1010F98D12378013BC8
:103720005BB2002B01DB237091E70223237094F935
:103730000030022B1AD100210846FEF785F84648D2
:10374000FEF702F93A4B18684FF46163B0FBF3F0EF
:10375000FDF764FDFEF7F8F84048FEF7F5F80320A2
:103760000121FEF771F83868FEF7B8FD3C4801F01A
:1037700053FD317800223B4801F08CFD384801F0C0
:103780004BFD98F800100022374801F083FD3448C3
:1037900001F042FD29780022344801F07BFD3048D9
:1037A00001F03AFD39680022314801F073FD2C48E0
:1037B00001F032FD99F8001000222E4801F06AFD58
:1037C000274801F029FD2C4B002219682B48BDE841
:1037D000F84F01F05FBDBAF80000022180B2FDF79A
:1037E00095FDFEF7B1F81748FEF7AEF8244B1868C0
:1037F000FDF714FDFEF7A8F822484BE79AF80030D1
:10380000052B7FF652AFFEF71FF80121084650E75F
:10381000810700208007002067070020680700203C
:10382000CE020020540100204361000854610008CA
:1038300058070020F40900204C0800206D070020E4
:1038400082070020EB5F0008D35E00084C6200088E
:103850004F620008915E0008576200085A62000833
:103860000059000863620008A5610008BA610008F9
:10387000CF610008F7610008780700200F62000898
:10388000B40200207661000874070020650700205C
:1038900001222DE9F84FBC4EBC4B35788246984644
:1038A000BB4CDFF85C93BB4F1A7035BBBA4B1A8820
:1038B000BA4B92B21B6A05339A4215D22946284662
:1038C000FDF7C2FFB648FEF73FF84FF4FA60FDF788
:1038D00089FB29462846FDF7B7FFB248FEF734F8C2
:1038E00040F6B830FDF77EFB0023AF4A237089F81D
:1038F0000030136001223B603270AC4B3A681B68A9
:103900009A4272D9FFF748FE00232370FEF750FD5C
:10391000BAF1020FA64D40F08280A64B1B78002B17
:1039200079D1FFF7CBFA0123237095F90010002914
:1039300036D10846FDF788FF9E4BDFF88CA21A7837
:103940009B46002A40F00281934B0221188880B2E6
:10395000FDF7DCFCFDF7F8FF9748FDF7F5FFBAF837
:103960000000022180B2FDF7D1FCFDF7EDFF934886
:10397000FDF7EAFF9BF8003001210720DFF884A261
:10398000002B40F0F680FDF75FFF01210020FDF7DE
:1039900083FF9AF800300A2B84BF00238AF8003096
:1039A00095F900A0BAF1010F45D10021DFF8ECB183
:1039B0000846FDF749FF8248FDF7C6FFDBF8100017
:1039C000FDF72CFCFDF7C0FF7E48FDF7BDFF0A2385
:1039D000DBF820005146B0FBF3F0FDF797FCFDF754
:1039E000B3FF7648FDF7B0FF25E077496B480A88BA
:1039F000036A92B29A4285D8826B64205A43B2FB22
:103A0000F0F209889B1A89B29942BFF47FAFFFF7A1
:103A100055FA012379E7FFF7BFFD002384E7BAF1E8
:103A2000010F82D12B78013B5BB2002B01DB2B70A5
:103A30007BE703232B7095F90030022B2FD1002157
:103A40004FF00A0ADFF854B10846FDF7FDFEDBF837
:103A50003800FDF7E3FBFDF777FF5C48FDF774FFE7
:103A6000DBF820000121B0FBFAF0FDF74FFCFDF779
:103A70006BFF5148FDF768FF6422DBF82030DBF86C
:103A8000380001215843B0FBF2F0181AB0FBFAF0ED
:103A9000FDF73CFCFDF758FF4848FDF755FF95F949
:103AA0000050032D1AD100210846FDF7CDFE4848ED
:103AB000FDF74AFF3C4B18684FF46163B0FBF3F02D
:103AC000FDF7ACFBFDF740FF4248FDF73DFF284600
:103AD0000121FDF7B9FE3868FEF700FC6420FDF710
:103AE00081FA3D4801F098FB317800223B4801F013
:103AF000D1FB394801F090FB98F8001000223848BB
:103B000001F0C8FB344801F087FB217800223548DA
:103B100001F0C0FB304801F07FFB396800223248D9
:103B200001F0B8FB2C4801F077FB99F80010002257
:103B30002E4801F0AFFB284801F06EFB2C4B002211
:103B400019682C48BDE8F84F01F0A4BBBAF8000092
:103B5000022180B2FDF7DAFBFDF7F6FE1648FDF70D
:103B6000F3FE254B1868FDF759FBFDF7EDFE2348E2
:103B7000FEE69AF80030052B7FF605AFFDF764FEF0
:103B80000121084603E700BF8107002080070020CD
:103B90006707002068070020CE02002054010020A3
:103BA000436100085461000858070020F409002010
:103BB0006D07002082070020EB5F0008915E00087F
:103BC0004C6200084F6200084C080020E85F0008C3
:103BD000576200088B610008005900086362000802
:103BE000A5610008BA610008CF610008F76100080C
:103BF000780700200F620008B402002071620008FC
:103C0000740700206507002001212DE9F843894D44
:103C1000894E2B78894A31704BB9297088491370C5
:103C20000B7088490B7088490B6088490B60884F7E
:103C300088493B889BB20B8087498C698846A342A0
:103C4000C0F0F080002385491370854B09681B681C
:103C5000DFF8F0915B1A032B06D9137823B1FFF735
:103C60009BFC002389F8003002287E4C51D17E4B0A
:103C70001B78002B49D1FFF723F8012389F8003086
:103C800094F9001041BB0846FDF7DEFD388802219B
:103C900080B2FDF73BFBFDF757FE7448FDF754FE7D
:103CA000734B744F1868FDF7B9FAFDF74DFE724873
:103CB000FDF74AFE6C4B01211B780720002B40F0DA
:103CC000A880FDF7C1FD01210220FDF7E5FD3B784D
:103CD0000A2B84BF00233B7094F90070012F23D17D
:103CE00000210846FDF7B0FD6448FDF72DFE0A23CC
:103CF000D8F818003946B0FBF3F0FDF707FBFDF7E5
:103D000023FE5F48FDF720FE0EE0FFF745FC002391
:103D1000B4E70128B4D12378013B5BB2002B01DB6F
:103D20002370ADE70323237094F90030022B1BD1DD
:103D300000210846FDF788FD5248FDF705FE524B6D
:103D400098684FF46163B0FBF3F0FDF767FAFDF795
:103D5000FBFD4E48FDF7F8FD03200121FDF774FD42
:103D60004B4B1868FEF7BAFA94F90070374C032FE2
:103D70001AD100210846FDF767FD4648FDF7E4FD2E
:103D8000314B18684FF46163B0FBF3F0FDF746FA6E
:103D9000FDF7DAFD4048FDF7D7FD38460121FDF774
:103DA00053FD2068FEF79AFA3C4801F035FA29786D
:103DB00000223B4801F06EFA384801F02DFA3178C4
:103DC0000022384801F066FA344801F025FA1C4B0D
:103DD00000221978344801F05DFA304801F01CFAED
:103DE000324B00221968324801F054FA2B4801F096
:103DF00013FA99F8001000222E4801F04BFA2748D8
:103E000001F00AFA21680022BDE8F8432A4801F0CF
:103E100041BA3B78052B7FF654AFFDF715FD012124
:103E2000032052E713781BB90D4B19680B4B19602F
:103E3000012308E781070020800700206407002095
:103E400067070020740700205C0700207807002027
:103E50004C080020BC07002054010020C0070020AF
:103E6000CC0700206D07002082070020EB5F0008D0
:103E7000B402002065070020716200087A62000821
:103E8000915E000888610008F40000205A62000872
:103E90007C070020406100088B6100080059000881
:103EA00063620008A5610008BA6100086807002085
:103EB000CF610008F76100080F6200082DE9F04F9C
:103EC000A04A85B013788346DFF8D4A29E4EDFF86F
:103ED000D4929E4D9E4F9F4C03F0FF080192002B01
:103EE00040F062819C4B1A889C4B92B21B6A05334E
:103EF0009A4215D241464046FDF7A6FC9848FDF788
:103F000023FD4FF4FA60FDF76DF841464046FDF79A
:103F10009BFC9448FDF718FD40F6B830FDF762F8B9
:103F200001234FF00008019A13708F4A8AF800802D
:103F300082F800808D4AC6F80080C9F80080C2F877
:103F40000080C5F80080C7F800808AF80030FEF7CE
:103F5000BDFF0123864A414640461370FDF774FCBD
:103F60008448FDF7F1FC4FF47A70FDF73BF801232C
:103F70002370DFF82882D8F8000000B2FDF72EFA8F
:103F80000528CDF8088040F394817B4B734A1B8849
:103F900091699BB28B42904629D2754B1A78022ABE
:103FA00025D1764B1B68B3F57A7F20D900236E4963
:103FB0000B703968724B994204D93868D9F80010EF
:103FC000FDF76CFED9F80020684B1A603A686D4B1B
:103FD0009A60002301228AF800202B603360FEF7EC
:103FE00075FF0122237801332370614B1A70624AF6
:103FF000D8F82010138803929BB28B4208D95C4BEF
:104000001B78012B04D15D4B1B68B3F57A7F08D870
:104010005D4B32681B689A4222D9554B1B78012BA5
:104020001ED194F90030022B1ADC00238AF80030EC
:104030002A68534B9A4204D9286801223168FDF757
:104040002DFE0123484A137000233B60C9F800305D
:10405000FEF73EFE0222237801332370444B1A7090
:10406000454BD8F820201B889BB2934208D9404B7F
:104070001B78012B04D1414B1B68B3F57A7F08D81C
:10408000414B32681B689A421DD9394B1B78012B72
:1040900019D194F90030022B15DDFFF77DFA0023CA
:1040A000314A8AF8003013702A68354B9A4204D995
:1040B000286801223168FDF7F1FD022223780133DF
:1040C0002370324B1A70314CBBF1020F94F900305F
:1040D00040F0AC8001335BB2042B40F0AF80002392
:1040E000237000210846FDF7AFFB039B02211888CF
:1040F00080B2FDF70BF9FDF727FC2548FDF724FCFE
:10410000029B1868FDF78AF8FDF71EFC2148FDF7B1
:104110001BFC01210620FDF797FB01210420FDF780
:10412000BBFB1D4B93F800B0BBF1010F40F0BA8010
:1041300059460720FDF788FB59460020FDF7ACFBE8
:1041400082E000BF80070020680700205807002099
:104150005C0700206C070020CE02002054010020E4
:104160004361000854610008740700207C070020A8
:1041700070020020656100084C080020B407002090
:104180004F8C0500F4000020F40900206D0700208A
:10419000EB5F00087661000889070020B402002068
:1041A000670700207807002094F90030032B7FF781
:1041B000E0AEAA4C022894F9003040F0C5800133EB
:1041C0005BB2042B40F0C680002323700021084618
:1041D000FDF73AFBA24B0221188880B2FDF796F852
:1041E000FDF7B2FB9F48FDF7AFFB9F4B1868FDF74B
:1041F00015F8FDF7A9FB9D48FDF7A6FB0121062058
:10420000FDF722FB01210420FDF746FB984B93F8B4
:104210000080B8F1010F40F01A8141460720FDF7F8
:1042200013FB41460020FDF737FB99E0BBF1010F7E
:1042300005D1013B5BB2002BC0F2B780237094F92B
:104240000030002B3FF44DAF94F900B0BBF1010FEB
:1042500040F0AD8000210846FDF7F6FAD8F81000CE
:10426000FCF7DCFFFDF770FB8248FDF76DFB0A23CE
:10427000D8F818005946B0FBF3F0FDF747F8FDF702
:1042800063FB7848FDF760FB5946D8F820000A2305
:10429000B0FBF3F0FDF73AF8FDF756FB7648FDF773
:1042A00053FB84E001210720FDF7CEFA0121022013
:1042B00044E7724B1B68B3F57A7F06D900210846A4
:1042C000FDF7C2FA6E48FDF73FFB6E4800F0A4FF11
:1042D000019B002219786C4800F0DCFF694800F06F
:1042E0009BFF9AF800100022684800F0D3FF654851
:1042F00000F092FF31680022654800F0CBFF614872
:1043000000F08AFF29680022624800F0C3FF5D4880
:1043100000F082FF604B00221978604800F0BAFF7D
:10432000584800F079FFD9F8001000225C4800F0EE
:10433000B1FF544800F070FF00223968594805B0B9
:10434000BDE8F04F00F0A6BF012804D1013B5BB2ED
:10435000002B2ADB237094F90030002B3FF436AF9A
:1043600094F90080B8F1010F21D10021DFF840B1AC
:104370000846FDF769FADBF81000FCF74FFFFDF780
:10438000E3FA3C48FDF7E0FA0A23DBF8180041465F
:10439000B0FBF3F0FCF7BAFFFDF7D6FA3148FDF7B2
:1043A000D3FA4146DBF8200071E70323237094F928
:1043B0000080B8F1020F22D100210846FDF744FA2F
:1043C00001214046FDF768FA00210120FDF73CFA83
:1043D0003548FDF7B9FA4FF461633868B0FBF3F084
:1043E000FCF71CFFFDF7B0FA3048FDF7ADFA0320EB
:1043F0000121FDF729FAD9F80000FDF76FFF94F9C4
:104400000040032C7FF461AF00210846FDF71CFA41
:1044100001210020FDF740FA00210120FDF714FAE8
:104420002148FDF791FA4FF461632868B0FBF3F07F
:10443000FCF7F4FEFDF788FA1C48FDF785FA2046E4
:104440000121FDF701FA3068FDF748FF3DE7012142
:104450000720FDF7F9F901210220E4E66D070020AD
:104460004C080020EB5F0008B402002076610008D1
:1044700089070020C0600008D35E0008B407002050
:104480009461000800590008A5610008BA6100089D
:10449000CF610008DF61000874070020F7610008A1
:1044A0000F62000822620008856000087E61000833
:1044B000540100207FB50023754C009301930293B3
:1044C0000393E389734D9AB24FF4F023B3FBF2F3F5
:1044D000714A9BB21380A388E28999B2AB6A92B207
:1044E0004B43B3FBF2F30093009B02930298FDF75A
:1044F0007CF86A4B1A681044694A186011880131C7
:1045000009B21180118809B21F290FDD19686548A9
:104510000029B8BF1F31C1F34F1101800021118064
:10452000196003889BB2022B98BF01802388E2891F
:1045300099B2AB6892B24B43B3FBF2F30193019B88
:10454000594E03930398FDF74EF8584B1A681044E0
:10455000574A18601188013109B21180118809B2D7
:104560001F2908DD19680029B8BF1F3149113160C2
:104570000021118019606388E28999B22B6992B297
:104580004B43B3FBF2F30193019B03930398FDF7B5
:104590002BF8484B1A681044474A186011880131BB
:1045A00009B21180118809B21F2909DD1968434831
:1045B0000029B8BF1F314911016000211180196025
:1045C000E388E28999B2AB6992B24B43B3FBF2F351
:1045D0000193019B03930398FDF708F8384B1A6881
:1045E0001044384A18601188013109B211801188CD
:1045F00009B21F2909DD196833480029B8BF1F31E6
:10460000491101600021118019602389E28999B262
:104610002B6A92B24B43B3FBF2F30193019B0393DA
:104620000398FCF7E4FF294B1A681044284A1860E5
:104630001188013109B21180118809B21F2909DDE1
:10464000196824480029B8BF1F31491101600021B1
:10465000118019603368632B1F4B03DC32681A60CA
:1046600004B070BD154A1168B1F57A7F01DA12689D
:10467000F5E7154A1168B1F57A7FABBF154A1168A5
:1046800011680A22A8BF4FF47A724A43E7E700BFD5
:104690003A080020040000204A080020AC0700204F
:1046A000B0070020CE020020C8020020A40700208E
:1046B000A80700208C07002090070020BC020020E3
:1046C0009407002098070020C00200209C070020CB
:1046D000A0070020C4020020B402002038B5FDF776
:1046E000B1FD2A4A2A4C13680133136023889BB218
:1046F000042B03D900232380FFF7DCFE254A13880F
:104700009BB2632B84BF00231380234B198889B28B
:10471000B1F57A7F2DD30021204819802049056802
:104720000968294401601F490978012901BF1E4811
:104730000168013101601D490978012901BF1C4848
:104740000168013101601B490978012901BF1A483C
:104750000168013101601949086801300860096881
:1047600011F0010F0CBF4FF400404FF0004014490E
:1047700008612188013189B221801188013189B213
:1047800011801A88013292B21A8038BDB407002015
:10479000B0020020AE020020AC0200207007002012
:1047A000B40200206707002068070020740700207B
:1047B000780700208A070020B8070020CC070020D7
:1047C0000008014010B51D4C236843F4803323607A
:1047D00023689A03FCD5636823F47C1343F4A02375
:1047E0006360E36A23F00F03E362236843F080739E
:1047F000236023689B01FCD5636823F0F0036360AA
:10480000636823F4E0636360636823F46053636068
:10481000636823F0030343F002036360636803F0FB
:104820000C03082BFAD1064800F090FF044800F072
:104830009BFF636823F44043636010BD0010024097
:1048400000366E012DE9F04FCA4D91B00120FDF701
:1048500095F8EB69DFF870A343F08053EB61EB69E7
:10486000C54A03F080530093009BDAF80C10DFF880
:104870005C8321F4E0610904090C0A43CAF80C20A6
:10488000BE4ABF4E5168002421F0E061516051687A
:104890004FF0010B41F000715160FFF793FF1422BC
:1048A000002109A800F098FF2020FDF767F80420F8
:1048B000FDF764F80820FDF761F84FF60242C8F8EA
:1048C00014204FF409420227726140F202224FF095
:1048D0000409404609A9CDE9092BCDE90B7400F084
:1048E000EFFDA84A404609A9CDE9092B0B97CDF861
:1048F000309000F0E5FDA44A09A93046CDE9092B26
:10490000CDE90B7400F0DCFD08234FF2F00209A999
:104910004046CDE90923CDF834B000F0D1FD6A69F5
:1049200042EA0B026A616A69984D02EA0B0201923F
:10493000019ADAF80C00C0F30220FDF7ADF94FF44C
:10494000006200FA09F0C0B285F80B0321462A6024
:1049500009A81C2200F040FF1422214604A800F000
:104960003BFF4FF48040FDF709F84846FDF706F895
:104970000922874B04A9CDE9043203223046CDE950
:10498000062400F09DFD834A04A93046CDE90429A0
:1049900000F096FDDAF80C00C0F30220FDF77CF978
:1049A000202300FA09F0C0B285F825036B607A4D28
:1049B00009A9EB68284643F08003EB604FF41643E7
:1049C000CDE909340C23CDE90B44CDE90D340F9426
:1049D00000F050FE2B69142223F490432B616B6985
:1049E000214623F02A036B61EB6804A843F40053CB
:1049F000EB60CDE9024400F0EFFE1422214609A845
:104A000000F0EAFE4FF40070FCF7B8FF4846FCF7F0
:104A1000B5FF0820FCF7B2FF43F63E6309A9304614
:104A2000CDE9093400F04CFD40F20113404609A9DC
:104A3000CDE9093400F044FD584B4FF480781A68F2
:104A4000A5F5A05522F4804222F010021A601A68DF
:104A500002A922F4405242F400521A601A68284611
:104A600042F020021A601A6822F040021A601A68A6
:104A700042F080021A601A6822F4407242F4807296
:104A80001A601A6822F4406242F480621A60444A52
:104A90009A60444ADA605A68120C120442F0080222
:104AA0005A601A6842EA0B021A600294CDF80C8030
:104AB00000F0CFFC4FF460224FF4E00304A9284635
:104AC000CDE90423CDE90647CDF8208000F0D6FCDF
:104AD00035494FF40070FDF7C3F83348FDF796F8F9
:104AE000324940F20520FDF7BBF83048FDF78EF85B
:104AF0002F4940F20A20FDF7B3F82D48FDF786F85C
:104B00002C4940F20F20FDF7ABF82A48FDF77EF85C
:104B100029494FF40570FDF7A3F82748FDF776F80B
:104B2000264940F21920FDF79BF82448FDF76EF85E
:104B300023494046FDF794F82148FDF767F8AB6834
:104B4000204943F40003AB6040F20510FDF788F8FC
:104B50001C48FDF75BF8AB68642043F40003AB60CE
:104B6000AB6843EA0B03AB60FCF73CFAAB6843EA83
:104B700009032DE0001002400003FA050000014087
:104B800000080140FC00FC048900890400E100E009
:104B9000020002040400040400380140080002403E
:104BA0004C2401403A08002001003002020060025B
:104BB000030090020400C0020500F0020800800318
:104BC000100020811100508100ED00E0000C014038
:104BD000AB60AC6814F00404FBD1AB6843F4A003F1
:104BE000AB60FCF7C0FE00F081FA4FF47A72AF4B75
:104BF0001B68B3FBF2F3013BB3F1807F08D2F021D5
:104C0000AB4A5360AB4B83F82310072394601360C7
:104C10004FF4004300243361A74DFEF7BDFCA748C5
:104C20002C60FCF791FEFCF7EDF9A54800F0F4FAD2
:104C3000A24800F08BFAFCF7AFFD21462046FCF7B6
:104C400003FE4FF47A70FCF7CDF9FBF76DFB2B6890
:104C5000172B88BF2C60FBF741FE044668B94FF460
:104C60007A70FCF7BFF9FBF739FE0446944800F070
:104C7000D3FA944800F06AFA34B1012C14D1904868
:104C800000F0CAFA90480DE09048FCF75DFE4FF442
:104C90007A60FCF7A7F98E48FBF7DEFF884800F042
:104CA000BBFA884800F052FA8A4B8B4C1A698B4B3E
:104CB0001A604FF4616322695343894A1360A26802
:104CC000884B1A60236C884A1360884A1360FBF78C
:104CD0008DFF4FF47A70FCF785F9FCF723FE8448CA
:104CE000FCF7A6FCA368012B12D18248FCF786FCD6
:104CF000814D804F814E2B7801332B70FDF7D4FA14
:104D0000431E0446032B20D8DFE803F01A3A3E4541
:104D1000022B01D17A48E9E7032B01D17948E5E775
:104D2000042B01D17848E1E7052B01D17748DDE775
:104D3000062B01D17648D9E7072BD6D17548D5E7A0
:104D4000FCF756FC4068FCF759FCFCF751FC874225
:104D500025D12046FDF742FB337803F0FF015BB914
:104D6000FEF71AFC6C4B19706C4B19706C4B196088
:104D70006C4B19606C4B19606420FCF733F9BAE78F
:104D8000FCF736FC0068DEE70220FCF75BFCFCF772
:104D90002FFCC068D7E7FCF72BFC8068D3E7FCF753
:104DA00027FC574B834203D12046FDF7BFFFD3E7D3
:104DB000FCF71EFC534B834203D12046FEF7F4FB65
:104DC000CAE7FCF715FC504B834203D12046FEF79F
:104DD0005FFDC1E7FCF70CFC4C4B834203D120463E
:104DE000FEF712FFB8E7FCF703FC504B834203D1F8
:104DF0002046FFF763F8AFE7FCF7FAFB444B83422A
:104E000003D12046FEF77EF8A6E7FCF7F1FB414B05
:104E1000834203D12046FEF7C5FA9DE7FCF7E8FB85
:104E2000434B834203D12046FDF7D6FF94E7FCF7BE
:104E3000DFFB404B834203D12046FDF70BFC8BE7A1
:104E4000FCF7D6FB3C4B834203D12046FCF74CFFDA
:104E500082E7FCF7CDFB394B834203D12046FDF7B7
:104E600071FD79E7FCF7C4FB354B834203D1204643
:104E7000FDF732FD70E7FCF7BBFB324B834203D1F9
:104E80002046FDF7CDFD67E7FCF7B2FB2E4B8342D2
:104E900003D12046FDF78CFD5EE7FCF7A9FB2B4B09
:104EA000834255D12046FDF761FE55E78C02002074
:104EB00010E000E000ED00E0540800207A0200203D
:104EC000125C000886620008BC5A00089E62000856
:104ED000AF620008F40000205401002060070020A9
:104EE000F4090020F8090020F009002074020020D5
:104EF0002D1B0008F46900086507002080070020CA
:104F00004C6A0008A46A0008FC6A0008546B000898
:104F1000046C00085C6C0008810700206D0700200D
:104F200070070020B802002078070020806B00087E
:104F3000B46C00080C6D000858660008C8630008CF
:104F40007063000878640008206400088065000829
:104F5000FCF74EFB3A4B834203D12046FDF7CEFDD2
:104F6000FAE6FCF745FB374B834203D12046FDF7B9
:104F70008DFDF1E6FCF73CFB334B834203D1204629
:104F8000FDF72CFEE8E6FCF733FB304B834203D100
:104F90002046FCF7F3FEDFE6FCF72AFB2C4B8342AE
:104FA00003D12046FCF746FFD6E6FCF721FB294B50
:104FB000834203D12046FCF763FFCDE6FCF718FBE4
:104FC000254B834203D12046FCF7D2FFC4E6FCF711
:104FD0000FFB224B834203D12046FCF7EBFFBBE6DD
:104FE000FCF706FB1E4B834203D12046FDF704F875
:104FF000B2E6FCF7FDFA1B4B834203D12046FDF7D6
:1050000019F8A9E6FCF7F4FA174B834203D12046BE
:10501000FDF72EF8A0E6FCF7EBFA144B834203D120
:105020002046FDF781F897E6FCF7E2FA104B834241
:1050300003D12046FDF7CEF88EE6002333708BE6D1
:1050400028650008D0640008C865000810660008DC
:10505000B0660008DC66000860670008B8670008F2
:105060001068000868680008C06800089C690008AB
:10507000706900087047FEE7FEE7FEE7FEE770474D
:1050800070477047FFF72ABB7047000014490B6850
:105090001B0624D5134BB3F8582492B2DAB1B3F8F7
:1050A0005824013A92B2A3F85824B3F8562492B285
:1050B000501C80B2A3F856041A4492F86C20D2B265
:1050C0004A60B3F8562492B2B2F57A7F07D1002233
:1050D000A3F856247047CB6823F08003CB60704759
:1050E00000380140D002002070470000124A10B57D
:1050F0005368124903F00C03082B0AD0104B0B60C5
:105100005368104AC3F30313D25C0B68D3400B609F
:1051100010BD53685068C3F38343C00341BFD06AD6
:10512000074C00F00F0001304CBFB4FBF0F0064814
:1051300002334343E3E700BF001002408C0200202B
:1051400000127A00356D000800093D000021304A48
:1051500010B5D36823F08003D3602E4B027802F0A1
:10516000FF045ABBB3F8542492B2511C89B2A3F87D
:1051700054140A211A4482F86C10B3F8542492B2E1
:10518000B2F57A7F08BFA3F85444B3F8582401322B
:1051900092B2A3F85824B3F85A14B3F8582489B239
:1051A00092B291423EBFB3F8582492B2A3F85A2467
:1051B000174AD36843F08003D36010BDB3F854247A
:1051C00092B2541CA4B2A3F8544410F8014B1A44F0
:1051D000E4B282F86C40B3F8542492B2B2F57A7F0C
:1051E00008BFA3F85414B3F85824013292B2A3F8BC
:1051F0005824B3F85A44B3F85824A4B292B2944253
:105200003EBFB3F8582492B2A3F85A24A6E700BFD1
:1052100000380140D002002000211C4A10B5D3689C
:1052200023F08003D3601A4B02782AB9174AD36857
:1052300043F08003D36010BDB3F8542492B2541CE1
:10524000A4B2A3F8544410F8014B1A44E4B282F813
:105250006C40B3F8542492B2B2F57A7F08BFA3F839
:105260005414B3F85824013292B2A3F85824B3F876
:105270005A44B3F85824A4B292B294423EBFB3F851
:10528000582492B2A3F85A24CEE700BF0038014058
:10529000D002002037B501918DF803209DF803302E
:1052A00004460198002B3FD1FBF7B8FF0025474A81
:1052B000D36823F08003D360454B227802F0FF01CE
:1052C000002A36D10138B3F8542410F8014F92B2B5
:1052D000002C57D1511C89B2A3F854140A211A4446
:1052E00082F86C10B3F8542492B2B2F57A7F08BFFA
:1052F000A3F85444B3F85824013292B2A3F85824C6
:10530000B3F85A14B3F8582489B292B291423EBF0E
:10531000B3F8582492B2A3F85A242C4AD36843F025
:105320008003D36003B030BD9DF80310FBF7EEFFA0
:10533000BCE7B3F8542492B2511C89B2A3F85414B8
:1053400014F8011B1A44C9B282F86C10B3F8542443
:1053500092B2B2F57A7F08BFA3F85454B3F8582438
:10536000013292B2A3F85824B3F85A14B3F858246F
:1053700089B292B291423EBFB3F8582492B2A3F8D8
:105380005A249AE7541CA4B2A3F8544404781A444B
:1053900082F86C40B3F8542492B2B2F57A7F08BF19
:1053A000A3F85414B3F85824013292B2A3F8582445
:1053B000B3F85A44B3F85824A4B292B294423EBF10
:1053C000B3F8582492B2A3F85A247CE7003801407D
:1053D000D0020020024B1A681206FCD558607047B4
:1053E00000380140014608B50B7803B908BD11F833
:1053F000010BFFF7EFFFF7E708B5FFF7F3FFBDE895
:1054000008400A20FFF7E6BF002103E00B4B5B5882
:10541000435004310A480B4B42189A42F6D30A4AC9
:1054200002E0002342F8043B084B9A42F9D3FFF70D
:105430005BFE00F09FF9FFF705FA7047586D000812
:10544000000000209002002090020020FC090020B3
:10545000FEE70246806810B510F001000CD15368D9
:105460004C6823F48073234353609368096823F4E2
:1054700000630B43936010BD0120FCE7836810B507
:10548000DB071BD443684A6823F4684312B18C6875
:1054900013432343436083680C6823F4602323F49D
:1054A00081732343CC68096923430B438360C36A38
:1054B00023F470031343C362002010BD0120FCE7F6
:1054C0002DE9F04F0D680446C5F30F2595FAA5F2B6
:1054D0004FF00F0AB2FA82F24FF0030904274FF09F
:1054E000011C40F2011E35FA02F001D1BDE8F08F37
:1054F000012393402B425ED0072A85BFA2F1080307
:105500000CFA03F30EFA02F343F08063E0681E0A1C
:1055100096FAA6F8B8FA88F820EA0606086900FAAA
:1055200008F03043E0604FEA136893FAA3F6B6FA46
:1055300086F693FAA3FBBBFA8BFBB6000AFA06F0D9
:1055400054F808604FEA8B0B26EA0006486800FA18
:105550000BFB46EA0B0644F80860486820F0080098
:10556000012828D193FAA3F0B0FA80F093FAA3FBB4
:10557000BBFA8BFB800009FA00F026EA0006886877
:105580004FEA8B0B00FA0BFB46EA0B0644F8086067
:1055900093FAA3F0B0FA80F093FAA3F3B3FA83F38B
:1055A000800007FA00F026EA0000CE689B009E40CB
:1055B000064344F80860013295E70000034B044AB3
:1055C0005B68C3F30313D35CD840704700100240FC
:1055D000356D0008034B044A5B68C3F30223D35CB8
:1055E000D840704700100240456D0008034B044A44
:1055F0005B68C3F3C223D35CD840704700100240FD
:10560000456D0008094B5A68D20341BFD86A084A61
:1056100000F00F00013048BFB2FBF0F05B6858BFEC
:105620000448C3F3834302335843704700100240D9
:1056300000127A0000093D00044B5B6803F00C0384
:10564000082B01D1FFF7DEBF014870470010024070
:1056500000127A0008B50146FFF7EEFF0860FFF779
:10566000ADFF4860FFF7B6FF88604868FFF7BEFFF0
:10567000C86008BD30B5C36804469B040D4685B0BC
:1056800002D5012005B030BD4B68C968C2680B4324
:10569000296922F416420B43A96922F00C020B433C
:1056A0001343C3600369AA6823F44053134303619F
:1056B00043696A6923F44073134343616846FFF703
:1056C000C9FF1F4B9C4224D103990029D9D02A68D5
:1056D000002AD6D019234B43A969B1F5004F4FF0EA
:1056E00064011FD15200B3FBF2F3B3FBF1F001FBF5
:1056F0001033DB003233B3FBF1F303F007025B003E
:1057000002EB001203F4F87313449BB20020A36071
:10571000B8E70C4B9C4201D10299D6E70A4B9C4258
:10572000AFD1F9E79200B3FBF2F3B3FBF1F201FB67
:1057300012331B013233B3FBF1F303EB0213E4E743
:105740000038014000440040004800404FF47A73A4
:10575000B0FBF3F00022034B013858609A60052239
:105760001A60704710E000E0014B1860704700BFFE
:105770008C02002070B500260C4D0D4C641BA4104B
:10578000A64209D100F030F800260A4D0A4C641BED
:10579000A410A64205D170BD55F8043B98470136C8
:1057A000EEE755F8043B98470136F2E7506D0008E4
:1057B000506D0008506D0008546D00080A44914275
:1057C00000F1FF3300D1704710B511F8014B914241
:1057D00003F8014FF9D110BD03460244934200D1B2
:1057E000704703F8011BF9E7F8B500BFF8BC08BC27
:1057F0009E467047F8B500BFF8BC08BC9E4670478F
:1058000000070E091C1B1215383F363124232A2DA0
:1058100070777E796C6B6265484F464154535A5D90
:10582000E0E7EEE9FCFBF2F5D8DFD6D1C4C3CACD80
:1058300090979E998C8B8285A8AFA6A1B4B3BABD70
:10584000C7C0C9CEDBDCD5D2FFF8F1F6E3E4EDEA60
:10585000B7B0B9BEABACA5A28F88818693949D9A50
:105860002720292E3B3C35321F18111603040D0A40
:105870005750595E4B4C45426F68616673747D7A30
:10588000898E878095929B9CB1B6BFB8ADAAA3A420
:10589000F9FEF7F0E5E2EBECC1C6CFC8DDDAD3D410
:1058A000696E676075727B7C51565F584D4A434400
:1058B000191E171005020B0C21262F283D3A3334F0
:1058C0004E49404752555C5B7671787F6A6D6463E0
:1058D0003E39303722252C2B0601080F1A1D1413D0
:1058E000AEA9A0A7B2B5BCBB9691989F8A8D8483C0
:1058F000DED9D0D7C2C5CCCBE6E1E8EFFAFDF4F3B0
:1059000044454255473A200073697A653A2000764B
:10591000616C3A20004661696C20746F2072656189
:105920006420616464726573733A20004545707247
:105930006F6D56616C7565206973203A2000464C86
:105940004153485F424153452B313032342A313282
:1059500033203A200043616C6962726174696F6E32
:105960005772697465546F466C61736820004361B7
:105970006C6962726174696F6E466163746F72798B
:105980005772697465546F466C6173682000436197
:105990006C6962726174696F6E5265616446726FA0
:1059A0006D466C617368200043616C69627261745A
:1059B000696F6E5265616446726F6D466C617368A3
:1059C000466F725665726966792000536574746912
:1059D0006E67735772697465546F466C61736820A3
:1059E0000053657474696E6773466163746F72798E
:1059F0005772697465546F466C6173682000536513
:105A00007474696E67735265616446726F6D466C3B
:105A1000617368200053657474696E6773526561C1
:105A20006446726F6D466C617368466F725665723C
:105A30006966792000446174615768656E506F77BC
:105A400065724F66665F466163746F72795F577205
:105A5000697465546F466C617368200044617461B9
:105A60005768656E506F7765724F66665265616400
:105A700046726F6D466C61736820004461746157B3
:105A800068656E506F7765724F66665265616446F1
:105A9000726F6D466C617368466F725665726966A7
:105AA000792000526561642066726F6D20454570F3
:105AB000726F6D202D204641494C20005265616473
:105AC0002066726F6D20454570726F6D202D2053DA
:105AD00055434345535300466163746F727957725F
