:020000040800F2
:10000000180C002085020008CD020008CD0200086F
:10001000CD020008CD020008CD020008000000005B
:10002000000000000000000000000000CD020008F9
:10003000CD02000800000000CD020008CD0200083B
:10004000CD020008CD020008CD020008CD02000854
:10005000CD020008CD020008CD020008CD02000844
:10006000CD020008CD020008CD020008CD02000834
:10007000CD020008CD020008CD020008CD02000824
:10008000CD020008CD020008CD02000800000000EB
:10009000000000000000000000000000CD02000889
:1000A000CD0200081D150008CD020008CD02000891
:1000B000CD0200085526000800000000CD0200080F
:1000C000CD0200080000000000000000CD02000882
:1000D00000000000013C0008CD0200080000000004
:1000E000CD020008CD020008CD020008000000008B
:1000F0000000000000000000000000000000000000
:1001000000000000000000000000000000000000EF
:100110000000000000000000CD020008F1140008FB
:100120005FF808F1014B1868704700BF000000201D
:10013000084B10B598420BD050B1074B074C1B68C9
:1001400020600BB11830984723681B6903B19847AA
:1001500010BD00BFA83D0008740200200000002070
:10016000024B1860024B1868FFF7E2BF74020020D0
:100170000000002008B5054B054A1B68934203D0D8
:1001800013B15B6903B1984708BD00BF00000020B0
:10019000A83D0008224A038890429BB212D002F583
:1001A000006290420ED0B0F1804F0BD0A2F5983291
:1001B000904207D002F58062904203D002F580623F
:1001C000904203D14A8823F070031343154A9042AA
:1001D00008D002F58062904204D023F44073CA88AC
:1001E0009BB2134303808B8883850B8803850C4B5C
:1001F00098420FD003F5006398420BD003F540639B
:10020000984207D003F58063984203D003F58063DA
:10021000984201D10B7A038601238382704700BF85
:10022000002C0140001000404FF6FF738380002334
:100230000380C380438003727047038819B19BB267
:1002400043F0010303E023F001031B041B0C0380B4
:10025000704783899BB20AB1194301E023EA010187
:1002600081817047038A828911EA030092B203D028
:1002700011420CBF002001207047C94389B201829E
:100280007047000008B50C4A0C4B0D4903E052F8CA
:10029000040B43F8040B8B42F9D30A480A494FF088
:1002A00000028842B8BF40F8042BFADB00F018FACD
:1002B000BDE8084001F0B4BD9350000800000020E4
:1002C000740200207402002018080020FEE70000DD
:1002D0002DE9F843564D0646286802F0A1FD2B682B
:1002E00011210024594304E00A19AA18013413719A
:1002F000E4B2035D4E4A002BF6D113681121594335
:10030000081910183A25057104E00F2C09D80D19A9
:100310005519287116F8010B0134E4B20028F4D104
:100320000DE0112202FB034241498A18002111719C
:1003300005E01819081801340271E4B203E0112233
:100340003B49534320220F2C394DF2D9002220463D
:10035000384903F0CFFC2B68112202FB0344013320
:100360002A190024172B14712B6057D90A26A0468E
:100370002F46204602F054FD4FF0110E00230EFBD5
:1003800004FE05E00EEB0301691801330A71DBB2CC
:10039000C25C1121002AF5D101FB04F27143D0188F
:1003A00038184FF03A0E013380F804E0DBB294467F
:1003B0005FFA84FE681810E0BEF1090F05D901EB61
:1003C0000309A94499F8049003E000EB030999F8A4
:1003D0000590013382F80490DBB20CEB0302AA18FB
:1003E00092F80490B9F1000FE6D1013B1121DBB284
:1003F0006143202204E0C818281801330271DBB2DF
:100400000F2BF8D9112202FB04330134FB180136FB
:100410000E2C83F80480ACD1054B1C6002F0A2FFC7
:10042000034B054918680022BDE8F84303F062BC9D
:10043000D4040020C03D0008C53D00082DE9F04768
:10044000554F054638680E4602F0EAFC3B6811211C
:100450000024594304E00A19BA1801341371E4B2B4
:10046000035D4D4A002BF6D1136811215943081939
:100470001018067104E00F2C09D80F19D71938711C
:1004800015F8010B0134E4B20028F4D10DE011227B
:1004900002FB034240498A180021117105E0181936
:1004A000081801340271E4B203E011223A495343BF
:1004B00020220F2C384DF2D900222046374903F074
:1004C00019FC2B68112202FB034401332A19002472
:1004D000172B14712B6054D90A27A146A846204631
:1004E00002F09EFC4FF0110E00230EFB04FE05E00F
:1004F0000EEB0301691801330A71DBB2C25C1121F2
:10050000002AF5D101FB04F27943D01840440133AD
:100510000671DBB294465FFA84FE681810E0BEF103
:10052000090F05D901EB030AAA449AF804A003E0D5
:1005300000EB030A9AF805A0013382F804A0DBB2AD
:100540000CEB0302AA1892F804A0BAF1000FE6D14E
:10055000013B1121DBB26143202204E0C8182818B6
:1005600001330271DBB20F2BF8D9112202FB0433E5
:100570000134434401370E2C83F80490AFD1064B6D
:100580001C6002F0EFFE044B054918680022BDE82C
:10059000F04703F0AFBB00BFD4040020C03D00080B
:1005A000C53D000810B5384C00222068374903F0DB
:1005B000A1FBA0680022364903F09CFB20690022C1
:1005C000344903F097FBA0690022334903F092FB02
:1005D000206A0022314903F08DFBA06A00223049D5
:1005E00003F088FB206B00222E4903F083FBA06BF5
:1005F00000222D4903F07EFB206C00222B4903F0E2
:1006000079FBA06C00222A4903F074FB206D0022C4
:10061000284903F06FFBA06D0022274903F06AFB15
:10062000206E0022254903F065FBA06E00222449BC
:1006300003F060FB206F0022224903F05BFBD4F83B
:1006400088000022204903F055FBA06F1F490022BB
:1006500003F050FBD4F8800000221D4903F04AFB50
:10066000D4F8900000221B4903F044FBD4F8980012
:100670000022194903F03EFBD4F8A00017490022DC
:10068000BDE8104003F036BB04000020C93D00085F
:10069000DC3D0008FA3D0008193E0008353E000820
:1006A000523E0008693E0008803E0008973E000860
:1006B000B53E0008CD3E0008E13E0008FA3E0008C5
:1006C000073F0008143F0008213F00082F3F0008A3
:1006D000413F0008543F0008703F0008983F000861
:1006E000314B82B01A6842F001021A6059682F4AF1
:1006F0000A405A601A6822F0847222F480321A602A
:100700001A6822F480221A605A6822F4FE025A60A3
:100710004FF41F029A600022DA62009201921A6876
:1007200042F480321A601A6802F400320192009A90
:1007300001320092019A1AB9009AB2F5A06FF2D173
:10074000194B1B6813F4003318BF01230193019B5D
:10075000012B23D1144B5A685A605A685A605A6860
:100760005A605A6822F47C125A605A6842F498120D
:100770005A601A6842F080721A6019680A4A890140
:10078000FBD5536823F003035360536843F002031F
:100790005360536803F00C03082BFAD1044B4FF05D
:1007A00000629A6002B07047001002400000FFF83B
:1007B00000ED00E084B0ADF80600BDF806304FF45F
:1007C000FA629BB2534301E0039B013B0393039BFB
:1007D000002BF9D104B0704784B0ADF80600BDF825
:1007E00006309BB25B0001E0039B013B0393039B3C
:1007F000002BF9D104B0704710B5074C4FF480437B
:1008000023610220FFF7E8FF4FF0804302202361BD
:10081000BDE81040FFF7E0BF000C014070B50F4C81
:100820004FF07C454FF4805625612661FFF7E4FFC9
:100830000120FFF7BFFF25612661FFF7DDFF0120E3
:10084000FFF7B8FF4FF4806325612361FFF7D4FF02
:100850000120BDE87040FFF7ADBF00BF000C0140B4
:10086000254B4FF07C4270B504460D461A6111B11C
:100870004FF400421A61E20644BF4FF400521A617D
:100880001D4B14F0200F1CBF4FF480521A616606F6
:1008900044BF4FF400621A61174E14F0800F1CBF62
:1008A0004FF480633361FFF7A7FF4FF07053E00709
:1008B000336103D5104B4FF400521A61A10703D5E1
:1008C0000D4B4FF480521A61620703D50A4B4FF467
:1008D00000621A61230703D5074B4FF480621A6147
:1008E000FFF78AFF0220FFF765FF1DB1024B4FF0B3
:1008F00000421A6170BD00BF000C0140034610B9F0
:10090000082019460BE021B90AB90C2003E00D209C
:1009100005E012B90E20114601E00F200021FFF77B
:100920009FBF01200021FFF79BBF08B56420FFF7A0
:1009300041FFFFF773FF012001460022FFF7DEFFB2
:10094000BDE80840FFF7EDBFC0B20121FFF788BF47
:10095000054B1870597011B940F0800002E040F06A
:10096000C0000021FFF77CBF880200202DE9F8437A
:1009700089460646DFF86C800127194C29E0B22829
:1009800001D1492011E0AF2801D103200DE0DE287C
:1009900002D10120014609E0AA2801D1022004E089
:1009A000BF2884BF404410F8C00C0121FFF758FF56
:1009B000237865780133DBB2237055B9082B08D151
:1009C000B9F1020F05D128460121FFF7C1FF2570BB
:1009D000677016F8010B0028D1D1BDE8F88300BF7D
:1009E0008802002000020020C00040F0400038B51E
:1009F000C0B20D460021FFF733FF0024285D01211E
:100A00000134FFF72DFF082CF8D180200021BDE82C
:100A10003840FFF725BF2DE9F341002504241527B1
:100A20001F264FF00E08284669468DF800408DF8C5
:100A300003408DF805408DF801708DF802808DF827
:100A400004508DF806608DF80760FFF7CDFF012098
:100A500069468DF802408DF806408DF800708DF8DB
:100A600001808DF803508DF804508DF805508DF8F5
:100A70000760FFF7B9FF022069468DF801408DF845
:100A800005408DF800508DF802808DF803708DF8C8
:100A900004508DF806608DF80760FFF7A5FF03206E
:100AA00069468DF800408DF803408DF806408DF8BA
:100AB00001808DF802708DF804508DF805508DF886
:100AC0000760FFF791FF204669468DF800408DF8DA
:100AD00003408DF804408DF807408DF801808DF8B3
:100AE00002708DF805708DF80680FFF77DFF0223F8
:100AF0008DF800300A238DF803308DF804301C2364
:100B000007248DF805308DF8063005200823694646
:100B10008DF807308DF801408DF80240FFF764FF33
:100B20000F238DF8003005238DF801308DF8023049
:100B30008DF803308DF804300620092369468DF8BE
:100B400006308DF805708DF80750FFF74DFF112323
:100B50008DF800308DF801308DF8023020460123E9
:100B600069468DF803608DF804308DF805308DF8F6
:100B700006308DF80750FFF737FFBDE8FC810221F2
:100B8000FFF7F4BE10B5044608461146FFF7E0FE35
:100B900020460221BDE81040FFF7E8BE08B5364BFD
:100BA0005A6822F440725A605A6842F400725A60DD
:100BB0005A6822F440625A605A6842F480625A606D
:100BC0005A6822F440525A605A6842F400525A60FD
:100BD0005A6822F440425A605A6842F480425A608D
:100BE0005A6822F440325A605A6842F400325A601D
:100BF0005A6822F440225A605A6842F480225A60AD
:100C00005A6822F440125A605A6842F400125A603C
:100C10005A6822F440025A605A6842F480025A60CC
:100C20005A6822F040725A605A6842F000725A6064
:100C30005A6822F040625A605A6842F080625A60F4
:100C40005A6822F040525A605A6842F000525A6084
:100C50005A6822F040425A605A6842F080425A6014
:100C6000FFF763FEFFF75DFE002101200A46BDE8A5
:100C70000840FFF743BE00BF000C0140CB782DE9D0
:100C8000F04303F00F02DB0648BF8B780E8848BFA5
:100C90001A4316F0FF0F1FD0046800234FF001081D
:100CA0004FF00F0C08FA03F707EA0605BD420FD113
:100CB0009F000CFA07F902FA07F724EA09043C43FB
:100CC000CF78282F01D1456102E0482F08BF056188
:100CD0000133082BE6D104600E88FF2E21D9446829
:100CE00000234FF001084FF00F0C03F1080708FA3A
:100CF00007F707EA0605BD420FD19F000CFA07F976
:100D000002FA07F724EA09043C43CF78282F01D1DF
:100D1000456102E0482F08BF05610133082BE4D18B
:100D20004460BDE8F083836819420CBF00200120B5
:100D300070470000014B00221A8070478C0200208F
:100D400002F082BE08B502F0C5FE0248BDE80840C8
:100D5000FFF7BEBA8449000818B100210A46FFF720
:100D600011BF704710B5134C002290B06068124953
:100D700002F0C0FF626849F6AF239A4217D90BA967
:100D8000A06802F0CEF960684FF46163B0FBF3F045
:100D900001A902F07FF809490BAA06AB02F02DF970
:100DA00006A80121FFF74AFB06A802F063FF10B076
:100DB00010BD00BF8C02002090490008984900082F
:100DC00010B50F4C49F6AF23E26890B09A4214D99F
:100DD0000BA9206902F0A5F9E0684FF46163B0FB4C
:100DE000F3F001A902F056F806490BAA06AB02F08F
:100DF00004F906A80221FFF721FB10B010BD00BFC7
:100E00008C0200209849000884B0ADF80600BDF8B7
:100E100006304FF416629BB2534301E0039B013B43
:100E20000393039B002BF9D104B0704708B507204A
:100E30000121FFF78DFDFF200121FFF711FD02F0D9
:100E400003FE044BC8209A68034B1A60BDE80840B3
:100E5000FFF7DABF540000208406002008B53E4B9F
:100E600093F9140060B90146FFF772FD3B48FFF7A4
:100E700086FE3B4B4FF487629A6102F5BE721A629E
:100E8000354B93F91430012B0DD100200146FFF7AB
:100E90005FFD3448FFF773FE314B4FF496729A6151
:100EA0004FF4D2721A622C4B93F91430022B0DD1ED
:100EB00000200146FFF74CFD2B48FFF760FE284B52
:100EC0004FF48C729A614FF4B9721A62224B93F903
:100ED0001430032B0CD100200146FFF739FD2348C5
:100EE000FFF74DFE1E4BA0229A614FF48C721A62DE
:100EF000194B93F91430042B0DD100200146FFF754
:100F000027FD1B48FFF73BFE154B4FF448729A61D3
:100F10004FF4AA621A62104B93F91430052B0CD1CE
:100F200000200146FFF714FD1248FFF728FE0C4B86
:100F300064229A614FF4FA621A62074B93F9142003
:100F4000062A01D100221A7502F07EFD4FF41670B8
:100F5000BDE80840FFF758BF8C0200209C490008FC
:100F600054000020AD490008BE490008CF490008E0
:100F7000E0490008F149000882B00190019A4FF061
:100F8000804392B29A8500229A8409221A80198A93
:100F90004FF08042C907FAD5138A23F001031B04DE
:100FA0001B0C138202B07047022838B51E4B09D1C2
:100FB0001A881E49013292B209681A8012B28A4216
:100FC00013D310E0012810D11A88013A92B210040C
:100FD0001A8003D5154A1268013A1A80124BB3F9E8
:100FE0000020002A01DA00221A8000200F4C01465E
:100FF000FFF7AEFC0C4D234653F8040BB5F9002067
:101000000138801A112202FB0030FFF7B8FDB5F954
:1010100000000022064902F06DFE2068054900220A
:10102000BDE8384002F066BE8C020020D4040020E7
:10103000024A00080F4A000838B504460B4D00204C
:101040000146FFF785FC286801F0EAFEFFF797FDEF
:101050000748FFF794FD022C06D12A68054B9A60D9
:10106000BDE8384002F036BD38BD00BF7802002030
:10107000224A00080400002010B504460020014662
:10108000FFF766FC1648FFF77AFD022C27D102F025
:1010900049FC02F00DFC044600200146FFF758FC15
:1010A0001048FFF76CFD4FF4FA60FFF7ADFE00202B
:1010B0000146FFF74DFC012C08D10B48FFF75FFDFF
:1010C0000A48FFF705F94FF4FA6004E00848FFF713
:1010D00056FD4FF47A60BDE81040FFF795BE10BD95
:1010E000314A0008424A0008534A0008644A00088E
:1010F000734A0008022810B50E4C02D1236901334F
:1011000003E0012802D12369013B2361002001464D
:10111000FFF71EFC206901F083FEFFF730FD064853
:10112000FFF72DFD23694FF461625A43034B1A60A8
:1011300010BD00BF54000020844A00087006002043
:10114000022810B5324B07D11A7D0132D2B2072ADC
:101150001A750BD1002208E0012807D11A7D013A47
:10116000D2B214061A7501D506221A75284C94F9C4
:10117000140028B90146FFF7EBFB2648FFF7FFFCF8
:1011800094F91430012B06D100200146FFF7E0FB53
:101190002148FFF7F4FC1E4C94F91430022B06D1C1
:1011A00000200146FFF7D4FB1C48FFF7E8FC94F948
:1011B0001430032B06D100200146FFF7C9FB184865
:1011C000FFF7DDFC124C94F91430042B06D10020FB
:1011D0000146FFF7BDFB1348FFF7D1FC94F914302B
:1011E000052B06D100200146FFF7B2FB0E48FFF7A2
:1011F000C6FC074B93F91430062B08D1002001469A
:10120000FFF7A6FB0948BDE81040FFF7B8BC10BDCA
:101210008C020020894A00089A4A0008AC4A00085B
:10122000BD4A0008CD4A0008DE4A0008EE4A000820
:10123000022810B50D4C02D1A3690A3303E001283E
:1012400002D1A3690A3BA36100200146FFF780FB9E
:10125000A0690A23B0FBF3F0012101F055FEFFF76E
:101260008EFC0348BDE81040FFF789BC5400002005
:10127000B9490008022810B50D4C02D1236A0A337F
:1012800003E0012802D1236A0A3B236200200146C1
:10129000FFF75EFB206A0A23B0FBF3F0012101F0A7
:1012A00033FEFFF76CFC0348BDE81040FFF767BC56
:1012B00054000020B9490008022810B50B4C02D197
:1012C000A36A013303E0012802D1A36A013BA362B0
:1012D00000200146FFF73CFBA06A01F0A1FDFFF7EB
:1012E0004EFC0348BDE81040FFF749BC5400002005
:1012F000FE4A0008022810B50B4C02D1236B0133C3
:1013000003E0012802D1236B013B23630020014647
:10131000FFF71EFB206B01F083FDFFF730FC034855
:10132000BDE81040FFF72BBC54000020FE4A000827
:10133000022838B51A4C02D1A36B013303E001280F
:1013400002D1A36B013BA36300200146FFF700FB22
:10135000A06B01F065FDFFF712FC1248FFF70FFCD0
:10136000206A0A250121B0FBF5F001F0CDFDFFF761
:1013700006FC0D48FFF703FC236AA06B6422584368
:10138000B0FBF2F01B1AB3FBF5F0012101F0BCFD3C
:10139000FFF7F5FB0548BDE83840FFF7F0BB00BF9D
:1013A00054000020074B00080A4B0008B949000808
:1013B00008B5084B1A68084B9B689A4209D1072068
:1013C0000121FFF7C5FAFF200121BDE80840FFF722
:1013D00047BA08BD840600205400002010B504461A
:1013E00000200146FFF7B4FA022C194B06D19A6887
:1013F0000132082A9A6009D1012206E0012C05D1A8
:101400009A68013A9A600AB907229A60104A93686A
:10141000013B062B18D8DFE803F00406080A0C0E7F
:1014200010000C480AE00C4808E00C4806E00C48A4
:1014300004E00C4802E00C4800E00C48FFF79FFB7A
:10144000BDE81040FFF7B4BF0123936010BD00BF9B
:10145000540000200D4B00081E4B00082F4B0008C5
:10146000404B0008514B0008624B0008734B0008CA
:1014700010B518481021FFF756FC80B115482021FF
:10148000FFF751FC68B113484021FFF74CFC50B105
:1014900010488021FFF747FCC0B9042204E0032272
:1014A00002E0022200E001220B4B40F2DC50D98A1C
:1014B0000CB2844203DD40F2B451D98204E0013120
:1014C00089B21429D98204D11A7610BD024B0022A8
:1014D000DA8210BD000C01408C020020034B002278
:1014E000187E00B1DA611A76704700BF8C020020C6
:1014F00008B508480121FEF7B5FE48B105480121AD
:10150000FEF7BBFEFFF7B4FF034B1A6A01321A6203
:1015100008BD00BF001400408C02002038B52548EB
:101520000121FEF79FFE002842D001212148FEF74D
:10153000A4FE214B1A68012A07DC204CE5681868D4
:1015400000B201F04BFD4519E5601B4B1A68022AF9
:1015500007DD1A4C6568186800B201F03FFD4519B7
:101560006560164B93F82420012A02D19A68013253
:101570009A6093F82530114A012B02D11369013387
:1015800013610E4B93F82620012A02D19A6A013288
:101590009A62DA6A0132DA62DB6A13F0010F084BF1
:1015A00003D14FF400421A6138BD4FF000421A6176
:1015B00038BD00BF00440140780200208C020020AA
:1015C00000080140074B4FF400321A614FF080725F
:1015D000A3F580631A61044B002283F8302083F85E
:1015E00031207047000C01408C020020064B022283
:1015F0001A61064B012283F8302083F83120044B16
:101600004FF480721A617047000C01408C02002078
:101610000008014038B52B4B0122054683F83220E3
:10162000FFF7E4FF022D284C02D12388013303E0A9
:10163000012D02D12388013B238000200146FFF7C2
:1016400087F90221208801F05FFCFFF798FA1F4814
:10165000FFF795FA1E4B1F4A1888136880B2002BBB
:1016600021881D4B01DC462209E0401A116802B2B4
:1016700022EAE27242F21070424392FBF1F2164CFF
:101680001A64206C01F0CCFBFFF779FA1348FFF7DE
:1016900076FA134B19880E4B89B21A880D4B92B209
:1016A0001868002801DC0A2309E0891A1A680BB2BD
:1016B00023EAE37342F210714B4393FBF2F3A3640A
:1016C00038BD00BF8C020020200200200A4B000819
:1016D000840200207802002004000020864B0008CD
:1016E0009004002038B5174B0122054683F83220BC
:1016F000FFF77CFF022D144C02D1A36B013303E0F2
:10170000012D02D1A36B013BA36300200146FFF72B
:101710001FF9A06B01F084FBFFF731FA0B48FFF7CC
:101720002EFA00200121FFF713F9094B0221188836
:1017300080B201F0E9FBFFF722FA0648BDE8384025
:10174000FFF71DBA8C02002004000020804B000827
:1017500094040020914B000838B5174B0122054630
:1017600083F83220FFF742FF022D144C02D1236B85
:10177000013303E0012D02D1236B013B23630020E1
:101780000146FFF7E5F8206B01F04AFBFFF7F7F998
:101790000B48FFF7F4F900200121FFF7D9F8094BB6
:1017A0000221188880B201F0AFFBFFF7E8F9064884
:1017B000BDE83840FFF7E3B98C02002004000020A8
:1017C000804B000896040020914B000838B5174B59
:1017D0000122054683F83220FFF708FF022D144C42
:1017E00002D1A36A013303E0012D02D1A36A013BB8
:1017F000A36200200146FFF7ABF8A06A01F010FBDE
:10180000FFF7BDF90B48FFF7BAF900200121FFF7F8
:101810009FF8094B0221188880B201F075FBFFF791
:10182000AEF90648BDE83840FFF7A9B98C020020A0
:1018300004000020804B000890040020914B000819
:1018400038B5164B0122054683F83220FFF7CEFE4D
:10185000022D134C02D1236A013303E0012D02D182
:10186000236A013B236200200146FFF771F8206ADA
:1018700001F0D6FAFFF783F90A48FFF780F9012152
:101880000020FFF765F8084B186801F0C9FAFFF768
:1018900076F90648BDE83840FFF771B98C020020A0
:1018A00004000020804B000880020020954B0008B7
:1018B00038B5164B0122054683F83220FFF796FE15
:1018C000022D134C02D1A369013303E0012D02D193
:1018D000A369013BA36100200146FFF739F8A06925
:1018E00001F09EFAFFF74BF90A48FFF748F901218A
:1018F0000020FFF72DF8084B186801F091FAFFF768
:101900003EF90648BDE83840FFF739B98C0200209F
:1019100004000020804B00087C020020954B00084A
:1019200038B5394C012305460020014684F8323091
:10193000FFF70EF8354B0221188880B201F0E4FA67
:10194000FFF71DF93248FFF71AF907200021FEF7CB
:10195000FFFF94F83030012B2E4B1DD1196842F255
:101960000F72914207DC186801F05AFAFFF707F985
:101970002948FFF704F9274B42F20F721968914288
:1019800012DD18684FF47A7390FBF3F001F048FA17
:10199000FFF7F5F8214805E0186801F041FAFFF774
:1019A000EEF81F48FFF7EBF8022D174C07D194F81B
:1019B000303013B9FFF71AFE01E0FFF703FE94F889
:1019C00030402CB907200121FEF7C2FF204609E074
:1019D0000D4B072093F833300121052B04D8FEF777
:1019E000B7FF0020012103E0FEF7B2FF012001460E
:1019F000FEF7AAFF044B93F833200A2A02D90022EB
:101A000083F8332038BD00BF8C02002090040020F2
:101A10000A4B0008780200209A4B0008A24B0008ED
:101A2000A94B0008054B012283F8302083F83420AD
:101A3000034B4FF400621A61704700BF8C02002014
:101A400000080140054B002283F8302083F8342041
:101A5000034B4FF000621A61704700BF8C020020F8
:101A60000008014008B5FFF7EDFFBDE80840FFF7AB
:101A7000A9BD0000F0B59D4B0122022887B083F874
:101A8000322009D193F836200132D2B2082A83F8E5
:101A900036200ED100220AE001280AD193F8362020
:101AA000013AD2B283F83620120602D5072283F813
:101AB00036208E4B93F936400CBBFFF7D3FF2146FF
:101AC0002046FEF745FF8A48FFF759F8894B012168
:101AD00018880A2380B2B0FBF3F001F015FAFFF783
:101AE0004EF88548FFF74BF8844B0221188880B2E6
:101AF00001F00AFAFFF743F88148FFF740F87B4B03
:101B000093F93630012B1DD1FFF7ACFF00200146C1
:101B1000FEF71EFF7B48FFF732F87B4B0221188847
:101B200080B201F0F1F9FFF72AF87848FFF727F8BB
:101B3000774BD88880B201F073F9FFF720F8754829
:101B4000FFF71DF8694B93F93640022C1DD1FFF7C2
:101B50004DFD00200146FEF7FBFE6F48FFF70FF832
:101B60006E4B2146188880B201F0CEF9FFF707F8D6
:101B70006648FFF704F8664B988880B201F050F988
:101B8000FEF7FDFF6348FEF7FAFF584B93F9363036
:101B9000032B1BD1FFF72AFD00200146FEF7D8FEDC
:101BA0005F48FEF7ECFF5F4B186801F039F9FEF76C
:101BB000E6FF5D48FEF7E3FF554B588880B201F021
:101BC0002FF9FEF7DCFF5348FEF7D9FF474B93F997
:101BD0003630042B1BD1FFF709FD00200146FEF72C
:101BE000B7FE5248FEF7CBFF514B186801F018F9C9
:101BF000FEF7C5FF4F48FEF7C2FF454B188880B27D
:101C000001F00EF9FEF7BBFF4B48FEF7B8FF374B6C
:101C100093F93630052B39D13B4D484CFFF7E6FCA4
:101C20002988238889B29BB2CB1A42F21071444FA3
:101C30004B433A68434E002093FBF2F30146B364F2
:101C4000FEF786FE4048FEF79AFF306C01F0E8F898
:101C5000FEF795FF3D48FEF792FFB06C01F0E0F80B
:101C6000FEF78DFF3A48FEF78AFF386839490022AF
:101C700002F040F82888384980B2022202F03AF88F
:101C80002088364980B2022202F034F8174C94F9C9
:101C90003630062B0ED1FFF7E5FE00200146FEF799
:101CA00057FE01A9E06A01F0CBF9FEF768FF2C4866
:101CB000FEF765FF0D4C94F93630072B14D1FFF772
:101CC000D1FE00200146FEF743FE2648FEF757FFEF
:101CD000A06B4FF46163B0FBF3F001F0A1F8FEF7E5
:101CE0004EFF2148FEF74BFF07B0F0BD8C020020ED
:101CF000D34B000894040020D84B00089204002025
:101D00007F4B0008DD4B0008900400200A4B0008C0
:101D1000740600207D4B0008E24B0008960400206A
:101D2000E84B00087C020020EF4B0008F34B000852
:101D300080020020FB4B00087C4B0008840200203E
:101D40007802002004000020004C0008034C00082A
:101D5000084C0008104C0008144C00081B4C0008EC
:101D60007B4B0008234C00082A4C000808B5274B81
:101D70000122022883F8322007D193F8303013B9BA
:101D8000FFF750FE01E0FFF75DFE00200146FEF781
:101D9000DFFD1F4B0221188880B201F0B5F8FEF775
:101DA000EEFE1C48FEF7EBFE1B4B186801F038F8FE
:101DB000FEF7E5FE1948FEF7E2FE144B93F83020DB
:101DC00012B90620012105E093F8333006200121E5
:101DD000052B07D8FEF7BCFD02200121FEF7B4FD5C
:101DE000022006E0FEF7B4FD03200121FEF7ACFD62
:101DF00003200121FEF7A8FD044B93F833200A2AA3
:101E000002D9002283F8332008BD00BF8C020020D5
:101E1000960400200A4B000878020020A24B00081C
:101E20002DE9F041AC4D002400F0A2FEFFF71AFEB0
:101E3000AA482C60FEF7A3FEFEF7EDFD21462046E2
:101E4000FEF786FD4FF4FA60FEF7DEFF01F0BAFA06
:101E50002B68172B88BF2C6001F02AFD80B94FF446
:101E60007A70FEF7D1FF01F023FD48B99C48FEF7D8
:101E700086FE4FF47A60FEF7C7FF9A48FEF728FA0D
:101E8000994B9A4C1A699A4B94489A6323694FF478
:101E900061625A43974B1A60974BA2681A6001F02F
:101EA000E9FEFEF77FFBFEF73CFD9448FEF758F98C
:101EB000A368012B17D0022B01D1914814E0032B0A
:101EC00001D1904810E0042B01D18F480CE0052B84
:101ED00001D18E4808E0062B01D18D4804E0072B84
:101EE00001D18C4800E08C48FEF722F9804D8B4FE1
:101EF0008B4E95F83330013385F83330FFF7EEFA27
:101F000088490022044601F0F5FE3868864900221F
:101F100001F0F0FE7088854980B2002201F0EAFEEF
:101F2000834B84491868002201F0E4FE308882491E
:101F300080B2002201F0DEFE804B81491868002249
:101F400001F0D8FE7F4B80491878002201F0D2FEC4
:101F5000631E032B17D8DFE803F002060A11FEF711
:101F6000E1F840680DE0FEF7DDF8006809E00220C6
:101F7000FEF700F9FEF7D6F8C06802E0FEF7D2F8E7
:101F80008068FEF7D5F8FEF7CDF8DFF88C81404584
:101F900003D12046FFF7C4FC2DE1FEF7C3F808F19A
:101FA0002C03984203D12046FFF7E0FE23E1FEF721
:101FB000B9F808F15803984200F01D81FEF7B2F815
:101FC00008F18403984200F01681FEF7ABF808F19F
:101FD000B003984200F00F81FEF7A4F808F59A7359
:101FE000984200F00881FEF79DF808F1DC03984262
:101FF00000F00181FEF796F808F58473984200F02E
:10200000FA80FEF78FF808F5B073984203D12046A6
:10201000FFF730FDEFE0FEF785F808F5C67840459C
:1020200003D12046FEF7C0FFE5E0FEF77BF8DFF8BE
:102030001C81404500F0DF80FEF774F808F12C03A6
:10204000984203D12046FEF7F7FFD4E0FEF76AF886
:1020500008F15803984203D12046FFF7F1FBCAE08C
:10206000FEF760F808F18403984203D12046FFF799
:102070001FFCC0E0FEF756F808F1B003984203D108
:102080002046FFF72FFBB6E0FEF74CF808F1CC0333
:10209000984203D12046FFF75FFBACE0FEF742F821
:1020A00008F1F803984203D12046FFF78FFBA2E026
:1020B000FEF738F808F59273984203D12046FFF7EF
:1020C000A9FA98E0FEF72EF808F5A07398423FD1E0
:1020D0002046FEF7D1FF8EE0D4040020230200202A
:1020E000384C0008494C000894000020540000209F
:1020F0008C0200207006002084060020590D000884
:10210000E83F000814400008404000086C40000808
:1021100098400008C4400008BC3F00087C02002032
:1021200074060020574C00085C4C0008604C000806
:1021300080020020654C00086A4C000878020020EC
:10214000704C0008AC000020784C00087441000876
:10215000FDF7E8FF08F5AE78404503D12046FEF7CD
:10216000C9FF48E0FDF7DEFFDFF8B880404503D146
:102170002046FEF7E5FF3EE0FDF7D4FF08F12C0313
:10218000984203D12046FFF753F834E0FDF7CAFF29
:1021900008F15803984203D12046FFF76BF82AE074
:1021A000FDF7C0FF08F18403984203D12046FFF7F2
:1021B00083F820E0FDF7B6FF08F1B003984203D1A1
:1021C0002046FFF797F816E0FDF7ACFF08F1DC03B7
:1021D000984203D12046FFF7ABF80CE0FDF7A2FFD1
:1021E00008F58478404503D12046FFF7F7F802E070
:1021F000002385F8323095F8324064B9FFF732FC9D
:10220000EA68074B85F83C409A602B6985F83D40A9
:102210002B6485F835406420FEF7AEFE69E600BF0A
:1022200094000020FC42000870B592B07E2312A9F1
:10223000002621F8043D48488DF84760FEF71EFD52
:1022400001214FF4007000F059FB0120014600F01D
:1022500049FB424B082502934FF480630893802387
:102260000693202309933E4B3E4801934FF480731D
:10227000079301A94FF400530A93049503960B9614
:10228000059600F099FF0121364800F0B3FF4FF4A6
:10229000004000F0D5FA01244FF4602332480CA925
:1022A0000E938DF835400F960C968DF840508DF8B2
:1022B000344000F081FC07232B482146224600F0E1
:1022C000CCFC02210A460723274800F0C6FC032164
:1022D0000A460723244800F0C0FC04210A460723CD
:1022E000214800F0BAFC05210A4607231E4800F0E9
:1022F000B4FC06210A4607231B4800F0AEFC20462A
:1023000000F0FAFC072213461748112100F0A5FC43
:102310002A4604231448102100F09FFC124821464D
:1023200000F06EFC1048214600F073FC0E4800F0EF
:1023300079FC0D4800F07BFC0028FAD10A4800F037
:102340007AFC094800F07CFC0028FAD106480121FB
:1023500000F07AFC12B070BD000801407406002045
:102360004C24014008000240002401401FB5012117
:10237000022000F0CFFA104C01A8FDF755FF45F6FA
:10238000BF53ADF804302046052301A9ADF808304D
:10239000FDF700FF01210A462046FDF75AFF2046BF
:1023A0000121FDF74AFF054B4FF000521A60202231
:1023B00083F81D231FBD00BF0004004000E100E0C2
:1023C000224A234B91682DE9F04108319160C91AE6
:1023D000002808BF0120A729C8BF9360936812682E
:1023E0001E689A4208BF194A184C08BF1660194F58
:1023F0002268988015252146BC46D2F80080984571
:10240000B2F8048008BF1660804503D208681860DF
:102410000B600020BA42246814D01168D1F8008003
:102420009845B1F8048008BF0E60804503D210685B
:10243000186013600020614504D0013DADB20A6808
:10244000002DDAD1A088BDE8F08100BF380200205D
:10245000F8020020A0030020224A234B51692DE9F5
:10246000F04108315161C91A002808BF01205729DD
:10247000C8BF53615369D2681E689A4208BF194A9F
:10248000184908BFD66051F80C2F184F98800B25BB
:102490000C46BC46D2F800809845B2F8048008BFCC
:1024A0001660804503D22068186023600020BA427D
:1024B000096814D01468D4F800809845B4F80480F2
:1024C00008BF2660804503D21068186013600020A2
:1024D000644504D0013DADB22268002DDAD1888870
:1024E000BDE8F08138020020A8030020000400208D
:1024F000224A234B116A2DE9F04108311162C91AB1
:10250000002808BF01205729C8BF1362136A9269C7
:102510001E689A4208BF194A184908BF966151F8C7
:10252000182F184F98800B250C46BC46D2F8008017
:102530009845B2F8048008BF1660804503D2206831
:10254000186023600020BA42096814D01468D4F8D7
:1025500000809845B4F8048008BF2660804503D207
:102560001068186013600020644504D0013DADB2CE
:102570002268002DDAD18888BDE8F0813802002079
:1025800008040020600400200F49D1F87431D1F80C
:102590007021C1F878319342C1F87421C1F87001FB
:1025A00007DC834203DC9042A8BF104670479A4282
:1025B00005DC824203DC9842A8BF184670479A4265
:1025C000B4BF104618467047F80200200F49D1F8F2
:1025D0008031D1F87C21C1F884319342C1F8802147
:1025E000C1F87C0107DC834203DC9042A8BF10469F
:1025F00070479A4205DC824203DC9842A8BF184625
:1026000070479A42B4BF104618467047F80200203F
:102610000F49D1F88C31D1F88821C1F8903193421B
:10262000C1F88C21C1F8880107DC834203DC9042A9
:10263000A8BF104670479A4205DC824203DC9842EC
:10264000A8BF184670479A42B4BF10461846704754
:10265000F802002073B56F480121FDF703FE002842
:1026600000F0D6806C4D0121D5F8943169480133D2
:10267000C5F89431FDF701FE00240220ADF80440B6
:10268000ADF80640009400F0C9FD022000F0D0FD36
:10269000624E02212246624800F0B7FD614BB188CC
:1026A0009B6A89B24B43B28992B2B3FBF2F39BB2FD
:1026B000ADF80630BDF8060080B2FFF781FEA5F840
:1026C0009801B5F898314FF4F0229BB2022B98BFD5
:1026D000A5F89841B389514C9BB292FBF3F39BB29E
:1026E000A5F89A31B188B2894E4E89B2336B92B255
:1026F0004B43B3FBF2F39BB2ADF806300023ADF8C9
:102700000430BDF80410484A89B21180BDF8042095
:10271000464D12B2022AD8BFADF804302189B36BFE
:1027200089B24B43A28992B2B3FBF2F39BB2ADF8EC
:102730000630BDF8060000B2FFF76AFF364B80B2E4
:10274000A3F89C01B3690A2043436188A28989B236
:102750004B4392B2B3FBF2F39BB2ADF80630BDF837
:10276000060000B2FFF732FF4FF47A735843336A22
:102770002860642043432188A28989B24B4392B2E6
:10278000B3FBF2F39BB2ADF80630BDF8060000B221
:10279000FFF7FAFE264B1860264B1B78012B07D15A
:1027A000286880B2FFF7A4FE00902A68224B1A60C6
:1027B000204B1B7843B91E4C206880B2FFF74CFEBB
:1027C000009022681C4B1A60009A42F234139A421D
:1027D00004DD1A4A01231361164A1370009A41F668
:1027E00057339A4206DC154B4FF480321A61114B75
:1027F00000221A70084B0A48B3F89821022192B2BD
:10280000A3F89E21012202B0BDE8704000F0FDBC9B
:1028100002B070BD00040040F802002074060020E1
:102820000800024004000020840200207C020020F6
:1028300080020020AC00002078020020000C014043
:10284000034B5A6822F4404210435860704700BF5F
:102850000010024010B51F4B5A6802F00C02042A07
:1028600001D0082A02D01C4B036011E05A68596855
:10287000C2F383420232C90301D4184B06E0DB6A7B
:10288000154903F00F030133B1FBF3F35A43026020
:10289000104A134B51680468C1F30311595C24FAC0
:1028A00001F141605468C4F302241C5D21FA04F470
:1028B00084605468C4F3C2241C5D21FA04F1C16031
:1028C0005268C2F381329B181B7CB1FBF3F10161AA
:1028D00010BD00BF0010024000127A0000093D0048
:1028E0005C020020044B5A6909B1104301E022EA5E
:1028F00000005861704700BF00100240044B9A6905
:1029000009B1104301E022EA00009861704700BF5E
:1029100000100240044BDA6909B1104301E022EAD9
:102920000000D861704700BF0010024038B5384C35
:1029300008200121FFF7E2FF2368364D23F003034F
:1029400023602368012023F00C03236023680146E1
:1029500043F002032360236823F00C0323606B68B9
:1029600023F003036B606B6823F00C036B606B68F0
:1029700043F002036B606B6823F00C036B606B68C1
:1029800023F440536B606B6823F440436B606B68C7
:1029900043F400536B606B6823F440436B60FFF7B4
:1029A000ADFF1D4B5A6842F000725A606B6823F00D
:1029B00040536B606B6823F040436B606B6843F07F
:1029C00000536B606B6823F040436B60636823F0D7
:1029D00003036360636823F00C036360636843F080
:1029E00002036360636823F00C036360236823F0D1
:1029F00030032360236823F0C0032360236843F07F
:102A000020032360236823F0C003236038BD00BF88
:102A1000000C0140000801400000014008B50820FA
:102A20000121FFF76BFF1D4B1A6822F440121A6058
:102A30001A6822F440021A601A6842F400021A600E
:102A400020221A611A6822F440321A601A6822F4AD
:102A500040221A601A6842F400221A6010221A6199
:102A60001A6822F040721A601A6822F040621A60F6
:102A70001A6842F000621A6040221A611A6822F055
:102A800040521A601A6822F040421A601A6842F0F6
:102A900000421A6080221A6108BD00BF000C01408C
:102AA0001FB501212020FFF735FF104C01A8FDF7CD
:102AB000BBFB40F65F13ADF8043020460A2301A9A2
:102AC000ADF80830FDF766FB01210A462046FDF708
:102AD000C0FB20460121FDF7B0FB054B4FF400027F
:102AE0005A60502283F837231FBD00BF00140040F6
:102AF00000E100E01FB501214FF40030FFF7FEFEBA
:102B000001A8FDF791FB104C0023ADF8063045F607
:102B1000BF53ADF8043020464FF47A7301A9ADF8E5
:102B20000830FDF737FB01210A462046FDF791FBEF
:102B300020460121FDF781FB044B4FF000721A6023
:102B4000102283F819231FBD0044014000E100E07A
:102B5000064BDA6942F00102DA614FF0804345F634
:102B6000BF521A8509221A80704700BF0010024028
:102B700008B504200121FFF7C1FE08200121FFF75D
:102B8000BDFE10200121FFF7B9FEFEF707F800F0A7
:102B9000D1FFFFF7CBFEFFF741FFFFF781FFFFF704
:102BA000E5FBFFF7A7FFFFF7D3FFFFF7BFFEBDE889
:102BB0000840FFF739BB000043680A6823F470231C
:102BC00023F4807313430A7910B543EA0223436068
:102BD0008A68CB6884681A43084B234013434A79B8
:102BE00043EA420383600B7CC26A013B22F4700219
:102BF000DBB242EA0353C36210BD00BFFDF7F1FF31
:102C0000836811B143F0010301E023F00103836005
:102C10007047836811B143F4807301E023F480733B
:102C200083607047836843F008038360704780685F
:102C3000C0F3C0007047836843F0040383607047AB
:102C40008068C0F380007047836811B143F4A0032B
:102C500001E023F4A00383607047092970B54FF0A9
:102C600003040DD94C4307251E3C05FA04F503FA6D
:102C700004F3C66826EA050545EA0304C4600BE0D0
:102C80004C43072505FA04F503FA04F4066926EA1D
:102C9000050545EA04030361062A4FF005030CD835
:102CA000013A53431F2202FA03F201FA03F3446B81
:102CB00024EA02021343436370BD0C2A0DD8534328
:102CC0001F22233B02FA03F201FA03F1046B24EA08
:102CD000020242EA0103036370BD53431F22413BDA
:102CE00002FA03F201FA03F1C46A24EA020242EA98
:102CF0000103C36270BD0000044B9A6810B142F436
:102D0000000201E022F400029A60704700240140B2
:102D100030B5038ACA8823F440531B041B0C1343A9
:102D200003820D4683890989AA8823F4B0530A4394
:102D3000698923F00C030A431B041B0C92B2134352
:102D40008381838AAA8923F440731B041B0C87B0F8
:102D500013430446838201A8FFF77CFD174BA28929
:102D60009C420CBF049B039B12B2002A4FF0190136
:102D70002A6801FB03F101DA520000E092006423AB
:102D8000B1FBF2F1B1FBF3F21201100903FB1011D8
:102D9000A08900B2002806DAC9003231B1FBF3F392
:102DA00003F0070305E009013231B1FBF3F303F04F
:102DB0000F031A4392B2228107B030BD00380140A0
:102DC000838919B19BB243F4005303E023F4005309
:102DD0001B041B0C83817047C1F3421310B50124FF
:102DE00001F01F01A34204FA01F101D10C3004E00B
:102DF000022B01D1103000E0143003680AB11943EE
:102E000001E023EA0101016010BDC905C90D8180FF
:102E10007047038819420CBF002001207047000052
:102E20007FB580EAE072A2EBE0720DF1FF3500237E
:102E30000A2492FBF4F104FB1122303205F8012F31
:102E40001E4601330A1EDBB2F3DC002807DA5BB250
:102E500004A8C3182D2203F8102CB31CDBB25AB2FD
:102E600004A88118002001F8100C68448118074854
:102E700011F8014C013BDBB2013900F8014F002B86
:102E8000F6D10348835404B070BD00BFA7040020EE
:102E9000A8040020F0B5034685B083EAE370A0EBF8
:102EA000E3700DF1FF3600220A2590FBF5F405FBD7
:102EB0001400303006F8010F17460132201ED2B23E
:102EC000F3DC002B07DA04AB52B29A182D2302F878
:102ED000103CBA1CD2B250B204AC2318002403F840
:102EE000104C0DEB040318180C46134652B210F8A0
:102EF000015C013BDBB2013804F8015B002BF6D129
:102F00008B54084605B0F0BDF0B58BB080EAE07395
:102F1000A3EBE0730DF1FF3600220A2593FBF5F4D5
:102F200005FB1433303306F8013F17460132231EE8
:102F3000D2B2F3DC53B20AADEC180025012B04F831
:102F4000285C04D13023BA1C8DF80130D2B2022A99
:102F500005D1012903D930238DF802300322002442
:102F60000DF1280C23460CEB01062E2552B25FB260
:102F70008F4203D1013306F8145CDBB25FB20DF16E
:102F8000280C67441DF804C0013407F814CC67B25C
:102F900001339742DBB2EADB002807DA5AB20AA90A
:102FA0008A1801332D2102F8141CDBB259B205AD89
:102FB000084800226C1804E0A55C013B00F8015FA2
:102FC000DBB2013A002BF7D1034841180B741030E3
:102FD0000BB0F0BDB7040020A8040020002802D0E8
:102FE00001DC404200B270470346002001E001309E
:102FF000C0B21A5C002AFAD1704770B5002501E012
:103000005E550135465DECB2002EF9D1304666B210
:103010009E1903E001343554E4B201300D5C002DFB
:10302000F8D1294665B25D1903E001346854E4B271
:103030000131505C0028F8D164B21855184670BDB3
:103040002DE9F041074686B04FF461600C46B7FBAE
:10305000F0F001A9FFF71EFF01A8FFF7C5FF012847
:1030600003D830232370012600E000260023A11995
:1030700002E0CA54EEB201330DF1040813F808203F
:10308000751C002AF5D13A2273B2E2543C23B7FBF7
:10309000F3F2B2FBF3F003FB10204146FFF7FAFE18
:1030A0004046FFF7A1FF0128EDB204D86DB23023EE
:1030B0006355B51CEDB269B20023611802E0CA5431
:1030C000F5B201330DF1040813F808206E1C002A34
:1030D000F5D13A226BB2E2543C23B7FBF3F003FB89
:1030E00010704146FFF7D6FE4046FFF77DFF0128EE
:1030F000F6B204D876B230230235A355EEB271B2DF
:103100000023611803E00136CA54F6B2013301AA64
:103110009A5C002AF7D176B2A255204606B0BDE8E7
:10312000F0812DE9F041804686B04FF461600C4695
:10313000B8FBF0F001A9FFF7ADFE01A8FFF754FFBF
:10314000012803D830232370012500E00025002347
:10315000611902E0CA54F5B2013301AFDA5D6E1CA9
:10316000002AF7D13A226BB2E2543C23B8FBF3F8C1
:10317000B8FBF3F003FB10803946FFF78BFE3846AF
:10318000FFF732FF0128F6B204D876B230230235B9
:10319000A355EEB271B20023611803E00136CA54A0
:1031A000F6B2013301AA9A5C002AF7D176B2A25591
:1031B000204606B0BDE8F0818B6810B50C6A026845
:1031C00023430C6922F4FE4223434C6922F0F002AF
:1031D00023438C692343CC6923434C6A23438C6A81
:1031E000234313430360CB6843600B6883604B68E1
:1031F000C36010BD19B1036843F0010303E0026826
:103200004FF6FE7313400360704703680AB1194319
:1032100001E023EA0101016070470000C2004CBFD9
:10322000014B024B5860704700040240000002400E
:10323000C3004CBF014B024B586070470004024072
:1032400000000240C37810B5F3B1154B4178DB683C
:103250008478DB43C3F30223C3F1040201FA02F1D1
:103260000F2222FA03F222400A430E4B0178120188
:10327000CB18D2B283F8002303780122590903F056
:103280001F0302FA03F307E003780122590903F050
:103290001F0302FA03F32031024A42F8213010BD25
:1032A00000ED00E000E100E00F4AD36813F0010FE9
:1032B0000D4BFAD1DA68920601D52022DA601A693C
:1032C00042F002021A6158611A6942F040021A6122
:1032D000054AD168044B8906FBD52022DA601A69B9
:1032E00022F002021A61704700200240034B044A98
:1032F0005A6002F188325A60704700BF00200240D5
:1033000023016745024B1A6942F080021A61704737
:1033100000200240124AD36813F0010F104BFAD17B
:10332000DA68920601D52022DA601A6942F00102B9
:103330001A618BB203800A4BDA6812F0200F084A38
:10334000FAD02023090CD3604180D168044B890650
:10335000FBD52022DA601A6922F001021A61704757
:103360000020024070B572B6114CFFF7BFFF4FF45A
:10337000CE701049002200F0BDFC20680E490022EA
:1033800000F0B8FC0D48FFF78FFF0C4D0C4E2B19C9
:1033900003F17843A3F5F233284619680435FFF7A3
:1033A000B9FFB542F3D1FFF7ADFF62B670BD00BF04
:1033B000D40400207D4D0008844D000800E401087D
:1033C0009CE5010810B5074B0749084A58181C68C6
:1033D00000F178400433A0F5F23093420460F5D157
:1033E000012010BD00E40108D40400209CE5010880
:1033F00070B504680E468C4201D3944211D90A4B31
:1034000000251D7009492A4600F074FC2046084931
:103410002A4600F06FFC074807492A4600F06AFC7C
:103420003446204670BD00BF700200208A4D00085F
:10343000A14D000800EC0108B34D000810B5184C70
:103440006068FFF731FF60682168FFF763FFE0689D
:10345000A168FFF75FFF60692169FFF75BFFE06923
:10346000A169FFF757FF606A216AFFF753FFE06A1F
:10347000A16AFFF74FFF606B216BFFF74BFFE06B1B
:10348000A16BFFF747FF606C216CFFF743FFE06C17
:10349000A16CFFF73FFF034800F0ECFB10BD00BF3D
:1034A00004000020CA4D000810B5184C6068FFF7F2
:1034B000FBFE60682168FFF72DFFE068A168FFF759
:1034C00029FF60692169FFF725FFE069A169FFF71E
:1034D00021FF606A216AFFF71DFFE06AA16AFFF71A
:1034E00019FF606B216BFFF715FFE06BA16BFFF716
:1034F00011FF606C216CFFF70DFFE06CA16CFFF712
:1035000009FF034800F0B6FB10BD00BF60010020BA
:10351000E34D000838B5224C002160684FF48072FA
:10352000FFF766FF002120604FF47A72E068FFF732
:103530005FFF0021A0604FF47A726069FFF758FFC7
:10354000184D20610A212A46E069FFF751FF0A2140
:10355000A0612A46606AFFF74BFF0A2120622A46D3
:10356000E06AFFF745FF0A21A0622A46606BFFF779
:103570003FFF0A2120632A46E06BFFF739FF46210F
:10358000A063C822606CFFF733FF0A212064C822C1
:10359000E06CFFF72DFFA064034800F06BFB38BD23
:1035A00004000020A0860100034E000838B5224C1C
:1035B000002160684FF48072FFF71AFF002120603D
:1035C0004FF47A72E068FFF713FF0021A0604FF418
:1035D0007A726069FFF70CFF184D20610A212A46B4
:1035E000E069FFF705FF0A21A0612A46606AFFF73C
:1035F000FFFE0A2120622A46E06AFFF7F9FE0A214F
:10360000A0622A46606BFFF7F3FE0A2120632A4678
:10361000E06BFFF7EDFE4621A063C822606CFFF768
:10362000E7FE0A212064C822E06CFFF7E1FEA064F7
:10363000034800F01FFB38BDB0010020A086010048
:103640001D4E000810B5144C6068FFF72DFE606831
:103650002168FFF75FFEE068A168FFF75BFE606925
:103660002169FFF757FEE069A169FFF753FE606A21
:10367000216AFFF74FFEE06AA16AFFF74BFE606B1D
:10368000216BFFF747FEE06BA16BFFF743FE03489A
:1036900000F0F0FA10BD00BF54000020404E0008BA
:1036A00010B5144C6068FFF7FFFD60682168FFF7F4
:1036B00031FEE068A168FFF72DFE60692169FFF720
:1036C00029FEE069A169FFF725FE606A216AFFF71C
:1036D00021FEE06AA16AFFF71DFE606B216BFFF718
:1036E00019FEE06BA16BFFF715FE034800F0C2FA6C
:1036F00010BD00BFE0000020564E000838B51D4C3C
:10370000002160684FF48072FFF772FE0121206093
:103710000A22E068FFF76CFE0121A0604FF47A7284
:103720006069FFF765FE012120614FF47A62E0696C
:10373000FFF75EFE0121A0614FF47A62606AFFF735
:1037400057FE42F21075206200212A46E06AFFF718
:103750004FFE0021A0622A46606BFFF749FE002160
:1037600020636422E06BFFF743FEA063024800F091
:1037700081FA38BD54000020734E000838B51D4C46
:10378000002160684FF48072FFF732FE0121206053
:103790000A22E068FFF72CFE0121A0604FF47A7244
:1037A0006069FFF725FE012120614FF47A62E0692C
:1037B000FFF71EFE0121A0614FF47A62606AFFF7F5
:1037C00017FE42F21075206200212A46E06AFFF7D8
:1037D0000FFE0021A0622A46606BFFF709FE002160
:1037E00020636422E06BFFF703FEA063024800F051
:1037F00041FA38BD200100208A4E000810B50A4C5D
:103800006068FFF751FD60682168FFF783FDE0689D
:10381000A168FFF77FFD60692169FFF77BFD034821
:1038200000F028FA10BD00BFB0000020D74E0008FD
:1038300038B50C4C002160684FF48072FFF7D8FD5A
:10384000094D206000212A46E068FFF7D1FD0021E4
:10385000A0602A466069FFF7CBFD2061034800F0B5
:1038600009FA38BD9400002000286BEEFE4E0008D7
:1038700038B50C4C002160684FF48072FFF7B8FD3A
:10388000094D206000212A46E068FFF7B1FD0021C4
:10389000A0602A466069FFF7ABFD2061034800F095
:1038A000E9F938BDC800002000286BEE1D4F000864
:1038B00070B50C4D01242C7072B6FFF7B9FFFFF7FD
:1038C0001DFFFFF727FE62B62E782EB9064800F0DE
:1038D000D1F92C70304670BD044800F0CBF92C7043
:1038E000204670BD70020020454F00085E4F000862
:1038F000F0B5C1B007460D461446684608494FF476
:10390000807200F00FFA6E4617F8013B013D5C40F3
:10391000EDB2345D002DF7D1204641B0F0BD00BFBF
:103920007D4C000838B572B6FFF7E0FC4C21002250
:103930003448FFF7DDFF344B04461860FFF7B4FD51
:10394000FFF734FE4C2100223048FFF7D1FF8442BC
:1039500003D12F4800F08EF904E02E4800F08AF9D8
:10396000FFF7A2FD3C2100222B48FFF7C1FF0022F8
:103970002A49044600F0BEF9002229493C2000F003
:10398000B9F9284B1C60FFF78BFEFFF7F7FE3C21CF
:1039900000222548FFF7ACFF00222049054600F031
:1039A000A9F93C2000221E4900F0A4F9AC4203D141
:1039B0001E4800F05FF904E01D4800F05BF9FFF7D6
:1039C0006FFE142100221B48FFF792FF1A4B04469A
:1039D0001860FFF713FFFFF74BFF14210022174871
:1039E000FFF786FF844203D1154800F043F904E055
:1039F000144800F03FF9FFF701FFFFF783FC62B6C0
:103A000038BD00BF6401002060010020B401002027
:103A1000794F00089E4F0008E4000020CE4F0008B8
:103A2000D94F0008E000002024010020E54F0008E5
:103A300007500008B4000020B0000020CC00002097
:103A4000345000085E50000838B572B63C210022A0
:103A50001948FFF74DFF00221849044600F04AF9C3
:103A6000002217493C2000F045F9164B1C60FFF777
:103A70003DFCFFF7E7FDFFF781FE3C2100221248E5
:103A8000FFF736FF00220D49054600F033F93C20D0
:103A900000220B4900F02EF9AC4203D10B4800F094
:103AA000E9F804E00A4800F0E5F8FFF7CBFDFFF77E
:103AB00029FC62B6012038BD58000020CF4F000815
:103AC000DA4F00085400002024010020E64F0008CF
:103AD0000850000810B572B64C2100221048FFF7BC
:103AE00007FF104B04461860FFF700FCFFF7A6FC29
:103AF000FFF75CFD4C2100220B48FFF7F9FE8442E2
:103B000003D10A4800F0B6F804E0094800F0B2F822
:103B1000FFF794FCFFF7F6FB62B6012010BD00BF73
:103B20000800002004000020B40100207A4F0008A3
:103B30009F4F000830B54FF4164387B00093002321
:103B40001C46ADF80430ADF80630ADF80830ADF8DD
:103B50000C3004200C230121ADF80A30FEF7CEFE14
:103B600001214FF48040FEF7C9FE4FF4C063154DAC
:103B7000ADF8103018238DF8133004A90323124830
:103B80008DF81230FDF77AF869462846FFF7C0F83D
:103B900025238DF814308DF816402223012405A822
:103BA0008DF815308DF81740FFF74CFB284621465D
:103BB000FFF706F9284640F225512246FFF70CF997
:103BC00007B030BD00380140000801400A4B1A78A8
:103BD000C72A0FD85A78094988541A780132D2B2C4
:103BE0001A705A780132D2B25A705A78C82A01D162
:103BF00000225A70704700BFC904002088060020C8
:103C000010B5194C2388980603D5A088C0B2FFF7D9
:103C1000DDFF2388144A19061AD5144B997889B107
:103C2000D9781348415C91809A78013AD2B29A705F
:103C3000DA780132D2B2DA70DA78C82A08D10022F2
:103C4000DA7005E0938923F080031B041B0C938139
:103C5000054A13885B0605D5138823F040031B042F
:103C60001B0C138010BD00BF00380140C9040020A8
:103C70005007002010B504460AE00D488021FFF7E8
:103C8000C8F80028F9D014F8011B0948FFF7BDF85F
:103C90002378002BF1D106488021FFF7BAF80028DD
:103CA000F9D003480A21BDE81040FFF7AEB800BFC5
:103CB0000038014082B0064B8DF807001A88520682
:103CC000FCD59DF80720024B9A8002B0704700BFD8
:103CD00000380140064B1A4605E019884906FCD514
:103CE00010F8011B918001780029F6D1704700BFC0
:103CF0000038014037B501900C46019812B9FFF722
:103D00008FF802E01146FFF7FFF805462046FFF75F
:103D1000E1FF2846FFF7DEFF0A2003B0BDE8304090
:103D2000FFF7C8BF0F2AF0B43AD941EA00039B0756
:103D300038D10C46034615462668103D1E6066685D
:103D40005E60A6689E60E6681034DE6010330F2D5A
:103D5000F2D8A2F1100424F00F0402F00F02103484
:103D6000032A00EB0403214411D90E461D461446D4
:103D700056F8047B043C032C45F8047BF8D8141F48
:103D800024F00304043402F0030209191B192AB1B8
:103D900011F8014B013A03F8014BF9D1F0BC70471F
:103DA0000346F4E70346F3E70000000000000000CC
:103DB0000000000000000000000000000000000003
:103DC00069693A2000513A20004352432843616C0C
:103DD0006962726174696F6E29203D0043616C698C
:103DE00062726174696F6E3056616C7565466F7290
:103DF00043757272656E74203D0043616C69627236
:103E00006174696F6E3056616C7565466F7243758B
:103E10007272656E7431203D0043616C696272613B
:103E200074696F6E466F7243757272656E745F6D02
:103E30004131203D0043616C6962726174696F6E4B
:103E4000466F7243757272656E745F6D6B4131209F
:103E50003D0043616C6962726174696F6E466F7296
:103E60005F555F505331203D0043616C6962726160
:103E700074696F6E466F725F555F505332203D001C
:103E800043616C6962726174696F6E466F725F55EF
:103E90005F505333203D00526573697374616E63E4
:103EA00065436F6D705F497368756E745F576972B3
:103EB0006573203D00526573697374616E63654379
:103EC0006F6D705F4D4F53464554203D0043524344
:103ED0002853657474696E67734461746129203D69
:103EE000004F7074696F6E31286D656E7520706F4C
:103EF000736974696F6E29203D004368617267655C
:103F000054696D65203D004C6F77566F6C74616726
:103F100065203D004D6178566F6C74616765203D8A
:103F2000004368617267654164617074203D0053AD
:103F300077696E675F436872675F74696D65203D7E
:103F4000005377696E675F44436872675F74696D99
:103F500065203D0043524328536176654461746196
:103F60005768656E506F7765724F666629203D0011
:103F700042617474657279436170616369747944F4
:103F8000697363686172676550726576696F75738E
:103F900056616C7565203D004261747465727943A9
:103FA000617061636974794469736368617267659C
:103FB00043757272656E74203D000000A83D0008D4
:103FC000A83D00082C4900082C490008000000000A
:103FD0000000000020202020202020202020202061
:103FE0002020202000000000A83D0008A83D000877
:103FF000004900080049000800000000000000001F
:1040000020202020202020202020202020202020B0
:1040100000000000A83D0008A83D0008D4480008A2
:10402000D448000800000000650D00082020202072
:104030002020202020202020202020200000000000
:10404000A83D0008A83D0008A8480008A8480008A6
:1040500000000000650D00082020202020202020E6
:10406000202020202020202000000000A83D000863
:10407000A83D00087C4800087C48000800000000BB
:10408000C10D0008202020202020202020202020DA
:104090002020202000000000A83D0008A83D0008C6
:1040A0002448000824480008000000000000000028
:1040B0002020202020202020202020202020202000
:1040C00000000000A83D0008A83D0008F8470008CF
:1040D000F847000800000000000000002020202019
:1040E0002020202020202020202020200000000050
:1040F000A83D0008A83D00085048000850480008A6
:1041000000000000000000002020202020202020AF
:10411000202020202020202000000000A83D0008B2
:10412000A83D0008CC470008CC470008000000006C
:1041300000000000202020202020202020202020FF
:104140002020202000000000A83D0008A83D000815
:10415000A0470008A047000800000000350D000837
:10416000202020202020202020202020202020204F
:1041700000000000A83D0008A83D00089045000888
:104180009045000800000000450D00082020202078
:10419000202020202020202020202020000000009F
:1041A000A83D0008A83D0008BC450008BC45000823
:1041B00000000000450D00082020202020202020A5
:1041C000202020202020202000000000A83D000802
:1041D000A83D0008384500083845000800000000E8
:1041E000450D0008202020202020202020202020F5
:1041F0002020202000000000A83D0008A83D000865
:10420000644500086445000800000000450D0008F2
:10421000202020202020202020202020202020209E
:1042200000000000A83D0008A83D0008B4440008B4
:10423000B444000800000000450D00080000000024
:10424000A83D0008A83D0008E0440008E04400083C
:1042500000000000450D0008202020202020202004
:10426000202020202020202000000000A83D000861
:10427000A83D00080C4500080C450008000000009F
:10428000450D000820202020202020202020202054
:104290002020202000000000A83D0008A83D0008C4
:1042A000884400088844000800000000450D00080C
:1042B00000000000A83D0008A83D00085C4400087C
:1042C0005C44000800000000000000000000000046
:1042D000A83D0008A83D00084847000848470008D6
:1042E00000000000410D0008202020202020202078
:1042F000202020202020202000000000A83D0008D1
:10430000A83D00081C4700081C47000800000000EA
:104310005D0E0008202020202020202020202020AA
:104320002020202000000000A83D0008A83D000833
:10433000F0460008F046000800000000410D0008AB
:10434000202020202020202020202020202020206D
:1043500000000000A83D0008A83D0008C446000871
:10436000C446000800000000410D00082020202065
:1043700020202020202020202020202000000000BD
:10438000A83D0008A83D0008984600089846000887
:1043900000000000410D00082020202020202020C7
:1043A000202020202020202000000000A83D000820
:1043B000A83D00086C4600086C460008000000009C
:1043C000410D000820202020202020202020202017
:1043D0002020202000000000A83D0008A83D000883
:1043E000404600084046000800000000410D00085B
:1043F00020202020202020202020202020202020BD
:1044000000000000A83D0008A83D00081446000870
:1044100014460008000000002D0E00082020202077
:10442000202020202020202020202020000000000C
:10443000BC4500085C440008744700087447000845
:1044400000000000000000004F4B20746F206578D2
:104450006974202020202020000000003044000843
:104460008844000874470008B442000800000000B7
:10447000000000004261636B20746F20466163742A
:104480006F727920000000005C440008B44400080A
:104490007447000898420008000000000000000077
:1044A00052657369737420636F6D702035563141A6
:1044B0000000000088440008E04400087447000839
:1044C000244200080000000000000000566F6C74D9
:1044D00061676520505320203132562000000000D3
:1044E000B44400080C450008744700084042000826
:1044F0000000000000000000566F6C7461676520CA
:10450000505320203856202000000000E0440008CE
:1045100038450008744700086C420008000000009D
:1045200000000000566F6C746167652050532020B6
:1045300033562020000000000C45000864450008A8
:1045400074470008CC410008000000000000000093
:1045500043555252454E54203130206D6B4120203E
:104560000000000038450008904500087447000826
:10457000F8410008000000000000000043555252BE
:10458000454E54203130206D412020200000000095
:1045900064450008BC4500087447000874410008E1
:1045A00000000000000000006E6F74202072656142
:1045B0006479202020202020000000009045000881
:1045C0003044000874470008A041000800000000C3
:1045D000000000005365742043757272656E74208C
:1045E000746F20300000000048470008144600089F
:1045F0005849000858490008000000000000000069
:104600004F4B20746F206578697420202020202073
:1046100000000000E845000840460008584900082E
:1046200004440008000000000000000030383A5345
:10463000617665204D656E7520506F730000000037
:10464000144600086C46000858490008D843000882
:10465000000000000000000030373A4368617267D4
:1046600065206164646170740000000040460008C9
:104670009846000858490008AC43000800000000B4
:104680000000000030363A53776E67446973436820
:1046900072672054000000006C460008C446000801
:1046A0005849000880430008000000000000000096
:1046B00030353A5377696E67204368726720546DCE
:1046C0000000000098460008F0460008584900081D
:1046D00054430008000000000000000030343A4D50
:1046E000617820566F6C74616765202000000000BF
:1046F000C44600081C470008584900082843000821
:10470000000000000000000030333A4C6F77205664
:104710006F6C74616765202000000000F04600089F
:104720004847000858490008FC4200080000000003
:104730000000000030323A4261747465727920746E
:1047400079706520000000001C470008E84500085B
:1047500058490008D0420008000000000000000096
:1047600030313A4368617267652074696D65202055
:104770000000000058490008A0470008A83D0008B4
:10478000BC450008000000000000000043414C4907
:1047900042524154494F4E2020202020000000006A
:1047A00074470008CC470008A83D000848410008AD
:1047B00000000000000000004C4F47202020202077
:1047C000202020202020202000000000A0470008FA
:1047D000F8470008A83D00081C4100080000000040
:1047E00000000000444941474E4F535449432020A4
:1047F0002020202000000000CC47000824480008AA
:10480000A83D0008C44000080000000000000000AF
:104810005377696E67202020202020202020202030
:1048200000000000F847000850480008A83D0008B4
:104830009840000800000000000000005472616908
:104840006E696E67202020202020202000000000BC
:10485000244800087C480008A83D0008F0400008F3
:104860000000000000000000436865636B696E672C
:10487000436170616369747900000000504800086A
:10488000A8480008A83D00086C400008000000008F
:10489000000000004469734368617267652020204E
:1048A00020202020000000007C480008D448000898
:1048B000A83D000840400008000000000000000083
:1048C00043686172676520616464617074202020B0
:1048D00000000000A848000800490008A83D0008A2
:1048E00014400008000000000000000043686172EE
:1048F000676520434320435620202020000000000D
:10490000D44800082C490008A83D0008E83F0008EA
:1049100000000000000000004C6F61642020202097
:104920002020202020202020000000000049000836
:1049300058490008A83D0008BC3F000800000000DE
:1049400000000000506F776572537570706C7920AD
:1049500020202020000000002C4900087447000897
:10496000A83D0008484700080000000000000000C3
:1049700053657474696E67732020202020202020E6
:104980000000000043616C6962726174696F6E00BF
:104990006368617267653D006D4168002031302EAB
:1049A0003856202031342E36562020200020203347
:1049B0002E3056202020342E325620202000202059
:1049C000322E3856202020332E375620202000202B
:1049D00020312E3656202020322E3856202020001E
:1049E0002020203856202031332E365620202020FB
:1049F0000020203156202020203230562020202038
:104A00002000695F4C6F674974656D733A20004DF3
:104A10005265636F7264735175616E746974793A2B
:104A200020006D41203E3E20736574203020202000
:104A300000466163746F72792D7072657373203EE6
:104A40003E00496E2050726F6363657373202E2E93
:104A50002E2E00466163746F727920617265204F5B
:104A60004B202000466163746F727920617265206B
:104A70004F4B00454570726F6D2072656164204632
:104A800041494C00682020200031325620506220DD
:104A9000426174746572792020004C6920696F6EE0
:104AA0002020426174746572792020004C6946654B
:104AB000506F34204261747465727920004C6954DF
:104AC0006F2042617474657279202020004E494D38
:104AD0006820392E3656204261742E2020004D6900
:104AE0006E20315620204D41582032305600202073
:104AF000204F4B20746F204578697420200020736C
:104B000065632E20202000252000562000506F775E
:104B10006572537570706C792020202020004C6FD6
:104B20006164204D656E75202020202020200043E8
:104B3000686172676520434320435620202020008F
:104B4000436861726765206164646170742020202D
:104B5000004469734368617267652020202020202B
:104B60002000547261696E696E6720202020202029
:104B70002020005377696E672020202020202020ED
:104B80002020200030006D4F6D202020202020208C
:104B900000562020006D412020006D6B4120202018
:104BA00020006D4120202020006D6B41202020201E
:104BB00020004449734368617267650064633A206A
:104BC00000506F7765724F4646200055206F66662D
:104BD0003A200055696E3D002055633D00557073C5
:104BE0002000556F7574200049286D412920006D03
:104BF00041200049286D6B412920006D6B41200048
:104C0000523D006D4F6D20006D4F6D202020200023
:104C1000493A2000555F50533A200055206F757473
:104C20003A20004F6C6420433D006D4168202020F5
:104C30002020202020202000454570726F6D2052DA
:104C4000656164204641494C00454570726D52656E
:104C500061644641494C004B65793A006D413A0028
:104C60006D41723A006D6B413A006D6B41723A00D2
:104C7000437572656E743A007265733A0000070EF0
:104C8000091C1B1215383F363124232A2D70777EDC
:104C9000796C6B6265484F464154535A5DE0E7EECC
:104CA000E9FCFBF2F5D8DFD6D1C4C3CACD90979EFC
:104CB000998C8B8285A8AFA6A1B4B3BABDC7C0C971
:104CC000CEDBDCD5D2FFF8F1F6E3E4EDEAB7B0B91C
:104CD000BEABACA5A28F88818693949D9A2720298C
:104CE0002E3B3C35321F18111603040D0A5750593C
:104CF0005E4B4C45426F68616673747D7A898E871E
:104D00008095929B9CB1B6BFB8ADAAA3A4F9FEF75B
:104D1000F0E5E2EBECC1C6CFC8DDDAD3D4696E674B
:104D20006075727B7C51565F584D4A4344191E177B
:104D30001005020B0C21262F283D3A33344E4940F2
:104D40004752555C5B7671787F6A6D64633E39309B
:104D50003722252C2B0601080F1A1D1413AEA9A00B
:104D6000A7B2B5BCBB9691989F8A8D8483DED9D0BB
:104D7000D7C2C5CCCBE6E1E8EFFAFDF4F373697A6C
:104D8000653A200076616C3A20004661696C2074B7
:104D90006F207265616420616464726573733A2088
:104DA00000454570726F6D56616C756520697320A2
:104DB0003A2000464C4153485F424153452B313025
:104DC00032342A313233203A200043616C696272F6
:104DD0006174696F6E5772697465546F466C617364
:104DE00068200043616C6962726174696F6E46612C
:104DF00063746F72795772697465546F466C61732E
:104E000068200043616C6962726174696F6E5265FB
:104E1000616446726F6D466C617368200043616C1B
:104E20006962726174696F6E5265616446726F6D1A
:104E3000466C617368466F725665726966792000C8
:104E400053657474696E67735772697465546F46FD
:104E50006C617368200053657474696E6773466192
:104E600063746F72795772697465546F466C6173BD
:104E700068200053657474696E6773526561644697
:104E8000726F6D466C617368200053657474696E4F
:104E900067735265616446726F6D466C61736846F4
:104EA0006F72566572696679200057726974652061
:104EB00043206D6148203A20004461746157686561
:104EC0006E506F7765724F66665772697465546F7E
:104ED000466C6173682000446174615768656E5068
:104EE0006F7765724F66665F466163746F72795F54
:104EF0005772697465546F466C6173682000446131
:104F000074615768656E506F7765724F666652655B
:104F1000616446726F6D466C617368200044617411
:104F2000615768656E506F7765724F66665265614E
:104F30006446726F6D466C617368466F7256657237
:104F40006966792000526561642066726F6D204544
:104F50004570726F6D202D204641494C20005265EE
:104F600061642066726F6D20454570726F6D202DF3
:104F70002053554343455353004643616C69627265
:104F80006174696F6E20777269746520746F204652
:104F90006C617368207375636365737320004643A7
:104FA000616C6962726174696F6E20777269746591
:104FB00020746F20466C617368204661696C2C20F8
:104FC00074727920616761696E2E2E2E200046432F
:104FD0005243206973203A20004653697A6520695C
:104FE00073203A20004653657474696E67732077A6
:104FF0007269746520746F20466C617368207375E4
:10500000636365737320004653657474696E6773D8
:1050100020777269746520746F20466C6173682014
:105020004661696C2C2074727920616761696E2E0B
:105030002E2E200046446174615768656E506F776C
:1050400065724F666620777269746520746F2046BA
:105050006C617368207375636365737320004644E5
:105060006174615768656E506F7765724F66662030
:10507000777269746520746F20466C61736820468E
:1050800061696C2C2074727920616761696E2E2EC3
:035090002E2000CF
:10509300A83D00080000000000F001080000000027
:1050A30004F001080000000008F0010800000000FF
:1050B3000CF001080000000010F0010800000000DF
:1050C30014F001080000000018F0010800000000BF
:1050D3001CF001080000000020F00108000000009F
:1050E30024F001080000000000EC010800000000AB
:1050F30004EC01080000000008EC010800000000B7
:105103000CEC01080000000010EC01080000000096
:1051130014EC01080000000018EC01080000000076
:105123001CEC01080000000000E80108000000007A
:1051330004E801080000000008E80108010000007D
:105143000000000000E801080000000004E8010876
:105153000000000008E801080000000000E8010862
:105163000000000004E801080000000008E801084E
:105173000000000000EC01080100000004EC01083D
:105183000F00000008EC01081A0400000CEC0108F1
:10519300AA05000010EC01080A00000014EC010845
:1051A3000A00000018EC0108060000001CEC0108CE
:1051B3000000000000EC01080000000004EC0108FE
:1051C3000000000008EC0108000000000CEC0108DE
:1051D3000000000010EC01080000000014EC0108BE
:1051E3000000000018EC0108000000001CEC01089E
:1051F3000000000000F001080000000004F00108B6
:105203000000000008F001082B0000000CF001086A
:105213003200000010F00108DE03000014F0010862
:10522300DE03000018F00108DE0300001CF0010893
:105233008200000020F001082200000024F0010891
:105243000000000000F001080000000004F0010865
:105253000000000008F00108000000000CF0010845
:105263000000000010F001080000000014F0010825
:105273000000000018F00108000000001CF0010805
:105283000000000020F001080000000024F00108E5
:105293004103423B3F455D337B404B064D484F5CEA
:1052A30050435460245805075B5F036904020100FF
:1052B300D6010150534C313430316D6B412076317E
:1052C3002E30310001000000A00300200000000088
:1052D300F80200200004002000000000A8030020C2
:1052E300600400200000000008040020000000000B
:1052F3000102030401020304060708090204060865
:0453030001000000A5
:0400000508000000EF
:00000001FF
