:020000040800F2
:10000000E00C002085020008CD020008CD020008A7
:10001000CD020008CD020008CD020008000000005B
:10002000000000000000000000000000CD020008F9
:10003000CD02000800000000CD020008CD0200083B
:10004000CD020008CD020008CD020008CD02000854
:10005000CD020008CD020008CD020008CD02000844
:10006000CD020008CD020008CD020008CD02000834
:10007000CD020008CD020008CD020008CD02000824
:10008000CD020008CD020008CD02000800000000EB
:10009000000000000000000000000000CD02000889
:1000A000CD0200081D150008CD020008CD02000891
:1000B000CD0200080D27000800000000CD02000856
:1000C000CD0200080000000000000000CD02000882
:1000D00000000000E13C0008CD0200080000000024
:1000E000CD020008CD020008CD020008000000008B
:1000F0000000000000000000000000000000000000
:1001000000000000000000000000000000000000EF
:100110000000000000000000CD020008F1140008FB
:100120005FF808F1014B1868704700BF000000201D
:10013000084B10B598420BD050B1074B074C1B68C9
:1001400020600BB11830984723681B6903B19847AA
:1001500010BD00BF883E000874020020000000208F
:10016000024B1860024B1868FFF7E2BF74020020D0
:100170000000002008B5054B054A1B68934203D0D8
:1001800013B15B6903B1984708BD00BF00000020B0
:10019000883E0008224A038890429BB212D002F5A2
:1001A000006290420ED0B0F1804F0BD0A2F5983291
:1001B000904207D002F58062904203D002F580623F
:1001C000904203D14A8823F070031343154A9042AA
:1001D00008D002F58062904204D023F44073CA88AC
:1001E0009BB2134303808B8883850B8803850C4B5C
:1001F00098420FD003F5006398420BD003F540639B
:10020000984207D003F58063984203D003F58063DA
:10021000984201D10B7A038601238382704700BF85
:10022000002C0140001000404FF6FF738380002334
:100230000380C380438003727047038819B19BB267
:1002400043F0010303E023F001031B041B0C0380B4
:10025000704783899BB20AB1194301E023EA010187
:1002600081817047038A828911EA030092B203D028
:1002700011420CBF002001207047C94389B201829E
:100280007047000008B50C4A0C4B0D4903E052F8CA
:10029000040B43F8040B8B42F9D30A480A494FF088
:1002A00000028842B8BF40F8042BFADB00F018FACD
:1002B000BDE8084001F00CBEC3510008000000205A
:1002C0007402002074020020DC080020FEE7000019
:1002D0002DE9F843564D0646286802F017FE2B68B4
:1002E00011210024594304E00A19AA18013413719A
:1002F000E4B2035D4E4A002BF6D113681121594335
:10030000081910183A25057104E00F2C09D80D19A9
:100310005519287116F8010B0134E4B20028F4D104
:100320000DE0112202FB034241498A18002111719C
:1003300005E01819081801340271E4B203E0112233
:100340003B49534320220F2C394DF2D9002220463D
:10035000384903F03FFD2B68112202FB03440133AF
:100360002A190024172B14712B6057D90A26A0468E
:100370002F46204602F0CAFD4FF0110E00230EFB5F
:1003800004FE05E00EEB0301691801330A71DBB2CC
:10039000C25C1121002AF5D101FB04F27143D0188F
:1003A00038184FF03A0E013380F804E0DBB294467F
:1003B0005FFA84FE681810E0BEF1090F05D901EB61
:1003C0000309A94499F8049003E000EB030999F8A4
:1003D0000590013382F80490DBB20CEB0302AA18FB
:1003E00092F80490B9F1000FE6D1013B1121DBB284
:1003F0006143202204E0C818281801330271DBB2DF
:100400000F2BF8D9112202FB04330134FB180136FB
:100410000E2C83F80480ACD1054B1C6003F012F85D
:10042000034B054918680022BDE8F84303F0D2BC2D
:1004300098050020A03E0008A53E00082DE9F047E1
:10044000554F054638680E4602F060FD3B681121A5
:100450000024594304E00A19BA1801341371E4B2B4
:10046000035D4D4A002BF6D1136811215943081939
:100470001018067104E00F2C09D80F19D71938711C
:1004800015F8010B0134E4B20028F4D10DE011227B
:1004900002FB034240498A180021117105E0181936
:1004A000081801340271E4B203E011223A495343BF
:1004B00020220F2C384DF2D900222046374903F074
:1004C00089FC2B68112202FB034401332A19002402
:1004D000172B14712B6054D90A27A146A846204631
:1004E00002F014FD4FF0110E00230EFB04FE05E098
:1004F0000EEB0301691801330A71DBB2C25C1121F2
:10050000002AF5D101FB04F27943D01840440133AD
:100510000671DBB294465FFA84FE681810E0BEF103
:10052000090F05D901EB030AAA449AF804A003E0D5
:1005300000EB030A9AF805A0013382F804A0DBB2AD
:100540000CEB0302AA1892F804A0BAF1000FE6D14E
:10055000013B1121DBB26143202204E0C8182818B6
:1005600001330271DBB20F2BF8D9112202FB0433E5
:100570000134434401370E2C83F80490AFD1064B6D
:100580001C6002F05FFF044B054918680022BDE8BB
:10059000F04703F01FBC00BF98050020A03E0008F4
:1005A000A53E000810B5384C00222068374903F0FA
:1005B00011FCA0680022364903F00CFC20690022DF
:1005C000344903F007FCA0690022334903F002FC20
:1005D000206A0022314903F0FDFBA06A0022304965
:1005E00003F0F8FB206B00222E4903F0F3FBA06B15
:1005F00000222D4903F0EEFB206C00222B4903F072
:10060000E9FBA06C00222A4903F0E4FB206D0022E4
:10061000284903F0DFFBA06D0022274903F0DAFB35
:10062000206E0022254903F0D5FBA06E002224494C
:1006300003F0D0FB206F0022224903F0CBFBD4F85B
:1006400088000022204903F0C5FBA06F1F4900224B
:1006500003F0C0FBD4F8800000221D4903F0BAFB70
:10066000D4F8900000221B4903F0B4FBD4F89800A2
:100670000022194903F0AEFBD4F8A000174900226C
:10068000BDE8104003F0A6BB04000020A93E00080E
:10069000BC3E0008DA3E0008F93E0008153F00089D
:1006A000323F0008493F0008603F0008773F0008DC
:1006B000953F0008AD3F0008C13F0008DA3F000841
:1006C000E73F0008F43F0008014000080F40000821
:1006D00021400008344000085040000878400008DD
:1006E000314B82B01A6842F001021A6059682F4AF1
:1006F0000A405A601A6822F0847222F480321A602A
:100700001A6822F480221A605A6822F4FE025A60A3
:100710004FF41F029A600022DA62009201921A6876
:1007200042F480321A601A6802F400320192009A90
:1007300001320092019A1AB9009AB2F5A06FF2D173
:10074000194B1B6813F4003318BF01230193019B5D
:10075000012B23D1144B5A685A605A685A605A6860
:100760005A605A6822F47C125A605A6842F498120D
:100770005A601A6842F080721A6019680A4A890140
:10078000FBD5536823F003035360536843F002031F
:100790005360536803F00C03082BFAD1044B4FF05D
:1007A00000629A6002B07047001002400000FFF83B
:1007B00000ED00E084B0ADF80600BDF806304FF45F
:1007C000FA629BB2534301E0039B013B0393039BFB
:1007D000002BF9D104B0704784B0ADF80600BDF825
:1007E00006309BB25B0001E0039B013B0393039B3C
:1007F000002BF9D104B0704710B5074C4FF480437B
:1008000023610220FFF7E8FF4FF0804302202361BD
:10081000BDE81040FFF7E0BF000C014070B50F4C81
:100820004FF07C454FF4805625612661FFF7E4FFC9
:100830000120FFF7BFFF25612661FFF7DDFF0120E3
:10084000FFF7B8FF4FF4806325612361FFF7D4FF02
:100850000120BDE87040FFF7ADBF00BF000C0140B4
:10086000254B4FF07C4270B504460D461A6111B11C
:100870004FF400421A61E20644BF4FF400521A617D
:100880001D4B14F0200F1CBF4FF480521A616606F6
:1008900044BF4FF400621A61174E14F0800F1CBF62
:1008A0004FF480633361FFF7A7FF4FF07053E00709
:1008B000336103D5104B4FF400521A61A10703D5E1
:1008C0000D4B4FF480521A61620703D50A4B4FF467
:1008D00000621A61230703D5074B4FF480621A6147
:1008E000FFF78AFF0220FFF765FF1DB1024B4FF0B3
:1008F00000421A6170BD00BF000C0140034610B9F0
:10090000082019460BE021B90AB90C2003E00D209C
:1009100005E012B90E20114601E00F200021FFF77B
:100920009FBF01200021FFF79BBF08B56420FFF7A0
:1009300041FFFFF773FF012001460022FFF7DEFFB2
:10094000BDE80840FFF7EDBFC0B20121FFF788BF47
:10095000054B1870597011B940F0800002E040F06A
:10096000C0000021FFF77CBF9C0200202DE9F84366
:1009700089460646DFF86C800127194C29E0B22829
:1009800001D1492011E0AF2801D103200DE0DE287C
:1009900002D10120014609E0AA2801D1022004E089
:1009A000BF2884BF404410F8C00C0121FFF758FF56
:1009B000237865780133DBB2237055B9082B08D151
:1009C000B9F1020F05D128460121FFF7C1FF2570BB
:1009D000677016F8010B0028D1D1BDE8F88300BF7D
:1009E0009C02002000020020C00040F0400038B50A
:1009F000C0B20D460021FFF733FF0024285D01211E
:100A00000134FFF72DFF082CF8D180200021BDE82C
:100A10003840FFF725BF2DE9F341002504241527B1
:100A20001F264FF00E08284669468DF800408DF8C5
:100A300003408DF805408DF801708DF802808DF827
:100A400004508DF806608DF80760FFF7CDFF012098
:100A500069468DF802408DF806408DF800708DF8DB
:100A600001808DF803508DF804508DF805508DF8F5
:100A70000760FFF7B9FF022069468DF801408DF845
:100A800005408DF800508DF802808DF803708DF8C8
:100A900004508DF806608DF80760FFF7A5FF03206E
:100AA00069468DF800408DF803408DF806408DF8BA
:100AB00001808DF802708DF804508DF805508DF886
:100AC0000760FFF791FF204669468DF800408DF8DA
:100AD00003408DF804408DF807408DF801808DF8B3
:100AE00002708DF805708DF80680FFF77DFF0223F8
:100AF0008DF800300A238DF803308DF804301C2364
:100B000007248DF805308DF8063005200823694646
:100B10008DF807308DF801408DF80240FFF764FF33
:100B20000F238DF8003005238DF801308DF8023049
:100B30008DF803308DF804300620092369468DF8BE
:100B400006308DF805708DF80750FFF74DFF112323
:100B50008DF800308DF801308DF8023020460123E9
:100B600069468DF803608DF804308DF805308DF8F6
:100B700006308DF80750FFF737FFBDE8FC810221F2
:100B8000FFF7F4BE10B5044608461146FFF7E0FE35
:100B900020460221BDE81040FFF7E8BE08B5364BFD
:100BA0005A6822F440725A605A6842F400725A60DD
:100BB0005A6822F440625A605A6842F480625A606D
:100BC0005A6822F440525A605A6842F400525A60FD
:100BD0005A6822F440425A605A6842F480425A608D
:100BE0005A6822F440325A605A6842F400325A601D
:100BF0005A6822F440225A605A6842F480225A60AD
:100C00005A6822F440125A605A6842F400125A603C
:100C10005A6822F440025A605A6842F480025A60CC
:100C20005A6822F040725A605A6842F000725A6064
:100C30005A6822F040625A605A6842F080625A60F4
:100C40005A6822F040525A605A6842F000525A6084
:100C50005A6822F040425A605A6842F080425A6014
:100C6000FFF763FEFFF75DFE002101200A46BDE8A5
:100C70000840FFF743BE00BF000C0140CB782DE9D0
:100C8000F04303F00F02DB0648BF8B780E8848BFA5
:100C90001A4316F0FF0F1FD0046800234FF001081D
:100CA0004FF00F0C08FA03F707EA0605BD420FD113
:100CB0009F000CFA07F902FA07F724EA09043C43FB
:100CC000CF78282F01D1456102E0482F08BF056188
:100CD0000133082BE6D104600E88FF2E21D9446829
:100CE00000234FF001084FF00F0C03F1080708FA3A
:100CF00007F707EA0605BD420FD19F000CFA07F976
:100D000002FA07F724EA09043C43CF78282F01D1DF
:100D1000456102E0482F08BF05610133082BE4D18B
:100D20004460BDE8F083836819420CBF00200120B5
:100D300070470000014B00221A807047A00200207B
:100D400002F0F2BE08B502F035FF0248BDE80840E7
:100D5000FFF7BEBA644A000818B100210A46FFF73F
:100D600011BF704710B5134C002290B06068124953
:100D700003F030F8626849F6AF239A4217D90BA9FD
:100D8000A06802F03EFA60684FF46163B0FBF3F0D4
:100D900001A902F0F5F809490BAA06AB02F09DF98A
:100DA00006A80121FFF74AFB06A802F0D3FF10B006
:100DB00010BD00BFA0020020704A0008784A000859
:100DC00010B50F4C49F6AF23E26890B09A4214D99F
:100DD0000BA9206902F015FAE0684FF46163B0FBDB
:100DE000F3F001A902F0CCF806490BAA06AB02F019
:100DF00074F906A80221FFF721FB10B010BD00BF57
:100E0000A0020020784A000884B0ADF80600BDF8C2
:100E100006304FF416629BB2534301E0039B013B43
:100E20000393039B002BF9D104B0704708B507204A
:100E30000121FFF78DFDFF200121FFF711FD02F0D9
:100E400073FE044BC8209A68034B1A60BDE8084043
:100E5000FFF7DABF540000204807002008B53E4BDA
:100E600093F9140060B90146FFF772FD3B48FFF7A4
:100E700086FE3B4B4FF487629A6102F5BE721A629E
:100E8000354B93F91430012B0DD100200146FFF7AB
:100E90005FFD3448FFF773FE314B4FF496729A6151
:100EA0004FF4D2721A622C4B93F91430022B0DD1ED
:100EB00000200146FFF74CFD2B48FFF760FE284B52
:100EC0004FF48C729A614FF4B9721A62224B93F903
:100ED0001430032B0CD100200146FFF739FD2348C5
:100EE000FFF74DFE1E4BA0229A614FF48C721A62DE
:100EF000194B93F91430042B0DD100200146FFF754
:100F000027FD1B48FFF73BFE154B4FF448729A61D3
:100F10004FF4AA621A62104B93F91430052B0CD1CE
:100F200000200146FFF714FD1248FFF728FE0C4B86
:100F300064229A614FF4FA621A62074B93F9142003
:100F4000062A01D100221A7502F0EEFD4FF4167048
:100F5000BDE80840FFF758BFA00200207C4A000807
:100F6000540000208D4A00089E4A0008AF4A00083D
:100F7000C04A0008D14A000882B00190019A4FF09F
:100F8000804392B29A8500229A8409221A80198A93
:100F90004FF08042C907FAD5138A23F001031B04DE
:100FA0001B0C138202B07047022838B51E4B09D1C2
:100FB0001A881E49013292B209681A8012B28A4216
:100FC00013D310E0012810D11A88013A92B210040C
:100FD0001A8003D5154A1268013A1A80124BB3F9E8
:100FE0000020002A01DA00221A8000200F4C01465E
:100FF000FFF7AEFC0C4D234653F8040BB5F9002067
:101000000138801A112202FB0030FFF7B8FDB5F954
:1010100000000022064902F0DDFE2068054900229A
:10102000BDE8384002F0D6BEA0020020980500209E
:10103000E24A0008EF4A000838B504460B4D00208C
:101040000146FFF785FC286801F060FFFFF797FD78
:101050000748FFF794FD022C06D12A68054B9A60D9
:10106000BDE8384002F0A6BD38BD00BF8C020020AC
:10107000024B00080400002010B504460020014681
:10108000FFF766FC1648FFF77AFD022C27D102F025
:10109000B9FC02F07DFC044600200146FFF758FC35
:1010A0001048FFF76CFD4FF4FA60FFF7ADFE00202B
:1010B0000146FFF74DFC012C08D10B48FFF75FFDFF
:1010C0000A48FFF705F94FF4FA6004E00848FFF713
:1010D00056FD4FF47A60BDE81040FFF795BE10BD95
:1010E000114B0008224B0008334B0008444B00080A
:1010F000534B0008022810B50E4C02D1236901336E
:1011000003E0012802D12369013B2361002001464D
:10111000FFF71EFC206901F0F9FEFFF730FD0648DD
:10112000FFF72DFD23694FF461625A43034B1A60A8
:1011300010BD00BF54000020644B0008340700209D
:10114000022810B5324B07D11A7D0132D2B2072ADC
:101150001A750BD1002208E0012807D11A7D013A47
:10116000D2B214061A7501D506221A75284C94F9C4
:10117000140028B90146FFF7EBFB2648FFF7FFFCF8
:1011800094F91430012B06D100200146FFF7E0FB53
:101190002148FFF7F4FC1E4C94F91430022B06D1C1
:1011A00000200146FFF7D4FB1C48FFF7E8FC94F948
:1011B0001430032B06D100200146FFF7C9FB184865
:1011C000FFF7DDFC124C94F91430042B06D10020FB
:1011D0000146FFF7BDFB1348FFF7D1FC94F914302B
:1011E000052B06D100200146FFF7B2FB0E48FFF7A2
:1011F000C6FC074B93F91430062B08D1002001469A
:10120000FFF7A6FB0948BDE81040FFF7B8BC10BDCA
:10121000A0020020694B00087A4B00088C4B0008A4
:101220009D4B0008AD4B0008BE4B0008CE4B00089C
:10123000022810B50D4C02D1A3690A3303E001283E
:1012400002D1A3690A3BA36100200146FFF780FB9E
:10125000A0690A23B0FBF3F0012101F0CBFEFFF7F8
:101260008EFC0348BDE81040FFF789BC5400002005
:10127000994A0008022810B50D4C02D1236A0A339E
:1012800003E0012802D1236A0A3B236200200146C1
:10129000FFF75EFB206A0A23B0FBF3F0012101F0A7
:1012A000A9FEFFF76CFC0348BDE81040FFF767BCE0
:1012B00054000020994A0008022810B50B4C02D1B6
:1012C000A36A013303E0012802D1A36A013BA362B0
:1012D00000200146FFF73CFBA06A01F017FEFFF774
:1012E0004EFC0348BDE81040FFF749BC5400002005
:1012F000DE4B0008022810B50B4C02D1236B0133E2
:1013000003E0012802D1236B013B23630020014647
:10131000FFF71EFB206B01F0F9FDFFF730FC0348DF
:10132000BDE81040FFF72BBC54000020DE4B000846
:10133000022838B51A4C02D1A36B013303E001280F
:1013400002D1A36B013BA36300200146FFF700FB22
:10135000A06B01F0DBFDFFF712FC1248FFF70FFC5A
:10136000206A0A250121B0FBF5F001F043FEFFF7EA
:1013700006FC0D48FFF703FC236AA06B6422584368
:10138000B0FBF2F01B1AB3FBF5F0012101F032FEC5
:10139000FFF7F5FB0548BDE83840FFF7F0BB00BF9D
:1013A00054000020E74B0008EA4B0008994A000867
:1013B00008B5084B1A68084B9B689A4209D1072068
:1013C0000121FFF7C5FAFF200121BDE80840FFF722
:1013D00047BA08BD480700205400002010B5044655
:1013E00000200146FFF7B4FA022C194B06D19A6887
:1013F0000132082A9A6009D1012206E0012C05D1A8
:101400009A68013A9A600AB907229A60104A93686A
:10141000013B062B18D8DFE803F00406080A0C0E7F
:1014200010000C480AE00C4808E00C4806E00C48A4
:1014300004E00C4802E00C4800E00C48FFF79FFB7A
:10144000BDE81040FFF7B4BF0123936010BD00BF9B
:1014500054000020ED4B0008FE4B00080F4C000824
:10146000204C0008314C0008424C0008534C000846
:1014700010B518481021FFF756FC80B115482021FF
:10148000FFF751FC68B113484021FFF74CFC50B105
:1014900010488021FFF747FCC0B9042204E0032272
:1014A00002E0022200E001220B4B40F2DC50D98A1C
:1014B0000CB2844203DD40F2B451D98204E0013120
:1014C00089B21429D98204D11A7610BD024B0022A8
:1014D000DA8210BD000C0140A0020020034B002264
:1014E000187E00B1DA611A76704700BFA0020020B2
:1014F00008B508480121FEF7B5FE48B105480121AD
:10150000FEF7BBFEFFF7B4FF034B1A6A01321A6203
:1015100008BD00BF00140040A002002008B51B4811
:101520000121FEF79FFE00282FD001211748FEF76A
:10153000A4FE174B1749DA6809688A18DA6093F82D
:101540002420012A02D19A6801329A6093F825304A
:101550000F4A012B02D11369013313610C4B93F82D
:101560002620012A02D19A6A01329A62DA6A01328D
:10157000DA62DB6A13F0010F074B03D14FF400422C
:101580001A6108BD4FF000421A6108BD00440140D5
:10159000A00200208C02002000080140074B4FF4FD
:1015A00000321A614FF08072A3F580631A61044B18
:1015B000002283F8302083F831207047000C01406E
:1015C000A0020020064B02221A61064B012283F87A
:1015D000302083F83120044B4FF480721A61704739
:1015E000000C0140A00200200008014038B52B4B40
:1015F0000122054683F83220FFF7E4FF022D284C34
:1016000002D12388013303E0012D02D12388013B5D
:10161000238000200146FFF79BF90221208801F07A
:10162000E9FCFFF7ACFA1F48FFF7A9FA1E4B1F4A67
:101630001888136880B2002B21881D4B01DC4622DC
:1016400009E0401A116802B222EAE27242F2107016
:10165000424392FBF1F2164C1A64206C01F056FCE6
:10166000FFF78DFA1348FFF78AFA134B19880E4BD0
:1016700089B21A880D4B92B21868002801DC0A233F
:1016800009E0891A1A680BB223EAE37342F2107177
:101690004B4393FBF2F3A36438BD00BFA0020020CC
:1016A00020020020EA4B0008980200208C02002053
:1016B00004000020664C00084205002038B5174B96
:1016C0000122054683F83220FFF77CFF022D144CDF
:1016D00002D1A36B013303E0012D02D1A36B013BC7
:1016E000A36300200146FFF733F9A06B01F00EFC65
:1016F000FFF745FA0B48FFF742FA00200121FFF7F8
:1017000027F9094B0221188880B201F073FCFFF71A
:1017100036FA0648BDE83840FFF731BAA00200208B
:1017200004000020BD4C000848050020714C000852
:1017300038B5174B0122054683F83220FFF742FFE8
:10174000022D144C02D1236B013303E0012D02D191
:10175000236B013B236300200146FFF7F9F8206B60
:1017600001F0D4FBFFF70BFA0B48FFF708FA002053
:101770000121FFF7EDF8094B0221188880B201F032
:1017800039FCFFF7FCF90648BDE83840FFF7F7B928
:10179000A002002004000020BD4C000868050020C5
:1017A000714C000838B5174B0122054683F83220EA
:1017B000FFF708FF022D144C02D1A36A013303E0A6
:1017C000012D02D1A36A013BA36200200146FFF76D
:1017D000BFF8A06A01F09AFBFFF7D1F90B48FFF7B9
:1017E000CEF900200121FFF7B3F8094B0221188838
:1017F00080B201F0FFFBFFF7C2F90648BDE83840B0
:10180000FFF7BDB9A002002004000020BD4C000875
:1018100042050020714C000838B5164B01220546E0
:1018200083F83220FFF7CEFE022D134C02D1236A3B
:10183000013303E0012D02D1236A013B2362002022
:101840000146FFF785F8206A01F060FBFFF797F982
:101850000A48FFF794F901210020FFF779F8084BB7
:10186000186801F053FBFFF78AF90648BDE83840D5
:10187000FFF785B9A002002004000020BD4C00083D
:1018800094020020754C000838B5164B012205461D
:1018900083F83220FFF796FE022D134C02D1A36984
:1018A000013303E0012D02D1A369013BA3610020B4
:1018B0000146FFF74DF8A06901F028FBFFF75FF93B
:1018C0000A48FFF75CF901210020FFF741F8084BB7
:1018D000186801F01BFBFFF752F90648BDE83840D5
:1018E000FFF74DB9A002002004000020BD4C000805
:1018F00090020020754C000838B501226A4B9042D6
:10190000044683F832200AD193F83320013AD2B248
:10191000150683F8332002D5022283F8332093F989
:101920003330002B40F08280022C08D15E4B93F8BC
:10193000303013B9FFF746FE01E0FFF72FFE00201D
:101940000146FFF705F8594B0221188880B201F0D3
:1019500051FBFFF714F95648FFF711F90720002152
:10196000FEF7F6FF504B93F83030012B514B32D13C
:101970001A68B2F57A7F07DA186801F0C7FAFFF73C
:10198000FEF84D48FFF7FBF84A4B1A68B2F57A7F2C
:1019900010DB196842F20F7291420BDC1868642365
:1019A00090FBF3F0012101F025FBFFF7E8F8434835
:1019B000FFF7E5F83F4B42F20F721968914212DDD2
:1019C00018684FF47A7390FBF3F001F09FFAFFF779
:1019D000D6F83A4805E0186801F098FAFFF7CFF812
:1019E0003748FFF7CCF8304B93F830502DB907202B
:1019F0000121FEF7ADFF284608E093F834300720B8
:101A00000121052B04D8FEF7A3FF0020012103E0EC
:101A1000FEF79EFF01200146FEF796FF224B93F84A
:101A200034200A2A02D9002283F834201E4B93F96D
:101A30003330012B18D1022C02D1224B00221A6024
:101A400000200146FEF784FF1F48FFF798F81D4B62
:101A500018684FF46163B0FBF3F001F057FAFFF739
:101A60008EF81A48FFF78BF80F4D95F93330022B9B
:101A700018D1022C01D10023EB6000200146FEF7B3
:101A800067FF1348FFF77BF8E8684FF46163B0FB2A
:101A9000F3F001F03BFAFFF772F80E48BDE838406A
:101AA000FFF76DB838BD00BFA0020020420500203E
:101AB000714C00088C0200207A4C0008814C000810
:101AC000884C000878020020904C0008954C0008D3
:101AD000A84C0008AC4C0008054B012283F83020CC
:101AE00083F83520034B4FF400621A61704700BF42
:101AF000A002002000080140054B002283F830209E
:101B000083F83520034B4FF000621A61704700BF25
:101B1000A00200200008014008B5FFF7EDFFBDE876
:101B20000840FFF73BBD0000F0B59D4B01220228A5
:101B300087B083F8322009D193F837200132D2B22E
:101B4000082A83F837200ED100220AE001280AD1A2
:101B500093F83720013AD2B283F83720120602D523
:101B6000072283F837208E4B93F937400CBBFFF7E1
:101B7000D3FF21462046FEF7EBFE8A48FEF7FFFF23
:101B8000894B012118880A2380B2B0FBF3F001F0E1
:101B900031FAFEF7F4FF8548FEF7F1FF844B02218E
:101BA000188880B201F026FAFEF7E9FF8148FEF7B7
:101BB000E6FF7B4B93F93730012B1DD1FFF7ACFFCC
:101BC00000200146FEF7C4FE7B48FEF7D8FF7B4BA2
:101BD0000221188880B201F00DFAFEF7D0FF784894
:101BE000FEF7CDFF774BD88880B201F08FF9FEF772
:101BF000C6FF7548FEF7C3FF694B93F93740022CC7
:101C00001DD1FFF7DFFC00200146FEF7A1FE6F4863
:101C1000FEF7B5FF6E4B2146188880B201F0EAF955
:101C2000FEF7ADFF6648FEF7AAFF664B988880B2C4
:101C300001F06CF9FEF7A3FF6348FEF7A0FF584BD5
:101C400093F93730032B1BD1FFF7BCFC0020014672
:101C5000FEF77EFE5F48FEF792FF5F4B186801F0CB
:101C600055F9FEF78CFF5D48FEF789FF554B588804
:101C700080B201F04BF9FEF782FF5348FEF77FFF79
:101C8000474B93F93730042B1BD1FFF79BFC002007
:101C90000146FEF75DFE4F48FEF771FF504B186896
:101CA00001F034F9FEF76BFF4E48FEF768FF454B35
:101CB000188880B201F02AF9FEF761FF4A48FEF762
:101CC0005EFF374B93F93730052B39D13B4D474CED
:101CD000FFF778FC2988238889B29BB2CB1A42F29D
:101CE0001071434F4B433A68424E002093FBF2F38E
:101CF0000146B364FEF72CFE3F48FEF740FF306C10
:101D000001F004F9FEF73BFF3C48FEF738FFB06CEA
:101D100001F0FCF8FEF733FF3948FEF730FF386872
:101D20003849002202F056F82888374980B202224A
:101D300002F050F82088354980B2022202F04AF8B9
:101D4000174C94F93730062B0ED1FFF7E5FE002033
:101D50000146FEF7FDFD01A9E06A01F0E1F9FEF799
:101D60000EFF2B48FEF70BFF0D4C94F93730072B75
:101D700014D1FFF7D1FE00200146FEF7E9FD25480A
:101D8000FEF7FDFEA06B4FF46163B0FBF3F001F0D2
:101D9000BDF8FEF7F4FE2048FEF7F1FE07B0F0BDF7
:101DA000A0020020E24C000848050020E74C000893
:101DB00044050020BC4C0008EC4C00084205002003
:101DC000EA4B000838070020BA4C0008F14C000824
:101DD00068050020F74C000890020020FA4C00082B
:101DE00094020020FE4C0008B94C00089802002024
:101DF0008C02002004000020034D0008064D00085E
:101E00000B4D0008134D0008174D00081E4D00082B
:101E1000B84C0008264D00082D4D000808B5274B8A
:101E20000122022883F8322007D193F8303013B909
:101E3000FFF752FE01E0FFF75FFE00200146FEF7CC
:101E400087FD1F4B0221188880B201F0D3F8FEF7FE
:101E500096FE1C48FEF793FE1B4B186801F056F8DF
:101E6000FEF78DFE1948FEF78AFE144B93F83020DA
:101E700012B90620012105E093F834300620012133
:101E8000052B07D8FEF764FD02200121FEF75CFD5B
:101E9000022006E0FEF75CFD03200121FEF754FD61
:101EA00003200121FEF750FD044B93F834200A2A49
:101EB00002D9002283F8342008BD00BFA002002010
:101EC00068050020EA4B00088C020020814C0008C5
:101ED0002DE9F04100F0C2FEAC4DFFF71DFEAC4B0A
:101EE0004FF4803200241A61AA482C60FEF747FEA6
:101EF000FEF791FD21462046FEF72AFD4FF4FA60D9
:101F0000FEF782FF01F0CEFA2B68172B88BF2C60FA
:101F100001F03EFD80B94FF47A70FEF775FF01F0D5
:101F200037FD48B99C48FEF72AFE4FF47A60FEF769
:101F30006BFF9A48FEF7CCF9994B9A4C1A699A4B69
:101F400094489A6323694FF461625A43974B1A602D
:101F5000974BA2681A6001F0FDFEFEF723FBFEF727
:101F6000E0FC9448FEF7FCF8A368012B17D0022B85
:101F700001D1914814E0032B01D1904810E0042BCB
:101F800001D18F480CE0052B01D18E4808E0062BCB
:101F900001D18D4804E0072B01D18C4800E08C482A
:101FA000FEF7C6F8804D8B4F8B4E95F834300133D9
:101FB00085F83430FFF792FA88490022044601F090
:101FC00009FF38688649002201F004FF70888549BE
:101FD00080B2002201F0FEFE834B84491868002283
:101FE00001F0F8FE3088824980B2002201F0F2FE52
:101FF000804B81491868002201F0ECFE7F4B80493C
:102000001868002201F0E6FE7E4B7F491878002216
:1020100001F0E0FE7D4B7E491868002201F0DAFEF7
:10202000E8687C49002201F0D5FE631E032B17D817
:10203000DFE803F002060A11FEF774F840680DE0CD
:10204000FEF770F8006809E00220FEF793F8FEF74B
:1020500069F8C06802E0FEF765F88068FEF768F886
:10206000FEF760F8DFF86881404503D12046FFF7AE
:1020700043FC3AE1FEF756F808F12C03984203D1ED
:102080002046FFF7CBFE30E1FEF74CF808F158038D
:10209000984200F02A81FEF745F808F1840398423F
:1020A00000F02381FEF73EF808F1B003984200F0FB
:1020B0001C81FEF737F808F59A73984200F01581F5
:1020C000FEF730F808F1DC03984200F00E81FEF7CD
:1020D00029F808F58473984200F00781FEF722F88A
:1020E00008F5B073984203D12046FFF71DFDFCE0D0
:1020F000FEF718F808F5C678404503D12046FEF7EC
:1021000053FFF2E0FEF70EF8DFF80C81404500F0D7
:10211000EC80FEF707F808F12C03984203D1204623
:10212000FEF78AFFE1E0FDF7FDFF08F15803984252
:1021300003D12046FFF770FBD7E0FDF7F3FF08F16E
:102140008403984203D12046FFF79EFBCDE0FDF7C4
:10215000E9FF08F1B003984203D12046FFF7AEFA39
:10216000C3E0FDF7DFFF08F1CC03984203D120461E
:10217000FFF7DEFAB9E0FDF7D5FF08F1F803984262
:102180004CD12046FFF70EFBAFE000BF98050020C2
:10219000000C0140230200203B4D00084C4D00087C
:1021A0009400002054000020A002002034070020EA
:1021B00048070020590D0008C8400008F4400008F6
:1021C000204100084C41000878410008A441000863
:1021D0009C40000890020020380700205A4D00085B
:1021E0005F4D0008634D000894020020684D000810
:1021F0006D4D00088C020020734D000888020020FD
:102200007B4D0008AC000020884D000878020020BB
:102210008D4D0008994D000854420008FDF782FFDB
:1022200008F59273984203D12046FFF7DFF95CE08E
:10223000FDF778FF08F5A073984203D12046FEF71A
:102240001BFF52E0FDF76EFF08F5AE78404503D165
:102250002046FEF74FFF48E0FDF764FFDFF8C0803F
:10226000404503D12046FEF76BFF3EE0FDF75AFFE5
:1022700008F12C03984203D12046FEF7D9FF34E041
:10228000FDF750FF08F15803984203D12046FEF7AE
:10229000F1FF2AE0FDF746FF08F18403984203D1DD
:1022A0002046FFF709F820E0FDF73CFF08F1B003F6
:1022B000984203D12046FFF71DF816E0FDF732FFE4
:1022C00008F1DC03984203D12046FFF731F80CE017
:1022D000FDF728FF08F58478404503D12046FFF735
:1022E0007DF802E0002385F8323095F832407CB961
:1022F000FFF712FC084BEC601C60EA68074B85F89E
:102300003C409A602B6985F833402B6485F8364051
:102310006420FEF731FE48E6780200209400002099
:10232000DC43000870B592B07E2312A9002621F884
:10233000043D48488DF84760FEF7A0FC01214FF4AA
:10234000007000F051FB0120014600F041FB424BC0
:10235000082502934FF4806308938023069320237B
:1023600009933E4B3E4801934FF48073079301A9B4
:102370004FF400530A93049503960B96059600F0CC
:102380008BFF0121364800F0A5FF4FF4004000F01C
:10239000CDFA01244FF4602332480CA90E938DF836
:1023A00035400F960C968DF840508DF8344000F073
:1023B00079FC07232B482146224600F0C4FC022169
:1023C0000A460723274800F0BEFC03210A460723DC
:1023D000244800F0B8FC04210A460723214800F0F5
:1023E000B2FC05210A4607231E4800F0ACFC06217A
:1023F0000A4607231B4800F0A6FC204600F0F2FC2A
:10240000072213461748112100F09DFC2A46042399
:102410001448102100F097FC1248214600F066FC99
:102420001048214600F06BFC0E4800F071FC0D488E
:1024300000F073FC0028FAD10A4800F072FC094849
:1024400000F074FC0028FAD10648012100F072FC6B
:1024500012B070BD00080140380700204C24014034
:1024600008000240002401401FB50121022000F0B5
:10247000C7FA104C01A8FDF7D7FE45F6BF53ADF8DB
:1024800004302046052301A9ADF80830FDF782FE8F
:1024900001210A462046FDF7DCFE20460121FDF71A
:1024A000CCFE054B4FF000521A60202283F81D230A
:1024B0001FBD00BF0004004000E100E0224A234BA2
:1024C00091682DE9F04108319160C91A002808BFD0
:1024D0000120A729C8BF9360936812681E689A42BA
:1024E00008BF194A184C08BF1660194F2268988017
:1024F00015252146BC46D2F800809845B2F80480E4
:1025000008BF1660804503D2086818600B60002081
:10251000BA42246814D01168D1F800809845B1F807
:10252000048008BF0E60804503D2106818601360F5
:102530000020614504D0013DADB20A68002DDAD11A
:10254000A088BDE8F08100BF380200200C03002005
:10255000B4030020224A234B51692DE9F041083190
:102560005161C91A002808BF0120A729C8BF5361BB
:102570005369D2681E689A4208BF194A184908BFB1
:10258000D66051F80C2F184F988015250C46BC4684
:10259000D2F800809845B2F8048008BF16608045E4
:1025A00003D22068186023600020BA42096814D062
:1025B0001468D4F800809845B4F8048008BF2660F9
:1025C000804503D21068186013600020644504D071
:1025D000013DADB22268002DDAD18888BDE8F081D6
:1025E00038020020BC03002064040020224A234B50
:1025F000116A2DE9F04108311162C91A002808BF9B
:102600000120A729C8BF1362136A92691E689A4203
:1026100008BF194A184908BF966151F8182F184F7A
:10262000988015250C46BC46D2F800809845B2F833
:10263000048008BF1660804503D2206818602360BC
:102640000020BA42096814D01468D4F80080984574
:10265000B4F8048008BF2660804503D21068186073
:1026600013600020644504D0013DADB22268002D06
:10267000DAD18888BDE8F081380200206C0400209F
:10268000140500200F49D1F81432D1F81022C1F8F6
:1026900018329342C1F81422C1F8100207DC8342B9
:1026A00003DC9042A8BF104670479A4205DC824284
:1026B00003DC9842A8BF184670479A42B4BF104640
:1026C000184670470C0300200F49D1F82C32D1F87E
:1026D0002822C1F830329342C1F82C22C1F82802D6
:1026E00007DC834203DC9042A8BF104670479A4241
:1026F00005DC824203DC9842A8BF184670479A4224
:10270000B4BF1046184670470C030020F8B578484F
:102710000121FDF7A7FD002800F0E880754B01219D
:102720001A68734801321A60734B744D1A68744CFE
:1027300001321A60FDF7A1FD022000F0DFFD02204A
:1027400000F0E6FD022100226E4800F0CEFD6E4B47
:10275000A9889B6A89B24B43AA8992B2B3FBF2F370
:102760009BB2A4F83432B4F8340280B2FFF7A6FE6C
:10277000A4F83602B4F836329BB2022B02D80023FA
:10278000A4F83632AA894FF4F02392B293FBF2F206
:102790005B4B92B2A3F838225B4FA8883A6B80B2A9
:1027A0004243A989554D89B2B2FBF1F292B2A3F826
:1027B00034220022A3F83A22B3F83A02534980B2F5
:1027C0000880B3F83A124E4C09B20229D8BFA3F8D8
:1027D0003A222989BB6B89B24B43AA89642692B2FB
:1027E000B3FBF2F39BB2A4F83432B4F8340200B273
:1027F000FFF76AFFBB6980B2A4F83C0273436988A3
:10280000AA8989B24B4392B2B3FBF2F3C4F84032C7
:10281000D4F8400280B2FFF79DFE70433C4B396A0A
:1028200018604E432A88AB8992B256439BB2B6FBDE
:10283000F3F6C4F84462D4F8440280B2FFF7D6FE3F
:10284000344B18601A68022A01DC00221A60D4F89E
:102850004402FFF717FFC4F84802D4F8482241F2B7
:1028600024339A42264D2C4B09DD29491A68096800
:102870008A181A60294B1A68D5F840120DE0254ACB
:10288000196810684118196013680A2B234BCBBFD5
:102890001A681968D5F84412126852181A60154B54
:1028A0001A68502A08D11C490868B0FBF2F21C488B
:1028B000026000220A601A600F4B1A68A62A0ED125
:1028C000184A164914680D68A720B5FBF0F00019E6
:1028D000106000220A6014481A6001F03BFA0948AF
:1028E00002210122BDE8F84000F0FFBCF8BD00BFA6
:1028F00000040040880200208402002038070020E5
:102900000C03002008000240040000209802002070
:102910009002002094020020800200207C0200200F
:102920008C02002078020020A84D0008034B5A6852
:1029300022F4404210435860704700BF001002402C
:1029400010B51F4B5A6802F00C02042A01D0082A65
:1029500002D01C4B036011E05A685968C2F38342ED
:102960000232C90301D4184B06E0DB6A154903F0B3
:102970000F030133B1FBF3F35A430260104A134BC8
:1029800051680468C1F30311595C24FA01F14160F4
:102990005468C4F302241C5D21FA04F48460546872
:1029A000C4F3C2241C5D21FA04F1C1605268C2F371
:1029B00081329B181B7CB1FBF3F1016110BD00BF9C
:1029C0000010024000127A0000093D005C02002065
:1029D000044B5A6909B1104301E022EA0000586132
:1029E000704700BF00100240044B9A6909B11043C0
:1029F00001E022EA00009861704700BF0010024029
:102A0000044BDA6909B1104301E022EA0000D86101
:102A1000704700BF0010024038B5384C0820012133
:102A2000FFF7E2FF2368364D23F00303236023689A
:102A3000012023F00C0323602368014643F00203C6
:102A40002360236823F00C0323606B6823F00303E7
:102A50006B606B6823F00C036B606B6843F00203E0
:102A60006B606B6823F00C036B606B6823F440535E
:102A70006B606B6823F440436B606B6843F40053F6
:102A80006B606B6823F440436B60FFF7ADFF1D4B39
:102A90005A6842F000725A606B6823F040536B60D2
:102AA0006B6823F040436B606B6843F000536B60CE
:102AB0006B6823F040436B60636823F0030363603B
:102AC000636823F00C036360636843F00203636090
:102AD000636823F00C036360236823F030032360F2
:102AE000236823F0C0032360236843F0200323609E
:102AF000236823F0C003236038BD00BF000C0140F1
:102B0000000801400000014008B508200121FFF73E
:102B10006BFF1D4B1A6822F440121A601A6822F4E7
:102B200040021A601A6842F400021A6020221A61F8
:102B30001A6822F440321A601A6822F440221A609D
:102B40001A6842F400221A6010221A611A6822F0F0
:102B500040721A601A6822F040621A601A6842F0E5
:102B600000621A6040221A611A6822F040521A600C
:102B70001A6822F040421A601A6842F000421A6055
:102B800080221A6108BD00BF000C01401FB5012161
:102B90002020FFF735FF104C01A8FDF745FB40F65C
:102BA0005F13ADF8043020460A2301A9ADF80830C0
:102BB000FDF7F0FA01210A462046FDF74AFB2046C0
:102BC0000121FDF73AFB054B4FF400025A605022F9
:102BD00083F837231FBD00BF0014004000E100E070
:102BE0001FB501214FF40030FFF7FEFE01A8FDF7ED
:102BF0001BFB104C0023ADF8063045F6BF53ADF873
:102C0000043020464FF47A7301A9ADF80830FDF77F
:102C1000C1FA01210A462046FDF71BFB204601218F
:102C2000FDF70BFB044B4FF000721A60102283F883
:102C300019231FBD0044014000E100E0064BDA69A2
:102C400042F00102DA614FF0804345F6BF521A8527
:102C500009221A80704700BF0010024008B5042006
:102C60000121FFF7C1FE08200121FFF7BDFE102062
:102C70000121FFF7B9FEFDF791FF00F0CBFFFFF751
:102C8000CBFEFFF741FFFFF781FFFFF7EDFBFFF7FB
:102C9000A7FFFFF7D3FFFFF7BFFEBDE80840FFF730
:102CA00041BB000043680A6823F4702323F4807357
:102CB00013430A7910B543EA022343608A68CB685C
:102CC00084681A43084B234013434A7943EA42037A
:102CD00083600B7CC26A013B22F47002DBB242EAE1
:102CE0000353C36210BD00BFFDF7F1FF836811B14C
:102CF00043F0010301E023F0010383607047836820
:102D000011B143F4807301E023F480738360704752
:102D1000836843F00803836070478068C0F3C00095
:102D20007047836843F00403836070478068C0F392
:102D300080007047836811B143F4A00301E023F4DD
:102D4000A00383607047092970B54FF003040DD9C3
:102D50004C4307251E3C05FA04F503FA04F3C66844
:102D600026EA050545EA0304C4600BE04C43072549
:102D700005FA04F503FA04F4066926EA050545EAAE
:102D800004030361062A4FF005030CD8013A5343AC
:102D90001F2202FA03F201FA03F3446B24EA02024F
:102DA0001343436370BD0C2A0DD853431F22233BAA
:102DB00002FA03F201FA03F1046B24EA020242EA86
:102DC0000103036370BD53431F22413B02FA03F228
:102DD00001FA03F1C46A24EA020242EA0103C3626F
:102DE00070BD0000044B9A6810B142F4000201E08B
:102DF00022F400029A6070470024014030B5038A33
:102E0000CA8823F440531B041B0C134303820D4652
:102E100083890989AA8823F4B0530A43698923F076
:102E20000C030A431B041B0C92B213438381838A55
:102E3000AA8923F440731B041B0C87B01343044678
:102E4000838201A8FFF77CFD174BA2899C420CBF2F
:102E5000049B039B12B2002A4FF019012A6801FB60
:102E600003F101DA520000E092006423B1FBF2F1B9
:102E7000B1FBF3F21201100903FB1011A08900B29B
:102E8000002806DAC9003231B1FBF3F303F007037F
:102E900005E009013231B1FBF3F303F00F031A43EC
:102EA00092B2228107B030BD00380140838919B148
:102EB0009BB243F4005303E023F400531B041B0CA8
:102EC00083817047C1F3421310B5012401F01F0143
:102ED000A34204FA01F101D10C3004E0022B01D12C
:102EE000103000E0143003680AB1194301E023EA0E
:102EF0000101016010BDC905C90D818070470388BB
:102F000019420CBF00200120704700007FB580EA05
:102F1000E072A2EBE0720DF1FF3500230A2492FB70
:102F2000F4F104FB1122303205F8012F1E46013363
:102F30000A1EDBB2F3DC002807DA5BB204A8C31870
:102F40002D2203F8102CB31CDBB25AB204A881184E
:102F5000002001F8100C68448118074811F8014C52
:102F6000013BDBB2013900F8014F002BF6D10348D9
:102F7000835404B070BD00BF6B0500206C050020B9
:102F8000F0B5034685B083EAE370A0EBE3700DF182
:102F9000FF3600220A2590FBF5F405FB14003030C3
:102FA00006F8010F17460132201ED2B2F3DC002BC7
:102FB00007DA04AB52B29A182D2302F8103CBA1C5F
:102FC000D2B250B204AC2318002403F8104C0DEB1D
:102FD000040318180C46134652B210F8015C013B6A
:102FE000DBB2013804F8015B002BF6D18B540846A4
:102FF00005B0F0BDF0B58BB080EAE073A3EBE073F1
:103000000DF1FF3600220A2593FBF5F405FB14337E
:10301000303306F8013F17460132231ED2B2F3DCEB
:1030200053B20AADEC180025012B04F8285C04D13A
:103030003023BA1C8DF80130D2B2022A05D1012901
:1030400003D930238DF80230032200240DF1280C1F
:1030500023460CEB01062E2552B25FB28F4203D1FC
:10306000013306F8145CDBB25FB20DF1280C674443
:103070001DF804C0013407F814CC67B2013397423D
:10308000DBB2EADB002807DA5AB20AA98A18013350
:103090002D2102F8141CDBB259B205AD08480022FC
:1030A0006C1804E0A55C013B00F8015FDBB2013A5B
:1030B000002BF7D1034841180B7410300BB0F0BD52
:1030C0007B0500206C0500200346002001E0013054
:1030D000C0B21A5C002AFAD1704770B5002501E031
:1030E0005E550135465DECB2002EF9D1304666B230
:1030F0009E1903E001343554E4B201300D5C002D1B
:10310000F8D1294665B25D1903E001346854E4B290
:103110000131505C0028F8D164B21855184670BDD2
:103120002DE9F041074686B04FF461600C46B7FBCD
:10313000F0F001A9FFF724FF01A8FFF7C5FF012860
:1031400003D830232370012600E000260023A119B4
:1031500002E0CA54EEB201330DF1040813F808205E
:10316000751C002AF5D13A2273B2E2543C23B7FB16
:10317000F3F2B2FBF3F003FB10204146FFF700FF30
:103180004046FFF7A1FF0128EDB204D86DB230230D
:103190006355B51CEDB269B20023611802E0CA5450
:1031A000F5B201330DF1040813F808206E1C002A53
:1031B000F5D13A226BB2E2543C23B7FBF3F003FBA8
:1031C00010704146FFF7DCFE4046FFF77DFF012807
:1031D000F6B204D876B230230235A355EEB271B2FE
:1031E0000023611803E00136CA54F6B2013301AA84
:1031F0009A5C002AF7D176B2A255204606B0BDE807
:10320000F0812DE9F041804686B04FF461600C46B4
:10321000B8FBF0F001A9FFF7B3FE01A8FFF754FFD8
:10322000012803D830232370012500E00025002366
:10323000611902E0CA54F5B2013301AFDA5D6E1CC8
:10324000002AF7D13A226BB2E2543C23B8FBF3F8E0
:10325000B8FBF3F003FB10803946FFF791FE3846C8
:10326000FFF732FF0128F6B204D876B230230235D8
:10327000A355EEB271B20023611803E00136CA54BF
:10328000F6B2013301AA9A5C002AF7D176B2A255B0
:10329000204606B0BDE8F0818B6810B50C6A026864
:1032A00023430C6922F4FE4223434C6922F0F002CE
:1032B00023438C692343CC6923434C6A23438C6AA0
:1032C000234313430360CB6843600B6883604B6800
:1032D000C36010BD19B1036843F0010303E0026845
:1032E0004FF6FE7313400360704703680AB1194339
:1032F00001E023EA0101016070470000C2004CBFF9
:10330000014B024B5860704700040240000002402D
:10331000C3004CBF014B024B586070470004024091
:1033200000000240C37810B5F3B1154B4178DB685B
:103330008478DB43C3F30223C3F1040201FA02F1F0
:103340000F2222FA03F222400A430E4B01781201A7
:10335000CB18D2B283F8002303780122590903F075
:103360001F0302FA03F307E003780122590903F06F
:103370001F0302FA03F32031024A42F8213010BD44
:1033800000ED00E000E100E00F4AD36813F0010F08
:103390000D4BFAD1DA68920601D52022DA601A695B
:1033A00042F002021A6158611A6942F040021A6141
:1033B000054AD168044B8906FBD52022DA601A69D8
:1033C00022F002021A61704700200240034B044AB7
:1033D0005A6002F188325A60704700BF00200240F4
:1033E00023016745024B1A6942F080021A61704757
:1033F00000200240124AD36813F0010F104BFAD19B
:10340000DA68920601D52022DA601A6942F00102D8
:103410001A618BB203800A4BDA6812F0200F084A57
:10342000FAD02023090CD3604180D168044B89066F
:10343000FBD52022DA601A6922F001021A61704776
:103440000020024070B572B6114CFFF7BFFF4FF479
:10345000CE701049002200F0BDFC20680E49002209
:1034600000F0B8FC0D48FFF78FFF0C4D0C4E2B19E8
:1034700003F17843A3F5F233284619680435FFF7C2
:10348000B9FFB542F3D1FFF7ADFF62B670BD00BF23
:1034900098050020AD4E0008B44E000800E4010875
:1034A0009CE5010810B5074B0749084A58181C68E5
:1034B00000F178400433A0F5F23093420460F5D176
:1034C000012010BD00E40108980500209CE50108DA
:1034D00070B504680E468C4201D3944211D90A4B50
:1034E00000251D7009492A4600F074FC2046084951
:1034F0002A4600F06FFC074807492A4600F06AFC9C
:103500003446204670BD00BF70020020BA4E00084D
:10351000D14E000800EC0108E34E000810B5184C2D
:103520006068FFF731FF60682168FFF763FFE068BC
:10353000A168FFF75FFF60692169FFF75BFFE06942
:10354000A169FFF757FF606A216AFFF753FFE06A3E
:10355000A16AFFF74FFF606B216BFFF74BFFE06B3A
:10356000A16BFFF747FF606C216CFFF743FFE06C36
:10357000A16CFFF73FFF034800F0ECFB10BD00BF5C
:1035800004000020FA4E000810B5184C6068FFF7E0
:10359000FBFE60682168FFF72DFFE068A168FFF778
:1035A00029FF60692169FFF725FFE069A169FFF73D
:1035B00021FF606A216AFFF71DFFE06AA16AFFF739
:1035C00019FF606B216BFFF715FFE06BA16BFFF735
:1035D00011FF606C216CFFF70DFFE06CA16CFFF731
:1035E00009FF034800F0B6FB10BD00BF60010020DA
:1035F000134F000838B5224C002160684FF48072E8
:10360000FFF766FF002120604FF47A72E068FFF751
:103610005FFF0021A0604FF47A726069FFF758FFE6
:10362000184D20610A212A46E069FFF751FF0A215F
:10363000A0612A46606AFFF74BFF0A2120622A46F2
:10364000E06AFFF745FF0A21A0622A46606BFFF798
:103650003FFF0A2120632A46E06BFFF739FF46212E
:10366000A063C822606CFFF733FF0A212064C822E0
:10367000E06CFFF72DFFA064034800F06BFB38BD42
:1036800004000020A0860100334F000838B5224C0A
:10369000002160684FF48072FFF71AFF002120605C
:1036A0004FF47A72E068FFF713FF0021A0604FF437
:1036B0007A726069FFF70CFF184D20610A212A46D3
:1036C000E069FFF705FF0A21A0612A46606AFFF75B
:1036D000FFFE0A2120622A46E06AFFF7F9FE0A216E
:1036E000A0622A46606BFFF7F3FE0A2120632A4698
:1036F000E06BFFF7EDFE4621A063C822606CFFF788
:10370000E7FE0A212064C822E06CFFF7E1FEA06416
:10371000034800F01FFB38BDB0010020A086010067
:103720004D4F000810B5144C6068FFF72DFE60681F
:103730002168FFF75FFEE068A168FFF75BFE606944
:103740002169FFF757FEE069A169FFF753FE606A40
:10375000216AFFF74FFEE06AA16AFFF74BFE606B3C
:10376000216BFFF747FEE06BA16BFFF743FE0348B9
:1037700000F0F0FA10BD00BF54000020704F0008A8
:1037800010B5144C6068FFF7FFFD60682168FFF713
:1037900031FEE068A168FFF72DFE60692169FFF73F
:1037A00029FEE069A169FFF725FE606A216AFFF73B
:1037B00021FEE06AA16AFFF71DFE606B216BFFF737
:1037C00019FEE06BA16BFFF715FE034800F0C2FA8B
:1037D00010BD00BFE0000020864F000838B51D4C2A
:1037E000002160684FF48072FFF772FE01212060B3
:1037F0000A22E068FFF76CFE0121A0604FF47A72A4
:103800006069FFF765FE012120614FF47A62E0698B
:10381000FFF75EFE0121A0614FF47A62606AFFF754
:1038200057FE42F21075206200212A46E06AFFF737
:103830004FFE0021A0622A46606BFFF749FE00217F
:1038400020636422E06BFFF743FEA063024800F0B0
:1038500081FA38BD54000020A34F000838B51D4C34
:10386000002160684FF48072FFF732FE0121206072
:103870000A22E068FFF72CFE0121A0604FF47A7263
:103880006069FFF725FE012120614FF47A62E0694B
:10389000FFF71EFE0121A0614FF47A62606AFFF714
:1038A00017FE42F21075206200212A46E06AFFF7F7
:1038B0000FFE0021A0622A46606BFFF709FE00217F
:1038C00020636422E06BFFF703FEA063024800F070
:1038D00041FA38BD20010020BA4F000810B50A4C4B
:1038E0006068FFF751FD60682168FFF783FDE068BD
:1038F000A168FFF77FFD60692169FFF77BFD034841
:1039000000F028FA10BD00BFB000002007500008EA
:1039100038B50C4C002160684FF48072FFF7D8FD79
:10392000094D206000212A46E068FFF7D1FD002103
:10393000A0602A466069FFF7CBFD2061034800F0D4
:1039400009FA38BD9400002000286BEE2E500008C4
:1039500038B50C4C002160684FF48072FFF7B8FD59
:10396000094D206000212A46E068FFF7B1FD0021E3
:10397000A0602A466069FFF7ABFD2061034800F0B4
:10398000E9F938BDC800002000286BEE4D50000852
:1039900070B50C4D01242C7072B6FFF7B9FFFFF71C
:1039A0001DFFFFF727FE62B62E782EB9064800F0FD
:1039B000D1F92C70304670BD044800F0CBF92C7062
:1039C000204670BD70020020755000088E5000081F
:1039D000F0B5C1B007460D461446684608494FF495
:1039E000807200F00FFA6E4617F8013B013D5C4013
:1039F000EDB2345D002DF7D1204641B0F0BD00BFDF
:103A0000AD4D000838B572B6FFF7E0FC4C2100223E
:103A10003448FFF7DDFF344B04461860FFF7B4FD70
:103A2000FFF734FE4C2100223048FFF7D1FF8442DB
:103A300003D12F4800F08EF904E02E4800F08AF9F7
:103A4000FFF7A2FD3C2100222B48FFF7C1FF002217
:103A50002A49044600F0BEF9002229493C2000F022
:103A6000B9F9284B1C60FFF78BFEFFF7F7FE3C21EE
:103A700000222548FFF7ACFF00222049054600F050
:103A8000A9F93C2000221E4900F0A4F9AC4203D160
:103A90001E4800F05FF904E01D4800F05BF9FFF7F5
:103AA0006FFE142100221B48FFF792FF1A4B0446B9
:103AB0001860FFF713FFFFF74BFF14210022174890
:103AC000FFF786FF844203D1154800F043F904E074
:103AD000144800F03FF9FFF701FFFFF783FC62B6DF
:103AE00038BD00BF6401002060010020B401002047
:103AF000A9500008CE500008E4000020FE50000845
:103B000009510008E00000202401002015510008A0
:103B100037510008B4000020B0000020CC00002085
:103B2000645100088E51000838B572B63C2100225D
:103B30001948FFF74DFF00221849044600F04AF9E2
:103B4000002217493C2000F045F9164B1C60FFF796
:103B50003DFCFFF7E7FDFFF781FE3C210022124804
:103B6000FFF736FF00220D49054600F033F93C20EF
:103B700000220B4900F02EF9AC4203D10B4800F0B3
:103B8000E9F804E00A4800F0E5F8FFF7CBFDFFF79D
:103B900029FC62B6012038BD58000020FF50000803
:103BA0000A5100085400002024010020165100088A
:103BB0003851000810B572B64C2100221048FFF7AA
:103BC00007FF104B04461860FFF700FCFFF7A6FC48
:103BD000FFF75CFD4C2100220B48FFF7F9FE844201
:103BE00003D10A4800F0B6F804E0094800F0B2F842
:103BF000FFF794FCFFF7F6FB62B6012010BD00BF93
:103C00000800002004000020B4010020AA50000891
:103C1000CF50000830B54FF4164387B0009300230F
:103C20001C46ADF80430ADF80630ADF80830ADF8FC
:103C30000C3004200C230121ADF80A30FEF7D4FE2D
:103C400001214FF48040FEF7CFFE4FF4C063154DC5
:103C5000ADF8103018238DF8133004A9032312484F
:103C60008DF81230FDF70AF869462846FFF7C6F8C6
:103C700025238DF814308DF816402223012405A841
:103C80008DF815308DF81740FFF74CFB284621467C
:103C9000FFF70CF9284640F225512246FFF712F9AA
:103CA00007B030BD00380140000801400A4B1A78C7
:103CB000C72A0FD85A78094988541A780132D2B2E3
:103CC0001A705A780132D2B25A705A78C82A01D181
:103CD00000225A70704700BF8D0500204C0700205D
:103CE00010B5194C2388980603D5A088C0B2FFF7F9
:103CF000DDFF2388144A19061AD5144B997889B127
:103D0000D9781348415C91809A78013AD2B29A707E
:103D1000DA780132D2B2DA70DA78C82A08D1002211
:103D2000DA7005E0938923F080031B041B0C938158
:103D3000054A13885B0605D5138823F040031B044E
:103D40001B0C138010BD00BF003801408D05002002
:103D50001408002010B504460AE00D488021FFF742
:103D6000CEF80028F9D014F8011B0948FFF7C3F872
:103D70002378002BF1D106488021FFF7C0F80028F6
:103D8000F9D003480A21BDE81040FFF7B4B800BFDE
:103D90000038014082B0064B8DF807001A885206A1
:103DA000FCD59DF80720024B9A8002B0704700BFF7
:103DB00000380140064B1A4605E019884906FCD533
:103DC00010F8011B918001780029F6D1704700BFDF
:103DD0000038014037B501900C46019812B9FFF741
:103DE00095F802E01146FFF705F905462046FFF772
:103DF000E1FF2846FFF7DEFF0A2003B0BDE83040B0
:103E0000FFF7C8BF0F2AF0B43AD941EA00039B0775
:103E100038D10C46034615462668103D1E6066687C
:103E20005E60A6689E60E6681034DE6010330F2D79
:103E3000F2D8A2F1100424F00F0402F00F021034A3
:103E4000032A00EB0403214411D90E461D461446F3
:103E500056F8047B043C032C45F8047BF8D8141F67
:103E600024F00304043402F0030209191B192AB1D7
:103E700011F8014B013A03F8014BF9D1F0BC70473E
:103E80000346F4E70346F3E70000000000000000EB
:103E90000000000000000000000000000000000022
:103EA00069693A2000513A20004352432843616C2B
:103EB0006962726174696F6E29203D0043616C69AB
:103EC00062726174696F6E3056616C7565466F72AF
:103ED00043757272656E74203D0043616C69627255
:103EE0006174696F6E3056616C7565466F724375AB
:103EF0007272656E7431203D0043616C696272615B
:103F000074696F6E466F7243757272656E745F6D21
:103F10004131203D0043616C6962726174696F6E6A
:103F2000466F7243757272656E745F6D6B413120BE
:103F30003D0043616C6962726174696F6E466F72B5
:103F40005F555F505331203D0043616C696272617F
:103F500074696F6E466F725F555F505332203D003B
:103F600043616C6962726174696F6E466F725F550E
:103F70005F505333203D00526573697374616E6303
:103F800065436F6D705F497368756E745F576972D2
:103F90006573203D00526573697374616E63654398
:103FA0006F6D705F4D4F53464554203D0043524363
:103FB0002853657474696E67734461746129203D88
:103FC000004F7074696F6E31286D656E7520706F6B
:103FD000736974696F6E29203D004368617267657B
:103FE00054696D65203D004C6F77566F6C74616746
:103FF00065203D004D6178566F6C74616765203DAA
:10400000004368617267654164617074203D0053CC
:1040100077696E675F436872675F74696D65203D9D
:10402000005377696E675F44436872675F74696DB8
:1040300065203D00435243285361766544617461B5
:104040005768656E506F7765724F666629203D0030
:104050004261747465727943617061636974794413
:10406000697363686172676550726576696F7573AD
:1040700056616C7565203D004261747465727943C8
:1040800061706163697479446973636861726765BB
:1040900043757272656E74203D000000883E000812
:1040A000883E00080C4A00080C4A00080000000086
:1040B0000000000020202020202020202020202080
:1040C0002020202000000000883E0008883E0008D4
:1040D000E0490008E049000800000000000000007E
:1040E00020202020202020202020202020202020D0
:1040F00000000000883E0008883E0008B44900081F
:10410000B449000800000000650D000820202020B0
:10411000202020202020202020202020000000001F
:10412000883E0008883E0008884900088849000841
:1041300000000000650D0008202020202020202005
:10414000202020202020202000000000883E0008A1
:10415000883E00085C4900085C4900080000000037
:10416000C10D0008202020202020202020202020F9
:104170002020202000000000883E0008883E000823
:104180000449000804490008000000000000000085
:10419000202020202020202020202020202020201F
:1041A00000000000883E0008883E0008D84800084B
:1041B000D848000800000000000000002020202057
:1041C000202020202020202020202020000000006F
:1041D000883E0008883E0008304900083049000841
:1041E00000000000000000002020202020202020CF
:1041F000202020202020202000000000883E0008F1
:10420000883E0008AC480008AC48000800000000E8
:10421000000000002020202020202020202020201E
:104220002020202000000000883E0008883E000872
:10423000804800088048000800000000350D000894
:10424000202020202020202020202020202020206E
:1042500000000000883E0008883E00087046000804
:104260007046000800000000450D000820202020B6
:1042700020202020202020202020202000000000BE
:10428000883E0008883E00089C4600089C460008BE
:1042900000000000450D00082020202020202020C4
:1042A000202020202020202000000000883E000840
:1042B000883E000818460008184600080000000064
:1042C000450D000820202020202020202020202014
:1042D0002020202000000000883E0008883E0008C2
:1042E000444600084446000800000000450D000850
:1042F00020202020202020202020202020202020BE
:1043000000000000883E0008883E00089445000830
:104310009445000800000000450D00080000000062
:10432000883E0008883E0008C0450008C0450008D7
:1043300000000000450D0008202020202020202023
:10434000202020202020202000000000883E00089F
:10435000883E0008EC450008EC450008000000001D
:10436000450D000820202020202020202020202073
:104370002020202000000000883E0008883E000821
:10438000684500086845000800000000450D000869
:1043900000000000883E0008883E00083C450008F8
:1043A0003C45000800000000000000000000000084
:1043B000883E0008883E0008284800082848000871
:1043C00000000000410D0008202020202020202097
:1043D000202020202020202000000000883E00080F
:1043E000883E0008FC470008FC4700080000000069
:1043F0005D0E0008202020202020202020202020CA
:104400002020202000000000883E0008883E000890
:10441000D0470008D047000800000000410D000808
:10442000202020202020202020202020202020208C
:1044300000000000883E0008883E0008A4470008ED
:10444000A447000800000000410D000820202020A3
:1044500020202020202020202020202000000000DC
:10446000883E0008883E0008784700087847000822
:1044700000000000410D00082020202020202020E6
:10448000202020202020202000000000883E00085E
:10449000883E00084C4700084C4700080000000018
:1044A000410D000820202020202020202020202036
:1044B0002020202000000000883E0008883E0008E0
:1044C000204700082047000800000000410D0008B8
:1044D00020202020202020202020202020202020DC
:1044E00000000000883E0008883E0008F4460008EE
:1044F000F4460008000000002D0E000820202020B7
:10450000202020202020202020202020000000002B
:104510009C4600083C4500085448000854480008E0
:1045200000000000000000004F4B20746F206578F1
:104530006974202020202020000000001045000881
:104540006845000854480008944300080000000033
:10455000000000004261636B20746F204661637449
:104560006F727920000000003C4500089445000867
:1045700054480008784300080000000000000000D4
:1045800052657369737420636F6D702035563141C5
:104590000000000068450008C045000854480008B5
:1045A000044300080000000000000000566F6C7417
:1045B00061676520505320203132562000000000F2
:1045C00094450008EC4500085448000820430008C2
:1045D0000000000000000000566F6C7461676520E9
:1045E000505320203856202000000000C04500080D
:1045F00018460008544800084C430008000000001A
:1046000000000000566F6C746167652050532020D5
:104610003356202000000000EC4500084446000806
:1046200054480008AC4200080000000000000000F0
:1046300043555252454E54203130206D6B4120205D
:1046400000000000184600087046000854480008A2
:10465000D8420008000000000000000043555252FC
:10466000454E54203130206D4120202000000000B4
:10467000444600089C46000854480008544200087C
:1046800000000000000000006E6F74202072656161
:1046900064792020202020200000000070460008BF
:1046A000104500085448000880420008000000003F
:1046B000000000005365742043757272656E7420AB
:1046C000746F20300000000028480008F4460008FD
:1046D000384A0008384A00080000000000000000C6
:1046E0004F4B20746F206578697420202020202093
:1046F00000000000C846000820470008384A0008AB
:10470000E4440008000000000000000030383A5384
:10471000617665204D656E7520506F730000000056
:10472000F44600084C470008384A0008B84400081E
:10473000000000000000000030373A4368617267F3
:104740006520616464617074000000002047000807
:1047500078470008384A00088C4400080000000030
:104760000000000030363A53776E6744697343683F
:1047700072672054000000004C470008A44700085E
:10478000384A0008604400080000000000000000F3
:1047900030353A5377696E67204368726720546DED
:1047A0000000000078470008D0470008384A000899
:1047B00034440008000000000000000030343A4D8E
:1047C000617820566F6C74616765202000000000DE
:1047D000A4470008FC470008384A000808440008BD
:1047E000000000000000000030333A4C6F77205684
:1047F0006F6C74616765202000000000D0470008DE
:1048000028480008384A0008DC430008000000007F
:104810000000000030323A4261747465727920748D
:104820007970652000000000FC470008C8460008B9
:10483000384A0008B04300080000000000000000F3
:1048400030313A4368617267652074696D65202074
:1048500000000000384A000880480008883E000830
:104860009C460008000000000000000043414C4945
:1048700042524154494F4E20202020200000000089
:1048800054480008AC480008883E00082842000848
:1048900000000000000000004C4F47202020202096
:1048A0002020202020202020000000008048000838
:1048B000D8480008883E0008FC41000800000000BD
:1048C00000000000444941474E4F535449432020C3
:1048D0002020202000000000AC4800080449000807
:1048E000883E0008A441000800000000000000000D
:1048F0005377696E67202020202020202020202050
:1049000000000000D848000830490008883E000830
:104910007841000800000000000000005472616946
:104920006E696E67202020202020202000000000DB
:10493000044900085C490008883E0008D04100088E
:104940000000000000000000436865636B696E674B
:1049500043617061636974790000000030490008A8
:1049600088490008883E00084C410008000000000B
:10497000000000004469734368617267652020206D
:1049800020202020000000005C490008B4490008F5
:10499000883E0008204100080000000000000000E0
:1049A00043686172676520616464617074202020CF
:1049B0000000000088490008E0490008883E00081F
:1049C000F44000080000000000000000436861722D
:1049D000676520434320435620202020000000002C
:1049E000B44900080C4A0008883E0008C840000886
:1049F00000000000000000004C6F616420202020B7
:104A0000202020202020202000000000E049000875
:104A1000384A0008883E00089C400008000000005A
:104A200000000000506F776572537570706C7920CC
:104A300020202020000000000C4A000854480008F4
:104A4000883E000828480008000000000000000020
:104A500053657474696E6773202020202020202005
:104A60000000000043616C6962726174696F6E00DE
:104A70006368617267653D006D4168002031302ECA
:104A80003856202031342E36562020200020203366
:104A90002E3056202020342E325620202000202078
:104AA000322E3856202020332E375620202000204A
:104AB00020312E3656202020322E3856202020003D
:104AC0002020203856202031332E3656202020201A
:104AD0000020203156202020203230562020202057
:104AE0002000695F4C6F674974656D733A20004D13
:104AF0005265636F7264735175616E746974793A4B
:104B000020006D41203E3E2073657420302020201F
:104B100000466163746F72792D7072657373203E05
:104B20003E00496E2050726F6363657373202E2EB2
:104B30002E2E00466163746F727920617265204F7A
:104B40004B202000466163746F727920617265208A
:104B50004F4B00454570726F6D2072656164204651
:104B600041494C00682020200031325620506220FC
:104B7000426174746572792020004C6920696F6EFF
:104B80002020426174746572792020004C6946656A
:104B9000506F34204261747465727920004C6954FE
:104BA0006F2042617474657279202020004E494D57
:104BB0006820392E3656204261742E2020004D691F
:104BC0006E20315620204D41582032305600202092
:104BD000204F4B20746F204578697420200020738B
:104BE00065632E20202000252000562000506F777E
:104BF0006572537570706C792020202020004C6FF6
:104C00006164204D656E7520202020202020004307
:104C100068617267652043432043562020202000AE
:104C2000436861726765206164646170742020204C
:104C3000004469734368617267652020202020204A
:104C40002000547261696E696E6720202020202048
:104C50002020005377696E6720202020202020200C
:104C60002020200030006D4F6D20202020202020AB
:104C700000562020006D412020007541202020207A
:104C8000006D4120202020007541202020202000A0
:104C9000356D73200075412F6820202020202020B2
:104CA00020202020202020003173200075412F6813
:104CB00020202020202020202020202020202020F4
:104CC000004449734368617267650064633A200079
:104CD000506F7765724F4646200055206F66663AE2
:104CE000200055696E3D002055633D0055707320CE
:104CF00000556F757420004920006D4120006D6BD8
:104D0000412000523D006D4F6D20006D4F6D202001
:104D1000202000493A2000555F50533A200055208A
:104D20006F75743A20004F6C6420433D006D4168FC
:104D30002020202020202020202000454570726F58
:104D40006D2052656164204641494C0045457072B2
:104D50006D526561644641494C004B65793A006D7E
:104D6000413A006D41723A006D6B413A006D6B4102
:104D7000723A00437572656E743A00437572656EDF
:104D80007454696D65723A007265733A00437572C6
:104D900072656E724361703A0043757272656E722D
:104DA0004361704261743A00317365630000070E1D
:104DB000091C1B1215383F363124232A2D70777EAB
:104DC000796C6B6265484F464154535A5DE0E7EE9B
:104DD000E9FCFBF2F5D8DFD6D1C4C3CACD90979ECB
:104DE000998C8B8285A8AFA6A1B4B3BABDC7C0C940
:104DF000CEDBDCD5D2FFF8F1F6E3E4EDEAB7B0B9EB
:104E0000BEABACA5A28F88818693949D9A2720295A
:104E10002E3B3C35321F18111603040D0A5750590A
:104E20005E4B4C45426F68616673747D7A898E87EC
:104E30008095929B9CB1B6BFB8ADAAA3A4F9FEF72A
:104E4000F0E5E2EBECC1C6CFC8DDDAD3D4696E671A
:104E50006075727B7C51565F584D4A4344191E174A
:104E60001005020B0C21262F283D3A33344E4940C1
:104E70004752555C5B7671787F6A6D64633E39306A
:104E80003722252C2B0601080F1A1D1413AEA9A0DA
:104E9000A7B2B5BCBB9691989F8A8D8483DED9D08A
:104EA000D7C2C5CCCBE6E1E8EFFAFDF4F373697A3B
:104EB000653A200076616C3A20004661696C207486
:104EC0006F207265616420616464726573733A2057
:104ED00000454570726F6D56616C75652069732071
:104EE0003A2000464C4153485F424153452B3130F4
:104EF00032342A313233203A200043616C696272C5
:104F00006174696F6E5772697465546F466C617332
:104F100068200043616C6962726174696F6E4661FA
:104F200063746F72795772697465546F466C6173FC
:104F300068200043616C6962726174696F6E5265CA
:104F4000616446726F6D466C617368200043616CEA
:104F50006962726174696F6E5265616446726F6DE9
:104F6000466C617368466F72566572696679200097
:104F700053657474696E67735772697465546F46CC
:104F80006C617368200053657474696E6773466161
:104F900063746F72795772697465546F466C61738C
:104FA00068200053657474696E6773526561644666
:104FB000726F6D466C617368200053657474696E1E
:104FC00067735265616446726F6D466C61736846C3
:104FD0006F72566572696679200057726974652030
:104FE00043206D6148203A20004461746157686530
:104FF0006E506F7765724F66665772697465546F4D
:10500000466C6173682000446174615768656E5036
:105010006F7765724F66665F466163746F72795F22
:105020005772697465546F466C61736820004461FF
:1050300074615768656E506F7765724F666652652A
:10504000616446726F6D466C6173682000446174E0
:10505000615768656E506F7765724F66665265611D
:105060006446726F6D466C617368466F7256657206
:105070006966792000526561642066726F6D204513
:105080004570726F6D202D204641494C20005265BD
:1050900061642066726F6D20454570726F6D202DC2
:1050A0002053554343455353004643616C69627234
:1050B0006174696F6E20777269746520746F204621
:1050C0006C61736820737563636573732000464376
:1050D000616C6962726174696F6E20777269746560
:1050E00020746F20466C617368204661696C2C20C7
:1050F00074727920616761696E2E2E2E20004643FE
:105100005243206973203A20004653697A6520692A
:1051100073203A20004653657474696E6773207774
:105120007269746520746F20466C617368207375B2
:10513000636365737320004653657474696E6773A7
:1051400020777269746520746F20466C61736820E3
:105150004661696C2C2074727920616761696E2EDA
:105160002E2E200046446174615768656E506F773B
:1051700065724F666620777269746520746F204689
:105180006C617368207375636365737320004644B4
:105190006174615768656E506F7765724F666620FF
:1051A000777269746520746F20466C61736820465D
:1051B00061696C2C2074727920616761696E2E2E92
:0351C0002E20009E
:1051C300883E00080000000000F001080000000015
:1051D30004F001080000000008F0010800000000CE
:1051E3000CF001080000000010F0010800000000AE
:1051F30014F001080000000018F00108000000008E
:105203001CF001080000000020F00108000000006D
:1052130024F001080000000000EC01080000000079
:1052230004EC01080000000008EC01080000000085
:105233000CEC01080000000010EC01080000000065
:1052430014EC01080000000018EC01080000000045
:105253001CEC01080000000000E801080000000049
:1052630004E801080000000008E80108010000004C
:105273000000000000E801080000000004E8010845
:105283000000000008E801080000000000E8010831
:105293000000000004E801080000000008E801081D
:1052A3000000000000EC01080100000004EC01080C
:1052B3000F00000008EC01081A0400000CEC0108C0
:1052C300AA05000010EC01080A00000014EC010814
:1052D3000A00000018EC0108060000001CEC01089D
:1052E3000000000000EC01080000000004EC0108CD
:1052F3000000000008EC0108000000000CEC0108AD
:105303000000000010EC01080000000014EC01088C
:105313000000000018EC0108000000001CEC01086C
:105323000000000000F001080000000004F0010884
:105333000000000008F00108220000000CF0010842
:105343001500000010F001087C08000014F00108AB
:10535300DE03000018F00108DE0300001CF0010862
:105363008200000020F001082200000024F0010860
:105373000000000000F001080000000004F0010834
:105383000000000008F00108000000000CF0010814
:105393000000000010F001080000000014F00108F4
:1053A3000000000018F00108000000001CF00108D4
:1053B3000000000020F001080000000024F00108B4
:1053C3004103423B3F455D337B404B064D484F5CB9
:1053D30050435460245805075B5F036904020100CE
:1053E300D6010150534C313430316D6B412076314D
:1053F3002E30320001000000B40300200000000042
:105403000C0300206404002000000000BC03002003
:1054130014050020000000006C04002000000000C0
:105423000102030401020304060708090204060833
:045433000100000074
:0400000508000000EF
:00000001FF
