:020000040800F2
:10000000E00C002085020008CD020008CD020008A7
:10001000CD020008CD020008CD020008000000005B
:10002000000000000000000000000000CD020008F9
:10003000CD02000800000000CD020008CD0200083B
:10004000CD020008CD020008CD020008CD02000854
:10005000CD020008CD020008CD020008CD02000844
:10006000CD020008CD020008CD020008CD02000834
:10007000CD020008CD020008CD020008CD02000824
:10008000CD020008CD020008CD02000800000000EB
:10009000000000000000000000000000CD02000889
:1000A000CD020008F1140008CD020008CD020008BE
:1000B000CD020008B528000800000000CD020008AD
:1000C000CD0200080000000000000000CD02000882
:1000D0000000000025400008CD02000800000000DC
:1000E000CD020008CD020008CD020008000000008B
:1000F0000000000000000000000000000000000000
:1001000000000000000000000000000000000000EF
:100110000000000000000000CD020008B11C000833
:100120005FF808F1014B1868704700BF000000201D
:10013000084B10B598420BD050B1074B074C1B68C9
:1001400020600BB11830984723681B6903B19847AA
:1001500010BD00BFCC410008740200200000002048
:10016000024B1860024B1868FFF7E2BF74020020D0
:100170000000002008B5054B054A1B68934203D0D8
:1001800013B15B6903B1984708BD00BF00000020B0
:10019000CC410008224A038890429BB212D002F55B
:1001A000006290420ED0B0F1804F0BD0A2F5983291
:1001B000904207D002F58062904203D002F580623F
:1001C000904203D14A8823F070031343154A9042AA
:1001D00008D002F58062904204D023F44073CA88AC
:1001E0009BB2134303808B8883850B8803850C4B5C
:1001F00098420FD003F5006398420BD003F540639B
:10020000984207D003F58063984203D003F58063DA
:10021000984201D10B7A038601238382704700BF85
:10022000002C0140001000404FF6FF738380002334
:100230000380C380438003727047038819B19BB267
:1002400043F0010303E023F001031B041B0C0380B4
:10025000704783899BB20AB1194301E023EA010187
:1002600081817047038A828911EA030092B203D028
:1002700011420CBF002001207047C94389B201829E
:100280007047000008B50C4A0C4B0D4903E052F8CA
:10029000040B43F8040B8B42F9D30A480A494FF088
:1002A00000028842B8BF40F8042BFADB00F018FACD
:1002B000BDE8084001F0E8BEEC5400080000002052
:1002C0007402002074020020DC080020FEE7000019
:1002D0002DE9F843564D0646286802F0E5FE2B68E6
:1002E00011210024594304E00A19AA18013413719A
:1002F000E4B2035D4E4A002BF6D113681121594335
:10030000081910183A25057104E00F2C09D80D19A9
:100310005519287116F8010B0134E4B20028F4D104
:100320000DE0112202FB034241498A18002111719C
:1003300005E01819081801340271E4B203E0112233
:100340003B49534320220F2C394DF2D9002220463D
:10035000384903F0E1FE2B68112202FB034401330C
:100360002A190024172B14712B6057D90A26A0468E
:100370002F46204602F098FE4FF0110E00230EFB90
:1003800004FE05E00EEB0301691801330A71DBB2CC
:10039000C25C1121002AF5D101FB04F27143D0188F
:1003A00038184FF03A0E013380F804E0DBB294467F
:1003B0005FFA84FE681810E0BEF1090F05D901EB61
:1003C0000309A94499F8049003E000EB030999F8A4
:1003D0000590013382F80490DBB20CEB0302AA18FB
:1003E00092F80490B9F1000FE6D1013B1121DBB284
:1003F0006143202204E0C818281801330271DBB2DF
:100400000F2BF8D9112202FB04330134FB180136FB
:100410000E2C83F80480ACD1054B1C6003F064F90A
:10042000034B054918680022BDE8F84303F074BE89
:1004300098050020E4410008E94100082DE9F04753
:10044000554F054638680E4602F02EFE3B681121D6
:100450000024594304E00A19BA1801341371E4B2B4
:10046000035D4D4A002BF6D1136811215943081939
:100470001018067104E00F2C09D80F19D71938711C
:1004800015F8010B0134E4B20028F4D10DE011227B
:1004900002FB034240498A180021117105E0181936
:1004A000081801340271E4B203E011223A495343BF
:1004B00020220F2C384DF2D900222046374903F074
:1004C0002BFE2B68112202FB034401332A1900245E
:1004D000172B14712B6054D90A27A146A846204631
:1004E00002F0E2FD4FF0110E00230EFB04FE05E0CA
:1004F0000EEB0301691801330A71DBB2C25C1121F2
:10050000002AF5D101FB04F27943D01840440133AD
:100510000671DBB294465FFA84FE681810E0BEF103
:10052000090F05D901EB030AAA449AF804A003E0D5
:1005300000EB030A9AF805A0013382F804A0DBB2AD
:100540000CEB0302AA1892F804A0BAF1000FE6D14E
:10055000013B1121DBB26143202204E0C8182818B6
:1005600001330271DBB20F2BF8D9112202FB0433E5
:100570000134434401370E2C83F80490AFD1064B6D
:100580001C6003F0B1F8044B054918680022BDE86F
:10059000F04703F0C1BD00BF98050020E44100080A
:1005A000E941000810B5384C00222068374903F0B3
:1005B000B3FDA0680022364903F0AEFD2069002299
:1005C000344903F0A9FDA0690022334903F0A4FDDA
:1005D000206A0022314903F09FFDA06A00223049C1
:1005E00003F09AFD206B00222E4903F095FDA06BCD
:1005F00000222D4903F090FD206C00222B4903F0CE
:100600008BFDA06C00222A4903F086FD206D00229C
:10061000284903F081FDA06D0022274903F07CFDED
:10062000206E0022254903F077FDA06E00222449A8
:1006300003F072FD206F0022224903F06DFDD4F813
:1006400088000022204903F067FDA06F1F490022A7
:1006500003F062FDD4F8800000221D4903F05CFD28
:10066000D4F8900000221B4903F056FDD4F89800FE
:100670000022194903F050FDD4F8A00017490022C8
:10068000BDE8104003F048BD04000020ED41000823
:10069000004200081E4200083D420008594200087E
:1006A000764200088D420008A4420008BB420008C0
:1006B000D9420008F1420008054300081E43000823
:1006C0002B43000838430008454300085343000803
:1006D000654300087843000894430008AC430008D1
:1006E000314B82B01A6842F001021A6059682F4AF1
:1006F0000A405A601A6822F0847222F480321A602A
:100700001A6822F480221A605A6822F4FE025A60A3
:100710004FF41F029A600022DA62009201921A6876
:1007200042F480321A601A6802F400320192009A90
:1007300001320092019A1AB9009AB2F5A06FF2D173
:10074000194B1B6813F4003318BF01230193019B5D
:10075000012B23D1144B5A685A605A685A605A6860
:100760005A605A6822F47C125A605A6842F498120D
:100770005A601A6842F080721A6019680A4A890140
:10078000FBD5536823F003035360536843F002031F
:100790005360536803F00C03082BFAD1044B4FF05D
:1007A00000629A6002B07047001002400000FFF83B
:1007B00000ED00E084B0ADF80600BDF806304FF45F
:1007C000FA629BB2534301E0039B013B0393039BFB
:1007D000002BF9D104B0704784B0ADF80600BDF825
:1007E00006309BB25B0001E0039B013B0393039B3C
:1007F000002BF9D104B0704710B5074C4FF480437B
:1008000023610220FFF7E8FF4FF0804302202361BD
:10081000BDE81040FFF7E0BF000C014070B50F4C81
:100820004FF07C454FF4805625612661FFF7E4FFC9
:100830000120FFF7BFFF25612661FFF7DDFF0120E3
:10084000FFF7B8FF4FF4806325612361FFF7D4FF02
:100850000120BDE87040FFF7ADBF00BF000C0140B4
:10086000254B4FF07C4270B504460D461A6111B11C
:100870004FF400421A61E20644BF4FF400521A617D
:100880001D4B14F0200F1CBF4FF480521A616606F6
:1008900044BF4FF400621A61174E14F0800F1CBF62
:1008A0004FF480633361FFF7A7FF4FF07053E00709
:1008B000336103D5104B4FF400521A61A10703D5E1
:1008C0000D4B4FF480521A61620703D50A4B4FF467
:1008D00000621A61230703D5074B4FF480621A6147
:1008E000FFF78AFF0220FFF765FF1DB1024B4FF0B3
:1008F00000421A6170BD00BF000C0140034610B9F0
:10090000082019460BE021B90AB90C2003E00D209C
:1009100005E012B90E20114601E00F200021FFF77B
:100920009FBF01200021FFF79BBF08B56420FFF7A0
:1009300041FFFFF773FF012001460022FFF7DEFFB2
:10094000BDE80840FFF7EDBFC0B20121FFF788BF47
:10095000054B1870597011B940F0800002E040F06A
:10096000C0000021FFF77CBF9C0200202DE9F84366
:1009700089460646DFF86C800127194C29E0B22829
:1009800001D1492011E0AF2801D103200DE0DE287C
:1009900002D10120014609E0AA2801D1022004E089
:1009A000BF2884BF404410F8C00C0121FFF758FF56
:1009B000237865780133DBB2237055B9082B08D151
:1009C000B9F1020F05D128460121FFF7C1FF2570BB
:1009D000677016F8010B0028D1D1BDE8F88300BF7D
:1009E0009C02002000020020C00040F0400038B50A
:1009F000C0B20D460021FFF733FF0024285D01211E
:100A00000134FFF72DFF082CF8D180200021BDE82C
:100A10003840FFF725BF2DE9F341002504241527B1
:100A20001F264FF00E08284669468DF800408DF8C5
:100A300003408DF805408DF801708DF802808DF827
:100A400004508DF806608DF80760FFF7CDFF012098
:100A500069468DF802408DF806408DF800708DF8DB
:100A600001808DF803508DF804508DF805508DF8F5
:100A70000760FFF7B9FF022069468DF801408DF845
:100A800005408DF800508DF802808DF803708DF8C8
:100A900004508DF806608DF80760FFF7A5FF03206E
:100AA00069468DF800408DF803408DF806408DF8BA
:100AB00001808DF802708DF804508DF805508DF886
:100AC0000760FFF791FF204669468DF800408DF8DA
:100AD00003408DF804408DF807408DF801808DF8B3
:100AE00002708DF805708DF80680FFF77DFF0223F8
:100AF0008DF800300A238DF803308DF804301C2364
:100B000007248DF805308DF8063005200823694646
:100B10008DF807308DF801408DF80240FFF764FF33
:100B20000F238DF8003005238DF801308DF8023049
:100B30008DF803308DF804300620092369468DF8BE
:100B400006308DF805708DF80750FFF74DFF112323
:100B50008DF800308DF801308DF8023020460123E9
:100B600069468DF803608DF804308DF805308DF8F6
:100B700006308DF80750FFF737FFBDE8FC810221F2
:100B8000FFF7F4BE10B5044608461146FFF7E0FE35
:100B900020460221BDE81040FFF7E8BE08B5364BFD
:100BA0005A6822F440725A605A6842F400725A60DD
:100BB0005A6822F440625A605A6842F480625A606D
:100BC0005A6822F440525A605A6842F400525A60FD
:100BD0005A6822F440425A605A6842F480425A608D
:100BE0005A6822F440325A605A6842F400325A601D
:100BF0005A6822F440225A605A6842F480225A60AD
:100C00005A6822F440125A605A6842F400125A603C
:100C10005A6822F440025A605A6842F480025A60CC
:100C20005A6822F040725A605A6842F000725A6064
:100C30005A6822F040625A605A6842F080625A60F4
:100C40005A6822F040525A605A6842F000525A6084
:100C50005A6822F040425A605A6842F080425A6014
:100C6000FFF763FEFFF75DFE002101200A46BDE8A5
:100C70000840FFF743BE00BF000C0140CB782DE9D0
:100C8000F04303F00F02DB0648BF8B780E8848BFA5
:100C90001A4316F0FF0F1FD0046800234FF001081D
:100CA0004FF00F0C08FA03F707EA0605BD420FD113
:100CB0009F000CFA07F902FA07F724EA09043C43FB
:100CC000CF78282F01D1456102E0482F08BF056188
:100CD0000133082BE6D104600E88FF2E21D9446829
:100CE00000234FF001084FF00F0C03F1080708FA3A
:100CF00007F707EA0605BD420FD19F000CFA07F976
:100D000002FA07F724EA09043C43CF78282F01D1DF
:100D1000456102E0482F08BF05610133082BE4D18B
:100D20004460BDE8F083836819420CBF00200120B5
:100D300070470000014B00221A807047A00200207B
:100D400003F094B808B503F0D7F80248BDE80840AE
:100D5000FFF7BEBA8C4D000818B100210A46FFF714
:100D600011BF704710B5134C002290B06068124953
:100D700003F0D2F9626849F6AF239A4217D90BA95A
:100D8000A06802F090FB60684FF46163B0FBF3F081
:100D900001A902F0C3F909490BAA06AB02F0EFFA68
:100DA00006A80121FFF74AFB06A803F075F910B069
:100DB00010BD00BFA0020020984D0008A04D000803
:100DC00010B50F4C49F6AF23E26890B09A4214D99F
:100DD0000BA9206902F067FBE0684FF46163B0FB88
:100DE000F3F001A902F09AF906490BAA06AB02F04A
:100DF000C6FA06A80221FFF721FB10B010BD00BF04
:100E0000A0020020A04D000884B0ADF80600BDF897
:100E100006304FF416629BB2534301E0039B013B43
:100E20000393039B002BF9D104B0704708B507204A
:100E30000121FFF78DFDFF200121FFF711FD03F0D8
:100E400015F8044BC8209A68034B1A60BDE80840A7
:100E5000FFF7DABF540000204807002008B53E4BDA
:100E600093F9140060B90146FFF772FD3B48FFF7A4
:100E700086FE3B4B4FF487629A6102F5BE721A629E
:100E8000354B93F91430012B0DD100200146FFF7AB
:100E90005FFD3448FFF773FE314B4FF496729A6151
:100EA0004FF4D2721A622C4B93F91430022B0DD1ED
:100EB00000200146FFF74CFD2B48FFF760FE284B52
:100EC0004FF48C729A614FF4B9721A62224B93F903
:100ED0001430032B0CD100200146FFF739FD2348C5
:100EE000FFF74DFE1E4BA0229A614FF48C721A62DE
:100EF000194B93F91430042B0DD100200146FFF754
:100F000027FD1B48FFF73BFE154B4FF448729A61D3
:100F10004FF4AA621A62104B93F91430052B0CD1CE
:100F200000200146FFF714FD1248FFF728FE0C4B86
:100F300064229A614FF4FA621A62074B93F9142003
:100F4000062A01D100221A7502F090FF4FF41670A4
:100F5000BDE80840FFF758BFA0020020A44D0008DC
:100F600054000020B54D0008C64D0008D74D0008BC
:100F7000E84D0008F94D000882B00190019A4FF049
:100F8000804392B29A8500229A8409221A80198A93
:100F90004FF08042C907FAD5138A23F001031B04DE
:100FA0001B0C138202B07047022838B51E4B09D1C2
:100FB0001A881E49013292B209681A8012B28A4216
:100FC00013D310E0012810D11A88013A92B210040C
:100FD0001A8003D5154A1268013A1A80124BB3F9E8
:100FE0000020002A01DA00221A8000200F4C01465E
:100FF000FFF7AEFC0C4D234653F8040BB5F9002067
:101000000138801A112202FB0030FFF7B8FDB5F954
:1010100000000022064903F07FF8206805490022FD
:10102000BDE8384003F078B8A00200209805002001
:101030000A4E0008174E000838B504460B4D002034
:101040000146FFF785FC286802F02EF8FFF797FDB0
:101050000748FFF794FD022C06D12A68054B9A60D9
:10106000BDE8384002F048BF38BD00BF8C02002008
:101070002A4E00080400002010B504460020014656
:10108000FFF766FC1648FFF77AFD022C27D102F025
:101090002BFE02F0EFFD044600200146FFF758FC4E
:1010A0001048FFF76CFD4FF4FA60FFF7ADFE00202B
:1010B0000146FFF74DFC012C08D10B48FFF75FFDFF
:1010C0000A48FFF705F94FF4FA6004E00848FFF713
:1010D00056FD4FF47A60BDE81040FFF795BE10BD95
:1010E000394E00084A4E00085B4E00086C4E00085E
:1010F0007B4E0008022810B50E4C02D12369013343
:1011000003E0012802D12369013B2361002001464D
:10111000FFF71EFC206901F0C7FFFFF730FD06480E
:10112000FFF72DFD23694FF461625A43034B1A60A8
:1011300010BD00BF540000208C4E00083407002072
:10114000022810B5324B07D11A7D0132D2B2072ADC
:101150001A750BD1002208E0012807D11A7D013A47
:10116000D2B214061A7501D506221A75284C94F9C4
:10117000140028B90146FFF7EBFB2648FFF7FFFCF8
:1011800094F91430012B06D100200146FFF7E0FB53
:101190002148FFF7F4FC1E4C94F91430022B06D1C1
:1011A00000200146FFF7D4FB1C48FFF7E8FC94F948
:1011B0001430032B06D100200146FFF7C9FB184865
:1011C000FFF7DDFC124C94F91430042B06D10020FB
:1011D0000146FFF7BDFB1348FFF7D1FC94F914302B
:1011E000052B06D100200146FFF7B2FB0E48FFF7A2
:1011F000C6FC074B93F91430062B08D1002001469A
:10120000FFF7A6FB0948BDE81040FFF7B8BC10BDCA
:10121000A0020020914E0008A24E0008B44E000823
:10122000C54E0008D54E0008E64E0008F64E0008F0
:10123000022810B50D4C02D1A3690A3303E001283E
:1012400002D1A3690A3BA36100200146FFF780FB9E
:10125000A0690A23B0FBF3F0012101F099FFFFF729
:101260008EFC0348BDE81040FFF789BC5400002005
:10127000C14D0008022810B50D4C02D1236A0A3373
:1012800003E0012802D1236A0A3B236200200146C1
:10129000FFF75EFB206A0A23B0FBF3F0012101F0A7
:1012A00077FFFFF76CFC0348BDE81040FFF767BC11
:1012B00054000020C14D0008022810B50B4C02D18B
:1012C000A36A013303E0012802D1A36A013BA362B0
:1012D00000200146FFF73CFBA06A01F0E5FEFFF7A6
:1012E0004EFC0348BDE81040FFF749BC5400002005
:1012F000064F0008022810B50B4C02D1236B0133B6
:1013000003E0012802D1236B013B23630020014647
:10131000FFF71EFB206B01F0C7FEFFF730FC034810
:10132000BDE81040FFF72BBC54000020064F00081A
:10133000022838B51A4C02D1A36B013303E001280F
:1013400002D1A36B013BA36300200146FFF700FB22
:10135000A06B01F0A9FEFFF712FC1248FFF70FFC8B
:10136000206A0A250121B0FBF5F001F011FFFFF71B
:1013700006FC0D48FFF703FC236AA06B6422584368
:10138000B0FBF2F01B1AB3FBF5F0012101F000FFF6
:10139000FFF7F5FB0548BDE83840FFF7F0BB00BF9D
:1013A000540000200F4F0008124F0008C14D0008E4
:1013B00008B5084B1A68084B9B689A4209D1072068
:1013C0000121FFF7C5FAFF200121BDE80840FFF722
:1013D00047BA08BD480700205400002010B5044655
:1013E00000200146FFF7B4FA022C194B06D19A6887
:1013F0000132082A9A6009D1012206E0012C05D1A8
:101400009A68013A9A600AB907229A60104A93686A
:10141000013B062B18D8DFE803F00406080A0C0E7F
:1014200010000C480AE00C4808E00C4806E00C48A4
:1014300004E00C4802E00C4800E00C48FFF79FFB7A
:10144000BDE81040FFF7B4BF0123936010BD00BF9B
:1014500054000020154F0008264F0008374F0008A1
:10146000484F0008594F00086A4F00087B4F00089A
:1014700010B518481021FFF756FC80B115482021FF
:10148000FFF751FC68B113484021FFF74CFC50B105
:1014900010488021FFF747FCC0B9042204E0032272
:1014A00002E0022200E001220B4B40F2DC50D98A1C
:1014B0000CB2844203DD40F2B451D98204E0013120
:1014C00089B21429D98204D11A7610BD024B0022A8
:1014D000DA8210BD000C0140A0020020034B002264
:1014E000187E00B1DA611A76704700BFA0020020B2
:1014F00008B51B480121FEF7B5FE00282FD00121B9
:101500001748FEF7BAFE174B1749DA6809688A18B8
:10151000DA6093F82020012A02D19A6801329A6099
:1015200093F821300F4A012B02D113690133136163
:101530000C4B93F82220012A02D15A6A01325A62D6
:101540009A6A01329A629B6A13F0010F074B03D12A
:101550004FF400421A6108BD4FF000421A6108BD05
:1015600000440140A00200208C020020000801403D
:10157000084B4FF400321A614FF08072A3F580637C
:101580001A61054B002283F82C2083F82D2083F864
:1015900021207047000C0140A0020020074B0222CE
:1015A0001A610749074B01224FF4807083F82C2001
:1015B00083F82D20086183F821207047000C01403A
:1015C00000080140A002002038B52B4B012205463F
:1015D00083F82E20FFF7E2FF022D284C02D123884A
:1015E000013303E0012D02D12388013B2380002039
:1015F0000146FFF7ADF90221208801F0C9FDFFF790
:10160000BEFA1F48FFF7BBFA1E4B1F4A1888136823
:1016100080B2002B21881D4B01DC462209E0401AD4
:10162000116802B222EAE27242F21070424392FB67
:10163000F1F2164C1A64206C01F036FDFFF79FFAA8
:101640001348FFF79CFA134B19880E4B89B21A887E
:101650000D4B92B21868002801DC0A2309E0891AB0
:101660001A680BB223EAE37342F210714B4393FB07
:10167000F2F3A36438BD00BFA002002020020020C6
:10168000124F0008980200208C0200200400002065
:101690008E4F00084205002038B5174B0122054641
:1016A00083F82E20FFF77AFF022D144C02D1A36B92
:1016B000013303E0012D02D1A36B013BA3630020A2
:1016C0000146FFF745F9A06B01F0EEFCFFF757FA72
:1016D0000B48FFF754FA00200121FFF739F9094BB5
:1016E0000221188880B201F053FDFFF748FA06483E
:1016F000BDE83840FFF743BAA002002004000020F4
:10170000DF4F000848050020994F000838B5174BF7
:101710000122054683F82E20FFF740FF022D144CCE
:1017200002D1236B013303E0012D02D1236B013B76
:10173000236300200146FFF70BF9206B01F0B4FC96
:10174000FFF71DFA0B48FFF71AFA00200121FFF7F7
:10175000FFF8094B0221188880B201F019FDFFF74C
:101760000EFA0648BDE83840FFF709BAA00200208B
:1017700004000020DF4F000868050020994F000892
:1017800038B5174B0122054683F82E20FFF706FFD8
:10179000022D144C02D1A36A013303E0012D02D1C2
:1017A000A36A013BA36200200146FFF7D1F8A06ABB
:1017B00001F07AFCFFF7E3F90B48FFF7E0F90020AE
:1017C0000121FFF7C5F8094B0221188880B201F00A
:1017D000DFFCFFF7D4F90648BDE83840FFF7CFB982
:1017E000A002002004000020DF4F00084205002076
:1017F000994F000838B5164B0122054683F82E2074
:10180000FFF7CCFE022D134C02D1236A013303E013
:10181000012D02D1236A013B236200200146FFF71C
:1018200097F8206A01F040FCFFF7A9F90A48FFF792
:10183000A6F901210020FFF78BF8084B186801F08A
:1018400033FCFFF79CF90648BDE83840FFF797B92D
:10185000A002002004000020DF4F000894020020B6
:101860009D4F000838B5164B0122054683F82E20FF
:10187000FFF794FE022D134C02D1A369013303E05C
:10188000012D02D1A369013BA36100200146FFF7AE
:101890005FF8A06901F008FCFFF771F90A48FFF74B
:1018A0006EF901210020FFF753F8084B186801F08A
:1018B000FBFBFFF764F90648BDE83840FFF75FB966
:1018C000A002002004000020DF4F0008900200204A
:1018D0009D4F000838B501228F4B9042044683F893
:1018E0002E200AD193F82F20013AD2B283F82F206C
:1018F000120602D5022283F82F2093F92F30002BF5
:1019000040F08280022C08D1834B93F82C3013B91D
:10191000FFF744FE01E0FFF72BFE00200146FFF732
:1019200017F87E4B0221188880B201F031FCFFF7D6
:1019300026F97B48FFF723F907200021FFF708F875
:10194000754B93F82C30012B764B32D11A68B2F5D7
:101950007A7F07DA186801F0A7FBFFF710F97248E1
:10196000FFF70DF96F4B1A68B2F57A7F10DB196833
:1019700042F20F7291420BDC1868642390FBF3F083
:10198000012101F005FCFFF7FAF86848FFF7F7F8C6
:10199000644B42F20F721968914212DD18684FF4DD
:1019A0007A7390FBF3F001F07FFBFFF7E8F85F48F4
:1019B00005E0186801F078FBFFF7E1F85C48FFF7F5
:1019C000DEF8554B93F82C502DB907200121FEF776
:1019D000BFFF284608E093F8303007200121052B8F
:1019E00004D8FEF7B5FF0020012103E0FEF7B0FFA9
:1019F00001200146FEF7A8FF474B93F830200A2A42
:101A000002D9002283F83020434B93F92F20012A7A
:101A10003DD1022C03D1474900220A601A610020FF
:101A20000146FEF795FF4448FFF7A9F8414B434AAA
:101A300019681868914209D84FF46163B0FBF3F05C
:101A400001F032FBFFF79BF83D4807E03D4BB0FB50
:101A5000F3F001F029FBFFF792F83B48FFF78FF80E
:101A60002D4B1A691869B2F5E15F05D201F01CFB34
:101A7000FFF785F8354808E04FF46163B0FBF3F0F9
:101A800001F012FBFFF77BF83148FFF778F8224BA3
:101A900093F92F20022A3ED1022C02D10022DA60D3
:101AA0001A6100200146FEF753FF2A48FFF767F846
:101AB000194B224AD968D868914209D84FF461631A
:101AC000B0FBF3F001F0F0FAFFF759F81C4807E01B
:101AD0001C4BB0FBF3F001F0E7FAFFF750F81A489F
:101AE000FFF74DF80C4B1A691869B2F5E15F05D2A2
:101AF00001F0DAFAFFF743F8144808E04FF46163A5
:101B0000B0FBF3F001F0D0FAFFF739F81048BDE868
:101B10003840FFF734B838BDA0020020420500204D
:101B2000994F00088C020020A24F0008A94F00081E
:101B3000B04F000878020020B84F00087FEE360052
:101B4000BD4F000880EE3600C24F0008C74F0008A6
:101B5000D54F0008E34F0008054B012283F82C20E5
:101B600083F83120034B4FF400621A61704700BFC5
:101B7000A002002000080140054B002283F82C2021
:101B800083F83120034B4FF000621A61704700BFA9
:101B9000A00200200008014008B5FFF7EDFFBDE8F6
:101BA0000840FFF7E5BC000030B5374891B001218F
:101BB000FFF7B9F8354C002863D0FFF7EDFFA378A5
:101BC000002B5FD1324D0123A370EB68314C2361B0
:101BD000314B1B68A36002F019F9EB68B3F5E15FC4
:101BE00014D30BA9286901F05EFC20694FF46163EE
:101BF000B0FBF3F001A901F091FA28490BAA06AB5A
:101C000001F0BDFB06A80221FEF718FC204BDA68A4
:101C1000B2F5E15F15D318690BA901F044FC1D4B27
:101C200001A998684FF46163B0FBF3F001F076FA14
:101C30001B490BAA06AB01F0A2FB06A80221FEF786
:101C4000FDFB184D0A23288801A980B2B0FBF3F0F0
:101C5000012201F007FB06AA0146134801F076FBBA
:101C6000FEF736FB32242888104980B20222013C5C
:101C700002F052FAE4B23220FFF7C6F8002CF2D19B
:101C800000E0A07011B030BD000C01402002002027
:101C9000A00200209400002078020020F14F0008EC
:101CA000F74F000848050020FE4F000808500008C4
:101CB00008B509480121FEF7D5FA58B106480121B7
:101CC000FEF7DBFAFFF7D4FBFFF76EFF034B5A6B0F
:101CD00001325A6308BD00BF00140040A00200207A
:101CE000F0B59D4B0122022887B083F82E2009D140
:101CF00093F838200132D2B2082A83F838200ED166
:101D000000220AE001280AD193F83820013AD2B221
:101D1000110683F8382002D5072283F838208E4B2D
:101D200093F938400CBBFFF737FF21462046FEF7FA
:101D30000FFE8A48FEF723FF894B012118880A23EA
:101D400080B2B0FBF3F001F023FAFEF718FF8548EC
:101D5000FEF715FF844B0221188880B201F018FAB3
:101D6000FEF70DFF8148FEF70AFF7B4B93F93830F1
:101D7000012B1DD1FFF710FF00200146FEF7E8FD03
:101D80007B48FEF7FCFE7B4B0221188880B201F0F5
:101D9000FFF9FEF7F4FE7848FEF7F1FE774BD8889E
:101DA00080B201F081F9FEF7EAFE7548FEF7E7FE22
:101DB000694B93F93840022C1DD1FFF7EFFB00204F
:101DC0000146FEF7C5FD6F48FEF7D9FE6E4B214672
:101DD000188880B201F0DCF9FEF7D1FE6648FEF704
:101DE000CEFE664B988880B201F05EF9FEF7C7FE22
:101DF0006348FEF7C4FE584B93F93830032B1BD1D0
:101E0000FFF7CCFB00200146FEF7A2FD5F48FEF77E
:101E1000B6FE5F4B186801F047F9FEF7B0FE5D486B
:101E2000FEF7ADFE554B588880B201F03DF9FEF744
:101E3000A6FE5348FEF7A3FE474B93F93830042B18
:101E40001BD1FFF7ABFB00200146FEF781FD4F4899
:101E5000FEF795FE504B186801F026F9FEF78FFE4D
:101E60004E48FEF78CFE454B188880B201F01CF9F5
:101E7000FEF785FE4A48FEF782FE374B93F938306D
:101E8000052B39D13B4D474CFFF788FB2988238828
:101E900089B29BB2CB1A42F21071434F4B433A685E
:101EA000424E002093FBF2F30146B364FEF750FD6F
:101EB0003F48FEF764FE306C01F0F6F8FEF75FFE77
:101EC0003C48FEF75CFEB06C01F0EEF8FEF757FE02
:101ED0003948FEF754FE38683849002202F01CF9F0
:101EE0002888374980B2022202F016F92088354945
:101EF00080B2022202F010F9174C94F93830062B08
:101F00000ED1FFF749FE00200146FEF721FD01A991
:101F1000A06A01F057FAFEF732FE2B48FEF72FFEBB
:101F20000D4C94F93830072B14D1FFF735FE002003
:101F30000146FEF70DFD2548FEF721FEE06B4FF44C
:101F40006163B0FBF3F001F0AFF8FEF718FE204834
:101F5000FEF715FE07B0F0BDA002002010500008EB
:101F6000480500201550000844050020DE4F0008F9
:101F70001A50000842050020124F000838070020C0
:101F8000DC4F00081F50000868050020255000089D
:101F90009002002028500008940200202C500008D5
:101FA000DB4F0008980200208C0200200400002073
:101FB00031500008345000083950000841500008E2
:101FC000455000084C500008DA4F000854500008F3
:101FD0005B50000808B5274B0122022883F82E2009
:101FE00007D193F82C3013B9FFF7B6FD01E0FFF7E6
:101FF000C3FD00200146FEF7ABFC1F4B02211888F1
:1020000080B201F0C5F8FEF7BAFD1C48FEF7B7FD37
:102010001B4B186801F048F8FEF7B1FD1948FEF7B0
:10202000AEFD144B93F82C2012B90620012105E0D7
:1020300093F8303006200121052B07D8FEF788FCE5
:1020400002200121FEF780FC022006E0FEF780FC62
:1020500003200121FEF778FC03200121FEF774FC28
:10206000044B93F830200A2A02D9002283F830204A
:1020700008BD00BFA002002068050020124F000824
:102080008C020020A94F00082DE9F04100F0B4FEB9
:10209000AC4DFFF781FDAC4B4FF4803200241A6148
:1020A000AA482C60FEF76BFDFEF7B5FC21462046E2
:1020B000FEF74EFC4FF4FA60FEF7A6FE01F044FB7B
:1020C0002B68172B88BF2C6001F0D4FD80B94FF42A
:1020D0007A70FEF799FE01F0CDFD48B99C48FEF7F5
:1020E0004EFD4FF47A60FEF78FFE9A48FEF7F0F847
:1020F000994B9A4C1A699A4B9448DA6323694FF4C6
:1021000061625A43974B1A60974BA2681A6001F0BC
:10211000C3FFFEF747FAFEF704FC9448FEF720F8E9
:10212000A368012B17D0022B01D1914814E0032B97
:1021300001D1904810E0042B01D18F480CE0052B11
:1021400001D18E4808E0062B01D18D4804E0072B11
:1021500001D18C4800E08C48FDF7EAFF804D8B4FA1
:102160008B4E95F83030013385F83030FFF7B6F9F3
:1021700088490022044601F0CFFF386886490022D2
:1021800001F0CAFF7088854980B2002201F0C4FFC7
:10219000834B84491868002201F0BEFF30888249D1
:1021A00080B2002201F0B8FF804B814918680022FC
:1021B00001F0B2FF7F4B80491868002201F0ACFFAC
:1021C0007E4B7F491878002201F0A6FF7D4B7E49A7
:1021D0001868002201F0A0FFE8687C49002201F0A5
:1021E0009BFF631E032B17D8DFE803F002060A11DA
:1021F000FDF798FF40680DE0FDF794FF006809E0E7
:102200000220FDF7B7FFFDF78DFFC06802E0FDF784
:1022100089FF8068FDF78CFFFDF784FFDFF8688198
:10222000404503D12046FFF755FB3AE1FDF77AFF21
:1022300008F12C03984203D12046FFF7CBFE30E192
:10224000FDF770FF08F15803984200F02A81FDF76E
:1022500069FF08F18403984200F02381FDF762FFD3
:1022600008F1B003984200F01C81FDF75BFF08F510
:102270009A73984200F01581FDF754FF08F1DC03D2
:10228000984200F00E81FDF74DFF08F584739842E7
:1022900000F00781FDF746FF08F5B073984203D1BF
:1022A0002046FFF71DFDFCE0FDF73CFF08F5C67872
:1022B000404503D12046FEF777FEF2E0FDF732FFFE
:1022C000DFF80C81404500F0EC80FDF72BFF08F1B2
:1022D0002C03984203D12046FEF7AEFEE1E0FDF765
:1022E00021FF08F15803984203D12046FFF782FAF4
:1022F000D7E0FDF717FF08F18403984203D1204689
:10230000FFF7B0FACDE0FDF70DFF08F1B0039842FA
:1023100003D12046FFF7C0F9C3E0FDF703FF08F142
:10232000CC03984203D12046FFF7F0F9B9E0FDF75E
:10233000F9FE08F1F80398424CD12046FFF720FA45
:10234000AFE000BF98050020000C014023020020F0
:10235000695000087A5000089400002054000020C2
:10236000A00200203407002048070020590D000873
:10237000F04300081C440008484400087444000866
:10238000A0440008CC440008C44300089002002088
:1023900038070020885000088D5000089150000830
:1023A00094020020965000089B5000088C020020E8
:1023B000A150000888020020A9500008AC000020AD
:1023C000B650000878020020BB500008C750000833
:1023D0007C450008FDF7A6FE08F59273984203D1EC
:1023E0002046FFF7F1F85CE0FDF79CFE08F5A073CE
:1023F000984203D12046FEF73FFE52E0FDF792FEE1
:1024000008F5AE78404503D12046FEF773FE48E05C
:10241000FDF788FEDFF8B080404503D12046FEF787
:102420008FFE3EE0FDF77EFE08F12C03984203D1BB
:102430002046FEF7FDFE34E0FDF774FE08F1580378
:10244000984203D12046FEF715FF2AE0FDF76AFE09
:1024500008F18403984203D12046FEF72DFF20E0C7
:10246000FDF760FE08F1B003984203D12046FEF765
:1024700041FF16E0FDF756FE08F1DC03984203D158
:102480002046FEF755FF0CE0FDF74CFE08F584787A
:10249000404503D12046FEF7A1FF02E0002385F866
:1024A0002E3095F82E404CB9FFF776FB054BEC60CB
:1024B00085F840401C6085F82F402C616420FEF7B1
:1024C0005BFD4EE6780200200447000870B592B02C
:1024D0007E2312A9002621F8043D48488DF8476064
:1024E000FEF7CCFB01214FF4007000F04FFB012000
:1024F000014600F03FFB424B082502934FF48063F6
:10250000089380230693202309933E4B3E48019372
:102510004FF48073079301A94FF400530A93049575
:1025200003960B96059601F009F80121364801F053
:1025300023F84FF4004000F0CBFA01244FF460235D
:1025400032480CA90E938DF835400F960C968DF8F5
:1025500040508DF8344000F073FC07232B4821468F
:10256000224600F0BEFC02210A460723274800F05D
:10257000B8FC03210A460723244800F0B2FC0421DA
:102580000A460723214800F0ACFC05210A46072330
:102590001E4800F0A6FC06210A4607231B4800F04F
:1025A000A0FC204600F0ECFC07221346174811213E
:1025B00000F097FC2A4604231448102100F091FCF7
:1025C0001248214600F060FC1048214600F065FCEE
:1025D0000E4800F06BFC0D4800F06DFC0028FAD1AD
:1025E0000A4800F06CFC094800F06EFC0028FAD1A3
:1025F0000648012100F06CFC12B070BD00080140DB
:10260000380700204C24014008000240002401400B
:102610001FB50121022000F0C5FA104C01A8FDF7FA
:1026200003FE45F6BF53ADF804302046052301A94B
:10263000ADF80830FDF7AEFD01210A462046FDF752
:1026400008FE20460121FDF7F8FD054B4FF0005232
:102650001A60202283F81D231FBD00BF0004004024
:1026600000E100E0224A234B91682DE9F041083156
:102670009160C91A002808BF0120A729C8BF93602C
:10268000936812681E689A4208BF194A184C08BF1E
:102690001660194F2268988015252146BC46D2F84D
:1026A00000809845B2F8048008BF1660804503D2C8
:1026B000086818600B600020BA42246814D01168C2
:1026C000D1F800809845B1F8048008BF0E608045BD
:1026D00003D21068186013600020614504D0013DEA
:1026E000ADB20A68002DDAD1A088BDE8F08100BF44
:1026F000380200200C030020B4030020224A234BA0
:1027000051692DE9F04108315161C91A002808BF0B
:102710000120A729C8BF53615369D2681E689A4235
:1027200008BF194A184908BFD66051F80C2F184F36
:10273000988015250C46BC46D2F800809845B2F822
:10274000048008BF1660804503D2206818602360AB
:102750000020BA42096814D01468D4F80080984563
:10276000B4F8048008BF2660804503D21068186062
:1027700013600020644504D0013DADB22268002DF5
:10278000DAD18888BDE8F08138020020BC0300203F
:1027900064040020224A234B116A2DE9F0410831DC
:1027A0001162C91A002808BF0120A729C8BF1362F7
:1027B000136A92691E689A4208BF194A184908BFED
:1027C000966151F8182F184F988015250C46BC4675
:1027D000D2F800809845B2F8048008BF16608045A2
:1027E00003D22068186023600020BA42096814D020
:1027F0001468D4F800809845B4F8048008BF2660B7
:10280000804503D21068186013600020644504D02E
:10281000013DADB22268002DDAD18888BDE8F08193
:10282000380200206C040020140500200F49D1F864
:102830001432D1F81022C1F818329342C1F8142290
:10284000C1F8100207DC834203DC9042A8BF1046A7
:1028500070479A4205DC824203DC9842A8BF1846C2
:1028600070479A42B4BF1046184670470C030020C8
:102870000F49D1F82C32D1F82822C1F830329342D6
:10288000C1F82C22C1F8280207DC834203DC904205
:10289000A8BF104670479A4205DC824203DC98428A
:1028A000A8BF184670479A42B4BF104618467047F2
:1028B0000C030020F8B578480121FDF7D3FC00286F
:1028C00000F0E880754B01211A68734801321A60E4
:1028D000734B744D1A68744C01321A60FDF7CDFCCD
:1028E000022000F05DFE022000F064FE02210022C2
:1028F0006E4800F04CFE6E4BA9889B6A89B24B4330
:10290000AA8992B2B3FBF2F39BB2A4F83432B4F8C2
:10291000340280B2FFF7A6FEA4F83602B4F83632CD
:102920009BB2022B02D80023A4F83632AA894FF4B6
:10293000F02392B293FBF2F25B4B92B2A3F83822EF
:102940005B4FA8883A6B80B24243A989554D89B242
:10295000B2FBF1F292B2A3F834220022A3F83A2299
:10296000B3F83A02534980B20880B3F83A124E4C99
:1029700009B20229D8BFA3F83A222989BB6B89B2D0
:102980004B43AA89642692B2B3FBF2F39BB2A4F83C
:102990003432B4F8340200B2FFF76AFFBB6980B288
:1029A000A4F83C0273436988AA8989B24B4392B266
:1029B000B3FBF2F3C4F84032D4F8400280B2FFF720
:1029C0009DFE70433C4B396A18604E432A88AB89A0
:1029D00092B256439BB2B6FBF3F6C4F84462D4F805
:1029E000440280B2FFF7D6FE344B18601A68022A00
:1029F00001DC00221A60D4F84402FFF717FFC4F884
:102A00004802D4F8482241F224339A42264D2C4BF6
:102A10000CDD29491A68096864208A181A60294B54
:102A20001968D5F8402200FB02120EE0234A19680B
:102A300010684118196013680A2B224BCBBF1A6823
:102A40001968D5F84412126852181A60134B1A68A4
:102A5000502A08D11A490868B0FBF2F21A480260FD
:102A600000220A601A600E4B1A68A62A0BD1174A78
:102A7000144914680D68A720B5FBF0F00019106028
:102A800000220A601A60094802210122BDE8F840CC
:102A900000F07DBDF8BD00BF0004004088020020AA
:102AA00084020020380700200C03002008000240A8
:102AB00004000020980200209002002094020020D0
:102AC000800200207C0200208C020020780200207E
:102AD000034B5A6822F4404210435860704700BFCD
:102AE0000010024010B51F4B5A6802F00C02042A75
:102AF00001D0082A02D01C4B036011E05A685968C3
:102B0000C2F383420232C90301D4184B06E0DB6AE8
:102B1000154903F00F030133B1FBF3F35A4302608D
:102B2000104A134B51680468C1F30311595C24FA2D
:102B300001F141605468C4F302241C5D21FA04F4DD
:102B400084605468C4F3C2241C5D21FA04F1C1609E
:102B50005268C2F381329B181B7CB1FBF3F1016117
:102B600010BD00BF0010024000127A0000093D00B5
:102B70005C020020044B5A6909B1104301E022EACB
:102B800000005861704700BF00100240044B9A6972
:102B900009B1104301E022EA00009861704700BFCC
:102BA00000100240044BDA6909B1104301E022EA47
:102BB0000000D861704700BF0010024038B5364DA4
:102BC00008200121FFF7E2FF2B68344C23F00303B8
:102BD0002B602B68012023F00C032B602B6801462F
:102BE00043F008032B602861636823F003036360EC
:102BF000636823F00C036360636843F0020363605F
:102C0000636823F00C036360636823F440536360DC
:102C1000636823F440436360636843F40053636074
:102C2000636823F440436360FFF7B0FF1C4B5A68AE
:102C300042F000725A60636823F040536360636837
:102C400023F040436360636843F00053636063684C
:102C500023F0404363606B6823F003036B606B6891
:102C600023F00C036B606B6843F002036B606B68CE
:102C700023F00C036B602B6823F030032B602B6870
:102C800023F0C0032B602B6843F020032B602B68DC
:102C900023F0C0032B6038BD000C01400008014048
:102CA0000000014008B508200121FFF76FFF1D4B10
:102CB0001A6822F440121A601A6822F440021A605C
:102CC0001A6842F400021A6020221A611A6822F47B
:102CD00040321A601A6822F440221A601A6842F4DC
:102CE00000221A6010221A611A6822F040721A60DB
:102CF0001A6822F040621A601A6842F000621A6094
:102D000040221A611A6822F040521A601A6822F0B2
:102D100040421A601A6842F000421A6080221A612A
:102D200008BD00BF000C01401FB501212020FFF7A6
:102D300039FF104C01A8FDF777FA40F65F13ADF8A4
:102D4000043020460A2301A9ADF80830FDF722FA25
:102D500001210A462046FDF77CFA20460121FDF7B5
:102D60006CFA054B4FF400025A60502283F8372367
:102D70001FBD00BF0014004000E100E01FB50121AD
:102D80004FF40030FFF702FF01A8FDF74DFA104C99
:102D90000023ADF8063045F6BF53ADF804302046A9
:102DA0004FF47A7301A9ADF80830FDF7F3F901216A
:102DB0000A462046FDF74DFA20460121FDF73DFA6F
:102DC000044B4FF000721A60102283F819231FBDC4
:102DD0000044014000E100E0064BDA6942F00102E4
:102DE000DA614FF0804345F6BF521A8509221A80F6
:102DF000704700BF0010024008B504200121FFF712
:102E0000C5FE08200121FFF7C1FE10200121FFF7B8
:102E1000BDFEFDF7C3FE01F09FF8FFF7CFFEFFF701
:102E200041FFFFF781FFFFF7F3FBFFF7A7FFFFF776
:102E3000D3FFFFF7C3FEBDE80840FFF747BB000024
:102E400043680A6823F4702323F4807313430A79D8
:102E500010B543EA022343608A68CB6884681A434A
:102E6000084B234013434A7943EA420383600B7CB7
:102E7000C26A013B22F47002DBB242EA0353C3622E
:102E800010BD00BFFDF7F1FF836811B143F00103EE
:102E900001E023F0010383607047836811B143F4BC
:102EA000807301E023F4807383607047836843F08C
:102EB0000803836070478068C0F3C0007047836870
:102EC00043F00403836070478068C0F3800070475C
:102ED000836811B143F4A00301E023F4A0038360ED
:102EE0007047092970B54FF003040DD94C430725ED
:102EF0001E3C05FA04F503FA04F3C66826EA050544
:102F000045EA0304C4600BE04C43072505FA04F5C9
:102F100003FA04F4066926EA050545EA0403036199
:102F2000062A4FF005030CD8013A53431F2202FA38
:102F300003F201FA03F3446B24EA020213434363EE
:102F400070BD0C2A0DD853431F22233B02FA03F213
:102F500001FA03F1046B24EA020242EA010303636B
:102F600070BD53431F22413B02FA03F201FA03F101
:102F7000C46A24EA020242EA0103C36270BD00008F
:102F8000044B9A6810B142F4000201E022F40002FE
:102F90009A6070470024014030B5038ACA8823F440
:102FA00040531B041B0C134303820D46838909897C
:102FB000AA8823F4B0530A43698923F00C030A4317
:102FC0001B041B0C92B213438381838AAA8923F4C6
:102FD00040731B041B0C87B013430446838201A873
:102FE000FFF780FD174BA2899C420CBF049B039BFB
:102FF00012B2002A4FF019012A6801FB03F101DA2D
:10300000520000E092006423B1FBF2F1B1FBF3F255
:103010001201100903FB1011A08900B2002806DA82
:10302000C9003231B1FBF3F303F0070305E00901F6
:103030003231B1FBF3F303F00F031A4392B2228152
:1030400007B030BD00380140838919B19BB243F409
:10305000005303E023F400531B041B0C83817047CF
:10306000C1F3421310B5012401F01F01A34204FA79
:1030700001F101D10C3004E0022B01D1103000E04D
:10308000143003680AB1194301E023EA0101016029
:1030900010BDC905C90D81807047038819420CBF56
:1030A00000200120704700007FB580EAE072A2EBAB
:1030B000E0720DF1FF3500230A2492FBF4F104FBCA
:1030C0001122303205F8012F1E4601330A1EDBB2F1
:1030D000F3DC002807DA5BB204A8C3182D2203F83A
:1030E000102CB31CDBB25AB204A88118002001F8DE
:1030F000100C68448118074811F8014C013BDBB201
:10310000013900F8014F002BF6D10348835404B075
:1031100070BD00BF6B0500206C050020F0B50346B4
:1031200085B083EAE370A0EBE3700DF1FF36002277
:103130000A2590FBF5F405FB1400303006F8010F6A
:1031400017460132201ED2B2F3DC002B07DA04ABA3
:1031500052B29A182D2302F8103CBA1CD2B250B2C7
:1031600004AC2318002403F8104C0DEB04031818CA
:103170000C46134652B210F8015C013BDBB2013839
:1031800004F8015B002BF6D18B54084605B0F0BD66
:10319000F0B58BB080EAE073A3EBE0730DF1FF367E
:1031A00000220A2593FBF5F405FB1433303306F8AF
:1031B000013F17460132231ED2B2F3DC53B20AADEF
:1031C000EC180025012B04F8285C04D13023BA1C2C
:1031D0008DF80130D2B2022A05D1012903D930235A
:1031E0008DF80230032200240DF1280C23460CEB4D
:1031F00001062E2552B25FB28F4203D1013306F889
:10320000145CDBB25FB20DF1280C67441DF804C0FA
:10321000013407F814CC67B201339742DBB2EADB22
:10322000002807DA5AB20AA98A1801332D2102F8B8
:10323000141CDBB259B205AD084800226C1804E03A
:10324000A55C013B00F8015FDBB2013A002BF7D12E
:10325000034841180B7410300BB0F0BD7B05002003
:103260006C0500202DE9F04103468AB083EAE37043
:10327000A0EBE3700DF1FF3700240A2690FBF6F572
:1032800006FB1500303007F8010FA4460134281E54
:10329000E4B2F3DC60B20AAE35180026012805F866
:1032A000286C05D130200CF102048DF80100E4B245
:1032B000022C05D1012A03D930208DF80200032405
:1032C00000250DF12808284608EB02072E2664B2D7
:1032D0004FFA80FC944503D1013007F8146CC0B25A
:1032E0004FFA80FC0DF12808C4441DF80580013513
:1032F0000CF8148C4FFA85FC0130A445C0B2E7DB12
:10330000002B07DA43B20AAAD31801302D2203F8A2
:10331000142CC0B242B205AE0C460023B51804E02E
:10332000EE5C013804F8016BC0B2013B0028F7D114
:10333000885408460AB0BDE8F0810346002001E049
:103340000130C0B21A5C002AFAD1704730B503468A
:10335000002401E0155501341D5DE0B2002DF9D1C6
:103360002B4645B2551903E00130EC54C0B201338D
:10337000CC5C002CF8D140B21454104630BD70B56E
:10338000002501E05E550135465DECB2002EF9D115
:10339000304666B29E1903E001343554E4B2013080
:1033A0000D5C002DF8D1294665B25D1903E00134AA
:1033B0006854E4B20131505C0028F8D164B2185569
:1033C000184670BD2DE9F041074686B04FF46160A4
:1033D0000C46B7FBF0F001A9FFF7A0FE01A8FFF72C
:1033E000ACFF012803D830232370012600E000261B
:1033F0000023A11902E0CA54EEB201330DF1040812
:1034000013F80820751C002AF5D13A2273B2E25451
:103410003C23B7FBF3F2B2FBF3F003FB1020414671
:10342000FFF77CFE4046FFF788FF0128EDB204D885
:103430006DB230236355B51CEDB269B2002361183B
:1034400002E0CA54F5B201330DF1040813F8082064
:103450006E1C002AF5D13A226BB2E2543C23B7FB32
:10346000F3F003FB10704146FFF758FE4046FFF7AC
:1034700064FF0128F6B204D876B230230235A35592
:10348000EEB271B20023611803E00136CA54F6B2FD
:10349000013301AA9A5C002AF7D176B2A2552046E0
:1034A00006B0BDE8F0812DE9F041804686B04FF4CA
:1034B00061600C46B8FBF0F001A9FFF72FFE01A8F0
:1034C000FFF73BFF012803D830232370012500E0DC
:1034D00000250023611902E0CA54F5B2013301AF9F
:1034E000DA5D6E1C002AF7D13A226BB2E2543C231B
:1034F000B8FBF3F8B8FBF3F003FB10803946FFF795
:103500000DFE3846FFF719FF0128F6B204D876B24F
:1035100030230235A355EEB271B20023611803E0E7
:103520000136CA54F6B2013301AA9A5C002AF7D1D7
:1035300076B2A255204606B0BDE8F0818B6810B582
:103540000C6A026823430C6922F4FE4223434C694F
:1035500022F0F00223438C692343CC6923434C6A55
:1035600023438C6A234313430360CB6843600B6897
:1035700083604B68C36010BD19B1036843F0010359
:1035800003E002684FF6FE73134003607047036860
:103590000AB1194301E023EA01010160704700000C
:1035A000C2004CBF014B024B586070470004024000
:1035B00000000240C3004CBF014B024B58607047F3
:1035C0000004024000000240C37810B5F3B1154B6F
:1035D0004178DB688478DB43C3F30223C3F1040240
:1035E00001FA02F10F2222FA03F222400A430E4BA3
:1035F00001781201CB18D2B283F80023037801229C
:10360000590903F01F0302FA03F307E003780122CC
:10361000590903F01F0302FA03F32031024A42F86A
:10362000213010BD00ED00E000E100E00F4AD3685A
:1036300013F0010F0D4BFAD1DA68920601D5202262
:10364000DA601A6942F002021A6158611A6942F09E
:1036500040021A61054AD168044B8906FBD5202235
:10366000DA601A6922F002021A61704700200240F3
:10367000034B044A5A6002F188325A60704700BF17
:103680000020024023016745024B1A6942F0800284
:103690001A61704700200240124AD36813F0010FEC
:1036A000104BFAD1DA68920601D52022DA601A6945
:1036B00042F001021A618BB203800A4BDA6812F001
:1036C000200F084AFAD02023090CD3604180D1682A
:1036D000044B8906FBD52022DA601A6922F0010228
:1036E0001A6170470020024070B572B6114CFFF7A6
:1036F000BFFF4FF4CE701049002200F00DFD20688E
:103700000E49002200F008FD0D48FFF78FFF0C4D19
:103710000C4E2B1903F17843A3F5F23328461968B0
:103720000435FFF7B9FFB542F3D1FFF7ADFF62B63D
:1037300070BD00BF98050020D6510008DD5100087B
:1037400000E401089CE5010810B5074B0749084A49
:1037500058181C6800F178400433A0F5F230934209
:103760000460F5D1012010BD00E401089805002097
:103770009CE5010870B504680E468C4201D3944262
:1037800011D90A4B00251D7009492A4600F0C4FCD6
:10379000204608492A4600F0BFFC074807492A4648
:1037A00000F0BAFC3446204670BD00BF7002002015
:1037B000E3510008FA51000800EC01080C5200081F
:1037C00010B5184C6068FFF731FF60682168FFF79B
:1037D00063FFE068A168FFF75FFF60692169FFF799
:1037E0005BFFE069A169FFF757FF606A216AFFF795
:1037F00053FFE06AA16AFFF74FFF606B216BFFF791
:103800004BFFE06BA16BFFF747FF606C216CFFF78C
:1038100043FFE06CA16CFFF73FFF034800F03CFC66
:1038200010BD00BF040000202352000810B5184C42
:103830006068FFF7FBFE60682168FFF72DFFE06816
:10384000A168FFF729FF60692169FFF725FFE0699B
:10385000A169FFF721FF606A216AFFF71DFFE06A97
:10386000A16AFFF719FF606B216BFFF715FFE06B93
:10387000A16BFFF711FF606C216CFFF70DFFE06C8F
:10388000A16CFFF709FF034800F006FC10BD00BF64
:10389000600100203C52000838B5224C00216068CD
:1038A0004FF48072FFF766FF002120604FF47A72B8
:1038B000E068FFF75FFF0021A0604FF47A72606953
:1038C000FFF758FF184D20610A212A46E069FFF7EB
:1038D00051FF0A21A0612A46606AFFF74BFF0A21C7
:1038E00020622A46E06AFFF745FF0A21A0622A46C5
:1038F000606BFFF73FFF0A2120632A46E06BFFF76A
:1039000039FF4621A063C822606CFFF733FF0A210C
:103910002064C822E06CFFF72DFFA064034800F08C
:10392000BBFB38BD04000020A08601005C520008EB
:1039300038B5224C002160684FF48072FFF71AFFFF
:10394000002120604FF47A72E068FFF713FF002136
:10395000A0604FF47A726069FFF70CFF184D206188
:103960000A212A46E069FFF705FF0A21A0612A46DD
:10397000606AFFF7FFFE0A2120622A46E06AFFF72D
:10398000F9FE0A21A0622A46606BFFF7F3FE0A21C6
:1039900020632A46E06BFFF7EDFE4621A063C822B4
:1039A000606CFFF7E7FE0A212064C822E06CFFF795
:1039B000E1FEA064034800F06FFB38BDB0010020B9
:1039C000A08601007652000810B5144C6068FFF71D
:1039D0002DFE60682168FFF75FFEE068A168FFF7D1
:1039E0005BFE60692169FFF757FEE069A169FFF797
:1039F00053FE606A216AFFF74FFEE06AA16AFFF793
:103A00004BFE606B216BFFF747FEE06BA16BFFF78E
:103A100043FE034800F040FB10BD00BF54000020EF
:103A20009952000810B5144C6068FFF7FFFD6068FC
:103A30002168FFF731FEE068A168FFF72DFE60699D
:103A40002169FFF729FEE069A169FFF725FE606A99
:103A5000216AFFF721FEE06AA16AFFF71DFE606B95
:103A6000216BFFF719FEE06BA16BFFF715FE034812
:103A700000F012FB10BD00BFE0000020AF520008B4
:103A800038B51D4C002160684FF48072FFF772FE5C
:103A9000012120600A22E068FFF76CFE0121A0608E
:103AA0004FF47A726069FFF765FE012120614FF4DF
:103AB0007A62E069FFF75EFE0121A0614FF47A624D
:103AC000606AFFF757FE42F21075206200212A4615
:103AD000E06AFFF74FFE0021A0622A46606BFFF705
:103AE00049FE002120636422E06BFFF743FEA063E0
:103AF000024800F0D1FA38BD54000020CC52000832
:103B000038B51D4C002160684FF48072FFF732FE1B
:103B1000012120600A22E068FFF72CFE0121A0604D
:103B20004FF47A726069FFF725FE012120614FF49E
:103B30007A62E069FFF71EFE0121A0614FF47A620C
:103B4000606AFFF717FE42F21075206200212A46D4
:103B5000E06AFFF70FFE0021A0622A46606BFFF7C4
:103B600009FE002120636422E06BFFF703FEA063DF
:103B7000024800F091FA38BD20010020E35200080D
:103B800010B50C4C0022A0680B4900F0C5FA606823
:103B9000FFF74CFD60682168FFF77EFDE068A168D3
:103BA000FFF77AFD60692169FFF776FD034800F0B1
:103BB00073FA10BD9400002003530008125300084C
:103BC00010B50A4C6068FFF731FD60682168FFF7A7
:103BD00063FDE068A168FFF75FFD60692169FFF799
:103BE0005BFD034800F058FA10BD00BFB000002094
:103BF0003053000838B50C4C002160684FF48072D7
:103C0000FFF7B8FD094D206000212A46E068FFF764
:103C1000B1FD0021A0602A466069FFF7ABFD20617D
:103C2000034800F039FA38BD9400002000286BEEFC
:103C30005753000838B50C4C002160684FF480726F
:103C4000FFF798FD094D206000212A46E068FFF744
:103C500091FD0021A0602A466069FFF78BFD20617D
:103C6000034800F019FA38BDC800002000286BEEA8
:103C70007653000870B50C4D01242C7072B6FFF716
:103C8000B9FFFFF7FDFEFFF707FE62B62E782EB9EB
:103C9000064800F001FA2C70304670BD044800F070
:103CA000FBF92C70204670BD700200209E53000866
:103CB000B7530008F0B5C1B007460D461446684634
:103CC00008494FF4807200F03FFA6E4617F8013B46
:103CD000013D5C40EDB2345D002DF7D1204641B08E
:103CE000F0BD00BFD650000838B572B6FFF7C0FC73
:103CF0004C2100223448FFF7DDFF344B04461860A6
:103D0000FFF794FDFFF714FE4C2100223048FFF727
:103D1000D1FF844203D12F4800F0BEF904E02E48C1
:103D200000F0BAF9FFF782FD3C2100222B48FFF793
:103D3000C1FF00222A49044600F0EEF90022294979
:103D40003C2000F0E9F9284B1C60FFF76BFEFFF701
:103D5000D7FE3C2100222548FFF7ACFF0022204976
:103D6000054600F0D9F93C2000221E4900F0D4F9A4
:103D7000AC4203D11E4800F08FF904E01D4800F06A
:103D80008BF9FFF74FFE142100221B48FFF792FF2B
:103D90001A4B04461860FFF713FFFFF74BFF14217F
:103DA00000221748FFF786FF844203D1154800F030
:103DB00073F904E0144800F06FF9FFF701FFFFF713
:103DC00063FC62B638BD00BF6401002060010020C2
:103DD000B4010020D2530008F7530008E40000208B
:103DE0002754000832540008E0000020240100207D
:103DF0003E54000860540008B4000020B0000020C9
:103E0000CC0000208D540008B754000810B572B6DD
:103E1000142100221048FFF74DFF104B0446186094
:103E2000FFF726FCFFF7ACFEFFF704FF142100228A
:103E30000B48FFF73FFF844203D10A4800F02CF9FA
:103E400004E0094800F028F9FFF79AFEFFF71CFC90
:103E500062B6012010BD00BF980000209400002031
:103E6000CC0000208E540008B854000838B572B653
:103E70003C2100221948FFF71DFF00221849044683
:103E800000F04AF9002217493C2000F045F9164B92
:103E90001C60FFF7EDFBFFF797FDFFF731FE3C21BC
:103EA00000221248FFF706FF00220D49054600F0E8
:103EB00033F93C2000220B4900F02EF9AC4203D12B
:103EC0000B4800F0E9F804E00A4800F0E5F8FFF7D5
:103ED0007BFDFFF7D9FB62B6012038BD58000020FA
:103EE0002854000833540008540000202401002006
:103EF0003F5400086154000810B572B64C210022EE
:103F00001048FFF7D7FE104B04461860FFF7B0FBD0
:103F1000FFF756FCFFF70CFD4C2100220B48FFF782
:103F2000C9FE844203D10A4800F0B6F804E009480B
:103F300000F0B2F8FFF744FCFFF7A6FB62B60120E1
:103F400010BD00BF0800002004000020B4010020C4
:103F5000D3530008F853000830B54FF4164387B028
:103F6000009300231C46ADF80430ADF80630ADF8E0
:103F70000830ADF80C3004200C230121ADF80A30D4
:103F8000FEF704FE01214FF48040FEF7FFFD4FF4E1
:103F9000C063154DADF8103018238DF8133004A907
:103FA000032312488DF81230FCF768FE6946284654
:103FB000FEF7F2FF25238DF814308DF816402223EA
:103FC000012405A88DF815308DF81740FFF7FCFA8D
:103FD00028462146FFF738F8284640F22551224668
:103FE000FFF73EF807B030BD00380140000801403F
:103FF0000A4B1A78C72A0FD85A78094988541A7870
:104000000132D2B21A705A780132D2B25A705A784A
:10401000C82A01D100225A70704700BF8D050020C8
:104020004C07002010B5194C2388980603D5A088AA
:10403000C0B2FFF7DDFF2388144A19061AD5144BC6
:10404000997889B1D9781348415C91809A78013A7E
:10405000D2B29A70DA780132D2B2DA70DA78C82A3B
:1040600008D10022DA7005E0938923F080031B0455
:104070001B0C9381054A13885B0605D5138823F032
:1040800040031B041B0C138010BD00BF003801400F
:104090008D0500201408002010B504460AE00D48E4
:1040A0008021FEF7FAFF0028F9D014F8011B094817
:1040B000FEF7EFFF2378002BF1D106488021FEF7B1
:1040C000ECFF0028F9D003480A21BDE81040FEF7B4
:1040D000E0BF00BF0038014082B0064B8DF80700FA
:1040E0001A885206FCD59DF80720024B9A8002B030
:1040F000704700BF00380140064B1A4605E019889A
:104100004906FCD510F8011B918001780029F6D1F1
:10411000704700BF0038014037B501900C46019848
:1041200012B9FEF7C1FF02E01146FFF731F805466C
:104130002046FFF7E1FF2846FFF7DEFF0A2003B025
:10414000BDE83040FFF7C8BF0F2AF0B43AD941EAC2
:1041500000039B0738D10C46034615462668103DE0
:104160001E6066685E60A6689E60E6681034DE6069
:1041700010330F2DF2D8A2F1100424F00F0402F036
:104180000F021034032A00EB0403214411D90E4618
:104190001D46144656F8047B043C032C45F8047B6A
:1041A000F8D8141F24F00304043402F003020919A0
:1041B0001B192AB111F8014B013A03F8014BF9D14F
:1041C000F0BC70470346F4E70346F3E70000000045
:1041D00000000000000000000000000000000000DF
:1041E0000000000069693A2000513A200043524320
:1041F0002843616C6962726174696F6E29203D00A9
:1042000043616C6962726174696F6E3056616C757E
:1042100065466F7243757272656E74203D0043612E
:104220006C6962726174696F6E3056616C75654657
:104230006F7243757272656E7431203D0043616C1C
:104240006962726174696F6E466F724375727265EE
:104250006E745F6D4131203D0043616C6962726133
:1042600074696F6E466F7243757272656E745F6DBE
:104270006B4131203D0043616C6962726174696F0A
:104280006E466F725F555F505331203D0043616C45
:104290006962726174696F6E466F725F555F5053E9
:1042A00032203D0043616C6962726174696F6E46D1
:1042B0006F725F555F505333203D005265736973D1
:1042C00074616E6365436F6D705F497368756E747A
:1042D0005F5769726573203D00526573697374613D
:1042E0006E6365436F6D705F4D4F53464554203D7F
:1042F000004352432853657474696E677344617454
:104300006129203D004F7074696F6E31286D656EB4
:104310007520706F736974696F6E29203D00436862
:104320006172676554696D65203D004C6F77566F0B
:104330006C74616765203D004D6178566F6C7461E7
:104340006765203D00436861726765416461707410
:10435000203D005377696E675F436872675F7469D9
:104360006D65203D005377696E675F4443687267EF
:104370005F74696D65203D00435243285361766543
:10438000446174615768656E506F7765724F6666F9
:1043900029203D0043757272656E74436F6E7375AC
:1043A0006D7074696F6E356D73203D004375727268
:1043B000656E74436F6E73756D7074696F6E317373
:1043C000203D0000CC410008CC410008344D0008DD
:1043D000344D0008000000000000000020202020D4
:1043E000202020202020202020202020000000004D
:1043F000CC410008CC410008084D0008084D0008D9
:1044000000000000000000002020202020202020AC
:10441000202020202020202000000000CC41000887
:10442000CC410008DC4C0008DC4C00080000000017
:10443000650D000820202020202020202020202082
:104440002020202000000000CC410008CC410008C2
:10445000B04C0008B04C000800000000650D0008DA
:10446000202020202020202020202020202020204C
:1044700000000000CC410008CC410008844C00083A
:10448000844C000800000000C10D000820202020FE
:10449000202020202020202020202020000000009C
:1044A000CC410008CC4100082C4C00082C4C0008E2
:1044B00000000000000000002020202020202020FC
:1044C000202020202020202000000000CC410008D7
:1044D000CC410008004C0008004C0008000000001F
:1044E000000000002020202020202020202020204C
:1044F0002020202000000000CC410008CC41000812
:10450000584C0008584C0008000000000000000053
:10451000202020202020202020202020202020209B
:1045200000000000CC410008CC410008D44B00083A
:10453000D44B0008000000000000000020202020D4
:1045400020202020202020202020202000000000EB
:10455000CC410008CC410008A84B0008A84B00083B
:1045600000000000350D0008202020202020202001
:10457000202020202020202000000000CC41000826
:10458000CC41000898490008984900080000000044
:10459000450D000820202020202020202020202041
:1045A0002020202000000000CC410008CC41000861
:1045B000C4490008C449000800000000450D000877
:1045C00020202020202020202020202020202020EB
:1045D00000000000CC410008CC4100084049000820
:1045E0004049000800000000450D00082020202060
:1045F000202020202020202020202020000000003B
:10460000CC410008CC4100086C4900086C49000806
:1046100000000000450D0008202020202020202040
:10462000202020202020202000000000CC41000875
:10463000CC410008BC480008BC480008000000004D
:10464000450D000800000000CC410008CC410008E6
:10465000E8480008E848000800000000450D000890
:10466000202020202020202020202020202020204A
:1046700000000000CC410008CC41000814490008AB
:104680001449000800000000450D000820202020EB
:10469000202020202020202020202020000000009A
:1046A000CC410008CC410008904800089048000820
:1046B00000000000450D000800000000CC4100088B
:1046C000CC4100086448000864480008000000006D
:1046D0000000000000000000CC410008CC410008B0
:1046E000504B0008504B000800000000410D00082E
:1046F00020202020202020202020202020202020BA
:1047000000000000CC410008CC410008244B000808
:10471000244B0008000000005D0E0008202020202F
:104720002020202020202020202020200000000009
:10473000CC410008CC410008F84A0008F84A0008BB
:1047400000000000410D0008202020202020202013
:10475000202020202020202000000000CC41000844
:10476000CC410008CC4A0008CC4A000800000000F8
:10477000410D000820202020202020202020202063
:104780002020202000000000CC410008CC4100087F
:10479000A04A0008A04A000800000000410D0008DF
:1047A0002020202020202020202020202020202009
:1047B00000000000CC410008CC410008744A000809
:1047C000744A000800000000410D0008202020204D
:1047D0002020202020202020202020200000000059
:1047E000CC410008CC410008484A0008484A00086B
:1047F00000000000410D0008202020202020202063
:10480000202020202020202000000000CC41000893
:10481000CC4100081C4A00081C4A000800000000A7
:104820002D0E0008202020202020202020202020C5
:104830002020202000000000C4490008644800082F
:104840007C4B00087C4B00080000000000000000CA
:104850004F4B20746F206578697420202020202021
:104860000000000038480008904800087C4B000811
:10487000BC46000800000000000000004261636BBD
:1048800020746F20466163746F727920000000000D
:1048900064480008BC4800087C4B0008A04600089B
:1048A000000000000000000052657369737420630B
:1048B0006F6D7020355631410000000090480008AF
:1048C000E84800087C4B00082C4600080000000067
:1048D00000000000566F6C74616765205053202003
:1048E0003132562000000000BC480008144900087E
:1048F0007C4B000848460008000000000000000053
:10490000566F6C7461676520505320203856202004
:1049100000000000E8480008404900087C4B0008FF
:10492000744600080000000000000000566F6C7420
:10493000616765205053202033562020000000007E
:10494000144900086C4900087C4B0008D445000855
:10495000000000000000000043555252454E542014
:104960003130206D6B4120200000000040490008DC
:10497000984900087C4B0008004600080000000031
:104980000000000043555252454E54203130206DF6
:1049900041202020000000006C490008C4490008A4
:1049A0007C4B00087C45000800000000000000006F
:1049B0006E6F742020726561647920202020202091
:1049C0000000000098490008384800087C4B0008A7
:1049D000A845000800000000000000005365742096
:1049E00043757272656E7420746F20300000000091
:1049F000504B00081C4A0008604D0008604D00083C
:104A000000000000000000004F4B20746F2065780C
:104A1000697420202020202000000000F0490008B8
:104A2000484A0008604D00080C48000800000000DB
:104A30000000000030383A53617665204D656E7590
:104A400020506F73000000001C4A0008744A0008E0
:104A5000604D0008E0470008000000000000000072
:104A600030373A43686172676520616464617074CD
:104A700000000000484A0008A04A0008604D0008F5
:104A8000B4470008000000000000000030363A5330
:104A9000776E6744697343687267205400000000B2
:104AA000744A0008CC4A0008604D00088847000896
:104AB000000000000000000030353A5377696E674F
:104AC000204368726720546D00000000A04A00086F
:104AD000F84A0008604D00085C470008000000002C
:104AE0000000000030343A4D617820566F6C7461DC
:104AF0006765202000000000CC4A0008244B000815
:104B0000604D000830470008000000000000000071
:104B100030333A4C6F7720566F6C74616765202094
:104B200000000000F84A0008504B0008604D0008E3
:104B300004470008000000000000000030323A4244
:104B400061747465727920747970652000000000CA
:104B5000244B0008F0490008604D0008D8460008C2
:104B6000000000000000000030313A4368617267C5
:104B7000652074696D65202000000000604D00080C
:104B8000A84B0008CC410008C44900080000000000
:104B90000000000043414C4942524154494F4E20CD
:104BA00020202020000000007C4B0008D44B00088F
:104BB000CC41000850450008000000000000000043
:104BC0004C4F472020202020202020202020202063
:104BD00000000000A84B0008344D0008CC4100083C
:104BE000244500080000000000000000444941473F
:104BF0004E4F535449432020202020200000000025
:104C0000D44B00082C4C0008CC410008CC440008D0
:104C100000000000000000005377696E672020202C
:104C2000202020202020202000000000004C000830
:104C3000584C0008CC410008A044000800000000C7
:104C400000000000547261696E696E6720202020A8
:104C500020202020000000002C4C0008844C00087C
:104C6000CC410008F84400080000000000000000EB
:104C7000436865636B696E674361706163697479EA
:104C800000000000584C0008B04C0008CC4100085F
:104C900074440008000000000000000044697343F1
:104CA000686172676520202020202020000000001D
:104CB000844C0008DC4C0008CC4100084844000843
:104CC0000000000000000000436861726765206119
:104CD000646461707420202000000000B04C000863
:104CE000084D0008CC4100081C44000800000000EA
:104CF000000000004368617267652043432043560B
:104D00002020202000000000DC4C0008344D00086A
:104D1000CC410008F0430008000000000000000043
:104D20004C6F616420202020202020202020202083
:104D300000000000D44B0008604D0008CC41000882
:104D4000C44300080000000000000000506F7765B9
:104D500072537570706C79202020202000000000B4
:104D6000344D00087C4B0008CC410008504B000833
:104D7000000000000000000053657474696E6773E2
:104D800020202020202020200000000043616C69AA
:104D900062726174696F6E006368617267653D007D
:104DA0006D4168002031302E3856202031342E36A7
:104DB00056202020002020332E3056202020342E54
:104DC0003256202020002020322E3856202020333A
:104DD0002E3756202020002020312E36562020202D
:104DE000322E385620202000202020385620203116
:104DF000332E36562020202000202031562020201F
:104E000020323056202020202000695F4C6F6749F7
:104E100074656D733A20004D5265636F726473510F
:104E200075616E746974793A20006D41203E3E20B0
:104E3000736574203020202000466163746F72799E
:104E40002D7072657373203E3E00496E2050726F64
:104E50006363657373202E2E2E2E00466163746F7C
:104E6000727920617265204F4B2020004661637487
:104E70006F727920617265204F4B00454570726FEB
:104E80006D2072656164204641494C0068202020F5
:104E9000003132562050622042617474657279206C
:104EA00020004C6920696F6E202042617474657225
:104EB000792020004C694665506F3420426174743B
:104EC00065727920004C69546F2042617474657278
:104ED00079202020004E494D6820392E3656204238
:104EE00061742E2020004D696E20315620204D41E6
:104EF0005820323056002020204F4B20746F204520
:104F0000786974202000207365632E2020200025FE
:104F10002000562000506F776572537570706C7961
:104F20002020202020004C6F6164204D656E75208C
:104F300020202020202000436861726765204343C1
:104F4000204356202020200043686172676520615D
:104F50006464617074202020004469734368617246
:104F600067652020202020202000547261696E692E
:104F70006E672020202020202020005377696E6754
:104F800020202020202020202020200030006D4FD5
:104F90006D2020202020202000562020006D412060
:104FA0002000754120202020006D4120202020007D
:104FB0007541202020202000356D73200075416848
:104FC00020006D4168200073202020202020202018
:104FD00020202020006820202020202020202020A9
:104FE0002020003173200044497343686172676573
:104FF00000754168317300754168356D7300506FFD
:105000007765724F4646200055206F66663A20004D
:1050100055696E3D002055633D0055707320005565
:105020006F757420004920006D4120006D6B412098
:1050300000523D006D4F6D20006D4F6D20202020EF
:1050400000493A2000555F50533A200055206F75B3
:10505000743A20004F6C6420433D006D416820206D
:10506000202020202020202000454570726F6D20D8
:1050700052656164204641494C00454570726D524D
:105080006561644641494C004B65793A006D413A8F
:10509000006D41723A006D6B413A006D6B41723A9E
:1050A00000437572656E743A00437572656E745490
:1050B000696D65723A007265733A00437572726584
:1050C0006E724361703A0043757272656E7243612D
:1050D000704261743A0000070E091C1B1215383F1C
:1050E000363124232A2D70777E796C6B6265484FA8
:1050F000464154535A5DE0E7EEE9FCFBF2F5D8DF98
:10510000D6D1C4C3CACD90979E998C8B8285A8AF07
:10511000A6A1B4B3BABDC7C0C9CEDBDCD5D2FFF8F7
:10512000F1F6E3E4EDEAB7B0B9BEABACA5A28F8867
:10513000818693949D9A2720292E3B3C35321F1857
:10514000111603040D0A5750595E4B4C45426F68C7
:10515000616673747D7A898E878095929B9CB1B6C7
:10516000BFB8ADAAA3A4F9FEF7F0E5E2EBECC1C627
:10517000CFC8DDDAD3D4696E676075727B7C515617
:105180005F584D4A4344191E171005020B0C212687
:105190002F283D3A33344E49404752555C5B767177
:1051A000787F6A6D64633E39303722252C2B0601E7
:1051B000080F1A1D1413AEA9A0A7B2B5BCBB9691D7
:1051C000989F8A8D8483DED9D0D7C2C5CCCBE6E147
:1051D000E8EFFAFDF4F373697A653A200076616CC2
:1051E0003A20004661696C20746F2072656164200A
:1051F000616464726573733A2000454570726F6D27
:1052000056616C7565206973203A2000464C415305
:10521000485F424153452B313032342A31323320FA
:105220003A200043616C6962726174696F6E5772F3
:10523000697465546F466C617368200043616C69E2
:1052400062726174696F6E466163746F72795772CE
:10525000697465546F466C617368200043616C69C2
:1052600062726174696F6E5265616446726F6D46F9
:105270006C617368200043616C6962726174696F6C
:105280006E5265616446726F6D466C617368466FFD
:1052900072566572696679200053657474696E6729
:1052A000735772697465546F466C6173682000535C
:1052B000657474696E6773466163746F727957724F
:1052C000697465546F466C6173682000536574742B
:1052D000696E67735265616446726F6D466C617387
:1052E00068200053657474696E6773526561644623
:1052F000726F6D466C617368466F7256657269664F
:1053000079200057726974652043206D6148203A06
:105310002000446174615768656E506F7765724F05
:1053200066665772697465546F466C6173682000D5
:10533000446174615768656E506F7765724F666639
:105340005F466163746F72795F5772697465546FF9
:10535000466C6173682000446174615768656E50E3
:105360006F7765724F66665265616446726F6D460F
:105370006C6173682000446174615768656E506F9A
:105380007765724F66665265616446726F6D466CF2
:10539000617368466F72566572696679200052655E
:1053A00061642066726F6D20454570726F6D202DAF
:1053B000204641494C2000526561642066726F6D41
:1053C00020454570726F6D202D2053554343455342
:1053D00053004643616C6962726174696F6E207735
:1053E0007269746520746F20466C617368207375F0
:1053F000636365737320004643616C696272617414
:10540000696F6E20777269746520746F20466C61D5
:105410007368204661696C2C207472792061676121
:10542000696E2E2E2E200046435243206973203A87
:1054300020004653697A65206973203A200046535C
:10544000657474696E677320777269746520746F10
:1054500020466C6173682073756363657373200005
:105460004653657474696E6773207772697465203A
:10547000746F20466C617368204661696C2C2074DF
:10548000727920616761696E2E2E2E20004644617C
:1054900074615768656E506F7765724F66662077E6
:1054A0007269746520746F20466C6173682073752F
:1054B0006363657373200046446174615768656E69
:1054C000506F7765724F66662077726974652074D5
:1054D0006F20466C617368204661696C2C20747281
:0C54E0007920616761696E2E2E2E20007D
:1054EC00CC4100080000000000F0010800000000A2
:1054FC0004F001080000000008F0010800000000A2
:10550C000CF001080000000010F001080000000081
:10551C0014F001080000000018F001080000000061
:10552C001CF001080000000020F001080000000041
:10553C0024F001080000000000EC0108000000004D
:10554C0004EC01080000000008EC01080000000059
:10555C000CEC01080000000010EC01080000000039
:10556C0014EC01080000000018EC01080000000019
:10557C001CEC01080000000000E80108000000001D
:10558C0004E801080000000008E801080100000020
:10559C000000000000E801080000000004E8010819
:1055AC000000000008E801080000000000E8010805
:1055BC000000000004E801080000000008E80108F1
:1055CC000000000000EC01080100000004EC0108E0
:1055DC000F00000008EC01081A0400000CEC010894
:1055EC00AA05000010EC01080A00000014EC0108E8
:1055FC000A00000018EC0108060000001CEC010871
:10560C000000000000EC01080000000004EC0108A0
:10561C000000000008EC0108000000000CEC010880
:10562C000000000010EC01080000000014EC010860
:10563C000000000018EC0108000000001CEC010840
:10564C000000000000F001080000000004F0010858
:10565C000000000008F00108220000000CF0010816
:10566C001500000010F001087C08000014F001087F
:10567C00DE03000018F00108DE0300001CF0010836
:10568C008200000020F001082200000024F0010834
:10569C000000000000F001080000000004F0010808
:1056AC000000000008F00108000000000CF00108E8
:1056BC000000000010F001080000000014F00108C8
:1056CC000000000018F00108000000001CF00108A8
:1056DC000000000020F001080000000024F0010888
:1056EC004103423B3F455D337B404B064D484F5C8D
:1056FC0050435460245805075B5F036904020100A2
:10570C00D6010150534C313430316D6B4120763120
:10571C002E30330001000000B40300200000000014
:10572C000C0300206404002000000000BC030020D7
:10573C0014050020000000006C0400200000000094
:10574C000102030401020304060708090204060807
:04575C000100000048
:0400000508000000EF
:00000001FF
